{"abi":[{"type":"constructor","inputs":[],"stateMutability":"nonpayable"},{"type":"function","name":"BUY_FEE","inputs":[],"outputs":[{"name":"","type":"uint16","internalType":"uint16"}],"stateMutability":"view"},{"type":"function","name":"SELL_FEE","inputs":[],"outputs":[{"name":"","type":"uint16","internalType":"uint16"}],"stateMutability":"view"},{"type":"function","name":"buy","inputs":[{"name":"_inputAmount","type":"uint256","internalType":"uint256"},{"name":"_receiver","type":"address","internalType":"address"}],"outputs":[],"stateMutability":"nonpayable"},{"type":"function","name":"getBuyNuma","inputs":[{"name":"_amount","type":"uint256","internalType":"uint256"}],"outputs":[{"name":"","type":"uint256","internalType":"uint256"}],"stateMutability":"view"},{"type":"function","name":"getBuyNumaSimulateExtract","inputs":[{"name":"_amount","type":"uint256","internalType":"uint256"}],"outputs":[{"name":"","type":"uint256","internalType":"uint256"}],"stateMutability":"view"},{"type":"function","name":"getSellNuma","inputs":[{"name":"_amount","type":"uint256","internalType":"uint256"}],"outputs":[{"name":"","type":"uint256","internalType":"uint256"}],"stateMutability":"view"},{"type":"function","name":"getSellNumaSimulateExtract","inputs":[{"name":"_amount","type":"uint256","internalType":"uint256"}],"outputs":[{"name":"","type":"uint256","internalType":"uint256"}],"stateMutability":"view"},{"type":"function","name":"sell","inputs":[{"name":"_numaAmount","type":"uint256","internalType":"uint256"},{"name":"_receiver","type":"address","internalType":"address"}],"outputs":[],"stateMutability":"nonpayable"}],"bytecode":{"object":"0x60808060405234610029576303b603b663ffffffff1960005416176000556101e3908161002f8239f35b600080fdfe60806040908082526004908136101561001757600080fd5b600090813560e01c90816327b9bb9c14610162575080632ce47bd6146101425780634189a68e146100e95780634773a6a91461012157806379a74ff7146100ee5780637deb6025146100e9578063e58613541461009f5763ea417ac51461007d57600080fd5b3461009c57602036600319011261009c57506032602092519135048152f35b80fd5b5082346100e55760203660031901126100e5578235916032830292808404603214901517156100d2576020838351908152f35b634e487b7160e01b815260118452602490fd5b5080fd5b610183565b5082346100e55760203660031901126100e557823591602a830292808404602a14901517156100d2576020838351908152f35b5082346100e557816003193601126100e55761ffff60209254169051908152f35b503461009c57602036600319011261009c5750602a602092519135048152f35b9050346100e557816003193601126100e55761ffff6020925460101c168152f35b346101a85760403660031901126101a8576024356001600160a01b038116036101a857005b600080fdfea2646970667358221220c91d63b126b0cd3673bd27036bccf72ed7f02563349cb2c994f47dea5622058e64736f6c63430008140033","linkReferences":{}},"methodIdentifiers":{"BUY_FEE()":"27b9bb9c","SELL_FEE()":"4773a6a9","buy(uint256,address)":"7deb6025","getBuyNuma(uint256)":"79a74ff7","getBuyNumaSimulateExtract(uint256)":"e5861354","getSellNuma(uint256)":"2ce47bd6","getSellNumaSimulateExtract(uint256)":"ea417ac5","sell(uint256,address)":"4189a68e"},"id":21}