{"abi":[{"type":"constructor","inputs":[{"name":"_uptimeFeedAddress","type":"address","internalType":"address"}],"stateMutability":"nonpayable"},{"type":"function","name":"addNuAsset","inputs":[{"name":"_assetAddress","type":"address","internalType":"address"},{"name":"_pricefeed","type":"address","internalType":"address"}],"outputs":[],"stateMutability":"nonpayable"},{"type":"function","name":"contains","inputs":[{"name":"_assetAddress","type":"address","internalType":"address"}],"outputs":[{"name":"","type":"bool","internalType":"bool"}],"stateMutability":"view"},{"type":"function","name":"getNuAssetList","inputs":[],"outputs":[{"name":"","type":"address[]","internalType":"address[]"}],"stateMutability":"view"},{"type":"function","name":"getPriceInEth","inputs":[{"name":"_amount","type":"uint256","internalType":"uint256"},{"name":"_pricefeed","type":"address","internalType":"address"},{"name":"_chainlink_heartbeat","type":"uint128","internalType":"uint128"},{"name":"_decimals","type":"uint256","internalType":"uint256"}],"outputs":[{"name":"EthValue","type":"uint256","internalType":"uint256"}],"stateMutability":"view"},{"type":"function","name":"getPriceInEthRoundUp","inputs":[{"name":"_amount","type":"uint256","internalType":"uint256"},{"name":"_pricefeed","type":"address","internalType":"address"},{"name":"_chainlink_heartbeat","type":"uint128","internalType":"uint128"},{"name":"_decimals","type":"uint256","internalType":"uint256"}],"outputs":[{"name":"EthValue","type":"uint256","internalType":"uint256"}],"stateMutability":"view"},{"type":"function","name":"getTokenPerEth","inputs":[{"name":"_ethAmount","type":"uint256","internalType":"uint256"},{"name":"_pricefeed","type":"address","internalType":"address"},{"name":"_chainlink_heartbeat","type":"uint128","internalType":"uint128"},{"name":"_decimals","type":"uint256","internalType":"uint256"}],"outputs":[{"name":"tokenAmount","type":"uint256","internalType":"uint256"}],"stateMutability":"view"},{"type":"function","name":"getTokenPerEthRoundUp","inputs":[{"name":"_ethAmount","type":"uint256","internalType":"uint256"},{"name":"_pricefeed","type":"address","internalType":"address"},{"name":"_chainlink_heartbeat","type":"uint128","internalType":"uint128"},{"name":"_decimals","type":"uint256","internalType":"uint256"}],"outputs":[{"name":"tokenAmount","type":"uint256","internalType":"uint256"}],"stateMutability":"view"},{"type":"function","name":"getTotalSynthValueEth","inputs":[],"outputs":[{"name":"","type":"uint256","internalType":"uint256"}],"stateMutability":"view"},{"type":"function","name":"nuAssetInfos","inputs":[{"name":"","type":"address","internalType":"address"}],"outputs":[{"name":"feed","type":"address","internalType":"address"},{"name":"index","type":"uint256","internalType":"uint256"}],"stateMutability":"view"},{"type":"function","name":"nuAssetList","inputs":[{"name":"","type":"uint256","internalType":"uint256"}],"outputs":[{"name":"","type":"address","internalType":"address"}],"stateMutability":"view"},{"type":"error","name":"GracePeriodNotOver","inputs":[]},{"type":"error","name":"SequencerDown","inputs":[]}],"bytecode":{"object":"0x60803461007457601f6119c238819003918201601f19168301916001600160401b038311848410176100795780849260209460405283398101031261007457516001600160a01b0381169081900361007457600080546001600160a01b03191691909117905560405161193290816100908239f35b600080fd5b634e487b7160e01b600052604160045260246000fdfe608080604052600436101561001357600080fd5b60003560e01c9081631a6719a514610f4f575080632623b25c14610f0957806339da2ce714610e415780635dbe47e814610e02578063707a15b914610b6b57806374599fef146108c9578063c467707614610632578063dca402bf1461046a578063dde645ae146100d45763fdf515b51461008d57600080fd5b346100cf5760203660031901126100cf576004356002548110156100cf576100b660209161145e565b905460405160039290921b1c6001600160a01b03168152f35b600080fd5b346100cf576100e236611420565b6000546001600160a01b0394919392908516806103db575b50604051633fabe5a360e21b815283861660a082600481845afa9485156102815760009260009460009160009861038d575b50906101446001600160801b0361014b931642611557565b1115611564565b6040516309169eff60e21b8152602098908981600481875afa90811561028157600091610360575b50604051630455b78f60e31b81529491168985600481845afa8015610281578a95600091610343575b5060170b861390816102cc575b506004976101da93926101be6101d5936115da565b69ffffffffffffffffffff80911691161015611618565b6116a7565b1561028d5760405163313ce56760e01b815294859182905afa928315610281576102169361021091600091610254575b50611664565b91611836565b905b601203906012821161023e5761023061023692611675565b90611683565b604051908152f35b634e487b7160e01b600052601160045260246000fd5b6102749150873d891161027a575b61026c81836114ab565b8101906114f2565b8761020a565b503d610262565b6040513d6000823e3d90fd5b60405163313ce56760e01b815294929392859182905afa928315610281576102c6936102c0916000916102545750611664565b90611836565b90610218565b60049392959150604051938480926370da2f6760e01b82525afa8015610281576004978a956101be6101d5936101da96600091610316575b5060170b8912935050929350976101a9565b6103369150893d8b1161033c575b61032e81836114ab565b8101906115c1565b8e610304565b503d610324565b61035a9150863d881161033c5761032e81836114ab565b8b61019c565b61038091508a3d8c11610386575b61037881836114ab565b8101906115a2565b8a610173565b503d61036e565b6103c391985061014496506001600160801b03955061014b925060a03d81116103d4575b6103bb81836114ab565b810190611522565b9a929893975093509091905061012c565b503d6103b1565b60a060049160405192838092633fabe5a360e21b82525afa90811561028157600090600092610446575b5061043557610417610e109142611557565b111561042357856100fa565b60405163d15f73b560e01b8152600490fd5b60405162032b3d60e81b8152600490fd5b9050610460915060a03d81116103d4576103bb81836114ab565b5050915087610405565b346100cf5760403660031901126100cf5761048361140a565b6024906001600160a01b03823581811692908390036100cf5781169081156105ee5782156105aa5760025460c8811015610572576801000000000000000081101561055d578060016104d8920160025561145e565b81549060031b908385831b921b191617905560025491604051936040850185811067ffffffffffffffff8211176105485760019596506040528552602085019283526000528260205260406000209351166bffffffffffffffffffffffff60a01b84541617835551910155600080f35b86634e487b7160e01b60005260416004526000fd5b84634e487b7160e01b60005260416004526000fd5b60405162461bcd60e51b81526020600482015260118187015270746f6f206d616e79206e7541737365747360781b6044820152606490fd5b60405162461bcd60e51b815260206004820152601a818601527f696e76616c6964207072696365206665656420616464726573730000000000006044820152606490fd5b60405162461bcd60e51b8152602060048201526017818601527f696e76616c6964206e75617373657420616464726573730000000000000000006044820152606490fd5b346100cf5761064036611420565b6000546001600160a01b0394919392919085168061085d575b50604051633fabe5a360e21b815283861660a082600481845afa9485156102815760009260009560009160009861081f575b50906101446001600160801b036106a3931642611557565b6040516309169eff60e21b8152602098908981600481875afa90811561028157600091610802575b50604051630455b78f60e31b81529491168985600481845afa8015610281578a956000916107e5575b5060170b8713908161077e575b5060049761071693926101be6101d5936115da565b1561074b5760405163313ce56760e01b815294859182905afa92831561028157610216936102c0916000916102545750611664565b60405163313ce56760e01b815294929392859182905afa928315610281576102c693610210916000916102545750611664565b60049392959150604051938480926370da2f6760e01b82525afa8015610281576004978a956101be6101d593610716966000916107c8575b5060170b8a1293505092935097610701565b6107df9150893d8b1161033c5761032e81836114ab565b8e6107b6565b6107fc9150863d881161033c5761032e81836114ab565b8b6106f4565b61081991508a3d8c116103865761037881836114ab565b8a6106cb565b61084c91985061014497506001600160801b0395506106a3925060a03d81116103d4576103bb81836114ab565b9a929993975093509091905061068b565b60a060049160405192838092633fabe5a360e21b82525afa908115610281576000906000926108a5575b5061043557610899610e109142611557565b11156104235785610659565b90506108bf915060a03d81116103d4576103bb81836114ab565b5050915087610887565b346100cf576108d736611420565b6000546001600160a01b039491939290851680610aff575b50604051633fabe5a360e21b815283861660a082600481845afa94851561028157600092600094600091600098610ac1575b50906101446001600160801b03610939931642611557565b6040516309169eff60e21b8152602098908981600481875afa90811561028157600091610aa4575b50604051630455b78f60e31b81529491168985600481845afa8015610281578a95600091610a87575b5060170b86139081610a20575b506004976109ac93926101be6101d5936115da565b156109e75760405163313ce56760e01b815294859182905afa92831561028157610216936109e1916000916102545750611664565b916118b9565b60405163313ce56760e01b815294929392859182905afa928315610281576102c693610a1a916000916102545750611664565b906118b9565b60049392959150604051938480926370da2f6760e01b82525afa8015610281576004978a956101be6101d5936109ac96600091610a6a575b5060170b891293505092935097610997565b610a819150893d8b1161033c5761032e81836114ab565b8e610a58565b610a9e9150863d881161033c5761032e81836114ab565b8b61098a565b610abb91508a3d8c116103865761037881836114ab565b8a610961565b610aee91985061014496506001600160801b039550610939925060a03d81116103d4576103bb81836114ab565b9a9298939750935090919050610921565b60a060049160405192838092633fabe5a360e21b82525afa90811561028157600090600092610b47575b5061043557610b3b610e109142611557565b111561042357856108ef565b9050610b61915060a03d81116103d4576103bb81836114ab565b5050915087610b29565b346100cf57610b7936611420565b6000546001600160a01b03949193929190851680610d96575b50604051633fabe5a360e21b815283861660a082600481845afa94851561028157600092600095600091600098610d58575b50906101446001600160801b03610bdc931642611557565b6040516309169eff60e21b8152602098908981600481875afa90811561028157600091610d3b575b50604051630455b78f60e31b81529491168985600481845afa8015610281578a95600091610d1e575b5060170b87139081610cb7575b50600497610c4f93926101be6101d5936115da565b15610c845760405163313ce56760e01b815294859182905afa9283156102815761021693610a1a916000916102545750611664565b60405163313ce56760e01b815294929392859182905afa928315610281576102c6936109e1916000916102545750611664565b60049392959150604051938480926370da2f6760e01b82525afa8015610281576004978a956101be6101d593610c4f96600091610d01575b5060170b8a1293505092935097610c3a565b610d189150893d8b1161033c5761032e81836114ab565b8e610cef565b610d359150863d881161033c5761032e81836114ab565b8b610c2d565b610d5291508a3d8c116103865761037881836114ab565b8a610c04565b610d8591985061014497506001600160801b039550610bdc925060a03d81116103d4576103bb81836114ab565b9a9299939750935090919050610bc4565b60a060049160405192838092633fabe5a360e21b82525afa90811561028157600090600092610dde575b5061043557610dd2610e109142611557565b11156104235785610b92565b9050610df8915060a03d81116103d4576103bb81836114ab565b5050915087610dc0565b346100cf5760203660031901126100cf576001600160a01b03610e2361140a565b16600052600160205260206001604060002001541515604051908152f35b346100cf5760003660031901126100cf57604051806002548083526020809301809160026000527f405787fa12a823e0f2b7631cc41b3ba8828b3321ca811111fa75cd3aa3bb5ace9060005b86828210610eec578686610ea3828803836114ab565b604051928392818401908285525180915260408401929160005b828110610ecc57505050500390f35b83516001600160a01b031685528695509381019392810192600101610ebd565b83546001600160a01b031685529093019260019283019201610e8d565b346100cf5760203660031901126100cf5760406001600160a01b0380610f2d61140a565b1660005260016020526001826000209182541691015482519182526020820152f35b346100cf5760003660031901126100cf5760025460009160c882116113c8575060008054909291906001600160a01b0316801515905b828510610f9757602084604051908152f35b90919260206004610fa78761145e565b90546040516318160ddd60e01b81526003949093909284928391871b1c6001600160a01b03165afa90811561028157600091611396575b50610fe88761145e565b90546001600160a01b0391841b1c81166000908152600160205260409020541690811561135857602060049361101d8a61145e565b905460405163313ce56760e01b815296879390928492911b1c6001600160a01b03165afa928315610281578690600094611337575b506112bf575b60405190633fabe5a360e21b825260a0928383600481845afa93841561028157600090600094600091600097611294575b5050426201517f1981011161023e576110aa90426201517f19011115611564565b6040516309169eff60e21b815294602086600481865afa95861561028157600096611273575b50604051630455b78f60e31b8152956020876004816001600160a01b0385165afa801561028157600497600091611254575b5060170b861390816111ed575b50916101be61111d936115da565b611126816116a7565b156111b3576020906040519485809263313ce56760e01b82525afa9283156102815761115d936102c0916000916111945750611664565b60ff60129216820391821161023e5761023061117892611675565b810180911161023e5761118b90946114e3565b93929190610f85565b6111ad915060203d60201161027a5761026c81836114ab565b8b61020a565b6020906040939293519485809263313ce56760e01b82525afa928315610281576111e893610210916000916111945750611664565b61115d565b6040516370da2f6760e01b81529760209250889182906001600160a01b03165afa918215610281576101be61111d93600498600091611235575b5060170b871291935061110f565b61124e915060203d60201161033c5761032e81836114ab565b8f611227565b61126d915060203d60201161033c5761032e81836114ab565b8e611102565b61128d91965060203d6020116103865761037881836114ab565b948c6110d0565b9250929450506112b1929450803d106103d4576103bb81836114ab565b959294929391508c80611089565b604051633fabe5a360e21b815260a080826004818a5afa91821561028157600091600093611312575b5050610435576112fb610e109142611557565b116110585760405163d15f73b560e01b8152600490fd5b61132c935080919250903d106103d4576103bb81836114ab565b505091508a806112e8565b61135191945060203d60201161027a5761026c81836114ab565b9289611052565b60405162461bcd60e51b815260206004820152601660248201527518dd5c9c995b98de481b9bdd081cdd5c1c1bdc9d195960521b6044820152606490fd5b90506020813d6020116113c0575b816113b1602093836114ab565b810103126100cf575187610fde565b3d91506113a4565b62461bcd60e51b815260206004820152601960248201527f746f6f206d616e79206e7541737365747320696e206c697374000000000000006044820152606490fd5b600435906001600160a01b03821682036100cf57565b60809060031901126100cf57600435906024356001600160a01b03811681036100cf57906044356001600160801b03811681036100cf579060643590565b6002548110156114955760026000527f405787fa12a823e0f2b7631cc41b3ba8828b3321ca811111fa75cd3aa3bb5ace0190600090565b634e487b7160e01b600052603260045260246000fd5b90601f8019910116810190811067ffffffffffffffff8211176114cd57604052565b634e487b7160e01b600052604160045260246000fd5b600019811461023e5760010190565b908160209103126100cf575160ff811681036100cf5790565b519069ffffffffffffffffffff821682036100cf57565b908160a09103126100cf576115368161150b565b9160208201519160408101519161155460806060840151930161150b565b90565b9190820391821161023e57565b1561156b57565b60405162461bcd60e51b815260206004820152600f60248201526e14dd185b19481c1c9a58d959995959608a1b6044820152606490fd5b908160209103126100cf57516001600160a01b03811681036100cf5790565b908160209103126100cf57518060170b81036100cf5790565b156115e157565b60405162461bcd60e51b815260206004820152600f60248201526e1b5a5b8bdb585e081c995858da1959608a1b6044820152606490fd5b1561161f57565b60405162461bcd60e51b815260206004820152601960248201527f416e7377657220676976656e206265666f726520726f756e64000000000000006044820152606490fd5b60ff16604d811161023e57600a0a90565b604d811161023e57600a0a90565b8181029291811591840414171561023e57565b908151811015611495570160200190565b60408051633942720b60e11b815291600091908290849060049082906001600160a01b03165afa92831561182b57829361176f575b508051908082019082821067ffffffffffffffff83111761175b57526003928382526208aa8960eb1b6020830152825b84811061171d575050505050600190565b6001600160f81b0319806117318385611696565b51169061173e8386611696565b5116036117535761174e906114e3565b61170c565b505050905090565b634e487b7160e01b84526041600452602484fd5b9092503d8083833e61178181836114ab565b810190602090818184031261182757805167ffffffffffffffff91828211611823570183601f8201121561180b57805191821161180f578551936117ce601f8401601f19168501866114ab565b82855283838301011161180b5790849291835b8281106117f55750508301015291386116dc565b81810184015186820185015286945083016117e1565b8480fd5b634e487b7160e01b85526041600452602485fd5b8580fd5b8380fd5b5051903d90823e3d90fd5b9160001982840992828102928380861095039480860395146118ab57848311156100cf5782910981806000031680920460028082600302188083028203028083028203028083028203028083028203028083028203028092029003029360018380600003040190848311900302920304170290565b5050809250156100cf570490565b9291906118c7828286611836565b9382156118e657096118d557565b906000198110156100cf5760010190565b634e487b7160e01b600052601260045260246000fdfea2646970667358221220fc9a9f3411f368ff7aec2e459eeb549c813745d6698859b3874950f8ee58587d64736f6c63430008140033","linkReferences":{}},"methodIdentifiers":{"addNuAsset(address,address)":"dca402bf","contains(address)":"5dbe47e8","getNuAssetList()":"39da2ce7","getPriceInEth(uint256,address,uint128,uint256)":"c4677076","getPriceInEthRoundUp(uint256,address,uint128,uint256)":"707a15b9","getTokenPerEth(uint256,address,uint128,uint256)":"dde645ae","getTokenPerEthRoundUp(uint256,address,uint128,uint256)":"74599fef","getTotalSynthValueEth()":"1a6719a5","nuAssetInfos(address)":"2623b25c","nuAssetList(uint256)":"fdf515b5"},"id":23}