{"abi":[{"type":"constructor","inputs":[{"name":"_name","type":"string","internalType":"string"},{"name":"_vertexUtilization","type":"uint256","internalType":"uint256"},{"name":"_vertexRatePercentOfDelta","type":"uint256","internalType":"uint256"},{"name":"_minUtil","type":"uint256","internalType":"uint256"},{"name":"_maxUtil","type":"uint256","internalType":"uint256"},{"name":"_zeroUtilizationRate","type":"uint256","internalType":"uint256"},{"name":"_minFullUtilizationRate","type":"uint256","internalType":"uint256"},{"name":"_maxFullUtilizationRate","type":"uint256","internalType":"uint256"},{"name":"_rateHalfLife","type":"uint256","internalType":"uint256"},{"name":"_owner","type":"address","internalType":"address"}],"stateMutability":"nonpayable"},{"type":"function","name":"MAX_FULL_UTIL_RATE","inputs":[],"outputs":[{"name":"","type":"uint256","internalType":"uint256"}],"stateMutability":"view"},{"type":"function","name":"MAX_TARGET_UTIL","inputs":[],"outputs":[{"name":"","type":"uint256","internalType":"uint256"}],"stateMutability":"view"},{"type":"function","name":"MIN_FULL_UTIL_RATE","inputs":[],"outputs":[{"name":"","type":"uint256","internalType":"uint256"}],"stateMutability":"view"},{"type":"function","name":"MIN_TARGET_UTIL","inputs":[],"outputs":[{"name":"","type":"uint256","internalType":"uint256"}],"stateMutability":"view"},{"type":"function","name":"RATE_HALF_LIFE","inputs":[],"outputs":[{"name":"","type":"uint256","internalType":"uint256"}],"stateMutability":"view"},{"type":"function","name":"RATE_PREC","inputs":[],"outputs":[{"name":"","type":"uint256","internalType":"uint256"}],"stateMutability":"view"},{"type":"function","name":"UTIL_PREC","inputs":[],"outputs":[{"name":"","type":"uint256","internalType":"uint256"}],"stateMutability":"view"},{"type":"function","name":"VERTEX_RATE_PERCENT","inputs":[],"outputs":[{"name":"","type":"uint256","internalType":"uint256"}],"stateMutability":"view"},{"type":"function","name":"VERTEX_UTILIZATION","inputs":[],"outputs":[{"name":"","type":"uint256","internalType":"uint256"}],"stateMutability":"view"},{"type":"function","name":"ZERO_UTIL_RATE","inputs":[],"outputs":[{"name":"","type":"uint256","internalType":"uint256"}],"stateMutability":"view"},{"type":"function","name":"blocksPerYear","inputs":[],"outputs":[{"name":"","type":"uint256","internalType":"uint256"}],"stateMutability":"view"},{"type":"function","name":"getBorrowRate","inputs":[{"name":"cash","type":"uint256","internalType":"uint256"},{"name":"borrows","type":"uint256","internalType":"uint256"},{"name":"reserves","type":"uint256","internalType":"uint256"},{"name":"deltaTime","type":"uint256","internalType":"uint256"},{"name":"_OldfullUtilizationRate","type":"uint256","internalType":"uint256"}],"outputs":[{"name":"_newRatePerBlock","type":"uint256","internalType":"uint256"},{"name":"_newFullUtilizationInterest","type":"uint256","internalType":"uint256"}],"stateMutability":"view"},{"type":"function","name":"getSupplyRate","inputs":[{"name":"cash","type":"uint256","internalType":"uint256"},{"name":"borrows","type":"uint256","internalType":"uint256"},{"name":"reserves","type":"uint256","internalType":"uint256"},{"name":"reserveFactorMantissa","type":"uint256","internalType":"uint256"},{"name":"deltaTime","type":"uint256","internalType":"uint256"},{"name":"fullUtilizationRate","type":"uint256","internalType":"uint256"}],"outputs":[{"name":"","type":"uint256","internalType":"uint256"}],"stateMutability":"view"},{"type":"function","name":"isInterestRateModel","inputs":[],"outputs":[{"name":"","type":"bool","internalType":"bool"}],"stateMutability":"view"},{"type":"function","name":"name","inputs":[],"outputs":[{"name":"","type":"string","internalType":"string"}],"stateMutability":"view"},{"type":"function","name":"owner","inputs":[],"outputs":[{"name":"","type":"address","internalType":"address"}],"stateMutability":"view"},{"type":"function","name":"renounceOwnership","inputs":[],"outputs":[],"stateMutability":"nonpayable"},{"type":"function","name":"transferOwnership","inputs":[{"name":"newOwner","type":"address","internalType":"address"}],"outputs":[],"stateMutability":"nonpayable"},{"type":"function","name":"utilizationRate","inputs":[{"name":"cash","type":"uint256","internalType":"uint256"},{"name":"borrows","type":"uint256","internalType":"uint256"},{"name":"reserves","type":"uint256","internalType":"uint256"}],"outputs":[{"name":"","type":"uint256","internalType":"uint256"}],"stateMutability":"pure"},{"type":"event","name":"OwnershipTransferred","inputs":[{"name":"previousOwner","type":"address","indexed":true,"internalType":"address"},{"name":"newOwner","type":"address","indexed":true,"internalType":"address"}],"anonymous":false},{"type":"error","name":"OwnableInvalidOwner","inputs":[{"name":"owner","type":"address","internalType":"address"}]},{"type":"error","name":"OwnableUnauthorizedAccount","inputs":[{"name":"account","type":"address","internalType":"address"}]}],"bytecode":{"object":"0x61018060405234620003425762000e20803803806200001e816200035b565b928339810190610140918282820312620003425781516001600160401b0393908481116200034257830191601f81818501121562000342578351958087116200031357602090601f1995620000798388868c0116016200035b565b94898652838a83010111620003425760005b8981106200034757505060008288998601015281870151604088015196606089015160808a01519160a08b01519460c08c01519660e08d0151986101009e8f01519a6101209e8f015160018060a01b038082168092036200034257811562000329576000548260018060a01b0319821617600055167f8be0079c531659141344cd1fd0a4f28419497f9722a3daafe3b4186f6b6457e0600080a380519384116200031357600254926001938481811c9116801562000308575b82821014620002f257838111620002a6575b50809285116001146200023b5750839450908392916000946200022f575b50501b916000199060031b1c1916176002555b60805260a05260c052865260e0528552815261016091825260405192610a9e94856200038286396080518581816101fa0152610752015260a05185818161039e015261096f015260c05185818161019c01526108af015260e05185818161045c015261093101525184818161064a015261081401525183818161027501526108450152518281816104b3015281816107b901526109e001525181818161023501526108810152f35b01519250388062000174565b929484908116600260005284600020946000905b888383106200028b575050501062000271575b505050811b0160025562000187565b015160001960f88460031b161c1916905538808062000262565b8587015188559096019594850194879350908101906200024f565b6002600052816000208480880160051c820192848910620002e8575b0160051c019085905b828110620002db57505062000156565b60008155018590620002cb565b92508192620002c2565b634e487b7160e01b600052602260045260246000fd5b90607f169062000144565b634e487b7160e01b600052604160045260246000fd5b604051631e4fbdf760e01b815260006004820152602490fd5b600080fd5b81810184015186820185015283016200008b565b6040519190601f01601f191682016001600160401b03811183821017620003135760405256fe608060408181526004908136101561001657600080fd5b600092833560e01c9081624c98af146106335750806306fdde03146104d657806317784ca41461049b5780632191f92a1461047f57806331bf879d1461044457806333d7bb65146103c157806340797eda14610386578063423989e41461034c5780636cd3cc77146102585780636e71e2d81461031d578063715018a6146102c05780638da5cb5b146102985780638e75618c1461025d57806391474c491461025857806395da99fc1461021d5780639c073270146101e2578063a385fb96146101c3578063c4168125146101845763f2fde38b146100f457600080fd5b34610180576020366003190112610180576001600160a01b0382358181169391929084900361017c57610125610a3c565b831561016657505082546001600160a01b0319811683178455167f8be0079c531659141344cd1fd0a4f28419497f9722a3daafe3b4186f6b6457e08380a380f35b51631e4fbdf760e01b8152908101849052602490fd5b8480fd5b8280fd5b8382346101bf57816003193601126101bf57602090517f00000000000000000000000000000000000000000000000000000000000000008152f35b5080fd5b8382346101bf57816003193601126101bf576020906001549051908152f35b8382346101bf57816003193601126101bf57602090517f00000000000000000000000000000000000000000000000000000000000000008152f35b8382346101bf57816003193601126101bf57602090517f00000000000000000000000000000000000000000000000000000000000000008152f35b61066d565b8382346101bf57816003193601126101bf57602090517f00000000000000000000000000000000000000000000000000000000000000008152f35b8382346101bf57816003193601126101bf57905490516001600160a01b039091168152602090f35b833461031a578060031936011261031a576102d9610a3c565b80546001600160a01b03198116825581906001600160a01b03167f8be0079c531659141344cd1fd0a4f28419497f9722a3daafe3b4186f6b6457e08280a380f35b80fd5b50823461031a57606036600319011261031a57506103456020926044359060243590356106f8565b9051908152f35b50913461031a5760a036600319011261031a575061037a906084359060643590604435906024359035610744565b82519182526020820152f35b8382346101bf57816003193601126101bf57602090517f00000000000000000000000000000000000000000000000000000000000000008152f35b50823461031a5760c036600319011261031a57823560243560443590670de0b6b3a76400009360643585039085821161043157602087876104298861042489898561041d8b61041760a43560843587878b610744565b50610695565b04936106f8565b610695565b049051908152f35b634e487b7160e01b815260118852602490fd5b8382346101bf57816003193601126101bf57602090517f00000000000000000000000000000000000000000000000000000000000000008152f35b8382346101bf57816003193601126101bf576020905160018152f35b8382346101bf57816003193601126101bf57602090517f00000000000000000000000000000000000000000000000000000000000000008152f35b503461018057826003193601126101805780518360025460019581871c878316978815610629575b6020938483108a1461061657848798999a84895291826000146105fa5750506001146105a6575b5050601f801995869203011683019583871067ffffffffffffffff881117610593575085929391838652818452845191828186015281955b83871061057b5750508394508582601f949501015201168101030190f35b8681018201518988018901529581019588955061055d565b634e487b7160e01b835260419052602482fd5b600285528492507f405787fa12a823e0f2b7631cc41b3ba8828b3321ca811111fa75cd3aa3bb5ace5b8284106105e457505050830181013880610525565b80548885018601528796509284019281016105cf565b925093505060ff191682860152151560051b8401013880610525565b634e487b7160e01b865260228952602486fd5b90607f16906104fe565b8490346101bf57816003193601126101bf576020907f00000000000000000000000000000000000000000000000000000000000000008152f35b34610690576000366003190112610690576020604051670de0b6b3a76400008152f35b600080fd5b818102929181159184041417156106a857565b634e487b7160e01b600052601160045260246000fd5b919082018092116106a857565b919082039182116106a857565b81156106e2570490565b634e487b7160e01b600052601260045260246000fd5b9190801561073c57670de0b6b3a7640000810291670de0b6b3a763ffff19828404016106a85761072e61073392610739956106be565b6106cb565b906106d8565b90565b505050600090565b9061074f92916106f8565b917f00000000000000000000000000000000000000000000000000000000000000008084101561096c5761078384826106cb565b90670de0b6b3a7640000918281029281840414901517156106a8576107a7916106d8565b6ec097ce7bc90715b34b9f10000000007f00000000000000000000000000000000000000000000000000000000000000008181029181159183041417156106a8576108056107ff610810956104248561080b96610695565b826106be565b92610695565b6106d8565b905b7f00000000000000000000000000000000000000000000000000000000000000008083111561092e5791506108a6905b827f0000000000000000000000000000000000000000000000000000000000000000916108ac8361087381856106cb565b670de0b6b3a76400009687917f000000000000000000000000000000000000000000000000000000000000000090610695565b046106be565b937f0000000000000000000000000000000000000000000000000000000000000000928383116108fc5750509061080b6108f3926108ed856108f9976106cb565b90610695565b906106be565b91565b909493506108ed8461091185610917956106cb565b926106cb565b9083039283116106a8576108f9926108f3916106d8565b507f0000000000000000000000000000000000000000000000000000000000000000808310610962575b506108a690610842565b91506108a6610958565b507f000000000000000000000000000000000000000000000000000000000000000080841115610a33576109a081856106cb565b90670de0b6b3a764000090818302928084048314901517156106a85781039081116106a8576109ce916106d8565b6ec097ce7bc90715b34b9f10000000007f0000000000000000000000000000000000000000000000000000000000000000818102939181159185041417156106a8576108ed610a27610a2d956104248561080b96610695565b846106be565b90610812565b50905090610812565b6000546001600160a01b03163303610a5057565b60405163118cdaa760e01b8152336004820152602490fdfea2646970667358221220d50100ade4eb21ae948e6246016cf106655c37eb4100c4673e27df01d61f4baa64736f6c63430008140033","linkReferences":{}},"methodIdentifiers":{"MAX_FULL_UTIL_RATE()":"004c98af","MAX_TARGET_UTIL()":"40797eda","MIN_FULL_UTIL_RATE()":"31bf879d","MIN_TARGET_UTIL()":"9c073270","RATE_HALF_LIFE()":"17784ca4","RATE_PREC()":"91474c49","UTIL_PREC()":"6cd3cc77","VERTEX_RATE_PERCENT()":"95da99fc","VERTEX_UTILIZATION()":"c4168125","ZERO_UTIL_RATE()":"8e75618c","blocksPerYear()":"a385fb96","getBorrowRate(uint256,uint256,uint256,uint256,uint256)":"423989e4","getSupplyRate(uint256,uint256,uint256,uint256,uint256,uint256)":"33d7bb65","isInterestRateModel()":"2191f92a","name()":"06fdde03","owner()":"8da5cb5b","renounceOwnership()":"715018a6","transferOwnership(address)":"f2fde38b","utilizationRate(uint256,uint256,uint256)":"6e71e2d8"},"id":76}