{"abi":[{"type":"function","name":"cTokenBalances","inputs":[{"name":"cToken","type":"address","internalType":"contract CToken"},{"name":"account","type":"address","internalType":"address payable"}],"outputs":[{"name":"","type":"tuple","internalType":"struct CompoundLens.CTokenBalances","components":[{"name":"cToken","type":"address","internalType":"address"},{"name":"balanceOf","type":"uint256","internalType":"uint256"},{"name":"borrowBalanceCurrent","type":"uint256","internalType":"uint256"},{"name":"balanceOfUnderlying","type":"uint256","internalType":"uint256"},{"name":"tokenBalance","type":"uint256","internalType":"uint256"},{"name":"tokenAllowance","type":"uint256","internalType":"uint256"}]}],"stateMutability":"nonpayable"},{"type":"function","name":"cTokenBalancesAll","inputs":[{"name":"cTokens","type":"address[]","internalType":"contract CToken[]"},{"name":"account","type":"address","internalType":"address payable"}],"outputs":[{"name":"","type":"tuple[]","internalType":"struct CompoundLens.CTokenBalances[]","components":[{"name":"cToken","type":"address","internalType":"address"},{"name":"balanceOf","type":"uint256","internalType":"uint256"},{"name":"borrowBalanceCurrent","type":"uint256","internalType":"uint256"},{"name":"balanceOfUnderlying","type":"uint256","internalType":"uint256"},{"name":"tokenBalance","type":"uint256","internalType":"uint256"},{"name":"tokenAllowance","type":"uint256","internalType":"uint256"}]}],"stateMutability":"nonpayable"},{"type":"function","name":"cTokenMetadata","inputs":[{"name":"cToken","type":"address","internalType":"contract CToken"}],"outputs":[{"name":"","type":"tuple","internalType":"struct CompoundLens.CTokenMetadata","components":[{"name":"cToken","type":"address","internalType":"address"},{"name":"exchangeRateCurrent","type":"uint256","internalType":"uint256"},{"name":"supplyRatePerBlock","type":"uint256","internalType":"uint256"},{"name":"borrowRatePerBlock","type":"uint256","internalType":"uint256"},{"name":"reserveFactorMantissa","type":"uint256","internalType":"uint256"},{"name":"totalBorrows","type":"uint256","internalType":"uint256"},{"name":"totalReserves","type":"uint256","internalType":"uint256"},{"name":"totalSupply","type":"uint256","internalType":"uint256"},{"name":"totalCash","type":"uint256","internalType":"uint256"},{"name":"isListed","type":"bool","internalType":"bool"},{"name":"collateralFactorMantissa","type":"uint256","internalType":"uint256"},{"name":"underlyingAssetAddress","type":"address","internalType":"address"},{"name":"cTokenDecimals","type":"uint256","internalType":"uint256"},{"name":"underlyingDecimals","type":"uint256","internalType":"uint256"},{"name":"borrowCap","type":"uint256","internalType":"uint256"}]}],"stateMutability":"nonpayable"},{"type":"function","name":"cTokenMetadataAll","inputs":[{"name":"cTokens","type":"address[]","internalType":"contract CToken[]"}],"outputs":[{"name":"","type":"tuple[]","internalType":"struct CompoundLens.CTokenMetadata[]","components":[{"name":"cToken","type":"address","internalType":"address"},{"name":"exchangeRateCurrent","type":"uint256","internalType":"uint256"},{"name":"supplyRatePerBlock","type":"uint256","internalType":"uint256"},{"name":"borrowRatePerBlock","type":"uint256","internalType":"uint256"},{"name":"reserveFactorMantissa","type":"uint256","internalType":"uint256"},{"name":"totalBorrows","type":"uint256","internalType":"uint256"},{"name":"totalReserves","type":"uint256","internalType":"uint256"},{"name":"totalSupply","type":"uint256","internalType":"uint256"},{"name":"totalCash","type":"uint256","internalType":"uint256"},{"name":"isListed","type":"bool","internalType":"bool"},{"name":"collateralFactorMantissa","type":"uint256","internalType":"uint256"},{"name":"underlyingAssetAddress","type":"address","internalType":"address"},{"name":"cTokenDecimals","type":"uint256","internalType":"uint256"},{"name":"underlyingDecimals","type":"uint256","internalType":"uint256"},{"name":"borrowCap","type":"uint256","internalType":"uint256"}]}],"stateMutability":"nonpayable"},{"type":"function","name":"cTokenUnderlyingPrice","inputs":[{"name":"cToken","type":"address","internalType":"contract CToken"}],"outputs":[{"name":"","type":"tuple","internalType":"struct CompoundLens.CTokenUnderlyingPrice","components":[{"name":"cToken","type":"address","internalType":"address"},{"name":"underlyingPriceAsBorrow","type":"uint256","internalType":"uint256"},{"name":"underlyingPriceAsCollateral","type":"uint256","internalType":"uint256"}]}],"stateMutability":"nonpayable"},{"type":"function","name":"cTokenUnderlyingPriceAll","inputs":[{"name":"cTokens","type":"address[]","internalType":"contract CToken[]"}],"outputs":[{"name":"","type":"tuple[]","internalType":"struct CompoundLens.CTokenUnderlyingPrice[]","components":[{"name":"cToken","type":"address","internalType":"address"},{"name":"underlyingPriceAsBorrow","type":"uint256","internalType":"uint256"},{"name":"underlyingPriceAsCollateral","type":"uint256","internalType":"uint256"}]}],"stateMutability":"nonpayable"},{"type":"function","name":"getAccountLimits","inputs":[{"name":"comptroller","type":"address","internalType":"contract ComptrollerLensInterface"},{"name":"account","type":"address","internalType":"address"},{"name":"collateral","type":"address","internalType":"contract CToken"},{"name":"borrow","type":"address","internalType":"contract CToken"}],"outputs":[{"name":"","type":"tuple","internalType":"struct CompoundLens.AccountLimits","components":[{"name":"markets","type":"address[]","internalType":"contract CToken[]"},{"name":"liquidity","type":"uint256","internalType":"uint256"},{"name":"shortfall","type":"uint256","internalType":"uint256"},{"name":"badDebt","type":"uint256","internalType":"uint256"}]}],"stateMutability":"view"}],"bytecode":{"object":"0x608080604052346100165761173f908161001c8239f35b600080fdfe6040608081526004908136101561001557600080fd5b6000803560e01c80630972bf8b14610603578063158eca8b146105d55780632b2d5ed6146104bd5780634b70d84b14610397578063bdf950c914610324578063c5ae5934146102d15763fe5b1c751461006d57600080fd5b346102ce576080806003193601126102ca576001600160a01b039380358581169491908590036102c657602435918683168093036102c257604435918783168093036102be57606435968888168098036102b3578251976100cd89610836565b6060895287606060209a828c8201528287820152015283519463b093f62b60e01b86528684870152602486015260448501528584606481845afa948515610269578792889389968a98610273575b5061026557906024899286519485938492632aff3bff60e21b84528301525afa9081156102695787916101c5575b50969582519761015889610836565b88528688019182528288019384526060880194855282519787895260a0890190519787818b015288518092528060c08b019901925b8281106101af5750505050869750519086015251606085015251908301520390f35b83518c168a52988101989281019260010161018d565b90503d8088833e6101d681836108d4565b8101908881830312610261578051906001600160401b03821161026557019080601f8301121561026157815161020b81611156565b92610218865194856108d4565b8184528a8085019260051b82010192831161025d578a01905b8282106102415750505038610149565b81518c81168103610259578152908a01908a01610231565b8a80fd5b8980fd5b8780fd5b8880fd5b83513d89823e3d90fd5b945050955093508582813d83116102b7575b61028f81836108d4565b810103126102b357815193888301519560608585015194015195969395963861011b565b8680fd5b503d610285565b8580fd5b8480fd5b8380fd5b5080fd5b80fd5b5090346102ca5760203660031901126102ca576060906103226102fa6102f561077b565b611525565b915182516001600160a01b031681526020808401519082015260409283015192810192909252565bf35b5090346102ca57806003193601126102ca5760c09061032261035561034761077b565b61034f610765565b90611212565b9151809260a08091600180831b038151168452602081015160208501526040810151604085015260608101516060850152608081015160808501520151910152565b5090346102ca57602092836003193601126104b95780356001600160401b0381116102c6578492916103cb91369101610730565b91906103d683611156565b926103e3835194856108d4565b808452601f196103f282611156565b01865b81811061049a575050855b818110610451575050508051928080850192818652845180945285019301945b82811061042d5784840385f35b909192826101e0826104426001948a51610791565b01960191019492919094610420565b8061047561047061046b6104909486889c9b999a9c611192565b6111b8565b610a5b565b61047f828a6111cc565b5261048a81896111cc565b5061116d565b9593929495610400565b9580949597966104a86108f5565b82828b0101520196949395966103f5565b8280fd5b5090346102ca57602092836003193601126104b95780356001600160401b0381116102c6578492916104f191369101610730565b91906104fc83611156565b92610509835194856108d4565b808452601f1961051882611156565b01865b8181106105b6575050855b818110610592575050508051928080850192818652845180945285019301945b8281106105535784840385f35b909192826060826105836001948a516040809160018060a01b038151168452602081015160208501520151910152565b01960191019492919094610546565b806104756102f561046b6105ac9486889c9b999a9c611192565b9593929495610526565b9580949597966105c4611506565b82828b01015201969493959661051b565b5090346102ca5760203660031901126102ca576101e0906103226105fa61047061077b565b91518092610791565b5082346102ca57826003193601126102ca5780356001600160401b0381116104b95761063191369101610730565b929061063b610765565b61064485611156565b94610651845196876108d4565b808652601f1961066082611156565b01855b818110610719575050845b8181106106f95785858881519160208080850192818652845180945285019301945b82811061069d5784840385f35b9091928260c0826106ea6001948a5160a08091600180831b038151168452602081015160208501526040810151604085015260608101516060850152608081015160808501520151910152565b01960191019492919094610690565b806104758461070f61046b61071495878a611192565b611212565b61066e565b6020906107246111e0565b82828b01015201610663565b9181601f84011215610760578235916001600160401b038311610760576020808501948460051b01011161076057565b600080fd5b602435906001600160a01b038216820361076057565b600435906001600160a01b038216820361076057565b60018060a01b038082511683526020820151602084015260408201516040840152606082015160608401526080820151608084015260a082015160a084015260c082015160c084015260e082015160e084015261010080830151908401526101208083015115159084015261014080830151908401526101609081830151169083015261018080820151908301526101a080820151908301526101c080910151910152565b608081019081106001600160401b0382111761085157604052565b634e487b7160e01b600052604160045260246000fd5b6101e081019081106001600160401b0382111761085157604052565b60c081019081106001600160401b0382111761085157604052565b606081019081106001600160401b0382111761085157604052565b604081019081106001600160401b0382111761085157604052565b90601f801991011681019081106001600160401b0382111761085157604052565b6040519061090282610867565b816101c06000918281528260208201528260408201528260608201528260808201528260a08201528260c08201528260e08201528261010082015282610120820152826101408201528261016082015282610180820152826101a08201520152565b9081602091031261076057516001600160a01b03811681036107605790565b6001600160401b03811161085157601f01601f191660200190565b60005b8381106109b15750506000910152565b81810151838201526020016109a1565b602081830312610760578051906001600160401b038211610760570181601f820112156107605780516109f381610983565b92610a0160405194856108d4565b8184526020828401011161076057610a1f916020808501910161099e565b90565b60405190610a2f826108b9565b60048252630c68aa8960e31b6020830152565b90816020910312610760575160ff811681036107605790565b610a636108f5565b5060405163bd6d894d60e01b81529060208260048160006001600160a01b0386165af1918215610e0657600092611122575b50604051635fe3b56760e01b81526020816004816001600160a01b0386165afa908115610e0657600091611103575b5060408051638e8f294b60e01b81526001600160a01b03848116600483015292909216929082602481865afa8015610e06576000926000916110c1575b506040516395d89b4160e01b81526000816004816001600160a01b0387165afa8015610e0657610b429160009161109e575b50610b3c610a22565b906116b4565b15610f9c576000906012935b6000808097604051826020820160018060a01b038a16815260208352610b73836108b9565b610bab60246040518093610b9b602083019763252c221960e11b89525180928585019061099e565b81010360048101845201826108d4565b51925af13d15610f94573d90610bc082610983565b91610bce60405193846108d4565b82523d6000602084013e5b610f79575b50604051630ae9d70b60e41b81526020816004816001600160a01b0389165afa908115610e0657600091610f47575b50604051631f1f3b4560e31b8152906020826004816001600160a01b038a165afa918215610e0657600092610f13575b506040516305cee64160e21b81526020816004816001600160a01b038b165afa908115610e0657600091610ee1575b506040516308f7a6e360e31b81526020816004816001600160a01b038c165afa908115610e0657600091610eaf575b50604051638f840ddd60e01b8152916020836004816001600160a01b038d165afa928315610e0657600093610e7b575b506040516318160ddd60e01b8152946020866004816001600160a01b038e165afa948515610e0657600095610e46575b604051631d8e90d160e11b815296506020876004816001600160a01b038f165afa968715610e0657600097610e12575b5060405163313ce56760e01b81529a60208c6004816001600160a01b0385165afa9b8c15610e065760009c610dd5575b506040519e8f91610d6b83610867565b600160a01b6001900316825260208201526040015260608d015260808c015260a08b015260c08a015260e08901526101008801521515610120870152610140860152600160a01b600190031661016085015260ff166101808401526101a08301526101c082015290565b610df8919c5060203d602011610dff575b610df081836108d4565b810190610a42565b9a38610d5b565b503d610de6565b6040513d6000823e3d90fd5b9096506020813d602011610e3e575b81610e2e602093836108d4565b8101031261076057519538610d2b565b3d9150610e21565b94506020863d602011610e73575b81610e61602093836108d4565b81010312610760576004955194610cfb565b3d9150610e54565b9092506020813d602011610ea7575b81610e97602093836108d4565b8101031261076057519138610ccb565b3d9150610e8a565b90506020813d602011610ed9575b81610eca602093836108d4565b81010312610760575138610c9b565b3d9150610ebd565b90506020813d602011610f0b575b81610efc602093836108d4565b81010312610760575138610c6c565b3d9150610eef565b9091506020813d602011610f3f575b81610f2f602093836108d4565b8101031261076057519038610c3d565b3d9150610f22565b90506020813d602011610f71575b81610f62602093836108d4565b81010312610760575138610c0d565b3d9150610f55565b90955060208180518101031261076057602001519438610bde565b606090610bd9565b604051636f307dc360e01b80825291906020816004816001600160a01b0388165afa908115610e065760009161107f575b50604051928352916020816004816001600160a01b0388165afa908115610e0657600491602091600091611052575b5060405163313ce56760e01b815292839182906001600160a01b03165afa8015610e065760ff91600091611033575b501693610b4e565b61104c915060203d602011610dff57610df081836108d4565b3861102b565b6110729150823d8411611078575b61106a81836108d4565b810190610964565b38610ffc565b503d611060565b611098915060203d6020116110785761106a81836108d4565b38610fcd565b6110bb91503d806000833e6110b381836108d4565b8101906109c1565b38610b33565b9250506040823d6040116110fb575b816110dd604093836108d4565b81010312610760578151918215158303610760576020015138610b01565b3d91506110d0565b61111c915060203d6020116110785761106a81836108d4565b38610ac4565b9091506020813d60201161114e575b8161113e602093836108d4565b8101031261076057519038610a95565b3d9150611131565b6001600160401b0381116108515760051b60200190565b600019811461117c5760010190565b634e487b7160e01b600052601160045260246000fd5b91908110156111a25760051b0190565b634e487b7160e01b600052603260045260246000fd5b356001600160a01b03811681036107605790565b80518210156111a25760209160051b010190565b604051906111ed82610883565b8160a06000918281528260208201528260408201528260608201528260808201520152565b91909161121d6111e0565b50604080516370a0823160e01b8082526001600160a01b0395861660048084018290529196948516946020949193909285826024818a5afa9182156113db576000926114d7575b5082516305eff7ef60e21b815281810186905298868a60248160008c5af19485156114cc5760009561149a575b88999a5087600097989960248751809a8193633af9e66960e01b83528d898401525af196871561148f57600097611460575b5084516395d89b4160e01b815260009190828186818f5afa90811561144257906112f691849161144c5750610b3c610a22565b1561132b575050505084319431955b82519761131189610883565b88528701528501526060840152608083015260a082015290565b8551636f307dc360e01b8152939892938a818b818f5afa908115611442578391611425575b501692855190815282898201528981602481875afa91821561141a5790818b94936113e6575b50506044909886519485938492636eb1769f60e11b84528301528c60248301525afa9081156113db576000916113ae575b5095611305565b908782813d83116113d4575b6113c481836108d4565b810103126102ce575051386113a7565b503d6113ba565b83513d6000823e3d90fd5b9150919282813d8311611413575b6113fe81836108d4565b810103126102ce575051889190604438611376565b503d6113f4565b8651903d90823e3d90fd5b61143c91508b3d8d116110785761106a81836108d4565b38611350565b87513d85823e3d90fd5b6110bb91503d8086833e6110b381836108d4565b90968982813d8311611488575b61147781836108d4565b810103126102ce57505195386112c3565b503d61146d565b85513d6000823e3d90fd5b94998781813d83116114c5575b6114b181836108d4565b810103126102595751989950899894611291565b503d6114a7565b84513d6000823e3d90fd5b90918682813d83116114ff575b6114ee81836108d4565b810103126102ce5750519038611264565b503d6114e4565b604051906115138261089e565b60006040838281528260208201520152565b9061152e611506565b5060408051635fe3b56760e01b81526020936001600160a01b0390811692918581600481875afa9081156113db5782918791600091611697575b5060048551809481936307dc0d1d60e41b8352165afa9081156113db57600091611661575b508251634b9d40cd60e11b8152600481018590529116948082602481895afa9182156113db57600092611630575b5080602494959684519586809263247bf50f60e21b82528960048301525afa9384156113db57600094611601575b508251946115f68661089e565b855284015282015290565b90938482813d8311611629575b61161881836108d4565b810103126102ce57505192386115e9565b503d61160e565b95918187813d831161165a575b61164781836108d4565b810103126102ce575094519094806115bb565b503d61163d565b8681813d8311611690575b61167681836108d4565b810103126102ca57519082821682036102ce57503861158d565b503d61166c565b6116ae9150823d84116110785761106a81836108d4565b38611568565b90604051916020926116e28482816116d5818301968781519384920161099e565b81010380845201826108d4565b519020916117026040519182816116d5818301968781519384920161099e565b519020149056fea26469706673582212203fd67f4b25b040abea6ff516cbba4413474835c90285983ed015388434161d4064736f6c63430008140033","linkReferences":{}},"methodIdentifiers":{"cTokenBalances(address,address)":"bdf950c9","cTokenBalancesAll(address[],address)":"0972bf8b","cTokenMetadata(address)":"158eca8b","cTokenMetadataAll(address[])":"4b70d84b","cTokenUnderlyingPrice(address)":"c5ae5934","cTokenUnderlyingPriceAll(address[])":"2b2d5ed6","getAccountLimits(address,address,address,address)":"fe5b1c75"},"id":77}