{"abi":[{"type":"constructor","inputs":[],"stateMutability":"nonpayable"},{"type":"function","name":"_become","inputs":[{"name":"unitroller","type":"address","internalType":"contract Unitroller"}],"outputs":[],"stateMutability":"nonpayable"},{"type":"function","name":"_borrowGuardianPaused","inputs":[],"outputs":[{"name":"","type":"bool","internalType":"bool"}],"stateMutability":"view"},{"type":"function","name":"_mintGuardianPaused","inputs":[],"outputs":[{"name":"","type":"bool","internalType":"bool"}],"stateMutability":"view"},{"type":"function","name":"_setBorrowCapGuardian","inputs":[{"name":"newBorrowCapGuardian","type":"address","internalType":"address"}],"outputs":[],"stateMutability":"nonpayable"},{"type":"function","name":"_setBorrowPaused","inputs":[{"name":"cToken","type":"address","internalType":"contract CToken"},{"name":"state","type":"bool","internalType":"bool"}],"outputs":[{"name":"","type":"bool","internalType":"bool"}],"stateMutability":"nonpayable"},{"type":"function","name":"_setCloseFactor","inputs":[{"name":"newCloseFactorMantissa","type":"uint256","internalType":"uint256"}],"outputs":[{"name":"","type":"uint256","internalType":"uint256"}],"stateMutability":"nonpayable"},{"type":"function","name":"_setCollateralFactor","inputs":[{"name":"cToken","type":"address","internalType":"contract CToken"},{"name":"newCollateralFactorMantissa","type":"uint256","internalType":"uint256"}],"outputs":[{"name":"","type":"uint256","internalType":"uint256"}],"stateMutability":"nonpayable"},{"type":"function","name":"_setLiquidationIncentive","inputs":[{"name":"newLiquidationIncentiveMantissa","type":"uint256","internalType":"uint256"}],"outputs":[{"name":"","type":"uint256","internalType":"uint256"}],"stateMutability":"nonpayable"},{"type":"function","name":"_setMarketBorrowCaps","inputs":[{"name":"cTokens","type":"address[]","internalType":"contract CToken[]"},{"name":"newBorrowCaps","type":"uint256[]","internalType":"uint256[]"}],"outputs":[],"stateMutability":"nonpayable"},{"type":"function","name":"_setMintPaused","inputs":[{"name":"cToken","type":"address","internalType":"contract CToken"},{"name":"state","type":"bool","internalType":"bool"}],"outputs":[{"name":"","type":"bool","internalType":"bool"}],"stateMutability":"nonpayable"},{"type":"function","name":"_setPauseGuardian","inputs":[{"name":"newPauseGuardian","type":"address","internalType":"address"}],"outputs":[{"name":"","type":"uint256","internalType":"uint256"}],"stateMutability":"nonpayable"},{"type":"function","name":"_setPriceOracle","inputs":[{"name":"newOracle","type":"address","internalType":"contract PriceOracleCollateralBorrow"}],"outputs":[{"name":"","type":"uint256","internalType":"uint256"}],"stateMutability":"nonpayable"},{"type":"function","name":"_setSeizePaused","inputs":[{"name":"state","type":"bool","internalType":"bool"}],"outputs":[{"name":"","type":"bool","internalType":"bool"}],"stateMutability":"nonpayable"},{"type":"function","name":"_setTransferPaused","inputs":[{"name":"state","type":"bool","internalType":"bool"}],"outputs":[{"name":"","type":"bool","internalType":"bool"}],"stateMutability":"nonpayable"},{"type":"function","name":"_supportMarket","inputs":[{"name":"cToken","type":"address","internalType":"contract CToken"}],"outputs":[{"name":"","type":"uint256","internalType":"uint256"}],"stateMutability":"nonpayable"},{"type":"function","name":"accountAssets","inputs":[{"name":"","type":"address","internalType":"address"},{"name":"","type":"uint256","internalType":"uint256"}],"outputs":[{"name":"","type":"address","internalType":"contract CToken"}],"stateMutability":"view"},{"type":"function","name":"admin","inputs":[],"outputs":[{"name":"","type":"address","internalType":"address"}],"stateMutability":"view"},{"type":"function","name":"allMarkets","inputs":[{"name":"","type":"uint256","internalType":"uint256"}],"outputs":[{"name":"","type":"address","internalType":"contract CToken"}],"stateMutability":"view"},{"type":"function","name":"borrowAllowed","inputs":[{"name":"cToken","type":"address","internalType":"address"},{"name":"borrower","type":"address","internalType":"address"},{"name":"borrowAmount","type":"uint256","internalType":"uint256"}],"outputs":[{"name":"","type":"uint256","internalType":"uint256"}],"stateMutability":"nonpayable"},{"type":"function","name":"borrowCapGuardian","inputs":[],"outputs":[{"name":"","type":"address","internalType":"address"}],"stateMutability":"view"},{"type":"function","name":"borrowCaps","inputs":[{"name":"","type":"address","internalType":"address"}],"outputs":[{"name":"","type":"uint256","internalType":"uint256"}],"stateMutability":"view"},{"type":"function","name":"borrowGuardianPaused","inputs":[{"name":"","type":"address","internalType":"address"}],"outputs":[{"name":"","type":"bool","internalType":"bool"}],"stateMutability":"view"},{"type":"function","name":"borrowVerify","inputs":[{"name":"cToken","type":"address","internalType":"address"},{"name":"borrower","type":"address","internalType":"address"},{"name":"borrowAmount","type":"uint256","internalType":"uint256"}],"outputs":[],"stateMutability":"nonpayable"},{"type":"function","name":"checkMembership","inputs":[{"name":"account","type":"address","internalType":"address"},{"name":"cToken","type":"address","internalType":"contract CToken"}],"outputs":[{"name":"","type":"bool","internalType":"bool"}],"stateMutability":"view"},{"type":"function","name":"closeFactorMantissa","inputs":[],"outputs":[{"name":"","type":"uint256","internalType":"uint256"}],"stateMutability":"view"},{"type":"function","name":"collateralFactor","inputs":[{"name":"cToken","type":"address","internalType":"contract CToken"}],"outputs":[{"name":"","type":"uint256","internalType":"uint256"}],"stateMutability":"view"},{"type":"function","name":"compAccrued","inputs":[{"name":"","type":"address","internalType":"address"}],"outputs":[{"name":"","type":"uint256","internalType":"uint256"}],"stateMutability":"view"},{"type":"function","name":"compBorrowSpeeds","inputs":[{"name":"","type":"address","internalType":"address"}],"outputs":[{"name":"","type":"uint256","internalType":"uint256"}],"stateMutability":"view"},{"type":"function","name":"compBorrowState","inputs":[{"name":"","type":"address","internalType":"address"}],"outputs":[{"name":"index","type":"uint224","internalType":"uint224"},{"name":"block","type":"uint32","internalType":"uint32"}],"stateMutability":"view"},{"type":"function","name":"compBorrowerIndex","inputs":[{"name":"","type":"address","internalType":"address"},{"name":"","type":"address","internalType":"address"}],"outputs":[{"name":"","type":"uint256","internalType":"uint256"}],"stateMutability":"view"},{"type":"function","name":"compContributorSpeeds","inputs":[{"name":"","type":"address","internalType":"address"}],"outputs":[{"name":"","type":"uint256","internalType":"uint256"}],"stateMutability":"view"},{"type":"function","name":"compInitialIndex","inputs":[],"outputs":[{"name":"","type":"uint224","internalType":"uint224"}],"stateMutability":"view"},{"type":"function","name":"compRate","inputs":[],"outputs":[{"name":"","type":"uint256","internalType":"uint256"}],"stateMutability":"view"},{"type":"function","name":"compReceivable","inputs":[{"name":"","type":"address","internalType":"address"}],"outputs":[{"name":"","type":"uint256","internalType":"uint256"}],"stateMutability":"view"},{"type":"function","name":"compSpeeds","inputs":[{"name":"","type":"address","internalType":"address"}],"outputs":[{"name":"","type":"uint256","internalType":"uint256"}],"stateMutability":"view"},{"type":"function","name":"compSupplierIndex","inputs":[{"name":"","type":"address","internalType":"address"},{"name":"","type":"address","internalType":"address"}],"outputs":[{"name":"","type":"uint256","internalType":"uint256"}],"stateMutability":"view"},{"type":"function","name":"compSupplySpeeds","inputs":[{"name":"","type":"address","internalType":"address"}],"outputs":[{"name":"","type":"uint256","internalType":"uint256"}],"stateMutability":"view"},{"type":"function","name":"compSupplyState","inputs":[{"name":"","type":"address","internalType":"address"}],"outputs":[{"name":"index","type":"uint224","internalType":"uint224"},{"name":"block","type":"uint32","internalType":"uint32"}],"stateMutability":"view"},{"type":"function","name":"comptrollerImplementation","inputs":[],"outputs":[{"name":"","type":"address","internalType":"address"}],"stateMutability":"view"},{"type":"function","name":"enterMarkets","inputs":[{"name":"cTokens","type":"address[]","internalType":"address[]"}],"outputs":[{"name":"","type":"uint256[]","internalType":"uint256[]"}],"stateMutability":"nonpayable"},{"type":"function","name":"exitMarket","inputs":[{"name":"cTokenAddress","type":"address","internalType":"address"}],"outputs":[{"name":"","type":"uint256","internalType":"uint256"}],"stateMutability":"nonpayable"},{"type":"function","name":"getAccountLiquidityIsolate","inputs":[{"name":"account","type":"address","internalType":"address"},{"name":"collateral","type":"address","internalType":"contract CToken"},{"name":"borrow","type":"address","internalType":"contract CToken"}],"outputs":[{"name":"","type":"uint256","internalType":"uint256"},{"name":"","type":"uint256","internalType":"uint256"},{"name":"","type":"uint256","internalType":"uint256"},{"name":"","type":"uint256","internalType":"uint256"}],"stateMutability":"view"},{"type":"function","name":"getAllMarkets","inputs":[],"outputs":[{"name":"","type":"address[]","internalType":"contract CToken[]"}],"stateMutability":"view"},{"type":"function","name":"getAssetsIn","inputs":[{"name":"account","type":"address","internalType":"address"}],"outputs":[{"name":"","type":"address[]","internalType":"contract CToken[]"}],"stateMutability":"view"},{"type":"function","name":"getBlockNumber","inputs":[],"outputs":[{"name":"","type":"uint256","internalType":"uint256"}],"stateMutability":"view"},{"type":"function","name":"isComptroller","inputs":[],"outputs":[{"name":"","type":"bool","internalType":"bool"}],"stateMutability":"view"},{"type":"function","name":"isDeprecated","inputs":[{"name":"cToken","type":"address","internalType":"contract CToken"}],"outputs":[{"name":"","type":"bool","internalType":"bool"}],"stateMutability":"view"},{"type":"function","name":"lastContributorBlock","inputs":[{"name":"","type":"address","internalType":"address"}],"outputs":[{"name":"","type":"uint256","internalType":"uint256"}],"stateMutability":"view"},{"type":"function","name":"liquidateBadDebtAllowed","inputs":[{"name":"cTokenBorrowed","type":"address","internalType":"address"},{"name":"cTokenCollateral","type":"address","internalType":"address"},{"name":"liquidator","type":"address","internalType":"address"},{"name":"borrower","type":"address","internalType":"address"},{"name":"repayAmount","type":"uint256","internalType":"uint256"}],"outputs":[{"name":"","type":"uint256","internalType":"uint256"}],"stateMutability":"view"},{"type":"function","name":"liquidateBadDebtCalculateSeizeTokens","inputs":[{"name":"cTokenBorrowed","type":"address","internalType":"address"},{"name":"cTokenCollateral","type":"address","internalType":"address"},{"name":"borrower","type":"address","internalType":"address"},{"name":"actualRepayAmount","type":"uint256","internalType":"uint256"}],"outputs":[{"name":"","type":"uint256","internalType":"uint256"},{"name":"","type":"uint256","internalType":"uint256"}],"stateMutability":"view"},{"type":"function","name":"liquidateBadDebtCalculateSeizeTokensAfterRepay","inputs":[{"name":"cTokenCollateral","type":"address","internalType":"address"},{"name":"borrower","type":"address","internalType":"address"},{"name":"percentageToTake","type":"uint256","internalType":"uint256"}],"outputs":[{"name":"","type":"uint256","internalType":"uint256"},{"name":"","type":"uint256","internalType":"uint256"}],"stateMutability":"view"},{"type":"function","name":"liquidateBorrowAllowed","inputs":[{"name":"cTokenBorrowed","type":"address","internalType":"address"},{"name":"cTokenCollateral","type":"address","internalType":"address"},{"name":"liquidator","type":"address","internalType":"address"},{"name":"borrower","type":"address","internalType":"address"},{"name":"repayAmount","type":"uint256","internalType":"uint256"}],"outputs":[{"name":"","type":"uint256","internalType":"uint256"}],"stateMutability":"view"},{"type":"function","name":"liquidateBorrowVerify","inputs":[{"name":"cTokenBorrowed","type":"address","internalType":"address"},{"name":"cTokenCollateral","type":"address","internalType":"address"},{"name":"liquidator","type":"address","internalType":"address"},{"name":"borrower","type":"address","internalType":"address"},{"name":"actualRepayAmount","type":"uint256","internalType":"uint256"},{"name":"seizeTokens","type":"uint256","internalType":"uint256"}],"outputs":[],"stateMutability":"nonpayable"},{"type":"function","name":"liquidateCalculateSeizeTokens","inputs":[{"name":"cTokenBorrowed","type":"address","internalType":"address"},{"name":"cTokenCollateral","type":"address","internalType":"address"},{"name":"actualRepayAmount","type":"uint256","internalType":"uint256"}],"outputs":[{"name":"","type":"uint256","internalType":"uint256"},{"name":"","type":"uint256","internalType":"uint256"}],"stateMutability":"view"},{"type":"function","name":"liquidationIncentiveMantissa","inputs":[],"outputs":[{"name":"","type":"uint256","internalType":"uint256"}],"stateMutability":"view"},{"type":"function","name":"markets","inputs":[{"name":"","type":"address","internalType":"address"}],"outputs":[{"name":"isListed","type":"bool","internalType":"bool"},{"name":"collateralFactorMantissa","type":"uint256","internalType":"uint256"}],"stateMutability":"view"},{"type":"function","name":"maxAssets","inputs":[],"outputs":[{"name":"","type":"uint256","internalType":"uint256"}],"stateMutability":"view"},{"type":"function","name":"mintAllowed","inputs":[{"name":"cToken","type":"address","internalType":"address"},{"name":"minter","type":"address","internalType":"address"},{"name":"mintAmount","type":"uint256","internalType":"uint256"}],"outputs":[{"name":"","type":"uint256","internalType":"uint256"}],"stateMutability":"nonpayable"},{"type":"function","name":"mintGuardianPaused","inputs":[{"name":"","type":"address","internalType":"address"}],"outputs":[{"name":"","type":"bool","internalType":"bool"}],"stateMutability":"view"},{"type":"function","name":"mintVerify","inputs":[{"name":"cToken","type":"address","internalType":"address"},{"name":"minter","type":"address","internalType":"address"},{"name":"actualMintAmount","type":"uint256","internalType":"uint256"},{"name":"mintTokens","type":"uint256","internalType":"uint256"}],"outputs":[],"stateMutability":"nonpayable"},{"type":"function","name":"oracle","inputs":[],"outputs":[{"name":"","type":"address","internalType":"contract PriceOracleCollateralBorrow"}],"stateMutability":"view"},{"type":"function","name":"pauseGuardian","inputs":[],"outputs":[{"name":"","type":"address","internalType":"address"}],"stateMutability":"view"},{"type":"function","name":"pendingAdmin","inputs":[],"outputs":[{"name":"","type":"address","internalType":"address"}],"stateMutability":"view"},{"type":"function","name":"pendingComptrollerImplementation","inputs":[],"outputs":[{"name":"","type":"address","internalType":"address"}],"stateMutability":"view"},{"type":"function","name":"proposal65FixExecuted","inputs":[],"outputs":[{"name":"","type":"bool","internalType":"bool"}],"stateMutability":"view"},{"type":"function","name":"redeemAllowed","inputs":[{"name":"cToken","type":"address","internalType":"address"},{"name":"redeemer","type":"address","internalType":"address"},{"name":"redeemTokens","type":"uint256","internalType":"uint256"}],"outputs":[{"name":"","type":"uint256","internalType":"uint256"}],"stateMutability":"view"},{"type":"function","name":"redeemVerify","inputs":[{"name":"cToken","type":"address","internalType":"address"},{"name":"redeemer","type":"address","internalType":"address"},{"name":"redeemAmount","type":"uint256","internalType":"uint256"},{"name":"redeemTokens","type":"uint256","internalType":"uint256"}],"outputs":[],"stateMutability":"nonpayable"},{"type":"function","name":"repayBorrowAllowed","inputs":[{"name":"cToken","type":"address","internalType":"address"},{"name":"payer","type":"address","internalType":"address"},{"name":"borrower","type":"address","internalType":"address"},{"name":"repayAmount","type":"uint256","internalType":"uint256"}],"outputs":[{"name":"","type":"uint256","internalType":"uint256"}],"stateMutability":"view"},{"type":"function","name":"repayBorrowVerify","inputs":[{"name":"cToken","type":"address","internalType":"address"},{"name":"payer","type":"address","internalType":"address"},{"name":"borrower","type":"address","internalType":"address"},{"name":"actualRepayAmount","type":"uint256","internalType":"uint256"},{"name":"borrowerIndex","type":"uint256","internalType":"uint256"}],"outputs":[],"stateMutability":"nonpayable"},{"type":"function","name":"seizeAllowed","inputs":[{"name":"cTokenCollateral","type":"address","internalType":"address"},{"name":"cTokenBorrowed","type":"address","internalType":"address"},{"name":"liquidator","type":"address","internalType":"address"},{"name":"borrower","type":"address","internalType":"address"},{"name":"seizeTokens","type":"uint256","internalType":"uint256"}],"outputs":[{"name":"","type":"uint256","internalType":"uint256"}],"stateMutability":"nonpayable"},{"type":"function","name":"seizeGuardianPaused","inputs":[],"outputs":[{"name":"","type":"bool","internalType":"bool"}],"stateMutability":"view"},{"type":"function","name":"seizeVerify","inputs":[{"name":"cTokenCollateral","type":"address","internalType":"address"},{"name":"cTokenBorrowed","type":"address","internalType":"address"},{"name":"liquidator","type":"address","internalType":"address"},{"name":"borrower","type":"address","internalType":"address"},{"name":"seizeTokens","type":"uint256","internalType":"uint256"}],"outputs":[],"stateMutability":"nonpayable"},{"type":"function","name":"transferAllowed","inputs":[{"name":"cToken","type":"address","internalType":"address"},{"name":"src","type":"address","internalType":"address"},{"name":"dst","type":"address","internalType":"address"},{"name":"transferTokens","type":"uint256","internalType":"uint256"}],"outputs":[{"name":"","type":"uint256","internalType":"uint256"}],"stateMutability":"view"},{"type":"function","name":"transferGuardianPaused","inputs":[],"outputs":[{"name":"","type":"bool","internalType":"bool"}],"stateMutability":"view"},{"type":"function","name":"transferVerify","inputs":[{"name":"cToken","type":"address","internalType":"address"},{"name":"src","type":"address","internalType":"address"},{"name":"dst","type":"address","internalType":"address"},{"name":"transferTokens","type":"uint256","internalType":"uint256"}],"outputs":[],"stateMutability":"nonpayable"},{"type":"event","name":"ActionPaused","inputs":[{"name":"action","type":"string","indexed":false,"internalType":"string"},{"name":"pauseState","type":"bool","indexed":false,"internalType":"bool"}],"anonymous":false},{"type":"event","name":"ActionPaused","inputs":[{"name":"cToken","type":"address","indexed":false,"internalType":"contract CToken"},{"name":"action","type":"string","indexed":false,"internalType":"string"},{"name":"pauseState","type":"bool","indexed":false,"internalType":"bool"}],"anonymous":false},{"type":"event","name":"CompBorrowSpeedUpdated","inputs":[{"name":"cToken","type":"address","indexed":true,"internalType":"contract CToken"},{"name":"newSpeed","type":"uint256","indexed":false,"internalType":"uint256"}],"anonymous":false},{"type":"event","name":"CompSupplySpeedUpdated","inputs":[{"name":"cToken","type":"address","indexed":true,"internalType":"contract CToken"},{"name":"newSpeed","type":"uint256","indexed":false,"internalType":"uint256"}],"anonymous":false},{"type":"event","name":"ContributorCompSpeedUpdated","inputs":[{"name":"contributor","type":"address","indexed":true,"internalType":"address"},{"name":"newSpeed","type":"uint256","indexed":false,"internalType":"uint256"}],"anonymous":false},{"type":"event","name":"DistributedBorrowerComp","inputs":[{"name":"cToken","type":"address","indexed":true,"internalType":"contract CToken"},{"name":"borrower","type":"address","indexed":true,"internalType":"address"},{"name":"compDelta","type":"uint256","indexed":false,"internalType":"uint256"},{"name":"compBorrowIndex","type":"uint256","indexed":false,"internalType":"uint256"}],"anonymous":false},{"type":"event","name":"DistributedSupplierComp","inputs":[{"name":"cToken","type":"address","indexed":true,"internalType":"contract CToken"},{"name":"supplier","type":"address","indexed":true,"internalType":"address"},{"name":"compDelta","type":"uint256","indexed":false,"internalType":"uint256"},{"name":"compSupplyIndex","type":"uint256","indexed":false,"internalType":"uint256"}],"anonymous":false},{"type":"event","name":"Failure","inputs":[{"name":"error","type":"uint256","indexed":false,"internalType":"uint256"},{"name":"info","type":"uint256","indexed":false,"internalType":"uint256"},{"name":"detail","type":"uint256","indexed":false,"internalType":"uint256"}],"anonymous":false},{"type":"event","name":"MarketEntered","inputs":[{"name":"cToken","type":"address","indexed":false,"internalType":"contract CToken"},{"name":"account","type":"address","indexed":false,"internalType":"address"}],"anonymous":false},{"type":"event","name":"MarketExited","inputs":[{"name":"cToken","type":"address","indexed":false,"internalType":"contract CToken"},{"name":"account","type":"address","indexed":false,"internalType":"address"}],"anonymous":false},{"type":"event","name":"MarketListed","inputs":[{"name":"cToken","type":"address","indexed":false,"internalType":"contract CToken"}],"anonymous":false},{"type":"event","name":"NewBorrowCap","inputs":[{"name":"cToken","type":"address","indexed":true,"internalType":"contract CToken"},{"name":"newBorrowCap","type":"uint256","indexed":false,"internalType":"uint256"}],"anonymous":false},{"type":"event","name":"NewBorrowCapGuardian","inputs":[{"name":"oldBorrowCapGuardian","type":"address","indexed":false,"internalType":"address"},{"name":"newBorrowCapGuardian","type":"address","indexed":false,"internalType":"address"}],"anonymous":false},{"type":"event","name":"NewCloseFactor","inputs":[{"name":"oldCloseFactorMantissa","type":"uint256","indexed":false,"internalType":"uint256"},{"name":"newCloseFactorMantissa","type":"uint256","indexed":false,"internalType":"uint256"}],"anonymous":false},{"type":"event","name":"NewCollateralFactor","inputs":[{"name":"cToken","type":"address","indexed":false,"internalType":"contract CToken"},{"name":"oldCollateralFactorMantissa","type":"uint256","indexed":false,"internalType":"uint256"},{"name":"newCollateralFactorMantissa","type":"uint256","indexed":false,"internalType":"uint256"}],"anonymous":false},{"type":"event","name":"NewLiquidationIncentive","inputs":[{"name":"oldLiquidationIncentiveMantissa","type":"uint256","indexed":false,"internalType":"uint256"},{"name":"newLiquidationIncentiveMantissa","type":"uint256","indexed":false,"internalType":"uint256"}],"anonymous":false},{"type":"event","name":"NewPauseGuardian","inputs":[{"name":"oldPauseGuardian","type":"address","indexed":false,"internalType":"address"},{"name":"newPauseGuardian","type":"address","indexed":false,"internalType":"address"}],"anonymous":false},{"type":"event","name":"NewPriceOracle","inputs":[{"name":"oldPriceOracle","type":"address","indexed":false,"internalType":"contract PriceOracleCollateralBorrow"},{"name":"newPriceOracle","type":"address","indexed":false,"internalType":"contract PriceOracleCollateralBorrow"}],"anonymous":false}],"bytecode":{"object":"0x6080806040523461002857600080546001600160a01b03191633179055614681908161002e8239f35b600080fdfe608060408181526004918236101561001657600080fd5b600092833560e01c9182627e3dd214611b0157508163071dd5d014611ae157816309ac776a146119f057816318c882a5146118f25781631d504dc6146117675781631d7b33d71461172f5781631ededc91146116ff57816321af4569146116d657816324008a62146116b857816324a3d6221461168f57816326782247146116665781632d70db7814611598578163317b0b77146114ed578163391957d7146114125781633bcf7ec1146113195781633c94786f146112f257816341c728b9146112e357816342cbb15c146112c857816347ef3b3b146112865781634a5844321461124e5781634ada90af1461122f5781634ef4c3e1146112125781634fd42e17146111f257816351dff9891461118c57816352d84d1e1461114b57816355ee1fe11461111a5781635c778605146111055781635f5af1aa146110df5781635fc7e71e146110bf578163607ef6c114610f0f5781636a56947e14610ef95781636aa875b514610ec15781636b79c38d14610e685781636d154ea514610e2a5781636d35bf9114610e13578163731f0c2b14610dd55781637dc0d1d014610dad57816385b7beb814610d7557816387f7630314610d4e5781638a0c3c8d14610ca95781638c57804e14610c505781638e8f294b14610c095781638ebf636414610b38578163929fe9a114610ae857816394543c1514610ab957816394b2294b14610a9a578163986ab83814610a62578163a76b3fda14610a3c578163a7f0e23114610a12578163aa900754146109f3578163abfceffc1461097a578163ac0b0bb714610953578163b0772d0b146108c2578163b093f62b1461086a578163b21be7fd14610821578163bb82aa5e146107f8578163bdcdc258146107da578163bea6b8b8146107a2578163c29982381461063057508063c488847b1461060a578063ca0af043146105c2578063cc7ebdc41461058b578063d02f73511461056d578063da3d454c14610552578063dce15449146104f7578063dcfbc0c7146104cf578063e4028eee146104a7578063e6653f3d14610481578063e875544614610463578063eabe7d9114610448578063ede4edd01461041c578063f00a7a92146103f9578063f4a433c0146103c2578063f851a4401461039b5763fbcc6f5e1461035d57600080fd5b346103975760203660031901126103975760209160019082906001600160a01b03610386611b1c565b168152600985522001549051908152f35b5080fd5b5034610397578160031936011261039757905490516001600160a01b039091168152602090f35b50346103975760203660031901126103975760209181906001600160a01b036103e9611b1c565b1681526019845220549051908152f35b503461039757816003193601126103975760209060ff601b541690519015158152f35b50346103975760203660031901126103975760209061044161043c611b1c565b611fa3565b9051908152f35b50346103975760209061044161045d36611c4a565b91612310565b50346103975781600319360112610397576020906005549051908152f35b503461039757816003193601126103975760209060ff600a5460a81c1690519015158152f35b50346103975780600319360112610397576020906104416104c6611b1c565b60243590613da9565b503461039757816003193601126103975760035490516001600160a01b039091168152602090f35b5034610397578060031936011261039757610510611b1c565b6001600160a01b03908116835260086020528183208054602435949085101561054f575060209361054091611ccc565b92905490519260031b1c168152f35b80fd5b50346103975760209061044161056736611c4a565b916123af565b50346103975760209061044161058236611b63565b505050906129e5565b50346103975760203660031901126103975760209181906001600160a01b036105b2611b1c565b1681526014845220549051908152f35b5034610397578060031936011261039757806020926105df611b1c565b6105e7611b37565b6001600160a01b0391821683526013865283832091168252845220549051908152f35b50903461054f575061062461061e36611c4a565b916139d8565b82519182526020820152f35b9050823461054f576020806003193601126103975782359267ffffffffffffffff841161079e573660238501121561079e578301359261066f84611de5565b9361067c86519586611dc3565b80855260248386019160051b8301019136831161079a579295949392602401905b82821061076b5750505081516106b281611de5565b906106bf85519283611dc3565b8082526106cb81611de5565b8287019490601f1901368637835b82811061071e5750505083519485948186019282875251809352850193925b82811061070757505050500390f35b8351855286955093810193928101926001016106f8565b959694959294939261076090610747336001600160a01b036107408487611e22565b5116611e56565b61075081611e36565b61075a8289611e22565b52611dfd565b9695949293966106d9565b9495939492939281356001600160a01b0381168103610796578152929594939290860190860161069d565b8580fd5b8480fd5b8280fd5b5050346103975760203660031901126103975760209181906001600160a01b036107ca611b1c565b1681526018845220549051908152f35b505034610397576020906104416107f036611bb2565b929050612b28565b50503461039757816003193601126103975760025490516001600160a01b039091168152602090f35b5050346103975780600319360112610397578060209261083f611b1c565b610847611b37565b6001600160a01b0391821683526012865283832091168252845220549051908152f35b505034610397576060366003190112610397576080906108a161088b611b1c565b610893611b37565b61089b611b4d565b91612c56565b929390916108ae85611e36565b815194855260208501528301526060820152f35b82843461054f578060031936011261054f578151918291600d54808552602080950194600d83527fd7b6990105719101dabeb77144f2a3385c8033acd3af97e9423a695e81ad1eb592905b8282106109335761092f8686610925828b0383611dc3565b5191829182611d15565b0390f35b83546001600160a01b03168752958601956001938401939091019061090d565b50503461039757816003193601126103975760209060ff600a5460b81c1690519015158152f35b505034610397576020908160031936011261079e576001600160a01b0392836109a1611b1c565b16815260088352818120938251908194808754938481520196845280842093915b8383106109da5761092f8787610925828c0383611dc3565b84548116885296810196600194850194909201916109c2565b505034610397578160031936011261039757602090600e549051908152f35b505034610397578160031936011261039757602090516ec097ce7bc90715b34b9f10000000008152f35b50503461039757602036600319011261039757602090610441610a5d611b1c565b613ff1565b5050346103975760203660031901126103975760209181906001600160a01b03610a8a611b1c565b1681526017845220549051908152f35b5050346103975781600319360112610397576020906007549051908152f35b50503461039757602036600319011261039757602090610adf610ada611b1c565b6144fb565b90519015158152f35b50503461039757806003193601126103975760ff81602093610b08611b1c565b6001600160a01b0380610b19611b37565b1683526009875260028484200191168252855220541690519015158152f35b5050346103975760203660031901126103975790602091610b57611c02565b600a54926001600160a01b039033828616148015610bfd575b610b799061445a565b541633148015610bf1575b610b8d906144b6565b15159160ff60b01b8360b01b169060ff60b01b191617600a557fef159d9a32b2472e32b098f954f3ce62d232939f1c207070b584df1814de2de060808251838152600884820152672a3930b739b332b960c11b60608201528486820152a151908152f35b50801515600114610b84565b50805482163314610b70565b505034610397576020366003190112610397579081906001600160a01b03610c2f611b1c565b168152600960205220600160ff825416910154825191151582526020820152f35b5050346103975760203660031901126103975761092f9181906001600160a01b03610c79611b1c565b168152601160209081529190205491516001600160e01b038316815260e09290921c908201529081906040820190565b839150346103975760246080610cbe36611c4a565b87516361bfb47160e11b81526001600160a01b039283169681019690965293859290918391165afa918215610d445791610d03916103e8938592610d10575b506128a3565b0482519182526020820152f35b610d3291925060803d8111610d3d575b610d2a8183611dc3565b810190611f57565b505090509086610cfd565b503d610d20565b84513d85823e3d90fd5b50503461039757816003193601126103975760209060ff600a5460b01c1690519015158152f35b5050346103975760203660031901126103975760209181906001600160a01b03610d9d611b1c565b168152601c845220549051908152f35b90503461079e578260031936011261079e575490516001600160a01b03909116815260209150f35b5050346103975760203660031901126103975760209160ff9082906001600160a01b03610e00611b1c565b168152600b855220541690519015158152f35b833461054f57610e2236611b63565b505050505080f35b5050346103975760203660031901126103975760209160ff9082906001600160a01b03610e55611b1c565b168152600c855220541690519015158152f35b5050346103975760203660031901126103975761092f9181906001600160a01b03610e91611b1c565b168152601060209081529190205491516001600160e01b038316815260e09290921c908201529081906040820190565b5050346103975760203660031901126103975760209181906001600160a01b03610ee9611b1c565b168152601a845220549051908152f35b833461054f57610f0836611bb2565b5050505080f35b9190503461079e578060031936011261079e5767ffffffffffffffff91803583811161079a57610f429036908301611ce4565b909360243590811161079657610f5b9036908401611ce4565b909160018060a01b039384885416331480156110b2575b156110515781151580611048575b156110155750865b818110610f93578780f35b80610fa261101092858761433a565b3586610fb7610fb284878d61433a565b61434a565b168a5260209060168252888b20557f6f1951b2aad10f3fc81b86d91105b413a5b3f847a34bbc5ce1904201b14438f6610ff4610fb284878d61433a565b918861100185898b61433a565b35938b519485521692a2611dfd565b610f88565b606490602087519162461bcd60e51b8352820152600d60248201526c1a5b9d985b1a59081a5b9c1d5d609a1b6044820152fd5b50828214610f80565b608490602087519162461bcd60e51b8352820152603560248201527f6f6e6c792061646d696e206f7220626f72726f772063617020677561726469616044820152746e2063616e2073657420626f72726f77206361707360581b6064820152fd5b5084601554163314610f72565b505034610397576020906104416110d536611b63565b93909291506126fa565b50503461039757602036600319011261039757602090610441611100611b1c565b61435e565b833461054f5761111436611c4a565b50505080f35b90503461079e57602036600319011261079e5735916001600160a01b038316830361054f5750610441602092613d13565b90503461079e57602036600319011261079e573591600d5483101561054f5750611176602092611c7f565b905491519160018060a01b039160031b1c168152f35b9190503461079e5761119d36611c11565b1592509050816111e8575b506111b1578280f35b906020606492519162461bcd60e51b8352820152601160248201527072656465656d546f6b656e73207a65726f60781b6044820152fd5b90501515386111a8565b82843461054f57602036600319011261054f575061044160209235613f76565b5050346103975760209061044161122836611c4a565b505061229b565b5050346103975781600319360112610397576020906006549051908152f35b5050346103975760203660031901126103975760209181906001600160a01b03611276611b1c565b1681526016845220549051908152f35b833461054f5760c036600319011261054f576112a0611b1c565b506112a9611b37565b506112b2611b4d565b506064356001600160a01b0381160361054f5780f35b50503461039757816003193601126103975760209051438152f35b833461054f57610f0836611c11565b50503461039757816003193601126103975760209060ff600a5460a01c1690519015158152f35b8383346103975780600319360112610397577f71aec636243f9709bb0007ae15e9afb8150ab01716d75fd7573be5cc096e03b060a0826020956113ce61135d611b1c565b96611366611bf3565b938491600180881b03809a16998a825260098c5261138960ff84842054166143fd565b80600a541633148015611406575b6113a09061445a565b815416331480156113fa575b6113b5906144b6565b898152600b8b52209060ff801983541691151516179055565b8451958652606087870152606086015263135a5b9d60e21b60808601521515938484820152a151908152f35b508215156001146113ac565b50815481163314611397565b839150346103975760203660031901126103975761142e611b1c565b82546001600160a01b0392908316330361149b5750601580546001600160a01b031981168484161790915593516001600160a01b039290941682168452166020830152907feda98690e518e9a05f8ec6837663e188211b2da8f4906648b323f2c1d4434e2990604090a180f35b608490602086519162461bcd60e51b8352820152602660248201527f6f6e6c792061646d696e2063616e2073657420626f72726f772063617020677560448201526530b93234b0b760d11b6064820152fd5b83915034610397576020366003190112610397578154813591906001600160a01b031633036115555750917f3b9670cf975d26958e754b57098eaa2ac914d8d2a31b83257997b9f346110fd9816020946005549080600555825191825286820152a151908152f35b606490602085519162461bcd60e51b8352820152601f60248201527f6f6e6c792061646d696e2063616e2073657420636c6f736520666163746f72006044820152fd5b50503461039757602036600319011261039757906020916115b7611c02565b600a54926001600160a01b03903382861614801561165a575b6115d99061445a565b54163314801561164e575b6115ed906144b6565b15159160ff60b81b8360b81b169060ff60b81b191617600a557fef159d9a32b2472e32b098f954f3ce62d232939f1c207070b584df1814de2de060808251838152600584820152645365697a6560d81b60608201528486820152a151908152f35b508015156001146115e4565b508054821633146115d0565b50503461039757816003193601126103975760015490516001600160a01b039091168152602090f35b505034610397578160031936011261039757600a5490516001600160a01b039091168152602090f35b505034610397576020906104416116ce36611bb2565b50505061263e565b50503461039757816003193601126103975760155490516001600160a01b039091168152602090f35b833461054f5760a036600319011261054f57611719611b1c565b50611722611b37565b5061172b611b4d565b5080f35b5050346103975760203660031901126103975760209181906001600160a01b03611757611b1c565b168152600f845220549051908152f35b9190503461079e57602090816003193601126118ee5782356001600160a01b03818116918290036107965782516303e1469160e61b815284818781865afa9081156118e45787916118aa575b50163303611858578285918584518094819363307a00cd60e21b83525af190811561184e578591611821575b506117e8578380f35b5162461bcd60e51b815291820152601560248201527418da185b99d9481b9bdd08185d5d1a1bdc9a5e9959605a1b604482015260649150fd5b90508281813d8311611847575b6118388183611dc3565b8101031261079a5751386117df565b503d61182e565b82513d87823e3d90fd5b505162461bcd60e51b815291820152602760248201527f6f6e6c7920756e6974726f6c6c65722061646d696e2063616e206368616e676560448201526620627261696e7360c81b606482015260849150fd5b90508481813d83116118dd575b6118c18183611dc3565b810103126118d9575181811681036118d957386117b3565b8680fd5b503d6118b7565b84513d89823e3d90fd5b8380fd5b50503461039757806003193601126103975790817f71aec636243f9709bb0007ae15e9afb8150ab01716d75fd7573be5cc096e03b060a06020946119a8611937611b1c565b95611940611bf3565b928391600180871b038099169889825260098b5261196360ff84842054166143fd565b80600a5416331480156119e4575b61197a9061445a565b815416331480156119d8575b61198f906144b6565b888152600c8a52209060ff801983541691151516179055565b83519485526060868601526006606086015265426f72726f7760d01b60808601521515938484820152a151908152f35b50821515600114611986565b50815481163314611971565b8391503461039757611a0136611bb2565b919290938651946361bfb47160e11b9081875260018060a01b0395868092169485858a01528860248160809a8b94165afa978815611ad7578998611aa9575b50916024918794938b5196879586948552840152165afa928315611a9f5791610624949391611a77938793611a7c575b50506128a3565b612848565b611a93929350803d10610d3d57610d2a8183611dc3565b50509050908780611a70565b86513d87823e3d90fd5b87949391985091611ac8602493863d8811610d3d57610d2a8183611dc3565b50915050989193945091611a40565b8a513d8b823e3d90fd5b50503461039757602090610441611af736611b63565b93909291506128b6565b84903461039757816003193601126103975780600160209252f35b600435906001600160a01b0382168203611b3257565b600080fd5b602435906001600160a01b0382168203611b3257565b604435906001600160a01b0382168203611b3257565b60a0906003190112611b32576001600160a01b03906004358281168103611b3257916024358181168103611b3257916044358281168103611b3257916064359081168103611b32579060843590565b6080906003190112611b32576001600160a01b036004358181168103611b3257916024358281168103611b3257916044359081168103611b32579060643590565b602435908115158203611b3257565b600435908115158203611b3257565b6080906003190112611b32576001600160a01b03906004358281168103611b3257916024359081168103611b3257906044359060643590565b6060906003190112611b32576001600160a01b03906004358281168103611b3257916024359081168103611b32579060443590565b600d54811015611cb657600d6000527fd7b6990105719101dabeb77144f2a3385c8033acd3af97e9423a695e81ad1eb50190600090565b634e487b7160e01b600052603260045260246000fd5b8054821015611cb65760005260206000200190600090565b9181601f84011215611b325782359167ffffffffffffffff8311611b32576020808501948460051b010111611b3257565b6020908160408183019282815285518094520193019160005b828110611d3c575050505090565b83516001600160a01b031685529381019392810192600101611d2e565b6020810190811067ffffffffffffffff821117611d7557604052565b634e487b7160e01b600052604160045260246000fd5b6040810190811067ffffffffffffffff821117611d7557604052565b6060810190811067ffffffffffffffff821117611d7557604052565b90601f8019910116810190811067ffffffffffffffff821117611d7557604052565b67ffffffffffffffff8111611d755760051b60200190565b6000198114611e0c5760010190565b634e487b7160e01b600052601160045260246000fd5b8051821015611cb65760209160051b010190565b60141115611e4057565b634e487b7160e01b600052602160045260246000fd5b6001600160a01b0380821660009081526009602052604081208054919493929160ff1615611f4d576002918416855201602052604083208054600160ff8216151514611f465760ff19166001179055600860205260408320805490600160401b821015611f325782611ef483611f139360017f3ab23ab0d51cccc0c3085aec51f99228625aa1a922b3a8ca89a26b0f2027a1a5989796018155611ccc565b90919082549060031b9160018060a01b03809116831b921b1916179055565b604080516001600160a01b03928316815292909116602083015290a190565b634e487b7160e01b85526041600452602485fd5b5050505090565b5050505050600a90565b9190826080910312611b32578151916020810151916060604083015192015190565b15611f8057565b634e487b7160e01b600052600160045260246000fd5b91908203918211611e0c57565b604080516361bfb47160e11b815233600482015290916001600160a01b03818116929091608082602481875afa80156122905760008093819261226a575b50612218576121e95790611ff6913390612329565b806121bd575081600052602091600983526002846000200133600052835283600020805460ff8116156121b25760ff191690556008835283600020938051808686829854938481520190600052866000209260005b8882821061219a5750505061206292500386611dc3565b845193849560005b87811061216b575b5050612085859660089394959610611f79565b3360005252806000209283549460001995868101908111611e0c576120e191836120b26120bc9389611ccc565b9390549289611ccc565b92909360031b1c169082549060031b9160018060a01b03809116831b921b1916179055565b8354938415612155577fe699a64c18b07ac5b7301aa273f36a2287239eb9501d81950672794afba29a0d9561214d95019161211c8383611ccc565b815460039190911b9290921b19909116905555516001600160a01b0390911681523360208201529081906040820190565b0390a1600090565b634e487b7160e01b600052603160045260246000fd5b84866121778385611e22565b51161461218c5761218790611dfd565b61206a565b955061208590506008612072565b8554891684526001958601958b95509301920161204b565b505050505050600090565b8351600f815260036020820152938401525060008051602061462c8339815191529160609150a1600f90565b50505050606081600060008051602061462c833981519152935191600d835260026020840152820152a1600d90565b855162461bcd60e51b815260206004820152602560248201527f657869744d61726b65743a206765744163636f756e74536e617073686f742066604482015264185a5b195960da1b6064820152608490fd5b91505061228691925060803d8111610d3d57610d2a8183611dc3565b5090929138611fe1565b85513d6000823e3d90fd5b6001600160a01b03166000818152600b602052604090205460ff166122da57600052600960205260ff60406000205416156122d557600090565b600a90565b60405162461bcd60e51b815260206004820152600e60248201526d1b5a5b9d081a5cc81c185d5cd95960921b6044820152606490fd5b9061231b9291612329565b806123265750600090565b90565b6001600160a01b03908116600081815260096020526040812080549195939160ff16156123a457600291851686520160205260ff6040852054161561239e576123719261305e565b5091905061237e81611e36565b80612391575061238b5790565b50600590565b8092506123269150611e36565b50505090565b505050505050600a90565b929160018060a01b038094166000928184526020600c815260409660ff88872054166125fa578386526009825287862060ff815416156125ed578290600283861691828a5201825260ff8a8920541615612550575b5060249160045416895192838092634b9d40cd60e11b82528860048301525afa908115612546578691612519575b501561250e57828552601681528685205480612457575b50506123719394955061360d565b87516308f7a6e360e31b81528281600481885afa801561250457869088906124d3575b6124849250612631565b10156124905780612449565b60649087519062461bcd60e51b82526004820152601960248201527f6d61726b657420626f72726f77206361702072656163686564000000000000006044820152fd5b50508281813d83116124fd575b6124ea8183611dc3565b810103126118d95785612484915161247a565b503d6124e0565b89513d89823e3d90fd5b50600e955050505050565b90508181813d831161253f575b6125308183611dc3565b81010312610796575138612432565b503d612526565b88513d88823e3d90fd5b90508433036125b1576125638433611e56565b61256c81611e36565b8061259e575060249183918689526009835260028b8a2001908952825261259860ff8b8a205416611f79565b91612404565b9798505050505050505061232681611e36565b885162461bcd60e51b815260048101849052601560248201527439b2b73232b91036bab9ba1031329031aa37b5b2b760591b6044820152606490fd5b50600a9750505050505050565b875162461bcd60e51b815260048101839052601060248201526f189bdc9c9bddc81a5cc81c185d5cd95960821b6044820152606490fd5b91908201809211611e0c57565b6001600160a01b031660009081526009602052604090205460ff16156122d557600090565b1561266a57565b60405162461bcd60e51b815260206004820152600b60248201526a6e6f742069736f6c61746560a81b6044820152606490fd5b156126a457565b60405162461bcd60e51b815260206004820152602860248201527f43616e206e6f74207265706179206d6f7265207468616e2074686520746f74616044820152676c20626f72726f7760c01b6064820152608490fd5b6001600160a01b03918216939190811661271681861415612663565b600094818652600960205260ff604087205416158015612836575b6123a4576040516395dd919360e01b81529285166004840152602083602481855afa92831561282b5786936127f8575b5061276b826144fb565b1561277e5750506123269250101561269d565b6127889294612c56565b949290915061279681611e36565b806127e95750156127e0576127c5670de0b6b3a764000091600554604051906127be82611d59565b8152612868565b5104106127d9576127d35790565b50601390565b5050601290565b50505050600390565b94505050505061232681611e36565b9092506020813d8211612823575b8161281360209383611dc3565b8101031261079657519138612761565b3d9150612806565b6040513d88823e3d90fd5b5080865260ff60408720541615612731565b8115612852570490565b634e487b7160e01b600052601260045260246000fd5b9061288291600060405161287b81611d59565b52516128a3565b6040519061288f82611d59565b815290565b906001600092151715611e0c57565b81810292918115918404141715611e0c57565b6001600160a01b0391821693919081166128d281861415612663565b600094818652600960205260ff6040872054161580156129b4575b6123a4576040516395dd919360e01b81529285166004840152602083602481855afa92831561282b578693612981575b50612927826144fb565b1561293a5750506123269250101561269d565b9150915061294792612c56565b9290915061295481611e36565b8061297457501561296d57156129675790565b50600490565b5050600390565b9250505061232681611e36565b9092506020813d82116129ac575b8161299c60209383611dc3565b810103126107965751913861291d565b3d915061298f565b5080865260ff604087205416156128ed565b90816020910312611b3257516001600160a01b0381168103611b325790565b60ff600a5460b81c16612af15760018060a01b038091169060009282845260206009815260409160ff8387205416158015612ade575b6123a4578251948286600481635fe3b56760e01b948582525afa9586156118e4578796612ab3575b5091809160048694865195869384928352165afa928315612aaa5750908392918692612a7d575b505016911603612a775790565b50600290565b612a9c9250803d10612aa3575b612a948183611dc3565b8101906129c6565b3880612a6a565b503d612a8a565b513d87823e3d90fd5b83929083929750612ad360049188963d8611612aa357612a948183611dc3565b979250509192612a43565b50838116865260ff838720541615612a1b565b60405162461bcd60e51b815260206004820152600f60248201526e1cd95a5e99481a5cc81c185d5cd959608a1b6044820152606490fd5b919060ff600a5460b01c16612b405761231b92612329565b60405162461bcd60e51b81526020600482015260126024820152711d1c985b9cd9995c881a5cc81c185d5cd95960721b6044820152606490fd5b6040908151916101e0830183811067ffffffffffffffff821117611d755781526101c08360009283825283602083015283818301528360608301528360808301528360a08301528360c08301528360e08301528051612bd881611d59565b8481526101008301528051612bec81611d59565b8481526101208301528051612c0081611d59565b8481526101408301528051612c1481611d59565b8481526101608301528051612c2881611d59565b8481526101808301528051612c3c81611d59565b8481526101a08301525192612c5084611d59565b83520152565b9091612c60612b7a565b9160018060a01b0380941693604094855192826361bfb47160e11b91828652168060048601526080918286602481875afa90811561301f5760008080988194612ff8575b5060608b0191868c019960a08d019586528a528252612fdf578a948660005260209760098952600187600020015497875198612cdf8a611d59565b89526101008d019889528c6101208751918a5192612cfc84611d59565b835201908152826004541698519163247bf50f60e21b835260048301528a826024818c5afa918215612fd4578e90600093612fa1575b5060c0839101528115612f84578d998f5192612d4d84611d59565b83526101408b01928352518151612d639161302a565b8251612d6e9161302a565b9961018001998a52519051612d829161302a565b976101a08d01988952519783518d5190670de0b6b3a76400009a8b91612da791612868565b510490612db391612631565b8d52519a8c898b865192019d8e5192612dcb91612868565b510490612dd791612631565b8c5216948c519384526004840152808386815a91602492fa8015612f7957600094859486938793612f4d575b505052885252612f375783906024895180948193634b9d40cd60e11b835260048301525afa928315612f2c57600093612efb575b50508160e08601528115612ee757612e6e612e7593875193612e5885611d59565b8452836101608801525196860196875193612868565b5104612631565b80845282519080821115612e9d5750505090612e949151905190611f96565b60009182908190565b80835111600014612ec457505050612eb89151905190611f96565b60009160009190600090565b612edd935090612ed391611f96565b9251905190611f96565b6000926000929190565b505050505050600e90600090600090600090565b8181949293943d8311612f25575b612f138183611dc3565b8101031261054f575051903880612e37565b503d612f09565b87513d6000823e3d90fd5b5050505050505050601090600090600090600090565b925092509350612f6a929450803d10610d3d57610d2a8183611dc3565b92949193919290913880612e03565b8c513d6000823e3d90fd5b505050505050505050505050505050600e90600090600090600090565b919290508b82813d8311612fcd575b612fba8183611dc3565b8101031261054f575051908d60c0612d32565b503d612fb0565b8f513d6000823e3d90fd5b5050505050505050505050601090600090600090600090565b92985050506130149150833d8511610d3d57610d2a8183611dc3565b979190979238612ca4565b89513d6000823e3d90fd5b670de0b6b3a76400009161305091600060405161304681611d59565b52519051906128a3565b046040519061288f82611d59565b9190613068612b7a565b9082158015613605575b156135cc5760009360018060a01b038091168086526020926008845260409283882084518082888294549384815201908c52888c20928c5b8a8282106135b4575050506130c192500382611dc3565b885b81518110156135a357826130d78284611e22565b511683851681036130f157506130ec90611dfd565b6130c3565b9050829394959697989950829150935b61312d875161310f81611d8b565b600d81526c636f6c6c61746572616c20495360981b8a820152614605565b169285519360008089870163161765e160e11b8152602497848982015288815261315681611da7565b51906a636f6e736f6c652e6c6f675afa5080613393575b501680613264575b505050506131d5610180840151946131a183860196875190612e6e670de0b6b3a7640000948592612868565b908187526131c2610160870151600086516131bb81611d59565b5251612894565b8085516131ce81611d59565b5204612631565b8085528351818111156131f4575050505090612e949151905190611f96565b838501918083511160001461325157505050612eb89391693ab73232b93bb0ba32b960b11b61323492519161322883611d8b565b600a8352820152614605565b61323e81516145ca565b61324882516145ca565b51905190611f96565b90919350612edd9450612ed39250611f96565b8451936361bfb47160e11b855260048501526080848481845afa9384156122905760009081908290839761336c575b5060808a019660a08b015286526060890152612f375785916004541692855180948193634b9d40cd60e11b835260048301525afa90811561336157600091613334575b5061331160e08601928284528451926132ee84611d59565b8352826101608801525191670de0b6b3a7640000612e6e86890194855193612868565b905251156133225738808080613175565b50505050600e90600090600090600090565b908482813d831161335a575b61334a8183611dc3565b8101031261054f575051386132d6565b503d613340565b83513d6000823e3d90fd5b9250505061338991945060803d8111610d3d57610d2a8183611dc3565b9592919038613293565b915085516361bfb47160e11b81528560048201526080818681865afa928315612f2c576000808193829661357b575b5060608c019360a08d0196875260808d01528352612fdf5780600052600989526001886000200154938851946133f786611d59565b85526101008b01948552519188519261340f84611d59565b83526101208b0192835289866004541692888b518095819363247bf50f60e21b835260048301525afa91821561301f5760009261354c575b508160c08c01528115613532578a6134f661352a936134ef83966134ef8f9a8f8d9c71636f6c6c61746572616c2062616c616e636560701b826134e593519861348f8a611d59565b89526101408b019889526101806134b46134ac87518a519061302a565b8b519061302a565b9b019a8b526101a06134c988518b519061302a565b9e019d8e5251916134d983611d8b565b60128352820152614605565b6134ef88516145ca565b51516145ca565b51926135158251948d5190612e6e670de0b6b3a7640000978892612868565b8c5251905192612e6e8b8d0194855193612868565b90523861316d565b505050505050505050505050600e90600090600090600090565b90918a82813d8311613574575b6135638183611dc3565b8101031261054f5750519038613447565b503d613559565b9295505050613598915060803d8111610d3d57610d2a8183611dc3565b9490929091386133c2565b505080809298939495969798613101565b855488168452600195860195879550930192016130aa565b60405162461bcd60e51b815260206004820152601160248201527072656465656d20616e6420626f72726f7760781b6044820152606490fd5b506001613072565b9190613617612b7a565b9060009360018060a01b038091168086526020926008845260409283882084518082888294549384815201908c52888c20928c5b8a8282106139c05750505061366292500382611dc3565b885b81518110156139b157826136788284611e22565b51168385168103613692575061368d90611dfd565b613664565b9293949596979899505050915b8083896139a5575b50508180916136ba875161310f81611d8b565b169285519360008089870163161765e160e11b815260249784898201528881526136e381611da7565b51906a636f6e736f6c652e6c6f675afa508061384a575b50168061375b575b505050506131d56101808401519482850195612e6e61374c61372d895193600088516131bb81611d59565b9283875161373a81611d59565b52670de0b6b3a7640000809404612631565b92838952610160880151612868565b8451936361bfb47160e11b855260048501526080848481845afa93841561229057600090819082908397613823575b5060808a019660a08b015286526060890152612f375785916004541692855180948193634b9d40cd60e11b835260048301525afa908115613361576000916137f6575b506137e560e08601928284528451926132ee84611d59565b905251156133225738808080613702565b908482813d831161381c575b61380c8183611dc3565b8101031261054f575051386137cd565b503d613802565b9250505061384091945060803d8111610d3d57610d2a8183611dc3565b959291903861378a565b915085516361bfb47160e11b81528560048201526080818681865afa928315612f2c576000808193829661397d575b5060608c019360a08d0196875260808d01528352612fdf5780600052600989526001886000200154938851946138ae86611d59565b85526101008b0194855251918851926138c684611d59565b83526101208b0192835289866004541692888b518095819363247bf50f60e21b835260048301525afa91821561301f5760009261394e575b508160c08c01528115613532578a6134f6613946936134ef83966134ef8f9a8f8d9c71636f6c6c61746572616c2062616c616e636560701b826134e593519861348f8a611d59565b9052386136fa565b90918a82813d8311613976575b6139658183611dc3565b8101031261054f57505190386138fe565b503d61395b565b929550505061399a915060803d8111610d3d57610d2a8183611dc3565b949092909138613879565b909350905081806136a7565b5050909691929394959661369f565b8554881684526001958601958795509301920161364b565b90929160018060a01b0380600454169460409382855191634b9d40cd60e11b835216600482015260209283826024818b5afa918215613cd357908491600093613ca0575b50602493169786519384809263247bf50f60e21b82528b60048301525afa91821561229057600092613c71575b5080158015613c69575b613c5a578260049786519889809263182df0f560e01b82525afa96871561229057600097613c29575b5091613c068492613c0b8796613c06613bd5613c12986000613c239c51613aa281611d59565b5260008b51613ab081611d59565b5260008b51613abe81611d59565b528d6000808d613b72613b80613b228c613b1c60065498613afa8751613ae381611d59565b8b8152885190613af282611d59565b8d825261302a565b92875190613b0782611d59565b8152875191613b1583611d59565b825261302a565b90613cde565b9d835193613b2f85611d8b565b601785527f636865636b207365697a65207245546820616d6f756e74000000000000000000828601525192839182019463104c13eb60e21b8652602483016142f1565b03601f198101835282611dc3565b51906a636f6e736f6c652e6c6f675afa5060008c51613b9e81611d59565b5260008c51613bac81611d59565b5260008c51613bba81611d59565b528b5190613bc782611d59565b81528b5191613b1583611d59565b98805194613be286611d59565b85525198613bef8a611d59565b613b1c670de0b6b3a76400009a8b9687825261302a565b612868565b51046145ca565b510492613c1e846145ca565b6145ca565b60009190565b90968382813d8311613c53575b613c408183611dc3565b8101031261054f57505195613c06613a7c565b503d613c36565b50505050509050600e90600090565b508115613a53565b90918382813d8311613c99575b613c888183611dc3565b8101031261054f5750519038613a49565b503d613c7e565b9182819492943d8311613ccc575b613cb88183611dc3565b8101031261054f5750519083906024613a1c565b503d613cae565b86513d6000823e3d90fd5b6000604051613cec81611d59565b5251670de0b6b3a764000090818102918183041490151715611e0c57612882915190612848565b6000546001600160a01b039081163303613d7b577fd52b2b9b7e9ee655fcb95d2e5b9e0c9f69e7ef2b8e9d2d0ea78402d576d22e229181604092600454921690816bffffffffffffffffffffffff60a01b8416176004558351921682526020820152a1600090565b505060008051602061462c8339815191526060604051600181526010602082015260006040820152a1600190565b6000805490926001600160a01b0392909183163303613f47578216918284526020600981526040918286209060ff82541615613f19578351613dea81611d59565b858152845190613df982611d59565b670dbd2fc137a300008092525111613eeb57828515159182613e87575b5050613e5a576001018054908490558251948552908401528201527f70483e6592cd5182d45ac970e05bc62cdcc90e9d8ef2c2dbe686cf383bcd7fc590606090a190565b509150606092509283600960008051602061462c833981519152955193600e8552840152820152a1600e90565b602492506004541685519283809263247bf50f60e21b82528a60048301525afa9081156118e4578791613ebe575b50158238613e16565b90508281813d8311613ee4575b613ed58183611dc3565b810103126118d9575138613eb5565b503d613ecb565b50509150606092509283600860008051602061462c83398151915295519360078552840152820152a1600790565b50509150606092509283600760008051602061462c833981519152955193600a8552840152820152a1600a90565b505050606060008051602061462c833981519152916040519060018252600660208301526040820152a1600190565b6000546001600160a01b03163303613fc45760407faeba5a6c40a8ac138134bff1aaa65debf25971188a58804bad717f82f0ec131691600654908060065582519182526020820152a1600090565b5060008051602061462c833981519152606060405160018152600b602082015260006040820152a1600190565b600080546001600160a01b03939290841633036142c157831680825260209060098252604060ff8185205416614295578051637f4e225760e11b81526004969084818981875afa801561428b57614258575b50828552600984528460018382208160ff1982541617815501558490600d54915b8281106141f8575050600160401b8110156141e55782611ef482600161408d9401600d55611c7f565b80519561409987611d8b565b601c87527f626c6f636b206e756d6265722065786365656473203332206269747300000000848801526401000000004310156141c857507fcf583bb0c569eb967f806b11601c4cb93c10310485c67add5f8362c2f212321f9394955061417a63ffffffff4316838752601085528287206011865261415782858a20835460018060e01b0390818116156141a5575b50815490811615614182575b5080546001600160e01b031660e09290921b6001600160e01b031916919091179055565b80546001600160e01b031660e09290921b6001600160e01b031916919091179055565b51908152a190565b6001600160e01b0319166ec097ce7bc90715b34b9f100000000017815538614133565b6001600160e01b0319166ec097ce7bc90715b34b9f100000000017855538614127565b6141e187925192839262461bcd60e51b845283016142f1565b0390fd5b634e487b7160e01b855260418752602485fd5b848261420383611c7f565b90549060031b1c161461421e5761421990611dfd565b614064565b835162461bcd60e51b8152808a0187905260146024820152731b585c9ad95d08185b1c9958591e48185919195960621b6044820152606490fd5b8481813d8311614284575b61426d8183611dc3565b8101031261079657518015150361079a5738614043565b503d614263565b83513d88823e3d90fd5b60008051602061462c83398151915294955060609391506011815193600b8552840152820152a1600b90565b5060008051602061462c8339815191529192506060906040519060018252601260208301526040820152a1600190565b6020808252825181830181905290939260005b82811061432657505060409293506000838284010152601f8019910116010190565b818101860151848201604001528501614304565b9190811015611cb65760051b0190565b356001600160a01b0381168103611b325790565b6000546001600160a01b0390811633036143cf57600a80549282166001600160a01b03198416811790915560408051929093166001600160a01b0390811683521660208201527f0613b6ee6a04f0d09f390e4d9318894b9f6ac7fd83897cd8d18896ba579c401e918190810161214d565b505060008051602061462c8339815191526060604051600181526013602082015260006040820152a1600190565b1561440457565b60405162461bcd60e51b815260206004820152602860248201527f63616e6e6f742070617573652061206d61726b65742074686174206973206e6f6044820152671d081b1a5cdd195960c21b6064820152608490fd5b1561446157565b60405162461bcd60e51b815260206004820152602760248201527f6f6e6c7920706175736520677561726469616e20616e642061646d696e2063616044820152666e20706175736560c81b6064820152608490fd5b156144bd57565b60405162461bcd60e51b81526020600482015260166024820152756f6e6c792061646d696e2063616e20756e706175736560501b6044820152606490fd5b6001600160a01b031660008181526009602090815260408220600101541592909190836145b2575b8361452e5750505090565b6040516305cee64160e21b815293508290849060049082905afa9182156145a557819261456c575b5050670de0b6b3a764000091501438808061239e565b90915082813d831161459e575b6145838183611dc3565b8101031261054f5750670de0b6b3a764000090513880614556565b503d614579565b50604051903d90823e3d90fd5b600c8352604082205460ff1615156001149350614523565b60008091604051602081019163f82c50f160e01b83526024820152602481526145f281611da7565b51906a636f6e736f6c652e6c6f675afa50565b600080916040516145f281613b72602082019463104c13eb60e21b8652602483016142f156fe45b96fe442630264581b197e84bbada861235052c5a1aadfff9ea4e40a969aa0a264697066735822122000122cf1016ba64b5b655e1a22611da42e245f628b18e803cc1f1ebed8539ddf64736f6c63430008140033","linkReferences":{}},"methodIdentifiers":{"_become(address)":"1d504dc6","_borrowGuardianPaused()":"e6653f3d","_mintGuardianPaused()":"3c94786f","_setBorrowCapGuardian(address)":"391957d7","_setBorrowPaused(address,bool)":"18c882a5","_setCloseFactor(uint256)":"317b0b77","_setCollateralFactor(address,uint256)":"e4028eee","_setLiquidationIncentive(uint256)":"4fd42e17","_setMarketBorrowCaps(address[],uint256[])":"607ef6c1","_setMintPaused(address,bool)":"3bcf7ec1","_setPauseGuardian(address)":"5f5af1aa","_setPriceOracle(address)":"55ee1fe1","_setSeizePaused(bool)":"2d70db78","_setTransferPaused(bool)":"8ebf6364","_supportMarket(address)":"a76b3fda","accountAssets(address,uint256)":"dce15449","admin()":"f851a440","allMarkets(uint256)":"52d84d1e","borrowAllowed(address,address,uint256)":"da3d454c","borrowCapGuardian()":"21af4569","borrowCaps(address)":"4a584432","borrowGuardianPaused(address)":"6d154ea5","borrowVerify(address,address,uint256)":"5c778605","checkMembership(address,address)":"929fe9a1","closeFactorMantissa()":"e8755446","collateralFactor(address)":"fbcc6f5e","compAccrued(address)":"cc7ebdc4","compBorrowSpeeds(address)":"f4a433c0","compBorrowState(address)":"8c57804e","compBorrowerIndex(address,address)":"ca0af043","compContributorSpeeds(address)":"986ab838","compInitialIndex()":"a7f0e231","compRate()":"aa900754","compReceivable(address)":"85b7beb8","compSpeeds(address)":"1d7b33d7","compSupplierIndex(address,address)":"b21be7fd","compSupplySpeeds(address)":"6aa875b5","compSupplyState(address)":"6b79c38d","comptrollerImplementation()":"bb82aa5e","enterMarkets(address[])":"c2998238","exitMarket(address)":"ede4edd0","getAccountLiquidityIsolate(address,address,address)":"b093f62b","getAllMarkets()":"b0772d0b","getAssetsIn(address)":"abfceffc","getBlockNumber()":"42cbb15c","isComptroller()":"007e3dd2","isDeprecated(address)":"94543c15","lastContributorBlock(address)":"bea6b8b8","liquidateBadDebtAllowed(address,address,address,address,uint256)":"071dd5d0","liquidateBadDebtCalculateSeizeTokens(address,address,address,uint256)":"09ac776a","liquidateBadDebtCalculateSeizeTokensAfterRepay(address,address,uint256)":"8a0c3c8d","liquidateBorrowAllowed(address,address,address,address,uint256)":"5fc7e71e","liquidateBorrowVerify(address,address,address,address,uint256,uint256)":"47ef3b3b","liquidateCalculateSeizeTokens(address,address,uint256)":"c488847b","liquidationIncentiveMantissa()":"4ada90af","markets(address)":"8e8f294b","maxAssets()":"94b2294b","mintAllowed(address,address,uint256)":"4ef4c3e1","mintGuardianPaused(address)":"731f0c2b","mintVerify(address,address,uint256,uint256)":"41c728b9","oracle()":"7dc0d1d0","pauseGuardian()":"24a3d622","pendingAdmin()":"26782247","pendingComptrollerImplementation()":"dcfbc0c7","proposal65FixExecuted()":"f00a7a92","redeemAllowed(address,address,uint256)":"eabe7d91","redeemVerify(address,address,uint256,uint256)":"51dff989","repayBorrowAllowed(address,address,address,uint256)":"24008a62","repayBorrowVerify(address,address,address,uint256,uint256)":"1ededc91","seizeAllowed(address,address,address,address,uint256)":"d02f7351","seizeGuardianPaused()":"ac0b0bb7","seizeVerify(address,address,address,address,uint256)":"6d35bf91","transferAllowed(address,address,address,uint256)":"bdcdc258","transferGuardianPaused()":"87f76303","transferVerify(address,address,address,uint256)":"6a56947e"},"id":78}