{"abi":[{"type":"function","name":"assetPrices","inputs":[{"name":"asset","type":"address","internalType":"address"}],"outputs":[{"name":"","type":"uint256","internalType":"uint256"}],"stateMutability":"view"},{"type":"function","name":"getUnderlyingPrice","inputs":[{"name":"cToken","type":"address","internalType":"contract CToken"}],"outputs":[{"name":"","type":"uint256","internalType":"uint256"}],"stateMutability":"view"},{"type":"function","name":"getUnderlyingPriceAsBorrowed","inputs":[{"name":"cToken","type":"address","internalType":"contract CToken"}],"outputs":[{"name":"","type":"uint256","internalType":"uint256"}],"stateMutability":"view"},{"type":"function","name":"getUnderlyingPriceAsCollateral","inputs":[{"name":"cToken","type":"address","internalType":"contract CToken"}],"outputs":[{"name":"","type":"uint256","internalType":"uint256"}],"stateMutability":"view"},{"type":"function","name":"isPriceOracle","inputs":[],"outputs":[{"name":"","type":"bool","internalType":"bool"}],"stateMutability":"view"},{"type":"function","name":"setDirectPrice","inputs":[{"name":"asset","type":"address","internalType":"address"},{"name":"price","type":"uint256","internalType":"uint256"}],"outputs":[],"stateMutability":"nonpayable"},{"type":"function","name":"setUnderlyingPrice","inputs":[{"name":"cToken","type":"address","internalType":"contract CToken"},{"name":"underlyingPriceMantissa","type":"uint256","internalType":"uint256"}],"outputs":[],"stateMutability":"nonpayable"},{"type":"event","name":"PricePosted","inputs":[{"name":"asset","type":"address","indexed":false,"internalType":"address"},{"name":"previousPriceMantissa","type":"uint256","indexed":false,"internalType":"uint256"},{"name":"requestedPriceMantissa","type":"uint256","indexed":false,"internalType":"uint256"},{"name":"newPriceMantissa","type":"uint256","indexed":false,"internalType":"uint256"}],"anonymous":false}],"bytecode":{"object":"0x60808060405234610016576104dc908161001c8239f35b600080fdfe60806040818152600436101561001457600080fd5b600091823560e01c90816309a8acb01461017d57508063127ffda0146100f45780635e9a523c146100be57806366331bba146100a357806391efd43c1461009e578063973a819a1461009e5763fc57d4df1461006f57600080fd5b3461009a57602036600319011261009a5760209061009361008e6101f6565b610237565b9051908152f35b5080fd5b610211565b503461009a578160031936011261009a576020905160018152f35b503461009a57602036600319011261009a5760209181906001600160a01b036100e56101f6565b16815280845220549051908152f35b503461009a578060031936011261009a5761010d6101f6565b9061011a602435926102b6565b6001600160a01b031680845260208481528285205483518381529182015260408101849052606081018490527fdd71a1d19fcba687442a1d5c58578f1e409af71a79d10fd95a4d66efd8fa9ae79080608081015b0390a183528260205282205580f35b919050346101f257806003193601126101f2576101986101f6565b6001600160a01b0316808452602084815282852054828552908401526024356040840181905260608401819052927fdd71a1d19fcba687442a1d5c58578f1e409af71a79d10fd95a4d66efd8fa9ae790806080810161016e565b8280fd5b600435906001600160a01b038216820361020c57565b600080fd5b3461020c57602036600319011261020c57602061022f61008e6101f6565b604051908152f35b6001600160a01b0390610249906102b6565b16600052600060205260406000205490565b90601f8019910116810190811067ffffffffffffffff82111761027d57604052565b634e487b7160e01b600052604160045260246000fd5b60005b8381106102a65750506000910152565b8181015183820152602001610296565b604080516395d89b4160e01b815290916001600160a01b03916000918316908281600481855afa90811561049c57839161040e575b50845185810181811067ffffffffffffffff8211176103fa5786526004815260209182820190630c68aa8960e31b825287516103438582816103368183019687815193849201610293565b810103808452018261025b565b51902091610361848951809361033683830196879251928391610293565b5190200361038657505050505073eeeeeeeeeeeeeeeeeeeeeeeeeeeeeeeeeeeeeeee90565b80600492865193848092636f307dc360e01b82525afa9485156103f1575082946103b2575b5050505090565b908092939450813d83116103ea575b6103cb818361025b565b8101031261009a575191821682036103e75750388080806103ab565b80fd5b503d6103c1565b513d84823e3d90fd5b634e487b7160e01b85526041600452602485fd5b90503d8084833e61041f818361025b565b81019060208183031261049857805167ffffffffffffffff91828211610494570182601f820112156104905780519182116103fa5786519261046b601f8401601f19166020018561025b565b82845260208383010111610490579061048a9160208085019101610293565b386102eb565b8480fd5b8580fd5b8380fd5b85513d85823e3d90fdfea26469706673582212200ac94e11ba9a46bb57e8c34309f9aaa193e5209c52c0e8ae94f2f84ebaccc8f464736f6c63430008140033","linkReferences":{}},"methodIdentifiers":{"assetPrices(address)":"5e9a523c","getUnderlyingPrice(address)":"fc57d4df","getUnderlyingPriceAsBorrowed(address)":"973a819a","getUnderlyingPriceAsCollateral(address)":"91efd43c","isPriceOracle()":"66331bba","setDirectPrice(address,uint256)":"09a8acb0","setUnderlyingPrice(address,uint256)":"127ffda0"},"id":19}