{"abi":[{"type":"constructor","inputs":[{"name":"_numaAddress","type":"address","internalType":"address"},{"name":"_nuAssetManagerAddress","type":"address","internalType":"address"}],"stateMutability":"nonpayable"},{"type":"function","name":"GetPriceFromVaultWithoutFees","inputs":[{"name":"_inputAmount","type":"uint256","internalType":"uint256"}],"outputs":[{"name":"","type":"uint256","internalType":"uint256"}],"stateMutability":"view"},{"type":"function","name":"acceptOwnership","inputs":[],"outputs":[],"stateMutability":"nonpayable"},{"type":"function","name":"addVault","inputs":[{"name":"_vault","type":"address","internalType":"address"}],"outputs":[],"stateMutability":"nonpayable"},{"type":"function","name":"constantRemovedSupply","inputs":[],"outputs":[{"name":"","type":"uint256","internalType":"uint256"}],"stateMutability":"view"},{"type":"function","name":"decayPeriod","inputs":[],"outputs":[{"name":"","type":"uint256","internalType":"uint256"}],"stateMutability":"view"},{"type":"function","name":"getNumaSupply","inputs":[],"outputs":[{"name":"","type":"uint256","internalType":"uint256"}],"stateMutability":"view"},{"type":"function","name":"getTotalBalanceEth","inputs":[],"outputs":[{"name":"","type":"uint256","internalType":"uint256"}],"stateMutability":"view"},{"type":"function","name":"getVaults","inputs":[],"outputs":[{"name":"","type":"address[]","internalType":"address[]"}],"stateMutability":"view"},{"type":"function","name":"initialRemovedSupply","inputs":[],"outputs":[{"name":"","type":"uint256","internalType":"uint256"}],"stateMutability":"view"},{"type":"function","name":"isDecaying","inputs":[],"outputs":[{"name":"","type":"bool","internalType":"bool"}],"stateMutability":"view"},{"type":"function","name":"isVault","inputs":[{"name":"_addy","type":"address","internalType":"address"}],"outputs":[{"name":"","type":"bool","internalType":"bool"}],"stateMutability":"view"},{"type":"function","name":"nuAssetManager","inputs":[],"outputs":[{"name":"","type":"address","internalType":"contract INuAssetManagerOld"}],"stateMutability":"view"},{"type":"function","name":"numa","inputs":[],"outputs":[{"name":"","type":"address","internalType":"contract NUMA"}],"stateMutability":"view"},{"type":"function","name":"numaToToken","inputs":[{"name":"_inputAmount","type":"uint256","internalType":"uint256"},{"name":"_refValueWei","type":"uint256","internalType":"uint256"},{"name":"_decimals","type":"uint256","internalType":"uint256"}],"outputs":[{"name":"","type":"uint256","internalType":"uint256"}],"stateMutability":"view"},{"type":"function","name":"owner","inputs":[],"outputs":[{"name":"","type":"address","internalType":"address"}],"stateMutability":"view"},{"type":"function","name":"pendingOwner","inputs":[],"outputs":[{"name":"","type":"address","internalType":"address"}],"stateMutability":"view"},{"type":"function","name":"removeVault","inputs":[{"name":"_vault","type":"address","internalType":"address"}],"outputs":[],"stateMutability":"nonpayable"},{"type":"function","name":"renounceOwnership","inputs":[],"outputs":[],"stateMutability":"nonpayable"},{"type":"function","name":"setConstantRemovedSupply","inputs":[{"name":"_constantRemovedSupply","type":"uint256","internalType":"uint256"}],"outputs":[],"stateMutability":"nonpayable"},{"type":"function","name":"setDecayValues","inputs":[{"name":"_initialRemovedSupply","type":"uint256","internalType":"uint256"},{"name":"_decayPeriod","type":"uint256","internalType":"uint256"},{"name":"_constantRemovedSupply","type":"uint256","internalType":"uint256"}],"outputs":[],"stateMutability":"nonpayable"},{"type":"function","name":"setNuAssetManager","inputs":[{"name":"_nuAssetManager","type":"address","internalType":"address"}],"outputs":[],"stateMutability":"nonpayable"},{"type":"function","name":"startDecay","inputs":[],"outputs":[],"stateMutability":"nonpayable"},{"type":"function","name":"startTime","inputs":[],"outputs":[{"name":"","type":"uint256","internalType":"uint256"}],"stateMutability":"view"},{"type":"function","name":"tokenToNuma","inputs":[{"name":"_inputAmount","type":"uint256","internalType":"uint256"},{"name":"_refValueWei","type":"uint256","internalType":"uint256"},{"name":"_decimals","type":"uint256","internalType":"uint256"}],"outputs":[{"name":"","type":"uint256","internalType":"uint256"}],"stateMutability":"view"},{"type":"function","name":"transferOwnership","inputs":[{"name":"newOwner","type":"address","internalType":"address"}],"outputs":[],"stateMutability":"nonpayable"},{"type":"event","name":"AddedVault","inputs":[{"name":"","type":"address","indexed":false,"internalType":"address"}],"anonymous":false},{"type":"event","name":"OwnershipTransferStarted","inputs":[{"name":"previousOwner","type":"address","indexed":true,"internalType":"address"},{"name":"newOwner","type":"address","indexed":true,"internalType":"address"}],"anonymous":false},{"type":"event","name":"OwnershipTransferred","inputs":[{"name":"previousOwner","type":"address","indexed":true,"internalType":"address"},{"name":"newOwner","type":"address","indexed":true,"internalType":"address"}],"anonymous":false},{"type":"event","name":"RemovedVault","inputs":[{"name":"","type":"address","indexed":false,"internalType":"address"}],"anonymous":false},{"type":"event","name":"SetNuAssetManager","inputs":[{"name":"nuAssetManager","type":"address","indexed":false,"internalType":"address"}],"anonymous":false},{"type":"error","name":"OwnableInvalidOwner","inputs":[{"name":"owner","type":"address","internalType":"address"}]},{"type":"error","name":"OwnableUnauthorizedAccount","inputs":[{"name":"account","type":"address","internalType":"address"}]}],"bytecode":{"object":"0x60a0346100f057601f6110c738819003918201601f19168301916001600160401b038311848410176100f55780849260409485528339810103126100f057610052602061004b8361010b565b920161010b565b9033156100d75760018060a01b03199081600154166001556000549233838516176000556040519360018060a01b03928391823391167f8be0079c531659141344cd1fd0a4f28419497f9722a3daafe3b4186f6b6457e0600080a31660805216906004541617600455610fa79081610120823960805181818161063b0152610ab50152f35b604051631e4fbdf760e01b815260006004820152602490fd5b600080fd5b634e487b7160e01b600052604160045260246000fd5b51906001600160a01b03821682036100f05756fe60406080815260048036101561001457600080fd5b600091823560e01c908163033019f61461089a5781631d25645b14610871578163256b5a0214610792578163289537cd1461077357816344d00f82146106b857816348d67e1b146106995781635245c5591461066a5781635992c23e14610626578163652b9b41146105db57816367bdf640146105be578163715018a61461055957816378e979251461053a57816379ba5097146104b85781638c3d72c6146104945781638da5cb5b1461046c5781639616c2211461044d578163abc9276214610430578163ceb68c231461037c578163e30c397814610353578163e9ae03fc146102ab578163ea0f8c501461027b578163ec7152031461022e578163efb522a0146101c757508063f2fde38b146101595763fc6a6c161461013557600080fd5b346101555760203660031901126101555761014e610d09565b3560065580f35b5080fd5b503461015557602036600319011261015557356001600160a01b03818116918290036101c357610187610d09565b600180546001600160a01b031916831790558254167f38d16b8cac22d99fc7c124b9cd0de2d3fa1faef420bfe791d8c362d765e227008380a380f35b8280fd5b839034610155576020906102276102226101e0366108d0565b916101ec9391936109ec565b9061021c6101f8610aa0565b92610201610bd6565b61020c8282116108ef565b61021785151561096f565b61094c565b90610eee565b610eee565b9051908152f35b8390346101555760209061022761024e610247366108d0565b9190610eee565b6102566109ec565b610275610261610aa0565b9161026a610bd6565b6102178282116108ef565b91610eee565b83346102a857806003193601126102a857610294610d09565b42600855600160ff19600954161760095580f35b80fd5b9050346101c35760203660031901126101c35781356001600160a01b038116929083900361034f576102db610d09565b821561031e5780546001600160a01b03191683179055519081527fd4513cbafbb6291e8ded2d01415d8900b184d555f258b7b730e0b12f0529857b90602090a180f35b6020606492519162461bcd60e51b8352820152600c60248201526b7a65726f206164647265737360a01b6044820152fd5b8380fd5b83903461015557816003193601126101555760015490516001600160a01b039091168152602090f35b9050346101c35760203660031901126101c35781356001600160a01b038116929083900361034f576103ac610d09565b6103c3836000526003602052604060002054151590565b156104005750816020916103f77fa40a7d97cd4243d8bcd193dc4d709afc3717750c5996d9e7216d1a5e0288c49494610e04565b5051908152a180f35b6020606492519162461bcd60e51b8352820152600b60248201526a1b9bdd081a5b881b1a5cdd60aa1b6044820152fd5b839034610155578160031936011261015557602090610227610aa0565b8390346101555781600319360112610155576020906006549051908152f35b839034610155578160031936011261015557905490516001600160a01b039091168152602090f35b83903461015557816003193601126101555760209060ff6009541690519015158152f35b9050346101c357826003193601126101c357600154916001600160a01b039133838516036105235750506001600160a01b031991821660015582543392811683178455167f8be0079c531659141344cd1fd0a4f28419497f9722a3daafe3b4186f6b6457e08380a380f35b60249250519063118cdaa760e01b82523390820152fd5b8390346101555781600319360112610155576020906008549051908152f35b83346102a857806003193601126102a857610572610d09565b600180546001600160a01b03199081169091558154908116825581906001600160a01b03167f8be0079c531659141344cd1fd0a4f28419497f9722a3daafe3b4186f6b6457e08280a380f35b839034610155578160031936011261015557602090610227610bd6565b919050346101c35760203660031901126101c357356001600160a01b03811692908390036102a8575061061d6020926000526003602052604060002054151590565b90519015158152f35b839034610155578160031936011261015557517f00000000000000000000000000000000000000000000000000000000000000006001600160a01b03168152602090f35b83346102a857610679366108d0565b9091610683610d09565b60055560065560075560ff196009541660095580f35b8390346101555781600319360112610155576020906007549051908152f35b83346102a857806003193601126102a8579080519182906002549182855260208095018093600284527f405787fa12a823e0f2b7631cc41b3ba8828b3321ca811111fa75cd3aa3bb5ace90845b81811061075f575050508161071b9103826109b4565b83519485948186019282875251809352850193925b82811061073f57505050500390f35b83516001600160a01b031685528695509381019392810192600101610730565b825484529288019260019283019201610705565b8390346101555781600319360112610155576020906005549051908152f35b9050346101c35760203660031901126101c35781356001600160a01b038116929083900361034f576107c2610d09565b6032600254101561083d576107d683610d82565b1561080957507f557ddd0a3222ab95619c812e02380d7432b0801e123d7833cdeec5b15f5c00589160209151908152a180f35b6020606492519162461bcd60e51b8352820152600f60248201526e185b1c9958591e481a5b881b1a5cdd608a1b6044820152fd5b6020606492519162461bcd60e51b8352820152600f60248201526e746f6f206d616e79207661756c747360881b6044820152fd5b919050346101c357826003193601126101c3575490516001600160a01b03909116815260209150f35b905082346102a85760203660031901126102a857506102276020926108bd6109ec565b906108c96101f8610aa0565b9035610eee565b60609060031901126108ea57600435906024359060443590565b600080fd5b156108f657565b60405162461bcd60e51b815260206004820152602860248201527f7661756c7420697320656d707479206f722073796e74682076616c756520697360448201526720746f6f2062696760c01b6064820152608490fd5b9190820391821161095957565b634e487b7160e01b600052601160045260246000fd5b1561097657565b60405162461bcd60e51b8152602060048201526016602482015275373790373ab6b09034b71031b4b931bab630ba34b7b760511b6044820152606490fd5b90601f8019910116810190811067ffffffffffffffff8211176109d657604052565b634e487b7160e01b600052604160045260246000fd5b6004546001600160a01b03168015610a6257602060049160405192838092631a6719a560e01b82525afa908115610a5657600091610a28575090565b906020823d8211610a4e575b81610a41602093836109b4565b810103126102a857505190565b3d9150610a34565b6040513d6000823e3d90fd5b60405162461bcd60e51b81526020600482015260166024820152751b9d505cdcd95d13585b9859d95c881b9bdd081cd95d60521b6044820152606490fd5b6040516318160ddd60e01b81526020816004817f00000000000000000000000000000000000000000000000000000000000000006001600160a01b03165afa908115610a5657600091610ba5575b506005549060ff6009541680610b9a575b80610b8f575b610b23575b610b2091610b179161094c565b6006549061094c565b90565b610b2f6008544261094c565b908282029180830484149015171561095957600754928315610b7957610b2093610b179304818110610b6a5750506000905b91509150610b0a565b610b739161094c565b90610b61565b634e487b7160e01b600052601260045260246000fd5b506007541515610b05565b506008544211610aff565b906020823d8211610bce575b81610bbe602093836109b4565b810103126102a857505138610aee565b3d9150610bb1565b6000600280549060328211610cc4579082915b818310610bf65750505090565b9091928160005260018060a01b03847f405787fa12a823e0f2b7631cc41b3ba8828b3321ca811111fa75cd3aa3bb5ace015416604090815191828092633876856d60e11b8252602091829160049687915afa918215610cba5750600091610c8e575b5090508201809211610c795750926000198114610959576001019190610be9565b601190634e487b7160e01b6000525260246000fd5b82813d8311610cb3575b610ca281836109b4565b810103126102a85750518038610c58565b503d610c98565b513d6000823e3d90fd5b60405162461bcd60e51b815260206004820152601760248201527f746f6f206d616e79207661756c747320696e206c6973740000000000000000006044820152606490fd5b6000546001600160a01b03163303610d1d57565b60405163118cdaa760e01b8152336004820152602490fd5b600254811015610d6c5760026000527f405787fa12a823e0f2b7631cc41b3ba8828b3321ca811111fa75cd3aa3bb5ace0190600090565b634e487b7160e01b600052603260045260246000fd5b600081815260036020526040812054610dff5760025468010000000000000000811015610deb579082610dd7610dc084600160409601600255610d35565b819391549060031b91821b91600019901b19161790565b905560025492815260036020522055600190565b634e487b7160e01b82526041600452602482fd5b905090565b6000818152600360205260408120549091908015610ee95760001990808201818111610ed55760025490838201918211610ec157818103610e8d575b5050506002548015610e7957810190610e5882610d35565b909182549160031b1b19169055600255815260036020526040812055600190565b634e487b7160e01b84526031600452602484fd5b610eab610e9c610dc093610d35565b90549060031b1c928392610d35565b9055845260036020526040842055388080610e40565b634e487b7160e01b86526011600452602486fd5b634e487b7160e01b85526011600452602485fd5b505090565b916000198284099282810292838086109503948086039514610f6357848311156108ea5782910981806000031680920460028082600302188083028203028083028203028083028203028083028203028083028203028092029003029360018380600003040190848311900302920304170290565b5050809250156108ea57049056fea2646970667358221220c6f042ffaf0d4101f7a0f5cf8a4d5a6b728f06494dd63877491b8d107d9ae28664736f6c63430008140033","linkReferences":{}},"methodIdentifiers":{"GetPriceFromVaultWithoutFees(uint256)":"033019f6","acceptOwnership()":"79ba5097","addVault(address)":"256b5a02","constantRemovedSupply()":"9616c221","decayPeriod()":"48d67e1b","getNumaSupply()":"abc92762","getTotalBalanceEth()":"67bdf640","getVaults()":"44d00f82","initialRemovedSupply()":"289537cd","isDecaying()":"8c3d72c6","isVault(address)":"652b9b41","nuAssetManager()":"1d25645b","numa()":"5992c23e","numaToToken(uint256,uint256,uint256)":"efb522a0","owner()":"8da5cb5b","pendingOwner()":"e30c3978","removeVault(address)":"ceb68c23","renounceOwnership()":"715018a6","setConstantRemovedSupply(uint256)":"fc6a6c16","setDecayValues(uint256,uint256,uint256)":"5245c559","setNuAssetManager(address)":"e9ae03fc","startDecay()":"ea0f8c50","startTime()":"78e97925","tokenToNuma(uint256,uint256,uint256)":"ec715203","transferOwnership(address)":"f2fde38b"},"id":91}