{"abi":[{"type":"constructor","inputs":[{"name":"_token","type":"address","internalType":"address"},{"name":"_intervalShort","type":"uint32","internalType":"uint32"},{"name":"_intervalLong","type":"uint32","internalType":"uint32"},{"name":"initialOwner","type":"address","internalType":"address"},{"name":"_nuAManager","type":"address","internalType":"address"}],"stateMutability":"nonpayable"},{"type":"function","name":"acceptOwnership","inputs":[],"outputs":[],"stateMutability":"nonpayable"},{"type":"function","name":"getNbOfAssetneeded","inputs":[{"name":"_amountNumaOut","type":"uint256","internalType":"uint256"},{"name":"_nuAsset","type":"address","internalType":"address"},{"name":"_numaPool","type":"address","internalType":"address"},{"name":"_converter","type":"address","internalType":"address"},{"name":"_EthPerNumaVault","type":"uint256","internalType":"uint256"}],"outputs":[{"name":"","type":"uint256","internalType":"uint256"}],"stateMutability":"view"},{"type":"function","name":"getNbOfNuAsset","inputs":[{"name":"_numaAmount","type":"uint256","internalType":"uint256"},{"name":"_nuAsset","type":"address","internalType":"address"},{"name":"_numaPool","type":"address","internalType":"address"},{"name":"_converter","type":"address","internalType":"address"},{"name":"_EthPerNumaVault","type":"uint256","internalType":"uint256"}],"outputs":[{"name":"","type":"uint256","internalType":"uint256"}],"stateMutability":"view"},{"type":"function","name":"getNbOfNuAssetFromNuAsset","inputs":[{"name":"_nuAssetAmountIn","type":"uint256","internalType":"uint256"},{"name":"_nuAssetIn","type":"address","internalType":"address"},{"name":"_nuAssetOut","type":"address","internalType":"address"}],"outputs":[{"name":"","type":"uint256","internalType":"uint256"}],"stateMutability":"view"},{"type":"function","name":"getNbOfNumaFromAsset","inputs":[{"name":"_nuAssetAmount","type":"uint256","internalType":"uint256"},{"name":"_nuAsset","type":"address","internalType":"address"},{"name":"_numaPool","type":"address","internalType":"address"},{"name":"_converter","type":"address","internalType":"address"},{"name":"_ethToNumaMulAmountVault","type":"uint256","internalType":"uint256"}],"outputs":[{"name":"","type":"uint256","internalType":"uint256"}],"stateMutability":"view"},{"type":"function","name":"getNbOfNumaNeeded","inputs":[{"name":"_nuAssetAmount","type":"uint256","internalType":"uint256"},{"name":"_nuAsset","type":"address","internalType":"address"},{"name":"_numaPool","type":"address","internalType":"address"},{"name":"_converter","type":"address","internalType":"address"},{"name":"_numaPerEthVault","type":"uint256","internalType":"uint256"}],"outputs":[{"name":"","type":"uint256","internalType":"uint256"}],"stateMutability":"view"},{"type":"function","name":"getV3SqrtHighestPrice","inputs":[{"name":"_uniswapV3Pool","type":"address","internalType":"address"},{"name":"_intervalShort","type":"uint32","internalType":"uint32"},{"name":"_intervalLong","type":"uint32","internalType":"uint32"}],"outputs":[{"name":"","type":"uint160","internalType":"uint160"}],"stateMutability":"view"},{"type":"function","name":"getV3SqrtLowestPrice","inputs":[{"name":"_uniswapV3Pool","type":"address","internalType":"address"},{"name":"_intervalShort","type":"uint32","internalType":"uint32"},{"name":"_intervalLong","type":"uint32","internalType":"uint32"}],"outputs":[{"name":"","type":"uint160","internalType":"uint160"}],"stateMutability":"view"},{"type":"function","name":"getV3SqrtPriceAvg","inputs":[{"name":"_uniswapV3Pool","type":"address","internalType":"address"},{"name":"_interval","type":"uint32","internalType":"uint32"}],"outputs":[{"name":"","type":"uint160","internalType":"uint160"}],"stateMutability":"view"},{"type":"function","name":"intervalLong","inputs":[],"outputs":[{"name":"","type":"uint32","internalType":"uint32"}],"stateMutability":"view"},{"type":"function","name":"intervalShort","inputs":[],"outputs":[{"name":"","type":"uint32","internalType":"uint32"}],"stateMutability":"view"},{"type":"function","name":"nuAManager","inputs":[],"outputs":[{"name":"","type":"address","internalType":"contract nuAssetManager"}],"stateMutability":"view"},{"type":"function","name":"owner","inputs":[],"outputs":[{"name":"","type":"address","internalType":"address"}],"stateMutability":"view"},{"type":"function","name":"pendingOwner","inputs":[],"outputs":[{"name":"","type":"address","internalType":"address"}],"stateMutability":"view"},{"type":"function","name":"renounceOwnership","inputs":[],"outputs":[],"stateMutability":"nonpayable"},{"type":"function","name":"setIntervalLong","inputs":[{"name":"_interval","type":"uint32","internalType":"uint32"}],"outputs":[],"stateMutability":"nonpayable"},{"type":"function","name":"setIntervalShort","inputs":[{"name":"_interval","type":"uint32","internalType":"uint32"}],"outputs":[],"stateMutability":"nonpayable"},{"type":"function","name":"token","inputs":[],"outputs":[{"name":"","type":"address","internalType":"address"}],"stateMutability":"view"},{"type":"function","name":"transferOwnership","inputs":[{"name":"newOwner","type":"address","internalType":"address"}],"outputs":[],"stateMutability":"nonpayable"},{"type":"event","name":"IntervalLong","inputs":[{"name":"_intervalLong","type":"uint32","indexed":false,"internalType":"uint32"}],"anonymous":false},{"type":"event","name":"IntervalShort","inputs":[{"name":"_intervalShort","type":"uint32","indexed":false,"internalType":"uint32"}],"anonymous":false},{"type":"event","name":"OwnershipTransferStarted","inputs":[{"name":"previousOwner","type":"address","indexed":true,"internalType":"address"},{"name":"newOwner","type":"address","indexed":true,"internalType":"address"}],"anonymous":false},{"type":"event","name":"OwnershipTransferred","inputs":[{"name":"previousOwner","type":"address","indexed":true,"internalType":"address"},{"name":"newOwner","type":"address","indexed":true,"internalType":"address"}],"anonymous":false},{"type":"error","name":"OwnableInvalidOwner","inputs":[{"name":"owner","type":"address","internalType":"address"}]},{"type":"error","name":"OwnableUnauthorizedAccount","inputs":[{"name":"account","type":"address","internalType":"address"}]},{"type":"error","name":"T","inputs":[]}],"bytecode":{"object":"0x60a0346200017257601f6200236238819003918201601f19168301916001600160401b03831184841017620001775780849260a09460405283398101031262000172576200004d816200018d565b906200005c60208201620001a2565b906200006b60408201620001a2565b9162000088608062000080606085016200018d565b93016200018d565b6001600160a01b039283169390919084156200015957600154906000549660018060a01b03199680888a16176000558660405199167f8be0079c531659141344cd1fd0a4f28419497f9722a3daafe3b4186f6b6457e0600080a360805263ffffffff60c01b9060c01b169163ffffffff60a01b9060a01b169063ffffffff60e01b161717600155169060025416176002556121ad9081620001b58239608051818181610107015281816105d2015281816109ae01528181610f240152818161123f01528181611dce0152611f470152f35b604051631e4fbdf760e01b815260006004820152602490fd5b600080fd5b634e487b7160e01b600052604160045260246000fd5b51906001600160a01b03821682036200017257565b519063ffffffff82168203620001725756fe6040608081526004908136101561001557600080fd5b600091823560e01c9081630ec26752146111d65781630ef1a3c914610ebe5781634188c74414610e87578163715018a614610e2257816375857d7f14610dfa57816375e13fc114610d0f57816379ba509714610c885781638da5cb5b14610c60578163a469ecca14610948578163acd8dc80146104bd578163afeba41014610495578163b9ba556614610467578163da0351cf1461030a578163da27394c1461024157508063db6c4d8614610219578063dc2d9592146101d2578063e30c3978146101aa578063f2fde38b1461013a5763fc0c546a146100f457600080fd5b34610136578160031936011261013657517f00000000000000000000000000000000000000000000000000000000000000006001600160a01b03168152602090f35b5080fd5b82346101a75760203660031901126101a7576101546114f1565b61015c612085565b600180546001600160a01b0319166001600160a01b0392831690811790915582549091167f38d16b8cac22d99fc7c124b9cd0de2d3fa1faef420bfe791d8c362d765e227008380a380f35b80fd5b503461013657816003193601126101365760015490516001600160a01b039091168152602090f35b5034610136576060366003190112610136576020906102086101f26114f1565b6101fa611551565b610202611564565b91611ec2565b90516001600160a01b039091168152f35b503461013657816003193601126101365760025490516001600160a01b039091168152602090f35b839150346101365760203660031901126101365761025d611577565b610265612085565b63ffffffff91828216156102c757506001805463ffffffff60a01b191660a092831b63ffffffff60a01b1617908190558451911c90911681527f04c718171a5c9d548e8b40b44cefc77626783d9d6be6017c96c292ca6f93e34e90602090a180f35b606490602086519162461bcd60e51b8352820152601860248201527f496e74657276616c206d757374206265206e6f6e7a65726f00000000000000006044820152fd5b838334610136576060366003190112610136576001600160a01b039260243584811681036104635760443590858216820361045f5760025484516307ab4d8f60e21b81526001600160a01b039093168484019081528435602082810191909152979190911691908790849081906040010381855afa928315610455579087939291879361041c575b50855163955f2af160e01b81526001600160a01b0390911694810194855260208501929092529092839190829081906040015b03915afa9283156104115780936103df575b505051908152f35b909192508382813d831161040a575b6103f881836115bc565b810103126101a75750519083806103d7565b503d6103ee565b8251903d90823e3d90fd5b848193959294503d831161044e575b61043581836115bc565b8101031261044a5751869290916103c5610392565b8580fd5b503d61042b565b85513d88823e3d90fd5b8480fd5b8380fd5b5050346101365780600319360112610136576020906102086104876114f1565b61048f611551565b9061163d565b50503461013657816003193601126101365760209063ffffffff60015460a01c169051908152f35b8284346101a7576104cd3661150c565b929091869496519685880188811067ffffffffffffffff821117610935578652601b88526020977f2a2a2a2a6765745633537172744c6f7765737450726963652a2a2a0000000000898201528787518a81019263104c13eb60e21b84528b60248301528051908160448401528c845b83811061091d575050509061056e60648284868381999784010152601f801991011681010360448101845201826115bc565b51906a636f6e736f6c652e6c6f675afa5061059b60015463ffffffff808260c01c169160a01c1684611d43565b8651630dfe168160e01b81526001600160a01b03938a9082908d90829088165afa9081156109135790849392918a916108e6575b507f00000000000000000000000000000000000000000000000000000000000000008416931683036108d95783808216915b61060a8361204a565b16818114919082156108d35750600160601b915b6106278361204a565b156107f657670de0b6b3a7640000908181029181830414811517156107e357610658838e9897969594938e936120b1565b938a519d8e809263313ce56760e01b82525afa80156107d9578b9c8b9c999a9b91610783575b5061069d93929161069161069792612010565b90612037565b916120b1565b955b8187951696876106fe575b506103c596506106b98561204a565b8085106106f6575b506002541691865195869485938493633e0dfc3760e11b8552840160209093929193604081019460018060a01b031681520152565b9350896106c1565b90959192939450602488518098819363154b94f560e31b8352888301525afa801561077957908894939291889061073c575b6103c59650938a6106aa565b5091938581969294963d8311610772575b61075781836115bc565b8101031261076e57918793916103c5959351610730565b8680fd5b503d61074d565b86513d89823e3d90fd5b8981939495969798999a92503d83116107d2575b6107a181836115bc565b810103126107ce57916106978c9897969594926106916107c361069d96611cad565b92505091929361067e565b8a80fd5b503d610797565b89513d8c823e3d90fd5b634e487b7160e01b8b5260118d5260248bfd5b90929a8a899a9b9c8298999a519283809263313ce56760e01b82525afa9081156108c9579084918c91610884575b509161083b61083561084194612010565b82612037565b906120b1565b670de0b6b3a764000092838102938185041490151715610871579161086b918b97969594936120b1565b9561069f565b634e487b7160e01b8a526011865260248afd5b8092508d8092503d83116108c2575b61089d81836115bc565b810103126107ce576108419161083b6108356108b98794611cad565b92945050610824565b503d610893565b8a513d8d823e3d90fd5b9161061e565b600160601b908490610601565b61090691508b3d8d1161090c575b6108fe81836115bc565b810190611d24565b8c6105cf565b503d6108f4565b88513d8b823e3d90fd5b828101820151858201606401528d95508e910161053c565b634e487b7160e01b885260418a52602488fd5b8284346101a7576109583661150c565b92909161097a60019795975463ffffffff808260c01c169160a01c1683611d43565b855197630dfe168160e01b895260209889818c8160018060a01b038098165afa908115610913579084918a91610c43575b507f0000000000000000000000000000000000000000000000000000000000000000821691168103610c365783808416935b1683811491908215610c305750600160601b915b15610b71579a8a899a9b9c8298999a519283809263313ce56760e01b82525afa9081156108c9579084918c91610b2c575b509161083b610835610a3394612010565b670de0b6b3a7640000928381029381850414901517156108715791610a5d918b97969594936120b1565b955b818795169687610ab5575b506103c59650808511610aad575b5060025416918651958694859384936307ab4d8f60e21b8552840160209093929193604081019460018060a01b031681520152565b935089610a78565b90959192939450602488518098819363fc04751d60e01b8352888301525afa8015610779579088949392918890610af3575b6103c59650938a610a6a565b5091938581969294963d8311610b25575b610b0e81836115bc565b8101031261076e57918793916103c5959351610ae7565b503d610b04565b8092508d8092503d8311610b6a575b610b4581836115bc565b810103126107ce57610a339161083b610835610b618794611cad565b92945050610a22565b503d610b3b565b9290670de0b6b3a7640000908181029181830414811517156107e357610b9f838e9897969594938e936120b1565b938a519d8e809263313ce56760e01b82525afa80156107d9578b9c8b9c999a9b91610bde575b50610bd893929161069161069792612010565b95610a5f565b8981939495969798999a92503d8311610c29575b610bfc81836115bc565b810103126107ce57916106978c989796959492610691610c1e610bd896611cad565b925050919293610bc5565b503d610bf2565b916109f1565b600160601b9284906109dd565b610c5a91508b3d8d1161090c576108fe81836115bc565b8c6109ab565b505034610136578160031936011261013657905490516001600160a01b039091168152602090f35b91905034610d0b5782600319360112610d0b57600154916001600160a01b03913383851603610cf45750506001600160a01b031991821660015582543392811683178455167f8be0079c531659141344cd1fd0a4f28419497f9722a3daafe3b4186f6b6457e08380a380f35b60249250519063118cdaa760e01b82523390820152fd5b8280fd5b8391503461013657602036600319011261013657610d2b611577565b610d33612085565b6001549063ffffffff92838360a01c168483161115610d9f575063ffffffff60c01b1990911660c091821b63ffffffff60c01b161760018190558451911c90911681527f38ebafc45713c35f98cb94e8b6e37254c2b82f56d458b96b07d4135b2ec11ed290602090a180f35b608490602087519162461bcd60e51b8352820152602f60248201527f696e74657276616c4c6f6e67206d75737420626520677265617465722074686160448201526e1b881a5b9d195c9d985b14da1bdc9d608a1b6064820152fd5b50503461013657816003193601126101365760209063ffffffff60015460c01c169051908152f35b83346101a757806003193601126101a757610e3b612085565b600180546001600160a01b03199081169091558154908116825581906001600160a01b03167f8be0079c531659141344cd1fd0a4f28419497f9722a3daafe3b4186f6b6457e08280a380f35b50503461013657606036600319011261013657602090610208610ea86114f1565b610eb0611551565b610eb8611564565b91611d43565b8284346101a757610ece3661150c565b929091610ef060019795975463ffffffff808260c01c169160a01c1683611ec2565b855197630dfe168160e01b895260209889818c8160018060a01b038098165afa908115610913579084918a916111b9575b507f00000000000000000000000000000000000000000000000000000000000000008216911681036111ac5783808416935b16838114919082156111a65750600160601b915b156110e7579a8a899a9b9c8298999a519283809263313ce56760e01b82525afa9081156108c9579084918c916110a2575b509161083b610835610fa994612010565b670de0b6b3a7640000928381029381850414901517156108715791610fd3918b97969594936120b1565b955b81879516968761102b575b506103c59650808510611023575b50600254169186519586948593849363035ccd2f60e31b8552840160209093929193604081019460018060a01b031681520152565b935089610fee565b90959192939450602488518098819363fc04751d60e01b8352888301525afa8015610779579088949392918890611069575b6103c59650938a610fe0565b5091938581969294963d831161109b575b61108481836115bc565b8101031261076e57918793916103c595935161105d565b503d61107a565b8092508d8092503d83116110e0575b6110bb81836115bc565b810103126107ce57610fa99161083b6108356110d78794611cad565b92945050610f98565b503d6110b1565b9290670de0b6b3a7640000908181029181830414811517156107e357611115838e9897969594938e936120b1565b938a519d8e809263313ce56760e01b82525afa80156107d9578b9c8b9c999a9b91611154575b5061114e93929161069161069792612010565b95610fd5565b8981939495969798999a92503d831161119f575b61117281836115bc565b810103126107ce57916106978c98979695949261069161119461114e96611cad565b92505091929361113b565b503d611168565b91610f67565b600160601b928490610f53565b6111d091508b3d8d1161090c576108fe81836115bc565b8c610f21565b8284346101a7576111e63661150c565b92909161120860019795975463ffffffff808260c01c169160a01c1683611ec2565b96855197630dfe168160e01b895260209889818c8160018060a01b038098165afa9081156109135790849392918a916114d4575b507f00000000000000000000000000000000000000000000000000000000000000008416931683036114c75783808216915b16818114919082156114c15750600160601b915b1561140d57670de0b6b3a7640000908181029181830414811517156107e3576112b3838e9897969594938e936120b1565b938a519d8e809263313ce56760e01b82525afa80156107d9578b9c8b9c999a9b916113bb575b506112ec93929161069161069792612010565b955b818795169687611344575b506103c5965080851161133c575b50600254169186519586948593849363955f2af160e01b8552840160209093929193604081019460018060a01b031681520152565b935089611307565b90959192939450602488518098819363154b94f560e31b8352888301525afa8015610779579088949392918890611382575b6103c59650938a6112f9565b5091938581969294963d83116113b4575b61139d81836115bc565b8101031261076e57918793916103c5959351611376565b503d611393565b8981939495969798999a92503d8311611406575b6113d981836115bc565b810103126107ce57916106978c9897969594926106916113fb6112ec96611cad565b9250509192936112d9565b503d6113cf565b90929a8a899a9b9c8298999a519283809263313ce56760e01b82525afa9081156108c9579084918c9161147c575b509161083b61083561144c94612010565b670de0b6b3a7640000928381029381850414901517156108715791611476918b97969594936120b1565b956112ee565b8092508d8092503d83116114ba575b61149581836115bc565b810103126107ce5761144c9161083b6108356114b18794611cad565b9294505061143b565b503d61148b565b91611282565b600160601b90849061126e565b6114eb91508b3d8d1161090c576108fe81836115bc565b8c61123c565b600435906001600160a01b038216820361150757565b600080fd5b60a090600319011261150757600435906001600160a01b0360243581811681036115075791604435828116810361150757916064359081168103611507579060843590565b6024359063ffffffff8216820361150757565b6044359063ffffffff8216820361150757565b6004359063ffffffff8216820361150757565b6060810190811067ffffffffffffffff8211176115a657604052565b634e487b7160e01b600052604160045260246000fd5b90601f8019910116810190811067ffffffffffffffff8211176115a657604052565b67ffffffffffffffff81116115a65760051b60200190565b8051156116035760200190565b634e487b7160e01b600052603260045260246000fd5b8051600110156116035760400190565b51906001600160a01b038216820361150757565b63ffffffff809216908115611bf6579160409081519061165c8261158a565b60028252602093848301928436853781611675826115f6565b526000938461168383611619565b5284865198899263883bdbfd60e01b8452602484016004958b8787015251809152604485019190845b8c828210611bda57506001600160a01b039d87959403938593508e169150505afa908115611bd0578591611ac3575b506116ef6116e882611619565b51916115f6565b5160060b9060060b03667fffffffffffff1992667fffffffffffff821384831217611a9d5760030b9060060b8115611ab05760001993811482851416611a9d570560020b84811215611a97578085035b620d89e88111611a87576001811615611a75576001600160881b036ffffcb933bd6fad37aa2d162d1a5940015b169660028216611a59575b838216611a3d575b60088216611a21575b60108216611a05575b8882166119e9575b81166119cd575b6080908181166119b2575b6101008116611997575b610200811661197c575b6104008116611961575b6108008116611946575b611000811661192b575b6120008116611910575b61400081166118f5575b61800081166118da575b6201000081166118bf575b6202000081166118a5575b62040000811661188b575b6208000016611871575b50841261184c575b505082166118425760ff905b16911c011690565b5060ff600161183a565b8492941561185e57500491388061182e565b634e487b7160e01b845260129052602483fd5b6b048a170391f7dc42444e8fa286929702901c9590611826565b6d2216e584f5fa1ea926041bedfe98909702811c9661181c565b966e5d6af8dedb81196699c329225ee60402811c96611811565b966f09aa508b5b7a84e1c677de54f3e99bc902811c96611806565b966f31be135f97d08fd981231505542fcfa602811c966117fb565b966f70d869a156d2a1b890bb3df62baf32f702811c966117f1565b966fa9f746462d870fdf8a65dc1f90e061e502811c966117e7565b966fd097f3bdfd2022b8845ad8f792aa582502811c966117dd565b966fe7159475a2c29b7443b29c7fa6e889d902811c966117d3565b966ff3392b0822b70005940c7a398e4b70f302811c966117c9565b966ff987a7253ac413176f2b074cf7815e5402811c966117bf565b966ffcbe86c7900a88aedcffc83b479aa3a402811c966117b5565b966ffe5dee046a99a2a811c461f1969c305302811c966117ab565b956fff2ea16466c96a3843ec78b326b528610260801c956117a0565b966fff973b41fa98c081472e6896dfb254c00260801c96611799565b966fffcb9843d60f6159c9db58835c9266440260801c96611791565b966fffe5caca7e10e4e61c3624eaa0941cd00260801c96611788565b966ffff2e50f5f656932ef12357cf3c7fdcc0260801c9661177f565b966ffff97272373d413259a46990580e213a0260801c96611777565b6001600160881b03600160801b61176c565b86516315e4079d60e11b81528390fd5b8061173f565b634e487b7160e01b865260118352602486fd5b634e487b7160e01b865260128352602486fd5b90503d8086833e611ad481836115bc565b8101868282031261044a57815167ffffffffffffffff90818111611baf5783019282601f85011215611baf57835193611b0c856115de565b94611b198b5196876115bc565b8086528b8087019160051b830101918583116107ce578c01905b828210611bb35750505089810151918211611baf570181601f8201121561076e578051908980611b62846115de565b611b6e8c5191826115bc565b848152019260051b820101928311611baf5789809101915b838310611b975750505050386116db565b8190611ba284611629565b8152019101908990611b86565b8780fd5b81518060060b8103611bcc578152908c01908c01611b33565b8b80fd5b86513d87823e3d90fd5b83518b1685528e97508b965093840193909201916001016116ac565b60405162461bcd60e51b815260206004820152601760248201527f696e74657276616c2063616e6e6f74206265207a65726f0000000000000000006044820152606490fd5b15611c4257565b60405162461bcd60e51b815260206004820152602e60248201527f696e74657276616c4c6f6e67206d757374206265206c6f6e676572207468616e60448201526d081a5b9d195c9d985b14da1bdc9d60921b6064820152608490fd5b519061ffff8216820361150757565b519060ff8216820361150757565b908160e091031261150757611ccf81611629565b9160208201518060020b81036115075791611cec60408201611c9e565b91611cf960608301611c9e565b91611d0660808201611c9e565b9160c0611d1560a08401611cad565b92015180151581036115075790565b9081602091031261150757516001600160a01b03811681036115075790565b91611d5863ffffffff80841690831611611c3b565b604051633850c7bd60e01b81526001600160a01b039390928482169260009160e086600481885afa958615611eb7578396611e71575b50611da7600492611da16020938761163d565b9561163d565b9460405192838092630dfe168160e01b82525afa908115611e66578291611e48575b5085167f0000000000000000000000000000000000000000000000000000000000000000861603611e1f575080841682851610611e175750915b81811690831610611e12575090565b905090565b905091611e03565b93919080831682841611611e405750925b5081811690831611611e12575090565b905092611e30565b611e60915060203d811161090c576108fe81836115bc565b38611dc9565b6040513d84823e3d90fd5b6020919650600492611da1611e9f611da79360e03d8111611eb0575b611e9781836115bc565b810190611cbb565b505050505050989350509250611d8e565b503d611e8d565b6040513d85823e3d90fd5b91611ed763ffffffff80841690831611611c3b565b604051633850c7bd60e01b81526001600160a01b039390928482169260009160e086600481885afa958615611eb7578396611fda575b50611f20600492611da16020938761163d565b9460405192838092630dfe168160e01b82525afa908115611e66578291611fbc575b5085167f0000000000000000000000000000000000000000000000000000000000000000861603611f93575080841682851611611f8b5750915b81811690831611611e12575090565b905091611f7c565b93919080831682841610611fb45750925b5081811690831610611e12575090565b905092611fa4565b611fd4915060203d811161090c576108fe81836115bc565b38611f42565b6020919650600492611da1611fff611f209360e03d8111611eb057611e9781836115bc565b505050505050989350509250611f0d565b60ff16604d811161202157600a0a90565b634e487b7160e01b600052601160045260246000fd5b8181029291811591840414171561202157565b60008091604051602081019163f82c50f160e01b83526024820152602481526120728161158a565b51906a636f6e736f6c652e6c6f675afa50565b6000546001600160a01b0316330361209957565b60405163118cdaa760e01b8152336004820152602490fd5b9291906120bf8282866120f4565b9382156120de57096120cd57565b906000198110156115075760010190565b634e487b7160e01b600052601260045260246000fd5b91600019828409928281029283808610950394808603951461216957848311156115075782910981806000031680920460028082600302188083028203028083028203028083028203028083028203028083028203028092029003029360018380600003040190848311900302920304170290565b50508092501561150757049056fea264697066735822122002fb142d4451d5ce5947d95c9236ebf5f41d64306c0401314c2f73884583583464736f6c63430008140033","linkReferences":{}},"methodIdentifiers":{"acceptOwnership()":"79ba5097","getNbOfAssetneeded(uint256,address,address,address,uint256)":"0ef1a3c9","getNbOfNuAsset(uint256,address,address,address,uint256)":"a469ecca","getNbOfNuAssetFromNuAsset(uint256,address,address)":"da0351cf","getNbOfNumaFromAsset(uint256,address,address,address,uint256)":"0ec26752","getNbOfNumaNeeded(uint256,address,address,address,uint256)":"acd8dc80","getV3SqrtHighestPrice(address,uint32,uint32)":"dc2d9592","getV3SqrtLowestPrice(address,uint32,uint32)":"4188c744","getV3SqrtPriceAvg(address,uint32)":"b9ba5566","intervalLong()":"75857d7f","intervalShort()":"afeba410","nuAManager()":"db6c4d86","owner()":"8da5cb5b","pendingOwner()":"e30c3978","renounceOwnership()":"715018a6","setIntervalLong(uint32)":"75e13fc1","setIntervalShort(uint32)":"da27394c","token()":"fc0c546a","transferOwnership(address)":"f2fde38b"},"id":2}