{"abi":[{"type":"constructor","inputs":[{"name":"_numaAddress","type":"address","internalType":"address"},{"name":"_tokenAddress","type":"address","internalType":"address"},{"name":"_decimals","type":"uint256","internalType":"uint256"},{"name":"_oracleAddress","type":"address","internalType":"address"},{"name":"_minterAddress","type":"address","internalType":"address"}],"stateMutability":"nonpayable"},{"type":"function","name":"GetMaxBorrow","inputs":[],"outputs":[{"name":"","type":"uint256","internalType":"uint256"}],"stateMutability":"view"},{"type":"function","name":"MIN","inputs":[],"outputs":[{"name":"","type":"uint256","internalType":"uint256"}],"stateMutability":"view"},{"type":"function","name":"acceptOwnership","inputs":[],"outputs":[],"stateMutability":"nonpayable"},{"type":"function","name":"accrueInterestLending","inputs":[],"outputs":[],"stateMutability":"nonpayable"},{"type":"function","name":"accrueInterestLendingAndUpdateDebasing","inputs":[],"outputs":[{"name":"scale","type":"uint256","internalType":"uint256"},{"name":"scaleForPrice","type":"uint256","internalType":"uint256"},{"name":"sell_fee_result","type":"uint16","internalType":"uint16"}],"stateMutability":"nonpayable"},{"type":"function","name":"borrow","inputs":[{"name":"_amount","type":"uint256","internalType":"uint256"}],"outputs":[],"stateMutability":"nonpayable"},{"type":"function","name":"borrowLeverage","inputs":[{"name":"_amount","type":"uint256","internalType":"uint256"},{"name":"_closePosition","type":"bool","internalType":"bool"}],"outputs":[],"stateMutability":"nonpayable"},{"type":"function","name":"buy","inputs":[{"name":"_inputAmount","type":"uint256","internalType":"uint256"},{"name":"_minNumaAmount","type":"uint256","internalType":"uint256"},{"name":"_receiver","type":"address","internalType":"address"}],"outputs":[{"name":"_numaOut","type":"uint256","internalType":"uint256"}],"stateMutability":"nonpayable"},{"type":"function","name":"buyFromCToken","inputs":[{"name":"_inputAmount","type":"uint256","internalType":"uint256"},{"name":"_minAmount","type":"uint256","internalType":"uint256"},{"name":"_closePosition","type":"bool","internalType":"bool"}],"outputs":[{"name":"","type":"uint256","internalType":"uint256"}],"stateMutability":"nonpayable"},{"type":"function","name":"cf_liquid_warning","inputs":[],"outputs":[{"name":"","type":"uint256","internalType":"uint256"}],"stateMutability":"view"},{"type":"function","name":"decimals","inputs":[],"outputs":[{"name":"","type":"uint256","internalType":"uint256"}],"stateMutability":"view"},{"type":"function","name":"extractRewards","inputs":[],"outputs":[],"stateMutability":"nonpayable"},{"type":"function","name":"fees","inputs":[],"outputs":[{"name":"","type":"uint16","internalType":"uint16"}],"stateMutability":"view"},{"type":"function","name":"getAmountIn","inputs":[{"name":"_amount","type":"uint256","internalType":"uint256"},{"name":"_closePosition","type":"bool","internalType":"bool"}],"outputs":[{"name":"","type":"uint256","internalType":"uint256"}],"stateMutability":"view"},{"type":"function","name":"getBuyNumaAmountIn","inputs":[{"name":"_amount","type":"uint256","internalType":"uint256"}],"outputs":[{"name":"","type":"uint256","internalType":"uint256"}],"stateMutability":"view"},{"type":"function","name":"getBuyNumaSimulateExtract","inputs":[{"name":"_amount","type":"uint256","internalType":"uint256"}],"outputs":[{"name":"","type":"uint256","internalType":"uint256"}],"stateMutability":"view"},{"type":"function","name":"getDebt","inputs":[],"outputs":[{"name":"","type":"uint256","internalType":"uint256"}],"stateMutability":"view"},{"type":"function","name":"getEthBalance","inputs":[],"outputs":[{"name":"","type":"uint256","internalType":"uint256"}],"stateMutability":"view"},{"type":"function","name":"getEthBalanceNoDebt","inputs":[],"outputs":[{"name":"","type":"uint256","internalType":"uint256"}],"stateMutability":"view"},{"type":"function","name":"getSellNumaAmountIn","inputs":[{"name":"_amount","type":"uint256","internalType":"uint256"}],"outputs":[{"name":"","type":"uint256","internalType":"uint256"}],"stateMutability":"view"},{"type":"function","name":"getSellNumaSimulateExtract","inputs":[{"name":"_amount","type":"uint256","internalType":"uint256"}],"outputs":[{"name":"","type":"uint256","internalType":"uint256"}],"stateMutability":"view"},{"type":"function","name":"last_extracttimestamp","inputs":[],"outputs":[{"name":"","type":"uint256","internalType":"uint256"}],"stateMutability":"view"},{"type":"function","name":"last_lsttokenvalueWei","inputs":[],"outputs":[{"name":"","type":"uint256","internalType":"uint256"}],"stateMutability":"view"},{"type":"function","name":"liquidateBadDebt","inputs":[{"name":"_borrower","type":"address","internalType":"address"},{"name":"_percentagePosition1000","type":"uint256","internalType":"uint256"},{"name":"collateralToken","type":"address","internalType":"contract CNumaToken"}],"outputs":[],"stateMutability":"nonpayable"},{"type":"function","name":"liquidateLstBorrower","inputs":[{"name":"_borrower","type":"address","internalType":"address"},{"name":"_lstAmount","type":"uint256","internalType":"uint256"},{"name":"_swapToInput","type":"bool","internalType":"bool"},{"name":"_flashloan","type":"bool","internalType":"bool"}],"outputs":[],"stateMutability":"nonpayable"},{"type":"function","name":"liquidateNumaBorrower","inputs":[{"name":"_borrower","type":"address","internalType":"address"},{"name":"_numaAmount","type":"uint256","internalType":"uint256"},{"name":"_swapToInput","type":"bool","internalType":"bool"},{"name":"_flashloan","type":"bool","internalType":"bool"}],"outputs":[],"stateMutability":"nonpayable"},{"type":"function","name":"lstToken","inputs":[],"outputs":[{"name":"","type":"address","internalType":"contract IERC20"}],"stateMutability":"view"},{"type":"function","name":"maxBorrow","inputs":[],"outputs":[{"name":"","type":"uint256","internalType":"uint256"}],"stateMutability":"view"},{"type":"function","name":"max_percent","inputs":[],"outputs":[{"name":"","type":"uint16","internalType":"uint16"}],"stateMutability":"view"},{"type":"function","name":"minLiquidationPc","inputs":[],"outputs":[{"name":"","type":"uint256","internalType":"uint256"}],"stateMutability":"view"},{"type":"function","name":"minterContract","inputs":[],"outputs":[{"name":"","type":"address","internalType":"contract NumaMinter"}],"stateMutability":"view"},{"type":"function","name":"numa","inputs":[],"outputs":[{"name":"","type":"address","internalType":"contract NUMA"}],"stateMutability":"view"},{"type":"function","name":"oracle","inputs":[],"outputs":[{"name":"","type":"address","internalType":"contract IVaultOracleSingle"}],"stateMutability":"view"},{"type":"function","name":"owner","inputs":[],"outputs":[{"name":"","type":"address","internalType":"address"}],"stateMutability":"view"},{"type":"function","name":"pause","inputs":[],"outputs":[],"stateMutability":"nonpayable"},{"type":"function","name":"pauseBuy","inputs":[{"name":"_buyPaused","type":"bool","internalType":"bool"}],"outputs":[],"stateMutability":"nonpayable"},{"type":"function","name":"paused","inputs":[],"outputs":[{"name":"","type":"bool","internalType":"bool"}],"stateMutability":"view"},{"type":"function","name":"pendingOwner","inputs":[],"outputs":[{"name":"","type":"address","internalType":"address"}],"stateMutability":"view"},{"type":"function","name":"renounceOwnership","inputs":[],"outputs":[],"stateMutability":"nonpayable"},{"type":"function","name":"repay","inputs":[{"name":"_amount","type":"uint256","internalType":"uint256"}],"outputs":[],"stateMutability":"nonpayable"},{"type":"function","name":"repayLeverage","inputs":[{"name":"_closePosition","type":"bool","internalType":"bool"}],"outputs":[],"stateMutability":"nonpayable"},{"type":"function","name":"revokeWithdraw","inputs":[],"outputs":[],"stateMutability":"nonpayable"},{"type":"function","name":"rewardsFromDebt","inputs":[],"outputs":[{"name":"","type":"uint256","internalType":"uint256"}],"stateMutability":"view"},{"type":"function","name":"rewardsValue","inputs":[],"outputs":[{"name":"","type":"uint256","internalType":"uint256"},{"name":"","type":"uint256","internalType":"uint256"},{"name":"","type":"uint256","internalType":"uint256"}],"stateMutability":"view"},{"type":"function","name":"rwd_threshold","inputs":[],"outputs":[{"name":"","type":"uint256","internalType":"uint256"}],"stateMutability":"view"},{"type":"function","name":"sell","inputs":[{"name":"_numaAmount","type":"uint256","internalType":"uint256"},{"name":"_minTokenAmount","type":"uint256","internalType":"uint256"},{"name":"_receiver","type":"address","internalType":"address"}],"outputs":[{"name":"_tokenOut","type":"uint256","internalType":"uint256"}],"stateMutability":"nonpayable"},{"type":"function","name":"setCFLiquidWarning","inputs":[{"name":"_cFLiquidWarning","type":"uint256","internalType":"uint256"}],"outputs":[],"stateMutability":"nonpayable"},{"type":"function","name":"setCTokens","inputs":[{"name":"_cNuma","type":"address","internalType":"address"},{"name":"_clstToken","type":"address","internalType":"address"}],"outputs":[],"stateMutability":"nonpayable"},{"type":"function","name":"setFee","inputs":[{"name":"_fees","type":"uint16","internalType":"uint16"}],"outputs":[],"stateMutability":"nonpayable"},{"type":"function","name":"setFeeAddress","inputs":[{"name":"_address","type":"address","internalType":"address"},{"name":"_isFeeReceiver","type":"bool","internalType":"bool"}],"outputs":[],"stateMutability":"nonpayable"},{"type":"function","name":"setFeeWhitelist","inputs":[{"name":"_addy","type":"address","internalType":"address"},{"name":"_whitelisted","type":"bool","internalType":"bool"}],"outputs":[],"stateMutability":"nonpayable"},{"type":"function","name":"setMaxBorrow","inputs":[{"name":"_maxBorrow","type":"uint256","internalType":"uint256"}],"outputs":[],"stateMutability":"nonpayable"},{"type":"function","name":"setMaxLiquidationsProfit","inputs":[{"name":"_maxProfit","type":"uint256","internalType":"uint256"}],"outputs":[],"stateMutability":"nonpayable"},{"type":"function","name":"setMaxPercent","inputs":[{"name":"_maxPercent","type":"uint16","internalType":"uint16"}],"outputs":[],"stateMutability":"nonpayable"},{"type":"function","name":"setMinLiquidationsPc","inputs":[{"name":"_minLiquidationPc","type":"uint256","internalType":"uint256"}],"outputs":[],"stateMutability":"nonpayable"},{"type":"function","name":"setOracle","inputs":[{"name":"_oracle","type":"address","internalType":"address"}],"outputs":[],"stateMutability":"nonpayable"},{"type":"function","name":"setRewardsThreshold","inputs":[{"name":"_threshold","type":"uint256","internalType":"uint256"}],"outputs":[],"stateMutability":"nonpayable"},{"type":"function","name":"setRwdAddress","inputs":[{"name":"_address","type":"address","internalType":"address"},{"name":"_isRwdReceiver","type":"bool","internalType":"bool"}],"outputs":[],"stateMutability":"nonpayable"},{"type":"function","name":"setVaultManager","inputs":[{"name":"_vaultManager","type":"address","internalType":"address"}],"outputs":[],"stateMutability":"nonpayable"},{"type":"function","name":"transferOwnership","inputs":[{"name":"newOwner","type":"address","internalType":"address"}],"outputs":[],"stateMutability":"nonpayable"},{"type":"function","name":"unpause","inputs":[],"outputs":[],"stateMutability":"nonpayable"},{"type":"function","name":"vaultManager","inputs":[],"outputs":[{"name":"","type":"address","internalType":"contract IVaultManager"}],"stateMutability":"view"},{"type":"function","name":"withdrawToken","inputs":[{"name":"_tokenAddress","type":"address","internalType":"address"},{"name":"_amount","type":"uint256","internalType":"uint256"},{"name":"_receiver","type":"address","internalType":"address"}],"outputs":[],"stateMutability":"nonpayable"},{"type":"event","name":"AddedToRemovedSupply","inputs":[{"name":"_address","type":"address","indexed":false,"internalType":"address"}],"anonymous":false},{"type":"event","name":"BorrowedVault","inputs":[{"name":"_amount","type":"uint256","indexed":false,"internalType":"uint256"}],"anonymous":false},{"type":"event","name":"Buy","inputs":[{"name":"received","type":"uint256","indexed":false,"internalType":"uint256"},{"name":"sent","type":"uint256","indexed":false,"internalType":"uint256"},{"name":"receiver","type":"address","indexed":false,"internalType":"address"}],"anonymous":false},{"type":"event","name":"Fee","inputs":[{"name":"fee","type":"uint256","indexed":false,"internalType":"uint256"},{"name":"feeReceiver","type":"address","indexed":false,"internalType":"address"}],"anonymous":false},{"type":"event","name":"FeeAddressUpdated","inputs":[{"name":"feeAddress","type":"address","indexed":false,"internalType":"address"}],"anonymous":false},{"type":"event","name":"FeeUpdated","inputs":[{"name":"Fee","type":"uint16","indexed":false,"internalType":"uint16"}],"anonymous":false},{"type":"event","name":"MaxPercentUpdated","inputs":[{"name":"NewValue","type":"uint16","indexed":false,"internalType":"uint16"}],"anonymous":false},{"type":"event","name":"OwnershipTransferStarted","inputs":[{"name":"previousOwner","type":"address","indexed":true,"internalType":"address"},{"name":"newOwner","type":"address","indexed":true,"internalType":"address"}],"anonymous":false},{"type":"event","name":"OwnershipTransferred","inputs":[{"name":"previousOwner","type":"address","indexed":true,"internalType":"address"},{"name":"newOwner","type":"address","indexed":true,"internalType":"address"}],"anonymous":false},{"type":"event","name":"Paused","inputs":[{"name":"account","type":"address","indexed":false,"internalType":"address"}],"anonymous":false},{"type":"event","name":"RemovedFromRemoveSupply","inputs":[{"name":"_address","type":"address","indexed":false,"internalType":"address"}],"anonymous":false},{"type":"event","name":"RepaidVault","inputs":[{"name":"_amount","type":"uint256","indexed":false,"internalType":"uint256"}],"anonymous":false},{"type":"event","name":"RewardsDebtExtracted","inputs":[{"name":"_rwd","type":"uint256","indexed":false,"internalType":"uint256"}],"anonymous":false},{"type":"event","name":"RewardsExtracted","inputs":[{"name":"_rwd","type":"uint256","indexed":false,"internalType":"uint256"},{"name":"_currentvalueWei","type":"uint256","indexed":false,"internalType":"uint256"}],"anonymous":false},{"type":"event","name":"RwdAddressUpdated","inputs":[{"name":"rwdAddress","type":"address","indexed":false,"internalType":"address"}],"anonymous":false},{"type":"event","name":"Sell","inputs":[{"name":"sent","type":"uint256","indexed":false,"internalType":"uint256"},{"name":"received","type":"uint256","indexed":false,"internalType":"uint256"},{"name":"receiver","type":"address","indexed":false,"internalType":"address"}],"anonymous":false},{"type":"event","name":"SetCFLiquidWarning","inputs":[{"name":"_cfLiquidWarning","type":"uint256","indexed":false,"internalType":"uint256"}],"anonymous":false},{"type":"event","name":"SetCTokens","inputs":[{"name":"cNuma","type":"address","indexed":false,"internalType":"address"},{"name":"crEth","type":"address","indexed":false,"internalType":"address"}],"anonymous":false},{"type":"event","name":"SetMaxBorrow","inputs":[{"name":"_maxBorrow","type":"uint256","indexed":false,"internalType":"uint256"}],"anonymous":false},{"type":"event","name":"SetMaxProfit","inputs":[{"name":"_maxProfit","type":"uint256","indexed":false,"internalType":"uint256"}],"anonymous":false},{"type":"event","name":"SetOracle","inputs":[{"name":"oracle","type":"address","indexed":false,"internalType":"address"}],"anonymous":false},{"type":"event","name":"SetVaultManager","inputs":[{"name":"vaultManager","type":"address","indexed":false,"internalType":"address"}],"anonymous":false},{"type":"event","name":"ThresholdUpdated","inputs":[{"name":"newThreshold","type":"uint256","indexed":false,"internalType":"uint256"}],"anonymous":false},{"type":"event","name":"Unpaused","inputs":[{"name":"account","type":"address","indexed":false,"internalType":"address"}],"anonymous":false},{"type":"event","name":"Whitelisted","inputs":[{"name":"_addy","type":"address","indexed":false,"internalType":"address"},{"name":"_wl","type":"bool","indexed":false,"internalType":"bool"}],"anonymous":false},{"type":"error","name":"AddressEmptyCode","inputs":[{"name":"target","type":"address","internalType":"address"}]},{"type":"error","name":"AddressInsufficientBalance","inputs":[{"name":"account","type":"address","internalType":"address"}]},{"type":"error","name":"EnforcedPause","inputs":[]},{"type":"error","name":"ExpectedPause","inputs":[]},{"type":"error","name":"FailedInnerCall","inputs":[]},{"type":"error","name":"OwnableInvalidOwner","inputs":[{"name":"owner","type":"address","internalType":"address"}]},{"type":"error","name":"OwnableUnauthorizedAccount","inputs":[{"name":"account","type":"address","internalType":"address"}]},{"type":"error","name":"ReentrancyGuardReentrantCall","inputs":[]},{"type":"error","name":"SafeERC20FailedOperation","inputs":[{"name":"token","type":"address","internalType":"address"}]}],"bytecode":{"object":"0x610100604081815234620003925760a0826200537b803803809162000025828562000397565b83398101031262000392576200003b82620003d1565b6200004960208401620003d1565b9282810151936200006b60806200006360608501620003d1565b9301620003d1565b9233156200037a57600160a01b600190031980600154166001556000968795869485543385821617875589519788978897600160a01b600190038096819582948333921690807f8be0079c531659141344cd1fd0a4f28419497f9722a3daafe3b4186f6b6457e091a3600160025560ff1980600354169e8f600355601960b31b61ffff60b01b19600454161760045561ffff196006541660641760065560075580600c5416600c556107d0600e55601254166012556103e86018551660a0521660805216809460085416176008551660c0528060e05242600a5563c457fb3760e01b835260048301525a92602491602094fa9081156200036d5784916200032b575b5090600191600b55176003557f62e78cea01bee320cd4e420270b5ea74000d11b0c9f74754ebdbfc544b05a25860208251338152a151614f949081620003e7823960805181818161051f015281816119f101528181611e5c01528181611e9001528181611edb0152818161239e01528181612553015281816125fb01528181612df00152818161405c015281816142d5015261431f015260a051818181611341015281816119270152818161197f01528181611cca01528181611d220152818161311001526139be015260c051818181610446015281816109e901528181610f210152818161156101528181611ad901528181611b5901528181611fd8015281816121ca0152818161262001528181612bb101528181612e9b015281816131b0015281816135e801528181613705015281816137c201528181613ad001528181613c2801528181613fe4015281816141a6015261428e015260e0518181816106be01528181610ae001528181610c9b0152818161184501528181611c0b01528181611de20152818161214b01528181612d82015281816134f3015281816138fa01528181613f6b015281816145de015281816147a901526149e60152f35b90506020813d60201162000364575b81620003496020938362000397565b81010312620003605760019293505183926200016d565b8380fd5b3d91506200033a565b50505051903d90823e3d90fd5b8451631e4fbdf760e01b815260006004820152602490fd5b600080fd5b601f909101601f19168101906001600160401b03821190821017620003bb57604052565b634e487b7160e01b600052604160045260246000fd5b51906001600160a01b0382168203620003925756fe6080604052600436101561001257600080fd5b6000803560e01c80630bcc92981461325e5780630cc0bfa5146132405780630e2479d814613219578063134b575e146130b257806314a6bf0f14613094578063178b4c3f1461305f5780631d54164b146130095780632065d2c914612f7d57806321eb60eb14612f625780632654d2d614612f435780632c9d09e014612da5578063313ce56714612d6a578063371fd8e614612b1e57806337a7f2b714612b015780633ccdbb2814612aae5780633f4ba83a14612a435780634e6ff98314612a28578063513e5ee8146129d2578063538101df146125825780635992c23e1461253d57806359a87bc1146125235780635c975abb1461250057806362716c971461241f5780636a9f4cb11461186a57806370ed0ada1461180a578063715018a6146117a4578063735f5ae6146116fa5780637980544e146116d157806379ba50971461164c5780637adbf973146115d75780637d845be0146115b95780637dc0d1d014611590578063809207181461154b5780638456cb59146114f057806388b7f4bc146114a25780638a4adf24146114795780638da5cb5b146114525780638e0055531461139f5780638f4b96251461137057806392f002331461132b57806397576786146112aa5780639af1d35a146112855780639ff9c96f14611263578063b02b605e14611215578063b543503e14611101578063bac0db09146110e3578063bb98359a146110c0578063bc57e0ce146110a2578063bd1a2bdb14611019578063bec650cb14610ffb578063c1b05bb014610fdc578063c4d5d0dd14610fae578063c5ebeaec14610e7d578063d04c698314610e5b578063d19a03cd14610e3d578063de3b2d2714610e21578063e25909bb14610dec578063e30c397814610dc3578063e586135414610c18578063ea417ac514610a5d578063f0d8653e1461035f578063f2fde38b146102f25763f47bdc4d146102d257600080fd5b346102ef57806003193601126102ef576020600a54604051908152f35b80fd5b50346102ef5760203660031901126102ef5761030c6132fd565b610314614c36565b600180546001600160a01b0319166001600160a01b0392831690811790915582549091167f38d16b8cac22d99fc7c124b9cd0de2d3fa1faef420bfe791d8c362d765e227008380a380f35b50346102ef5761036e3661335b565b919290610379614db5565b6001600160a01b0382811691908690819061039633861415614a4f565b8680610a55575b8015610a4d575b6103ad90614bbc565b8794816015541698604051998a926305eff7ef60e21b8452600484015260209a8b918160249788925af19182156109a8578592610a1b575b5060001914610a13575b6103e861040261040b9260185490613d37565b04861015614bf8565b610413614a9a565b961596876109e0575b60155460405163095ea7b360e01b81529083166001600160a01b03166004820152602481018790527f0000000000000000000000000000000000000000000000000000000000000000978a82604481898d89165af190811561068e576104cd928c926109b3575b50601554601654604051637af1e23160e11b81526001600160a01b039384166004820152602481018c90529087169092166044830152909283918616908290899082906064820190565b03925af19081156109a8578a91610979575b50508160165416916040516370a0823160e01b8082523060048301528b828781885afa918215610846578792610947575b506040518181523060048201527f00000000000000000000000000000000000000000000000000000000000000008416958d8289818a5afa93841561093c578e928a95610905575b5090888a9392604051948593849263db006a7560e01b845260048401525af19081156108fa578d916108cb575b50506040519081523060048201528b818781885afa908115610846578791610896575b50906105b3916134b9565b951561069957505060405163d04c698360e01b815260048101949094525050506024810182905230604482015284818060648101038189305af194851561068e578695610657575b505061060a81610626956134b9565b60115480821161064f575b50809361063c575b50503390614c4a565b61062e614b56565b61ff00196012541660125580f35b610647929350613652565b90388061061d565b905038610615565b90809550813d8311610687575b61066e818361341c565b810103126106825792519261060a816105fb565b600080fd5b503d610664565b6040513d88823e3d90fd5b600954600b54604051637eb5e4f760e11b808252600482019a909a52602481018290527f00000000000000000000000000000000000000000000000000000000000000006044820181905260648201869052979c969b5099509397949594911691908589608481865afa98891561088b578b99610851575b506011546040519182526004820152602481019390935260448301939093526064820192909252908290829060849082905afa918215610846578792610815575b50508593808311610802575b5085938181116107e8575b50506107788361077f926134b9565b3383614c4a565b8161078e575b50505050610626565b803b156107e357839283926040519485938492630852cd8d60e31b845260048401525af180156107d8576107c4575b8080610785565b6107cd906133d6565b6102ef5780386107bd565b6040513d84823e3d90fd5b505050fd5b61077f929450610778916107fb916134b9565b9391610769565b61080e919450826134b9565b923861075e565b8197508092503d831161083f575b61082d818361341c565b81010312610682578594513880610752565b503d610823565b6040513d89823e3d90fd5b919a50975091908483813d8111610884575b61086d818361341c565b81010312610682578a998593519890919293610711565b503d610863565b6040513d8d823e3d90fd5b809297508c8092503d83116108c4575b6108b0818361341c565b8101031261068257518b95906105b36105a8565b503d6108a6565b90809298503d83116108f3575b6108e2818361341c565b81010312610682578b958b38610585565b503d6108d8565b6040513d8a823e3d90fd5b995093509088813d8311610935575b61091e818361341c565b810103126106825796518d9790928d919088610558565b503d610914565b6040513d8b823e3d90fd5b965090508a86813d8111610972575b610960818361341c565b81010312610682578b95519038610510565b503d610956565b90809295503d83116109a1575b610990818361341c565b8101031261068257889288386104df565b503d610986565b6040513d87823e3d90fd5b6109d290833d85116109d9575b6109ca818361341c565b81019061343e565b5038610483565b503d6109c0565b610a0e863033857f000000000000000000000000000000000000000000000000000000000000000016614c8b565b61041c565b9450846103ef565b945090508884813d8111610a46575b610a34818361341c565b810103126106825789935190386103e5565b503d610a2a565b5086156103a4565b50831561039d565b50346102ef57602080600319360112610c14576009546040516305d1891b60e11b815292906001600160a01b0316608084600481845afa9384156107d857928094610b18948491610be2575b50600b54610ab56134c6565b509060075410610bda575b50604051634ee2b90b60e01b8152600480359082015260248101919091527f00000000000000000000000000000000000000000000000000000000000000006044820152606481019190915293849081906084820190565b0381845afa9283156107d8578293610baa575b5060408051629ca3eb60e01b815291829060049082905afa918215610b9e57610b65926103e8949261ffff9291610b6e575b501690613d37565b04604051908152f35b610b90915060403d604011610b97575b610b88818361341c565b81019061474e565b5038610b5d565b503d610b7e565b604051903d90823e3d90fd5b9092508381813d8311610bd3575b610bc2818361341c565b810103126106825751916040610b2b565b503d610bb8565b905038610ac0565b610c03915060803d8111610c0d575b610bfb818361341c565b81019061457e565b5091505038610aa9565b503d610bf1565b5080fd5b50346102ef57602080600319360112610c14576009546040516305d1891b60e11b815292906001600160a01b0316608084600481845afa9384156107d857928094610cd3948491610da1575b50600b54610c706134c6565b509060075410610d99575b50604051637eb5e4f760e11b8152600480359082015260248101919091527f00000000000000000000000000000000000000000000000000000000000000006044820152606481019190915293849081906084820190565b0381845afa9283156107d8579084918394610d67575b506040516308f818b960e41b81529190829060049082905afa918215610b9e578092610d22575b846103e8610b6561ffff861687613d37565b9091508382813d8311610d60575b610d3a818361341c565b810103126102ef57506103e89161ffff610d56610b6593613d8f565b9250819350610d10565b503d610d30565b8281939295503d8311610d92575b610d7f818361341c565b8101031261068257519183906004610ce9565b503d610d75565b905038610c7b565b610db9915060803d8111610c0d57610bfb818361341c565b5091505038610c64565b50346102ef57806003193601126102ef576001546040516001600160a01b039091168152602090f35b50346102ef5760203660031901126102ef57610e06613322565b610e0e614c36565b60ff801960125416911515161760125580f35b50346102ef57806003193601126102ef57610e3a613e10565b80f35b50346102ef57806003193601126102ef576020600754604051908152f35b50346102ef576020610e75610e6f36613331565b91613f0c565b604051908152f35b50346102ef5760203660031901126102ef576015546001600160a01b03906004359082163303610faa57610eaf614978565b8111610f78576040839260095416600482518095819363c12059ff60e01b83525af1908115610f6d577feb4c69d43332aa08f82f73cb19c169a68ec508a9e2e758868a1b4e078ed1505992602092610f4f575b50610f0b613dd5565b610f1781600f54613652565b600f55610f4581337f0000000000000000000000000000000000000000000000000000000000000000614c4a565b604051908152a180f35b610f679060403d604011610b9757610b88818361341c565b50610f02565b6040513d85823e3d90fd5b60405162461bcd60e51b815260206004820152600a6024820152696d617820626f72726f7760b01b6044820152606490fd5b8280fd5b50346102ef57806003193601126102ef576060610fc96134c6565b9060405192835260208301526040820152f35b50346102ef5760203660031901126102ef576020610e7560043561476b565b50346102ef57806003193601126102ef576020601054604051908152f35b50346102ef5760403660031901126102ef577f8337d54c1ed19c145a8e7bf0b79dccf5f510140c8ffb1363298311143a3c106c60206110566132fd565b61105e613313565b90611067614c36565b60048054600161ff0160a01b0319166001600160a01b039290921691821792151560a81b60ff60a81b1692909217909155604051908152a180f35b50346102ef57806003193601126102ef576020601854604051908152f35b50346102ef5760203660031901126102ef576110da614c36565b60043560185580f35b50346102ef57806003193601126102ef576020600e54604051908152f35b50346102ef57602080600319360112610c145761111c6132fd565b611124614c36565b6001600160a01b031661113881151561339b565b8082846024600954846001600160601b0360a01b821617600955604051948593849263652b9b4160e01b845230600485015216175afa90811561120a5784916111ed575b50156111af57907ff936751e3ffe55eec34636f5166fff2a5714505f4a3aa0862829ddb1eb75f10191604051908152a180f35b60405162461bcd60e51b81526004810183905260166024820152751b9bdd0818481c9959da5cdd195c9959081d985d5b1d60521b6044820152606490fd5b6112049150833d85116109d9576109ca818361341c565b3861117c565b6040513d86823e3d90fd5b50346102ef5760203660031901126102ef577fadfa8ecb21b6962ebcd0adbd9ab985b7b4c5b5eb3b0dead683171565c7bfe1716020600435611255614c36565b80600755604051908152a180f35b50346102ef57806003193601126102ef57602061ffff60065416604051908152f35b50346102ef57806003193601126102ef57602061ffff60045460b01c16604051908152f35b50346102ef5760403660031901126102ef577fa54714518c5d275fdcd3d2a461e4858e4e8cb04fb93cd0bca9d6d34115f2644060406112e76132fd565b6112ef613313565b906112f8614c36565b60018060a01b03169081855260056020528285209015159060ff1981541660ff831617905582519182526020820152a180f35b50346102ef57806003193601126102ef576040517f00000000000000000000000000000000000000000000000000000000000000006001600160a01b03168152602090f35b50346102ef5760603660031901126102ef57604435801515810361068257610e756020916024356004356144e3565b50346102ef5760203660031901126102ef5760043561ffff811690818103610faa576113c9614c36565b6103e88211611420576004805461ffff60b01b191660b09290921b61ffff60b01b169190911790556040519081527fc8fcf8ee1425e7e60b8af83735e1eb516d5b9ef05bfd6eece552ebaeb7c75b4890602090a180f35b60405162461bcd60e51b815260206004820152600a602482015269061626f766520313030360b41b6044820152606490fd5b50346102ef57806003193601126102ef57546040516001600160a01b039091168152602090f35b50346102ef57806003193601126102ef576009546040516001600160a01b039091168152602090f35b50346102ef5760203660031901126102ef577f348b802428200d5891252baa398e88f928ab82a2268416ac2702e6738154e62260206004356114e2614c36565b80601155604051908152a180f35b50346102ef57806003193601126102ef57611509614c36565b611511614db5565b600160ff1960035416176003557f62e78cea01bee320cd4e420270b5ea74000d11b0c9f74754ebdbfc544b05a2586020604051338152a180f35b50346102ef57806003193601126102ef576040517f00000000000000000000000000000000000000000000000000000000000000006001600160a01b03168152602090f35b50346102ef57806003193601126102ef576008546040516001600160a01b039091168152602090f35b50346102ef57806003193601126102ef576020600b54604051908152f35b50346102ef5760203660031901126102ef577fd3b5d1e0ffaeff528910f3663f0adace7694ab8241d58e17a91351ced2e0803160206116146132fd565b61161c614c36565b6001600160a01b031661163081151561339b565b600880546001600160a01b03191682179055604051908152a180f35b50346102ef57806003193601126102ef576001546001600160a01b0333818316036116b9576001600160601b0360a01b8092166001556000549133908316176000553391167f8be0079c531659141344cd1fd0a4f28419497f9722a3daafe3b4186f6b6457e0600080a380f35b60405163118cdaa760e01b8152336004820152602490fd5b50346102ef57806003193601126102ef576116ea614c36565b600160ff19600c541617600c5580f35b50346102ef5760203660031901126102ef5760043561ffff808216809203610faa57611724614c36565b6103e86006549182161161176b5761ffff191681176006556040519081527f83ee479829ef9b0d866490944117dd221067677157b2c328bafe7a2d6880c64390602090a180f35b60405162461bcd60e51b8152602060048201526011602482015270050657263656e742061626f76652031303607c1b6044820152606490fd5b50346102ef57806003193601126102ef576117bd614c36565b600180546001600160a01b0319908116909155600080549182168155906001600160a01b03167f8be0079c531659141344cd1fd0a4f28419497f9722a3daafe3b4186f6b6457e08280a380f35b50346102ef57806003193601126102ef57600854611832906001600160a01b03161515613456565b6020610e7561183f613793565b600b54907f000000000000000000000000000000000000000000000000000000000000000091614ee9565b50346102ef578061187a3661335b565b9190611887949394614db5565b6001600160a01b0385169184906118a033851415614a4f565b8480612417575b801561240f575b6118b790614bbc565b60208194602460018060a01b03601654169160405195869384926305eff7ef60e21b845260048401525af191821561068e5786926123d8575b50600019146123d0575b6103e861190d6119169260185490613d37565b04831015614bf8565b61191e614a9a565b948315612392577f00000000000000000000000000000000000000000000000000000000000000006001600160a01b03163b1561238e576040516340c10f1960e01b8152306004820152602481018490528581604481836001600160a01b037f0000000000000000000000000000000000000000000000000000000000000000165af190811561068e57869161237a575b50506119ec905b60165460405163095ea7b360e01b81526001600160a01b0390911660048201526024810185905291602090839081906044820190565b0381897f00000000000000000000000000000000000000000000000000000000000000006001600160a01b03165af190811561068e57611a759260209261235d575b50601654601554604051637af1e23160e11b81526001600160a01b039384166004820152602481018890529083166044820152938492909116908290899082906064820190565b03925af180156109a85761232e575b506015546040516370a0823160e01b8152306004820152906001600160a01b0316602082602481845afa91821561068e5786926122f7575b506040516370a0823160e01b8152306004820152916020836024817f00000000000000000000000000000000000000000000000000000000000000006001600160a01b03165afa9283156108465787936122be575b5086916024602092604051948593849263db006a7560e01b845260048401525af1801561068e5761228f575b506040516370a0823160e01b81523060048201526020816024817f00000000000000000000000000000000000000000000000000000000000000006001600160a01b03165afa90811561068e578691612256575b5090611b9c916134b9565b90156121295790611c4c91611baf614dd3565b611bb7614db5565b611bc660ff6012541615613cbc565b611bd36103e88211613cf5565b611bdb613e91565b509050611be6613dd5565b602060018060a01b036009541691600b546040519687928392637eb5e4f760e11b84527f00000000000000000000000000000000000000000000000000000000000000009088600486019094939260609260808301968352602083015260408201520152565b0381845afa93841561068e5786946120ef575b506020600491611c70861515613d4a565b6040516308f818b960e41b815292839182905afa801561068e5786906120b4575b61ffff91501692338652600560205260ff6040872054166120aa575b611cba846103e892613d37565b0492611cc883851015613d9e565b7f00000000000000000000000000000000000000000000000000000000000000006001600160a01b03163b156120a6576040516340c10f1960e01b8152306004820152602481018590528681604481836001600160a01b037f0000000000000000000000000000000000000000000000000000000000000000165af1908115610846578791612092575b5050604080518581526020810184905230918101919091527ff7735c8cb2a65788ca663fc8415b7c6a66cd6847d58346d8334e8d52a599d3df90606090a160035460081c6001600160a01b03169081611f85575b5050506001600255611e286020611dbd83856134b9565b600954601154600b54604051637eb5e4f760e11b8152600481019290925260248201527f00000000000000000000000000000000000000000000000000000000000000006044820152606481019990995290979283916001600160a01b031690829081906084820190565b03915afa9081156109a8578591611f4c575b509485611e8e95968211611f44575b50809315611f31575b50611e89905082337f00000000000000000000000000000000000000000000000000000000000000006001600160a01b0316614c4a565b6134b9565b7f00000000000000000000000000000000000000000000000000000000000000006001600160a01b03163b15611f2e57604051630852cd8d60e31b815260048101919091528181602481837f00000000000000000000000000000000000000000000000000000000000000006001600160a01b03165af180156107d857611f1a575b505061062e614b56565b611f23906133d6565b6102ef578038611f10565b50fd5b611f3c929350613652565b903880611e52565b905038611e49565b9450506020843d602011611f7d575b81611f686020938361341c565b81010312610682579251859390611e8e611e3a565b3d9150611f5b565b620f4240611fd37fe03ab3b024368507c6734889408dbb5eb5932148c7963ec2bd8d9e2cac54ae9494611fce611ffc94611fc861ffff60045460b01c1691613493565b90613d37565b613d37565b0480927f0000000000000000000000000000000000000000000000000000000000000000614c4a565b600354869060081c6001600160a01b0316803b151580612083575b612046575b50506003546040805192835260089190911c6001600160a01b0316602083015290a1388080611da6565b8190604051826020820191636adbb12160e11b83528660248201526024815261206e81613400565b51925af15061207b61365f565b50853861201c565b5060ff60045460a01c16612017565b61209b906133d6565b6120a6578538611d52565b8580fd5b6103e89350611cad565b506020813d6020116120e7575b816120ce6020938361341c565b810103126120a6576120e261ffff91613d8f565b611c91565b3d91506120c1565b955092506020853d602011612121575b8161210c6020938361341c565b81010312610682579351869490926020611c5f565b3d91506120ff565b600954600b54604051634ee2b90b60e01b8152600481019490945260248401527f0000000000000000000000000000000000000000000000000000000000000000604484015260648301959095529390925060209150829060849082906001600160a01b03165afa908115610f6d578391612222575b506121c7906121f792849180821161220f575b5060115485928181116121fc575b50506134b9565b337f00000000000000000000000000000000000000000000000000000000000000006001600160a01b0316614c4a565b610626565b6122079293506134b9565b9038806121c0565b8161221b9293506134b9565b90386121b2565b90506020813d60201161224e575b8161223d6020938361341c565b8101031261068257516121f761219f565b3d9150612230565b919550506020813d602011612287575b816122736020938361341c565b810103126106825751869490611b9c611b91565b3d9150612266565b6020809296503d83116122b7575b6122a7818361341c565b8101031261068257859338611b3d565b503d61229d565b965091506020863d6020116122ef575b816122db6020938361341c565b810103126106825794518795909186611b11565b3d91506122ce565b955090506020853d602011612326575b816123146020938361341c565b81010312610682578694519038611abc565b3d9150612307565b6020809295503d8311612356575b612346818361341c565b8101031261068257849238611a84565b503d61233c565b61237390833d85116109d9576109ca818361341c565b5038611a2e565b612383906133d6565b61238e5784386119af565b8480fd5b6119ec906123cb8430337f00000000000000000000000000000000000000000000000000000000000000006001600160a01b0316614c8b565b6119b6565b9150816118fa565b955090506020853d602011612407575b816123f56020938361341c565b810103126106825786945190386118f0565b3d91506123e8565b5084156118ae565b5082156118a7565b50346102ef57806003193601126102ef57600a546201518081018091116124ec5742106124a75761244e6134c6565b9060075483111561246257610e3a9261369f565b60405162461bcd60e51b815260206004820152601d60248201527f6e6f7420656e6f756768207265776172647320746f20636f6c6c6563740000006044820152606490fd5b60405162461bcd60e51b815260206004820152601860248201527f72657761726420616c72656164792065787472616374656400000000000000006044820152606490fd5b634e487b7160e01b82526011600452602482fd5b50346102ef57806003193601126102ef57602060ff600354166040519015158152f35b50346102ef576020610e7561253736613331565b9161386c565b50346102ef57806003193601126102ef576040517f00000000000000000000000000000000000000000000000000000000000000006001600160a01b03168152602090f35b50346102ef5760603660031901126102ef5761259c6132fd565b602480356044359160018060a01b03938484168094036120a65784906125c0614db5565b16916125ce83331415614a4f565b801515806129c6575b1561299557846016541684148015612988575b15612958576125f7614a9a565b50847f0000000000000000000000000000000000000000000000000000000000000000169081867f000000000000000000000000000000000000000000000000000000000000000091816015541690818914612947575b5016604051956305eff7ef60e21b8752806004880152868a818860209a8b93875af190811561088b578b9161291a575b5080156128ea57908a888b6103e86126998985999897613d37565b04956126a787303384614c8b565b60405163095ea7b360e01b81526001600160a01b038716600482015260248101889052978892604492849291165af19283156128dd5789956084946128c0575b50604051968795869463444de6e360e11b865260048601528a85015260448401528a60648401525af1908115610846578491612897575b505085604051956370a0823160e01b92838852306004890152858886818a5afa978815610f6d578398612864575b50169460405196838852306004890152858886818a5afa978815610f6d57839861282f575b5090848692604051948593849263db006a7560e01b845260048401525af1908115610846578491612806575b5090604051928391825230600483015281865afa9182156109a85785926127d6575b5050610626926127ce916134b9565b903390614c4a565b90809250813d83116127ff575b6127ed818361341c565b810103126106825751826127ce6127bf565b503d6127e3565b813d8311612828575b612819818361341c565b8101031261068257823861279d565b503d61280f565b8680929950819394503d831161285d575b61284a818361341c565b8101031261068257519587919084612771565b503d612840565b86809299508194503d8311612890575b61287e818361341c565b8101031261068257879151963861274c565b503d612874565b813d83116128b9575b6128aa818361341c565b8101031261068257823861271e565b503d6128a0565b6128d690873d89116109d9576109ca818361341c565b50386126e7565b50604051903d90823e3d90fd5b60405162461bcd60e51b815260048101899052600981890152686e6f20626f72726f7760b81b6044820152606490fd5b90508781813d8311612940575b612931818361341c565b8101031261068257513861267e565b503d612927565b94505050918680601654163861264e565b60405162461bcd60e51b815260206004820152600981840152683130b2103a37b5b2b760b91b6044820152606490fd5b50846015541684146125ea565b60405162461bcd60e51b815260206004820152600a818401526970657263656e7461676560b01b6044820152606490fd5b506103e88111156125d7565b50346102ef5760203660031901126102ef577f1fb56d6fc7704877aadc24838b47201f0933ab746b203b5c08f853adda7ad20a6020600435612a12614c36565b612a1a613e10565b80600e55604051908152a180f35b50346102ef57806003193601126102ef576020610e75614978565b50346102ef57806003193601126102ef57612a5c614c36565b60035460ff811615612a9c5760ff19166003557f5db9ee0a495bf2e6ff9c91a7834c1ba4fdd244a5e8aa4e537bd38aeae4b073aa6020604051338152a180f35b604051638dfc202b60e01b8152600490fd5b50346102ef5760603660031901126102ef57612ac86132fd565b6001600160a01b0390604435828116810361068257612ae5614c36565b60ff600c5416612afd57610e3a926024359216614c4a565b8380fd5b50346102ef57806003193601126102ef5760206040516103e88152f35b50346102ef57602090816003193601126102ef576015546001600160a01b0392906004359084163303610faa578015612d3757600f548111612cfb578293612b64613dd5565b60408160095416600482518097819363c12059ff60e01b83525af19384156109a8577f616b6299641465f82b767c2c1958792ad2590a513cb1f00bc5bde14e9137edc794612cdd575b50827f0000000000000000000000000000000000000000000000000000000000000000612bdc84303384614c8b565b8660105493612bee600f548787614ee9565b9283151580612cd0575b612c1c575b505050505050612c0f81600f546134b9565b600f55604051908152a180f35b83612c5a91612c4c827ff7dd5f63a4a01bf206a08975329c442c22193afcd6ffe6efe7cbe36ee3254bcf996134b9565b601055836004541690614c4a565b60045490811690813b15159081612cc2575b50612c86575b5050604051908152a1388281868180612bfd565b81906040518286820191636adbb12160e11b835286602482015260248152612cad81613400565b51925af150612cba61365f565b508638612c72565b60ff915060a81c1638612c6c565b5081600454161515612bf8565b612cf59060403d604011610b9757610b88818361341c565b50612bad565b60405162461bcd60e51b81526004810183905260146024820152731c995c185e481b5bdc99481d1a185b881919589d60621b6044820152606490fd5b60405162461bcd60e51b815260048101839052600b60248201526a0616d6f756e74203c3d20360ac1b6044820152606490fd5b50346102ef57806003193601126102ef5760206040517f00000000000000000000000000000000000000000000000000000000000000008152f35b50346102ef5760203660031901126102ef5780612dc0613322565b612dc8614db5565b6015546001600160a01b039190821633148080612f3b575b8015612f26575b15612e725750507f00000000000000000000000000000000000000000000000000000000000000001660175490803b15612e6e5760405163079cc67960e41b8152336004820152602481019290925282908290604490829084905af180156107d857612e5a575b50601755610e3a614b56565b612e63906133d6565b6102ef578038612e4e565b5050fd5b919092506016541633149182612f1d575b8215612f04575b505015612ed157612ebf60175430337f0000000000000000000000000000000000000000000000000000000000000000614c8b565b8060175561ff00196012541660125580f35b60405162461bcd60e51b815260206004820152600b60248201526a1b9bdd08185b1b1bddd95960aa1b6044820152606490fd5b90915081612f15575b503880612e8a565b905038612f0d565b80159250612e83565b50826016541633148015612de7575081612de7565b508115612de0565b50346102ef5760203660031901126102ef576020610e756004356145a0565b50346102ef57806003193601126102ef576020610e7561384a565b50346102ef5760403660031901126102ef57612f976132fd565b6001600160a01b039060243582811690819003610682577f9f23a861deff8ac246559e7c45b695a65513c04b30ce56f5edf5b1769e5f80a292604092612fdb614c36565b1690806001600160601b0360a01b83816016541617601655601554161760155582519182526020820152a180f35b50346102ef5760203660031901126102ef577feb502ce07e3ddd2560b82d3cb45e23e2ba36ab481575a583141058f8d61f07cf6020600435613049614c36565b613051613e10565b80600d55604051908152a180f35b50346102ef57806003193601126102ef57606061ffff61307d613e91565b906040939293519384526020840152166040820152f35b50346102ef57806003193601126102ef576020600f54604051908152f35b50346102ef5760403660031901126102ef57600435906130d0613313565b6130d8614db5565b6130e0613dd5565b6015546001600160a01b039190821633148080613211575b80156131fc575b1561318157505061310e614b0d565b7f000000000000000000000000000000000000000000000000000000000000000016803b15610c14576040516340c10f1960e01b8152336004820152602481018490529082908290604490829084905af180156107d857613172575b509060175580f35b61317b906133d6565b3861316a565b909160169493945416331491826131f3575b82156131da575b505015612ed1576131a9614b95565b6131d481337f0000000000000000000000000000000000000000000000000000000000000000614c4a565b60175580f35b909150816131eb575b50388061319a565b9050386131e3565b80159250613193565b508260165416331480156130ff5750816130ff565b5081156130f8565b50346102ef5760403660031901126102ef576020610e75613238613313565b6004356148e2565b50346102ef57806003193601126102ef576020600d54604051908152f35b50346102ef5760403660031901126102ef577f446e39bcf1b47cfadfaa23442cb4b34682cfe6bd9220da084894e3b1f834e4f3602061329b6132fd565b6132a3613313565b6132ab614c36565b60038054610100600160a81b031916600884901b610100600160a81b03161790556004805460ff60a01b191691151560a01b60ff60a01b169190911790556040516001600160a01b039091168152a180f35b600435906001600160a01b038216820361068257565b60243590811515820361068257565b60043590811515820361068257565b60609060031901126106825760043590602435906044356001600160a01b03811681036106825790565b6080906003190112610682576004356001600160a01b03811681036106825790602435906044358015158103610682579060643580151581036106825790565b156133a257565b60405162461bcd60e51b815260206004820152600c60248201526b7a65726f206164647265737360a01b6044820152606490fd5b67ffffffffffffffff81116133ea57604052565b634e487b7160e01b600052604160045260246000fd5b6060810190811067ffffffffffffffff8211176133ea57604052565b90601f8019910116810190811067ffffffffffffffff8211176133ea57604052565b90816020910312610682575180151581036106825790565b1561345d57565b60405162461bcd60e51b815260206004820152600e60248201526d1bdc9858db19481b9bdd081cd95d60921b6044820152606490fd5b906103e89182039182116134a357565b634e487b7160e01b600052601160045260246000fd5b919082039182116134a357565b600854602491906020906001600160a01b03166134e4811515613456565b60405163c457fb3760e01b81527f0000000000000000000000000000000000000000000000000000000000000000600482015293849182905afa9182156135ad5760009261357a575b50600b54808311156135705761354390836134b9565b9061356a8361355a81856135556135b9565b614ee9565b93613555600f54601054906134b9565b91929190565b5060009190600090565b90916020823d82116135a5575b816135946020938361341c565b810103126102ef575051903861352d565b3d9150613587565b6040513d6000823e3d90fd5b60125460081c60ff16156135cd5760145490565b6040516370a0823160e01b81523060048201526020816024817f00000000000000000000000000000000000000000000000000000000000000006001600160a01b03165afa9081156135ad57600091613624575090565b906020823d821161364a575b8161363d6020938361341c565b810103126102ef57505190565b3d9150613630565b919082018092116134a357565b3d1561369a573d9067ffffffffffffffff82116133ea576040519161368e601f8201601f19166020018461341c565b82523d6000602084013e565b606090565b6040916136d77fbf970c7ed9e1c6221e52889a68f5737de60b7af7840158b7c2f29fdfc8c7e55d9442600a5582600b55601054613652565b6010556004546001600160a01b0390811683816136ff575b50505082519182526020820152a1565b613729917f0000000000000000000000000000000000000000000000000000000000000000614c4a565b60045490811690813b15159081613785575b50613748575b80836136ef565b600080918551826020820191636adbb12160e11b83528760248201526024815261377181613400565b51925af15061377e61365f565b5038613741565b60ff915060a81c163861373b565b60125460081c60ff16156137a75760135490565b6040516370a0823160e01b81523060048201526020816024817f00000000000000000000000000000000000000000000000000000000000000006001600160a01b03165afa80156135ad57600090613817575b613814915061380e600f54601054906134b9565b90613652565b90565b6020823d8211613842575b8161382f6020938361341c565b810103126102ef575061381490516137fa565b3d9150613822565b600854613861906001600160a01b03161515613456565b61381461183f6135b9565b9091600091613879614dd3565b613881614db5565b61389060ff6012541615613cbc565b6103e89161389f838311613cf5565b6138a7613e91565b509390506138b3613dd5565b6138bb613793565b94816138ce61ffff978860065416613d37565b048411613c8057600954600b5460408051637eb5e4f760e11b81526004810188905260248101929092527f000000000000000000000000000000000000000000000000000000000000000060448301526064820197909752936001600160a01b039360209283908790608490829089165afa958615613bca578496613c51575b5061395a861515613d4a565b303303613c20575b60048386600954168a51928380926308f818b960e41b82525afa908115613c1657908a918691613bde575b5016953385526005845260ff8986205416613bd4575b906139b1876139bb93613d37565b04998a1015613d9e565b837f000000000000000000000000000000000000000000000000000000000000000016803b15612afd5787516340c10f1960e01b81526001600160a01b0383166004820152602481018b90529084908290604490829084905af18015613bca57613b93575b508651898152602081018790526001600160a01b0390911660408201527ff7735c8cb2a65788ca663fc8415b7c6a66cd6847d58346d8334e8d52a599d3df9080606081015b0390a18260035460081c169485613a87575b5050505050505050906001600255565b620f4240613acb613af492611fce613b3898611fc87fe03ab3b024368507c6734889408dbb5eb5932148c7963ec2bd8d9e2cac54ae949d60045460b01c1691613493565b0480967f0000000000000000000000000000000000000000000000000000000000000000614c4a565b8260035460081c16803b151580613b84575b613b48575b50506003549451938452506001600160a01b0360089490941c169290921660208201529081906040820190565b0390a13880808080808080613a77565b829182885191820191636adbb12160e11b835288602482015260248152613b6e81613400565b51925af150613b7b61365f565b50388080613b0b565b5060ff60045460a01c16613b06565b7ff7735c8cb2a65788ca663fc8415b7c6a66cd6847d58346d8334e8d52a599d3df9193613bc2613a65926133d6565b939150613a20565b88513d86823e3d90fd5b90955085906139a3565b809250858092503d8311613c0f575b613bf7818361341c565b8101031261238e57613c098a91613d8f565b3861398d565b503d613bed565b89513d87823e3d90fd5b613c4c8730337f0000000000000000000000000000000000000000000000000000000000000000614c8b565b613962565b9095508281813d8311613c79575b613c69818361341c565b81010312612afd5751943861394e565b503d613c5f565b60405162461bcd60e51b81526020600482015260146024820152730daeae6e840e8e4c2c8ca40eadcc8cae440dac2f60631b6044820152606490fd5b15613cc357565b60405162461bcd60e51b815260206004820152600a602482015269189d5e481c185d5cd95960b21b6044820152606490fd5b15613cfc57565b60405162461bcd60e51b815260206004820152601360248201527236bab9ba103a3930b2329037bb32b91036b4b760691b6044820152606490fd5b818102929181159184041417156134a357565b15613d5157565b60405162461bcd60e51b81526020600482015260166024820152750616d6f756e74206f66206e756d61206973203c3d20360541b6044820152606490fd5b519061ffff8216820361068257565b15613da557565b60405162461bcd60e51b81526020600482015260086024820152674d696e204e554d4160c01b6044820152606490fd5b600a546201518081018091116134a357421015613dee57565b613df66134c6565b906007548311613e0557505050565b613e0e9261369f565b565b6015546001600160a01b031680613e245750565b602060009160046040518094819363a6afed9560e01b83525af180156135ad57613e4b5750565b602090813d8111613e6b575b613e61818361341c565b8101031261068257565b503d613e57565b9081606091031261068257805191613814604060208401519301613d8f565b613e99613e10565b6009546040516353d7869360e01b815290606090829060049082906000906001600160a01b03165af19081156135ad5760009182918391613edb575b50909192565b915050613eff915060603d8111613f05575b613ef7818361341c565b810190613e72565b38613ed5565b503d613eed565b91613fb060209293600092613f1f614dd3565b613f27614db5565b613f346103e88311613cf5565b613f3c613e91565b969150613f47613dd5565b600954600b54604051634ee2b90b60e01b81526004810187905260248101919091527f000000000000000000000000000000000000000000000000000000000000000060448201526064810192909252909485916001600160a01b031690829081906084820190565b03915afa92831561120a5784936144af575b508215614471576040516370a0823160e01b81523060048201526020816024817f00000000000000000000000000000000000000000000000000000000000000006001600160a01b03165afa9081156109a857908491869161443c575b50106143f757338452600560205260ff6040852054166143ed575b6103e861404b61ffff871685613d37565b049586106143bc573330146142d0577f00000000000000000000000000000000000000000000000000000000000000006001600160a01b0316803b1561238e5760405163079cc67960e41b8152336004820152602481018490529085908290604490829084905af180156109a85787929186916142b7575b50509161411d7f1cdb5ee3c47e1a706ac452b89698e5e3f2ff4f835ca72dde8936d0f4fcf37d81935b303303614287575b6040805193845260208401949094526001600160a01b0316928201929092529081906060820190565b0390a160035460081c6001600160a01b03169283614142575b50505050906001600255565b61ffff8060045460b01c1691166103e80361ffff81116142735761ffff160261ffff811690810361425f57620f42406141a17fe03ab3b024368507c6734889408dbb5eb5932148c7963ec2bd8d9e2cac54ae949594936141ca93613d37565b0480937f0000000000000000000000000000000000000000000000000000000000000000614c4a565b60035460081c6001600160a01b0316803b151580614250575b614213575b50506003546040805192835260089190911c6001600160a01b0316602083015290a138808080614136565b8190604051826020820191636adbb12160e11b83528660248201526024815261423b81613400565b51925af15061424861365f565b5038806141e8565b5060ff60045460a01c166141e3565b634e487b7160e01b83526011600452602483fd5b634e487b7160e01b84526011600452602484fd5b6142b284827f0000000000000000000000000000000000000000000000000000000000000000614c4a565b6140f4565b6142c3919293506133d6565b612afd57859084386140c3565b9291907f00000000000000000000000000000000000000000000000000000000000000006001600160a01b03163b15610faa57604051630852cd8d60e31b8152600481018290528381602481837f00000000000000000000000000000000000000000000000000000000000000006001600160a01b03165af1801561120a5790879291614385575b5061411d7f1cdb5ee3c47e1a706ac452b89698e5e3f2ff4f835ca72dde8936d0f4fcf37d819394956140ec565b7f1cdb5ee3c47e1a706ac452b89698e5e3f2ff4f835ca72dde8936d0f4fcf37d8193946143b461411d926133d6565b949350614358565b60405162461bcd60e51b815260206004820152600960248201526826b4b7102a37b5b2b760b91b6044820152606490fd5b6103e8945061403a565b60405162461bcd60e51b815260206004820152601d60248201527f6e6f7420656e6f756768206c697175696469747920696e207661756c740000006044820152606490fd5b9150506020813d602011614469575b816144586020938361341c565b8101031261238e578390513861401f565b3d915061444b565b60405162461bcd60e51b81526020600482015260166024820152750616d6f756e74206f6620746f6b656e206973203c3d360541b6044820152606490fd5b9092506020813d6020116144db575b816144cb6020938361341c565b81010312612afd57519138613fc2565b3d91506144be565b60155491929091336001600160a01b0391821614908180614576575b8015614561575b156145195750505061381491339161386c565b6016541633149182614558575b821561453f575b505015612ed157613814913391613f0c565b90915081614550575b50388061452d565b905038614548565b80159250614526565b50806016541633148015614506575082614506565b5082156144ff565b9190826080910312610682578151916020810151916060604083015192015190565b600954604080516305d1891b60e11b81529392916001600160a01b0316608085600481845afa9081156147435761463893949560009261471f575b507f000000000000000000000000000000000000000000000000000000000000000091600b5490845180968192637eb5e4f760e11b8352602096879581600486019094939260609260808301968352602083015260408201520152565b0381845afa938415614714576000946146e5575b5090806004928451938480926308f818b960e41b82525afa9283156146db5750600092614693575b505061468c613814939261ffff6103e8931690613d37565b0490614df4565b81819392933d83116146d4575b6146aa818361341c565b810103126102ef575061468c613814939261ffff6146ca6103e894613d8f565b9350509293614674565b503d6146a0565b513d6000823e3d90fd5b90938282813d831161470d575b6146fc818361341c565b810103126102ef575051928161464c565b503d6146f2565b83513d6000823e3d90fd5b61473891925060803d8111610c0d57610bfb818361341c565b5091505090386145db565b82513d6000823e3d90fd5b919082604091031261068257602061476583613d8f565b92015190565b600954604080516305d1891b60e11b8152909392916001600160a01b0316608082600481845afa9182156148d7576000926148b3575b5084600b54917f000000000000000000000000000000000000000000000000000000000000000093825193634ee2b90b60e01b8552670de0b6b3a7640000600486015260248501528460448501526064840152602083608481845afa9283156147435760009361487c575b508151629ca3eb60e01b81529190829060049082905afa908115614871579161ffff61484c926103e8946138149899600092614853575b50501690613d37565b0491614ee9565b6148699250803d10610b9757610b88818361341c565b503880614843565b86513d6000823e3d90fd5b9150916020823d82116148ab575b816148976020938361341c565b810103126102ef575051908590600461480c565b3d915061488a565b6148cc91925060803d8111610c0d57610bfb818361341c565b5091505090386147a1565b85513d6000823e3d90fd5b601554909190336001600160a01b0391821614908180614970575b801561495b575b1561491557505050613814906145a0565b6016541633149182614952575b8215614939575b505015612ed1576138149061476b565b9091508161494a575b503880614929565b905038614942565b80159250614922565b50806016541633148015614904575082614904565b5082156148fd565b600954604051631a6719a560e01b815290602090829060049082906001600160a01b03165afa9081156135ad57600091614a1e575b506149c36149b961384a565b91600e5490614e81565b90818110156149d3575050600090565b614a0b916149e0916134b9565b600b54907f000000000000000000000000000000000000000000000000000000000000000090614ee9565b600d54808211614a19575090565b905090565b906020823d8211614a47575b81614a376020938361341c565b810103126102ef575051386149ad565b3d9150614a2a565b15614a5657565b606460405162461bcd60e51b815260206004820152602060248201527f63616e74206c697175696461746520796f7572206f776e20706f736974696f6e6044820152fd5b614aa2613dd5565b6009546040516353d7869360e01b815290606090829060049082906000906001600160a01b03165af19081156135ad57600091614aec575b5090614ae4614b0d565b613e0e614b95565b614b04915060603d8111613f0557613ef7818361341c565b50905038614ada565b6009546001600160a01b0316803b1561068257600080916024604051809481936334fec2b560e21b8352600160048401525af180156135ad57614b4d5750565b613e0e906133d6565b6009546001600160a01b0316803b1561068257600080916024604051809481936334fec2b560e21b83528160048401525af180156135ad57614b4d5750565b614b9d613793565b601355614ba86135b9565b60145561010061ff00196012541617601255565b15614bc357565b60405162461bcd60e51b815260206004820152600d60248201526c696e76616c696420706172616d60981b6044820152606490fd5b15614bff57565b60405162461bcd60e51b815260206004820152600f60248201526e36b4b7103634b8bab4b230ba34b7b760891b6044820152606490fd5b6000546001600160a01b031633036116b957565b60405163a9059cbb60e01b60208201526001600160a01b03929092166024830152604480830193909352918152613e0e91614c8660648361341c565b614ce0565b6040516323b872dd60e01b60208201526001600160a01b03928316602482015292909116604483015260648083019390935291815260a081019181831067ffffffffffffffff8411176133ea57613e0e926040525b600080614d099260018060a01b03169360208151910182865af1614d0261365f565b9083614d52565b8051908115159182614d37575b5050614d1f5750565b60249060405190635274afe760e01b82526004820152fd5b614d4a925060208091830101910161343e565b153880614d16565b90614d795750805115614d6757805190602001fd5b604051630a12f52160e11b8152600490fd5b81511580614dac575b614d8a575090565b604051639996b31560e01b81526001600160a01b039091166004820152602490fd5b50803b15614d82565b60ff60035416614dc157565b60405163d93c066560e01b8152600490fd5b6002805414614de25760028055565b604051633ee5aeb560e01b8152600490fd5b90670de0b6b3a7640000906000198284099282810292838086109503948086039514614e7357848311156106825782910981806000031680920460028082600302188083028203028083028203028083028203028083028203028083028203028092029003029360018380600003040190848311900302920304170290565b505080925015610682570490565b9060001981830981830291828083109203918083039214614ede576103e89082821115610682577fac083126e978d4fdf3b645a1cac083126e978d4fdf3b645a1cac083126e978d5940990828211900360fd1b910360031c170290565b50506103e891500490565b916000198284099282810292838086109503948086039514614e735784831115610682578291098180600003168092046002808260030218808302820302808302820302808302820302808302820302808302820302809202900302936001838060000304019084831190030292030417029056fea264697066735822122060d7338d476dcd3f26e7ced850ba1b64e82f23f8bbb54cd6de27e2d86009a58a64736f6c63430008140033","linkReferences":{}},"methodIdentifiers":{"GetMaxBorrow()":"4e6ff983","MIN()":"37a7f2b7","acceptOwnership()":"79ba5097","accrueInterestLending()":"de3b2d27","accrueInterestLendingAndUpdateDebasing()":"178b4c3f","borrow(uint256)":"c5ebeaec","borrowLeverage(uint256,bool)":"134b575e","buy(uint256,uint256,address)":"59a87bc1","buyFromCToken(uint256,uint256,bool)":"8f4b9625","cf_liquid_warning()":"bac0db09","decimals()":"313ce567","extractRewards()":"62716c97","fees()":"9af1d35a","getAmountIn(uint256,bool)":"0e2479d8","getBuyNumaAmountIn(uint256)":"2654d2d6","getBuyNumaSimulateExtract(uint256)":"e5861354","getDebt()":"14a6bf0f","getEthBalance()":"70ed0ada","getEthBalanceNoDebt()":"21eb60eb","getSellNumaAmountIn(uint256)":"c1b05bb0","getSellNumaSimulateExtract(uint256)":"ea417ac5","last_extracttimestamp()":"f47bdc4d","last_lsttokenvalueWei()":"7d845be0","liquidateBadDebt(address,uint256,address)":"538101df","liquidateLstBorrower(address,uint256,bool,bool)":"f0d8653e","liquidateNumaBorrower(address,uint256,bool,bool)":"6a9f4cb1","lstToken()":"80920718","maxBorrow()":"0cc0bfa5","max_percent()":"9ff9c96f","minLiquidationPc()":"bc57e0ce","minterContract()":"92f00233","numa()":"5992c23e","oracle()":"7dc0d1d0","owner()":"8da5cb5b","pause()":"8456cb59","pauseBuy(bool)":"e25909bb","paused()":"5c975abb","pendingOwner()":"e30c3978","renounceOwnership()":"715018a6","repay(uint256)":"371fd8e6","repayLeverage(bool)":"2c9d09e0","revokeWithdraw()":"7980544e","rewardsFromDebt()":"bec650cb","rewardsValue()":"c4d5d0dd","rwd_threshold()":"d19a03cd","sell(uint256,uint256,address)":"d04c6983","setCFLiquidWarning(uint256)":"513e5ee8","setCTokens(address,address)":"2065d2c9","setFee(uint16)":"8e005553","setFeeAddress(address,bool)":"0bcc9298","setFeeWhitelist(address,bool)":"97576786","setMaxBorrow(uint256)":"1d54164b","setMaxLiquidationsProfit(uint256)":"88b7f4bc","setMaxPercent(uint16)":"735f5ae6","setMinLiquidationsPc(uint256)":"bb98359a","setOracle(address)":"7adbf973","setRewardsThreshold(uint256)":"b02b605e","setRwdAddress(address,bool)":"bd1a2bdb","setVaultManager(address)":"b543503e","transferOwnership(address)":"f2fde38b","unpause()":"3f4ba83a","vaultManager()":"8a4adf24","withdrawToken(address,uint256,address)":"3ccdbb28"},"id":4}