{"abi":[{"type":"function","name":"_borrowGuardianPaused","inputs":[],"outputs":[{"name":"","type":"bool","internalType":"bool"}],"stateMutability":"view"},{"type":"function","name":"_mintGuardianPaused","inputs":[],"outputs":[{"name":"","type":"bool","internalType":"bool"}],"stateMutability":"view"},{"type":"function","name":"accountAssets","inputs":[{"name":"","type":"address","internalType":"address"},{"name":"","type":"uint256","internalType":"uint256"}],"outputs":[{"name":"","type":"address","internalType":"contract CToken"}],"stateMutability":"view"},{"type":"function","name":"admin","inputs":[],"outputs":[{"name":"","type":"address","internalType":"address"}],"stateMutability":"view"},{"type":"function","name":"allMarkets","inputs":[{"name":"","type":"uint256","internalType":"uint256"}],"outputs":[{"name":"","type":"address","internalType":"contract CToken"}],"stateMutability":"view"},{"type":"function","name":"borrowCapGuardian","inputs":[],"outputs":[{"name":"","type":"address","internalType":"address"}],"stateMutability":"view"},{"type":"function","name":"borrowCaps","inputs":[{"name":"","type":"address","internalType":"address"}],"outputs":[{"name":"","type":"uint256","internalType":"uint256"}],"stateMutability":"view"},{"type":"function","name":"borrowGuardianPaused","inputs":[{"name":"","type":"address","internalType":"address"}],"outputs":[{"name":"","type":"bool","internalType":"bool"}],"stateMutability":"view"},{"type":"function","name":"closeFactorMantissa","inputs":[],"outputs":[{"name":"","type":"uint256","internalType":"uint256"}],"stateMutability":"view"},{"type":"function","name":"compAccrued","inputs":[{"name":"","type":"address","internalType":"address"}],"outputs":[{"name":"","type":"uint256","internalType":"uint256"}],"stateMutability":"view"},{"type":"function","name":"compBorrowSpeeds","inputs":[{"name":"","type":"address","internalType":"address"}],"outputs":[{"name":"","type":"uint256","internalType":"uint256"}],"stateMutability":"view"},{"type":"function","name":"compBorrowState","inputs":[{"name":"","type":"address","internalType":"address"}],"outputs":[{"name":"index","type":"uint224","internalType":"uint224"},{"name":"block","type":"uint32","internalType":"uint32"}],"stateMutability":"view"},{"type":"function","name":"compBorrowerIndex","inputs":[{"name":"","type":"address","internalType":"address"},{"name":"","type":"address","internalType":"address"}],"outputs":[{"name":"","type":"uint256","internalType":"uint256"}],"stateMutability":"view"},{"type":"function","name":"compContributorSpeeds","inputs":[{"name":"","type":"address","internalType":"address"}],"outputs":[{"name":"","type":"uint256","internalType":"uint256"}],"stateMutability":"view"},{"type":"function","name":"compRate","inputs":[],"outputs":[{"name":"","type":"uint256","internalType":"uint256"}],"stateMutability":"view"},{"type":"function","name":"compSpeeds","inputs":[{"name":"","type":"address","internalType":"address"}],"outputs":[{"name":"","type":"uint256","internalType":"uint256"}],"stateMutability":"view"},{"type":"function","name":"compSupplierIndex","inputs":[{"name":"","type":"address","internalType":"address"},{"name":"","type":"address","internalType":"address"}],"outputs":[{"name":"","type":"uint256","internalType":"uint256"}],"stateMutability":"view"},{"type":"function","name":"compSupplySpeeds","inputs":[{"name":"","type":"address","internalType":"address"}],"outputs":[{"name":"","type":"uint256","internalType":"uint256"}],"stateMutability":"view"},{"type":"function","name":"compSupplyState","inputs":[{"name":"","type":"address","internalType":"address"}],"outputs":[{"name":"index","type":"uint224","internalType":"uint224"},{"name":"block","type":"uint32","internalType":"uint32"}],"stateMutability":"view"},{"type":"function","name":"comptrollerImplementation","inputs":[],"outputs":[{"name":"","type":"address","internalType":"address"}],"stateMutability":"view"},{"type":"function","name":"lastContributorBlock","inputs":[{"name":"","type":"address","internalType":"address"}],"outputs":[{"name":"","type":"uint256","internalType":"uint256"}],"stateMutability":"view"},{"type":"function","name":"liquidationIncentiveMantissa","inputs":[],"outputs":[{"name":"","type":"uint256","internalType":"uint256"}],"stateMutability":"view"},{"type":"function","name":"markets","inputs":[{"name":"","type":"address","internalType":"address"}],"outputs":[{"name":"isListed","type":"bool","internalType":"bool"},{"name":"collateralFactorMantissa","type":"uint256","internalType":"uint256"}],"stateMutability":"view"},{"type":"function","name":"maxAssets","inputs":[],"outputs":[{"name":"","type":"uint256","internalType":"uint256"}],"stateMutability":"view"},{"type":"function","name":"mintGuardianPaused","inputs":[{"name":"","type":"address","internalType":"address"}],"outputs":[{"name":"","type":"bool","internalType":"bool"}],"stateMutability":"view"},{"type":"function","name":"oracle","inputs":[],"outputs":[{"name":"","type":"address","internalType":"contract PriceOracleCollateralBorrow"}],"stateMutability":"view"},{"type":"function","name":"pauseGuardian","inputs":[],"outputs":[{"name":"","type":"address","internalType":"address"}],"stateMutability":"view"},{"type":"function","name":"pendingAdmin","inputs":[],"outputs":[{"name":"","type":"address","internalType":"address"}],"stateMutability":"view"},{"type":"function","name":"pendingComptrollerImplementation","inputs":[],"outputs":[{"name":"","type":"address","internalType":"address"}],"stateMutability":"view"},{"type":"function","name":"seizeGuardianPaused","inputs":[],"outputs":[{"name":"","type":"bool","internalType":"bool"}],"stateMutability":"view"},{"type":"function","name":"transferGuardianPaused","inputs":[],"outputs":[{"name":"","type":"bool","internalType":"bool"}],"stateMutability":"view"}],"bytecode":{"object":"0x6080806040523461001657610838908161001c8239f35b600080fdfe60806040818152600436101561001457600080fd5b600091823560e01c9081631d7b33d71461079d5750806321af45691461077557806324a3d6221461074d57806326782247146107255780633c94786f146106ff5780634a584432146106c85780634ada90af146106aa57806352d84d1e1461064e5780636aa875b5146106175780636b79c38d146105bf5780636d154ea514610582578063731f0c2b146105455780637dc0d1d01461051d57806387f76303146104f75780638c57804e1461049b5780638e8f294b1461045557806394b2294b14610437578063986ab83814610400578063aa900754146103e2578063ac0b0bb7146103bc578063b21be7fd14610374578063bb82aa5e1461034c578063bea6b8b814610315578063ca0af043146102cd578063cc7ebdc414610296578063dce1544914610244578063dcfbc0c71461021c578063e6653f3d146101f6578063e8755446146101d8578063f4a433c0146101a15763f851a4401461017757600080fd5b3461019d578160031936011261019d57905490516001600160a01b039091168152602090f35b5080fd5b503461019d57602036600319011261019d5760209181906001600160a01b036101c86107d1565b1681526019845220549051908152f35b503461019d578160031936011261019d576020906005549051908152f35b503461019d578160031936011261019d5760209060ff600a5460a81c1690519015158152f35b503461019d578160031936011261019d5760035490516001600160a01b039091168152602090f35b503461019d578060031936011261019d5761025d6107d1565b6001600160a01b0390811683526008602052818320805460243591908210156102925784526020938490200154915191168152f35b8480fd5b503461019d57602036600319011261019d5760209181906001600160a01b036102bd6107d1565b1681526014845220549051908152f35b503461019d578060031936011261019d57806020926102ea6107d1565b6102f26107ec565b6001600160a01b0391821683526013865283832091168252845220549051908152f35b503461019d57602036600319011261019d5760209181906001600160a01b0361033c6107d1565b1681526018845220549051908152f35b503461019d578160031936011261019d5760025490516001600160a01b039091168152602090f35b503461019d578060031936011261019d57806020926103916107d1565b6103996107ec565b6001600160a01b0391821683526012865283832091168252845220549051908152f35b503461019d578160031936011261019d5760209060ff600a5460b81c1690519015158152f35b503461019d578160031936011261019d57602090600e549051908152f35b503461019d57602036600319011261019d5760209181906001600160a01b036104276107d1565b1681526017845220549051908152f35b503461019d578160031936011261019d576020906007549051908152f35b503461019d57602036600319011261019d579081906001600160a01b0361047a6107d1565b168152600960205220600160ff825416910154825191151582526020820152f35b503461019d57602036600319011261019d576104f39181906001600160a01b036104c36107d1565b168152601160209081529190205491516001600160e01b038316815260e09290921c908201529081906040820190565b0390f35b503461019d578160031936011261019d5760209060ff600a5460b01c1690519015158152f35b503461019d578160031936011261019d5760045490516001600160a01b039091168152602090f35b503461019d57602036600319011261019d5760209160ff9082906001600160a01b0361056f6107d1565b168152600b855220541690519015158152f35b503461019d57602036600319011261019d5760209160ff9082906001600160a01b036105ac6107d1565b168152600c855220541690519015158152f35b503461019d57602036600319011261019d576104f39181906001600160a01b036105e76107d1565b168152601060209081529190205491516001600160e01b038316815260e09290921c908201529081906040820190565b503461019d57602036600319011261019d5760209181906001600160a01b0361063e6107d1565b168152601a845220549051908152f35b503461019d57602036600319011261019d57600435600d548110156106a657600d6020935260018060a01b03907fd7b6990105719101dabeb77144f2a3385c8033acd3af97e9423a695e81ad1eb50154169051908152f35b8280fd5b503461019d578160031936011261019d576020906006549051908152f35b503461019d57602036600319011261019d5760209181906001600160a01b036106ef6107d1565b1681526016845220549051908152f35b503461019d578160031936011261019d5760209060ff600a5460a01c1690519015158152f35b503461019d578160031936011261019d5760015490516001600160a01b039091168152602090f35b503461019d578160031936011261019d57600a5490516001600160a01b039091168152602090f35b503461019d578160031936011261019d5760155490516001600160a01b039091168152602090f35b919050346106a65760203660031901126106a6576020926001600160a01b036107c46107d1565b168152600f845220548152f35b600435906001600160a01b03821682036107e757565b600080fd5b602435906001600160a01b03821682036107e75756fea2646970667358221220118f36b47e8e4b4a4b102d022a9edb9c704aea537fb56ca0b6bb70c7f0a4302364736f6c63430008140033","linkReferences":{}},"methodIdentifiers":{"_borrowGuardianPaused()":"e6653f3d","_mintGuardianPaused()":"3c94786f","accountAssets(address,uint256)":"dce15449","admin()":"f851a440","allMarkets(uint256)":"52d84d1e","borrowCapGuardian()":"21af4569","borrowCaps(address)":"4a584432","borrowGuardianPaused(address)":"6d154ea5","closeFactorMantissa()":"e8755446","compAccrued(address)":"cc7ebdc4","compBorrowSpeeds(address)":"f4a433c0","compBorrowState(address)":"8c57804e","compBorrowerIndex(address,address)":"ca0af043","compContributorSpeeds(address)":"986ab838","compRate()":"aa900754","compSpeeds(address)":"1d7b33d7","compSupplierIndex(address,address)":"b21be7fd","compSupplySpeeds(address)":"6aa875b5","compSupplyState(address)":"6b79c38d","comptrollerImplementation()":"bb82aa5e","lastContributorBlock(address)":"bea6b8b8","liquidationIncentiveMantissa()":"4ada90af","markets(address)":"8e8f294b","maxAssets()":"94b2294b","mintGuardianPaused(address)":"731f0c2b","oracle()":"7dc0d1d0","pauseGuardian()":"24a3d622","pendingAdmin()":"26782247","pendingComptrollerImplementation()":"dcfbc0c7","seizeGuardianPaused()":"ac0b0bb7","transferGuardianPaused()":"87f76303"},"id":68}