{"abi":[{"type":"function","name":"_borrowGuardianPaused","inputs":[],"outputs":[{"name":"","type":"bool","internalType":"bool"}],"stateMutability":"view"},{"type":"function","name":"_mintGuardianPaused","inputs":[],"outputs":[{"name":"","type":"bool","internalType":"bool"}],"stateMutability":"view"},{"type":"function","name":"accountAssets","inputs":[{"name":"","type":"address","internalType":"address"},{"name":"","type":"uint256","internalType":"uint256"}],"outputs":[{"name":"","type":"address","internalType":"contract CToken"}],"stateMutability":"view"},{"type":"function","name":"admin","inputs":[],"outputs":[{"name":"","type":"address","internalType":"address"}],"stateMutability":"view"},{"type":"function","name":"allMarkets","inputs":[{"name":"","type":"uint256","internalType":"uint256"}],"outputs":[{"name":"","type":"address","internalType":"contract CToken"}],"stateMutability":"view"},{"type":"function","name":"borrowGuardianPaused","inputs":[{"name":"","type":"address","internalType":"address"}],"outputs":[{"name":"","type":"bool","internalType":"bool"}],"stateMutability":"view"},{"type":"function","name":"closeFactorMantissa","inputs":[],"outputs":[{"name":"","type":"uint256","internalType":"uint256"}],"stateMutability":"view"},{"type":"function","name":"compAccrued","inputs":[{"name":"","type":"address","internalType":"address"}],"outputs":[{"name":"","type":"uint256","internalType":"uint256"}],"stateMutability":"view"},{"type":"function","name":"compBorrowState","inputs":[{"name":"","type":"address","internalType":"address"}],"outputs":[{"name":"index","type":"uint224","internalType":"uint224"},{"name":"block","type":"uint32","internalType":"uint32"}],"stateMutability":"view"},{"type":"function","name":"compBorrowerIndex","inputs":[{"name":"","type":"address","internalType":"address"},{"name":"","type":"address","internalType":"address"}],"outputs":[{"name":"","type":"uint256","internalType":"uint256"}],"stateMutability":"view"},{"type":"function","name":"compRate","inputs":[],"outputs":[{"name":"","type":"uint256","internalType":"uint256"}],"stateMutability":"view"},{"type":"function","name":"compSpeeds","inputs":[{"name":"","type":"address","internalType":"address"}],"outputs":[{"name":"","type":"uint256","internalType":"uint256"}],"stateMutability":"view"},{"type":"function","name":"compSupplierIndex","inputs":[{"name":"","type":"address","internalType":"address"},{"name":"","type":"address","internalType":"address"}],"outputs":[{"name":"","type":"uint256","internalType":"uint256"}],"stateMutability":"view"},{"type":"function","name":"compSupplyState","inputs":[{"name":"","type":"address","internalType":"address"}],"outputs":[{"name":"index","type":"uint224","internalType":"uint224"},{"name":"block","type":"uint32","internalType":"uint32"}],"stateMutability":"view"},{"type":"function","name":"comptrollerImplementation","inputs":[],"outputs":[{"name":"","type":"address","internalType":"address"}],"stateMutability":"view"},{"type":"function","name":"liquidationIncentiveMantissa","inputs":[],"outputs":[{"name":"","type":"uint256","internalType":"uint256"}],"stateMutability":"view"},{"type":"function","name":"markets","inputs":[{"name":"","type":"address","internalType":"address"}],"outputs":[{"name":"isListed","type":"bool","internalType":"bool"},{"name":"collateralFactorMantissa","type":"uint256","internalType":"uint256"}],"stateMutability":"view"},{"type":"function","name":"maxAssets","inputs":[],"outputs":[{"name":"","type":"uint256","internalType":"uint256"}],"stateMutability":"view"},{"type":"function","name":"mintGuardianPaused","inputs":[{"name":"","type":"address","internalType":"address"}],"outputs":[{"name":"","type":"bool","internalType":"bool"}],"stateMutability":"view"},{"type":"function","name":"oracle","inputs":[],"outputs":[{"name":"","type":"address","internalType":"contract PriceOracleCollateralBorrow"}],"stateMutability":"view"},{"type":"function","name":"pauseGuardian","inputs":[],"outputs":[{"name":"","type":"address","internalType":"address"}],"stateMutability":"view"},{"type":"function","name":"pendingAdmin","inputs":[],"outputs":[{"name":"","type":"address","internalType":"address"}],"stateMutability":"view"},{"type":"function","name":"pendingComptrollerImplementation","inputs":[],"outputs":[{"name":"","type":"address","internalType":"address"}],"stateMutability":"view"},{"type":"function","name":"seizeGuardianPaused","inputs":[],"outputs":[{"name":"","type":"bool","internalType":"bool"}],"stateMutability":"view"},{"type":"function","name":"transferGuardianPaused","inputs":[],"outputs":[{"name":"","type":"bool","internalType":"bool"}],"stateMutability":"view"}],"bytecode":{"object":"0x60808060405234610016576106bb908161001c8239f35b600080fdfe60806040818152600436101561001457600080fd5b600091823560e01c9081631d7b33d7146106205750806324a3d622146105f857806326782247146105d05780633c94786f146105aa5780634ada90af1461058c57806352d84d1e146105305780636b79c38d146104d85780636d154ea51461049b578063731f0c2b1461045e5780637dc0d1d01461043657806387f76303146104105780638c57804e146103b45780638e8f294b1461036e57806394b2294b14610350578063aa90075414610332578063ac0b0bb71461030c578063b21be7fd146102c4578063bb82aa5e1461029c578063ca0af04314610254578063cc7ebdc41461021d578063dce15449146101cb578063dcfbc0c7146101a3578063e6653f3d1461017d578063e87554461461015f5763f851a4401461013557600080fd5b3461015b578160031936011261015b57905490516001600160a01b039091168152602090f35b5080fd5b503461015b578160031936011261015b576020906005549051908152f35b503461015b578160031936011261015b5760209060ff600a5460a81c1690519015158152f35b503461015b578160031936011261015b5760035490516001600160a01b039091168152602090f35b503461015b578060031936011261015b576101e4610654565b6001600160a01b0390811683526008602052818320805460243591908210156102195784526020938490200154915191168152f35b8480fd5b503461015b57602036600319011261015b5760209181906001600160a01b03610244610654565b1681526014845220549051908152f35b503461015b578060031936011261015b5780602092610271610654565b61027961066f565b6001600160a01b0391821683526013865283832091168252845220549051908152f35b503461015b578160031936011261015b5760025490516001600160a01b039091168152602090f35b503461015b578060031936011261015b57806020926102e1610654565b6102e961066f565b6001600160a01b0391821683526012865283832091168252845220549051908152f35b503461015b578160031936011261015b5760209060ff600a5460b81c1690519015158152f35b503461015b578160031936011261015b57602090600e549051908152f35b503461015b578160031936011261015b576020906007549051908152f35b503461015b57602036600319011261015b579081906001600160a01b03610393610654565b168152600960205220600160ff825416910154825191151582526020820152f35b503461015b57602036600319011261015b5761040c9181906001600160a01b036103dc610654565b168152601160209081529190205491516001600160e01b038316815260e09290921c908201529081906040820190565b0390f35b503461015b578160031936011261015b5760209060ff600a5460b01c1690519015158152f35b503461015b578160031936011261015b5760045490516001600160a01b039091168152602090f35b503461015b57602036600319011261015b5760209160ff9082906001600160a01b03610488610654565b168152600b855220541690519015158152f35b503461015b57602036600319011261015b5760209160ff9082906001600160a01b036104c5610654565b168152600c855220541690519015158152f35b503461015b57602036600319011261015b5761040c9181906001600160a01b03610500610654565b168152601060209081529190205491516001600160e01b038316815260e09290921c908201529081906040820190565b503461015b57602036600319011261015b57600435600d5481101561058857600d6020935260018060a01b03907fd7b6990105719101dabeb77144f2a3385c8033acd3af97e9423a695e81ad1eb50154169051908152f35b8280fd5b503461015b578160031936011261015b576020906006549051908152f35b503461015b578160031936011261015b5760209060ff600a5460a01c1690519015158152f35b503461015b578160031936011261015b5760015490516001600160a01b039091168152602090f35b503461015b578160031936011261015b57600a5490516001600160a01b039091168152602090f35b91905034610588576020366003190112610588576020926001600160a01b03610647610654565b168152600f845220548152f35b600435906001600160a01b038216820361066a57565b600080fd5b602435906001600160a01b038216820361066a5756fea26469706673582212205cd1dd8a8b492161b3315e2b51693ec06b60b4d27612e1de3950bc872c33ad0c64736f6c63430008140033","linkReferences":{}},"methodIdentifiers":{"_borrowGuardianPaused()":"e6653f3d","_mintGuardianPaused()":"3c94786f","accountAssets(address,uint256)":"dce15449","admin()":"f851a440","allMarkets(uint256)":"52d84d1e","borrowGuardianPaused(address)":"6d154ea5","closeFactorMantissa()":"e8755446","compAccrued(address)":"cc7ebdc4","compBorrowState(address)":"8c57804e","compBorrowerIndex(address,address)":"ca0af043","compRate()":"aa900754","compSpeeds(address)":"1d7b33d7","compSupplierIndex(address,address)":"b21be7fd","compSupplyState(address)":"6b79c38d","comptrollerImplementation()":"bb82aa5e","liquidationIncentiveMantissa()":"4ada90af","markets(address)":"8e8f294b","maxAssets()":"94b2294b","mintGuardianPaused(address)":"731f0c2b","oracle()":"7dc0d1d0","pauseGuardian()":"24a3d622","pendingAdmin()":"26782247","pendingComptrollerImplementation()":"dcfbc0c7","seizeGuardianPaused()":"ac0b0bb7","transferGuardianPaused()":"87f76303"},"id":68}