{"abi":[{"type":"function","name":"accountAssets","inputs":[{"name":"","type":"address","internalType":"address"},{"name":"","type":"uint256","internalType":"uint256"}],"outputs":[{"name":"","type":"address","internalType":"contract CToken"}],"stateMutability":"view"},{"type":"function","name":"admin","inputs":[],"outputs":[{"name":"","type":"address","internalType":"address"}],"stateMutability":"view"},{"type":"function","name":"closeFactorMantissa","inputs":[],"outputs":[{"name":"","type":"uint256","internalType":"uint256"}],"stateMutability":"view"},{"type":"function","name":"comptrollerImplementation","inputs":[],"outputs":[{"name":"","type":"address","internalType":"address"}],"stateMutability":"view"},{"type":"function","name":"liquidationIncentiveMantissa","inputs":[],"outputs":[{"name":"","type":"uint256","internalType":"uint256"}],"stateMutability":"view"},{"type":"function","name":"maxAssets","inputs":[],"outputs":[{"name":"","type":"uint256","internalType":"uint256"}],"stateMutability":"view"},{"type":"function","name":"oracle","inputs":[],"outputs":[{"name":"","type":"address","internalType":"contract PriceOracleCollateralBorrow"}],"stateMutability":"view"},{"type":"function","name":"pendingAdmin","inputs":[],"outputs":[{"name":"","type":"address","internalType":"address"}],"stateMutability":"view"},{"type":"function","name":"pendingComptrollerImplementation","inputs":[],"outputs":[{"name":"","type":"address","internalType":"address"}],"stateMutability":"view"}],"bytecode":{"object":"0x6080806040523461001657610234908161001c8239f35b600080fdfe60806040818152600436101561001457600080fd5b600091823560e01c90816326782247146101d9575080634ada90af146101bb5780637dc0d1d01461019357806394b2294b14610175578063bb82aa5e1461014d578063dce15449146100f5578063dcfbc0c7146100cd578063e8755446146100af5763f851a4401461008557600080fd5b346100ab57816003193601126100ab57905490516001600160a01b039091168152602090f35b5080fd5b50346100ab57816003193601126100ab576020906005549051908152f35b50346100ab57816003193601126100ab5760035490516001600160a01b039091168152602090f35b50346100ab57806003193601126100ab576001600160a01b036004358181169081900361014957602435908452600860205282842080548210156101455784526020938490200154915191168152f35b8480fd5b8380fd5b50346100ab57816003193601126100ab5760025490516001600160a01b039091168152602090f35b50346100ab57816003193601126100ab576020906007549051908152f35b50346100ab57816003193601126100ab5760045490516001600160a01b039091168152602090f35b50346100ab57816003193601126100ab576020906006549051908152f35b8390346100ab57816003193601126100ab576001546001600160a01b03168152602090f3fea2646970667358221220ae33ab2c3b06f4062e0cf3e3d1659ad85512e986670f227aa849af535ba8e16a64736f6c63430008140033","linkReferences":{}},"methodIdentifiers":{"accountAssets(address,uint256)":"dce15449","admin()":"f851a440","closeFactorMantissa()":"e8755446","comptrollerImplementation()":"bb82aa5e","liquidationIncentiveMantissa()":"4ada90af","maxAssets()":"94b2294b","oracle()":"7dc0d1d0","pendingAdmin()":"26782247","pendingComptrollerImplementation()":"dcfbc0c7"},"id":68}