{"abi":[{"type":"fallback","stateMutability":"payable"},{"type":"function","name":"DepositFromVault","inputs":[{"name":"_amount","type":"uint256","internalType":"uint256"}],"outputs":[],"stateMutability":"payable"},{"type":"function","name":"test","inputs":[],"outputs":[{"name":"","type":"uint256","internalType":"uint256"}],"stateMutability":"view"}],"bytecode":{"object":"0x6080806040523461001b5760016000556101c590816100218239f35b600080fdfe6080806040526004361015610041575b61003f60405161001e816100c2565b600f81526e19985b1b189858dac818d85b1b1959608a1b60208201526100f4565b005b600090813560e01c908163d5b762421461007f575063f8a8fd6d0361000f573461007c578060031936011261007c5760209054604051908152f35b80fd5b905060203660031901126100be578061009a6100b6926100c2565b600a8152696465706f736974206f6b60b01b60208201526100f4565b600435815580f35b5080fd5b6040810190811067ffffffffffffffff8211176100de57604052565b634e487b7160e01b600052604160045260246000fd5b60405190602090828281019263104c13eb60e21b845280602483015282519283604484015260005b84811061017857505050808260006064601f9560839501015283199384910116810103604481018552011682019082821067ffffffffffffffff8311176100de57600092839260405251906a636f6e736f6c652e6c6f675afa50565b81810183015187820160640152869350820161011c56fea264697066735822122040f18da7cd26680892fc96a4c340687dbdec0ef8fa02118122d00704f5a35e5a64736f6c63430008140033","linkReferences":{}},"methodIdentifiers":{"DepositFromVault(uint256)":"d5b76242","test()":"f8a8fd6d"},"id":16}