{"abi":[{"type":"constructor","inputs":[{"name":"blocksPerYear_","type":"uint256","internalType":"uint256"},{"name":"baseRatePerYear","type":"uint256","internalType":"uint256"},{"name":"multiplierPerYear","type":"uint256","internalType":"uint256"},{"name":"jumpMultiplierPerYear","type":"uint256","internalType":"uint256"},{"name":"kink_","type":"uint256","internalType":"uint256"},{"name":"owner_","type":"address","internalType":"address"},{"name":"name_","type":"string","internalType":"string"}],"stateMutability":"nonpayable"},{"type":"function","name":"baseRatePerBlock","inputs":[],"outputs":[{"name":"","type":"uint256","internalType":"uint256"}],"stateMutability":"view"},{"type":"function","name":"blocksPerYear","inputs":[],"outputs":[{"name":"","type":"uint256","internalType":"uint256"}],"stateMutability":"view"},{"type":"function","name":"getBorrowRate","inputs":[{"name":"cash","type":"uint256","internalType":"uint256"},{"name":"borrows","type":"uint256","internalType":"uint256"},{"name":"reserves","type":"uint256","internalType":"uint256"},{"name":"deltaTime","type":"uint256","internalType":"uint256"},{"name":"_OldfullUtilizationRate","type":"uint256","internalType":"uint256"}],"outputs":[{"name":"newRatePerBlock","type":"uint256","internalType":"uint256"},{"name":"","type":"uint256","internalType":"uint256"}],"stateMutability":"view"},{"type":"function","name":"getSupplyRate","inputs":[{"name":"cash","type":"uint256","internalType":"uint256"},{"name":"borrows","type":"uint256","internalType":"uint256"},{"name":"reserves","type":"uint256","internalType":"uint256"},{"name":"reserveFactorMantissa","type":"uint256","internalType":"uint256"},{"name":"deltaTime","type":"uint256","internalType":"uint256"},{"name":"fullUtilizationRate","type":"uint256","internalType":"uint256"}],"outputs":[{"name":"","type":"uint256","internalType":"uint256"}],"stateMutability":"view"},{"type":"function","name":"isInterestRateModel","inputs":[],"outputs":[{"name":"","type":"bool","internalType":"bool"}],"stateMutability":"view"},{"type":"function","name":"jumpMultiplierPerBlock","inputs":[],"outputs":[{"name":"","type":"uint256","internalType":"uint256"}],"stateMutability":"view"},{"type":"function","name":"kink","inputs":[],"outputs":[{"name":"","type":"uint256","internalType":"uint256"}],"stateMutability":"view"},{"type":"function","name":"multiplierPerBlock","inputs":[],"outputs":[{"name":"","type":"uint256","internalType":"uint256"}],"stateMutability":"view"},{"type":"function","name":"name","inputs":[],"outputs":[{"name":"","type":"string","internalType":"string"}],"stateMutability":"view"},{"type":"function","name":"owner","inputs":[],"outputs":[{"name":"","type":"address","internalType":"address"}],"stateMutability":"view"},{"type":"function","name":"renounceOwnership","inputs":[],"outputs":[],"stateMutability":"nonpayable"},{"type":"function","name":"transferOwnership","inputs":[{"name":"newOwner","type":"address","internalType":"address"}],"outputs":[],"stateMutability":"nonpayable"},{"type":"function","name":"updateBlocksPerYear","inputs":[{"name":"blocksPerYear_","type":"uint256","internalType":"uint256"}],"outputs":[],"stateMutability":"nonpayable"},{"type":"function","name":"updateJumpRateModel","inputs":[{"name":"baseRatePerYear","type":"uint256","internalType":"uint256"},{"name":"multiplierPerYear","type":"uint256","internalType":"uint256"},{"name":"jumpMultiplierPerYear","type":"uint256","internalType":"uint256"},{"name":"kink_","type":"uint256","internalType":"uint256"}],"outputs":[],"stateMutability":"nonpayable"},{"type":"function","name":"utilizationRate","inputs":[{"name":"cash","type":"uint256","internalType":"uint256"},{"name":"borrows","type":"uint256","internalType":"uint256"},{"name":"reserves","type":"uint256","internalType":"uint256"}],"outputs":[{"name":"","type":"uint256","internalType":"uint256"}],"stateMutability":"pure"},{"type":"event","name":"NewInterestParams","inputs":[{"name":"baseRatePerBlock","type":"uint256","indexed":false,"internalType":"uint256"},{"name":"multiplierPerBlock","type":"uint256","indexed":false,"internalType":"uint256"},{"name":"jumpMultiplierPerBlock","type":"uint256","indexed":false,"internalType":"uint256"},{"name":"kink","type":"uint256","indexed":false,"internalType":"uint256"}],"anonymous":false},{"type":"event","name":"OwnershipTransferred","inputs":[{"name":"previousOwner","type":"address","indexed":true,"internalType":"address"},{"name":"newOwner","type":"address","indexed":true,"internalType":"address"}],"anonymous":false},{"type":"error","name":"OwnableInvalidOwner","inputs":[{"name":"owner","type":"address","internalType":"address"}]},{"type":"error","name":"OwnableUnauthorizedAccount","inputs":[{"name":"account","type":"address","internalType":"address"}]}],"bytecode":{"object":"0x60406080815234620003535762000b19803803806200001e8162000358565b928339810160e082820312620003535781516020928381015193858201519360608301519360808401519360a081015160018060a01b0390818116809103620003535760c08301516001600160401b039384821162000353570190601f92868484011215620003535782518581116200031057601f1993620000a682870186168b0162000358565b98828a528a83830101116200035357899060005b8381106200033e57505060009189010152811562000326576000548260018060a01b0319821617600055167f8be0079c531659141344cd1fd0a4f28419497f9722a3daafe3b4186f6b6457e0600080a36001938455845192831162000310576006548481811c9116801562000305575b87821014620002ef57828111620002a3575b50859183116001146200023357508190620001789460009262000227575b5050600019600383901b1c191690821b176006555b5480966200037e565b9283600355670de0b6b3a764000094858102958187041490151715620002115782860286810484148715171562000211577f6960ab234c7ef4b0c9197100f5393cfcde7c453ac910a27bd2000aa1dd4c068d96620001dd620001e8926080986200037e565b92836002556200037e565b9182600455836005558751948552840152858301526060820152a1516107799081620003a08239f35b634e487b7160e01b600052601160045260246000fd5b0151905038806200015a565b8293949216916006600052856000209260005b878282106200028e575050918594929183620001789795931062000274575b505050811b016006556200016f565b015160001960f88460031b161c1916905538808062000265565b83850151865594870194938401930162000246565b6006600052866000208380860160051c820192898710620002e5575b0160051c019085905b828110620002d85750506200013c565b60008155018590620002c8565b92508192620002bf565b634e487b7160e01b600052602260045260246000fd5b90607f16906200012a565b634e487b7160e01b600052604160045260246000fd5b8c51631e4fbdf760e01b815260006004820152602490fd5b8181018301518b82018401528b9201620000ba565b600080fd5b6040519190601f01601f191682016001600160401b038111838210176200031057604052565b811562000389570490565b634e487b7160e01b600052601260045260246000fdfe608060408181526004918236101561001657600080fd5b600092833560e01c91826306fdde031461050c575081632037f3e7146104405781632191f92a1461042457816333d7bb651461036f578163423989e4146102cf5781636e71e2d8146102a0578163715018a6146102435781638726bb89146102245781638da5cb5b146101fc578163a3193e2e146101da578163a385fb96146101bb578163b9f9850a1461019d578163f14039de1461017e578163f2fde38b146100eb575063fd2da339146100ca57600080fd5b346100e757816003193601126100e7576020906005549051908152f35b5080fd5b9190503461017a57602036600319011261017a576001600160a01b038235818116939192908490036101765761011f610717565b831561016057505082546001600160a01b0319811683178455167f8be0079c531659141344cd1fd0a4f28419497f9722a3daafe3b4186f6b6457e08380a380f35b51631e4fbdf760e01b8152908101849052602490fd5b8480fd5b8280fd5b5050346100e757816003193601126100e7576020906003549051908152f35b90503461017a578260031936011261017a5760209250549051908152f35b5050346100e757816003193601126100e7576020906001549051908152f35b8390346100e75760203660031901126100e7576101f5610717565b3560015580f35b5050346100e757816003193601126100e757905490516001600160a01b039091168152602090f35b5050346100e757816003193601126100e7576020906002549051908152f35b833461029d578060031936011261029d5761025c610717565b80546001600160a01b03198116825581906001600160a01b03167f8be0079c531659141344cd1fd0a4f28419497f9722a3daafe3b4186f6b6457e08280a380f35b80fd5b82843461029d57606036600319011261029d57506102c86020926044359060243590356106d1565b9051908152f35b839150346100e75760a03660031901126100e7576102f360443560243583356106d1565b60055480821161033157506103239150610319670de0b6b3a7640000916002549061066e565b0460035490610697565b905b82519182526020820152f35b6103636103699361035b670de0b6b3a764000093610355856103196002548461066e565b956106a4565b90549061066e565b04610697565b90610325565b82843461029d5760c036600319011261029d57823560243560443590670de0b6b3a7640000936064358503908582116104115791856103e66103ed9695938260209b6103e197506103c187878b6106d1565b6005549091908083116103f5575050906103196103e1926002549061066e565b61066e565b04936106d1565b049051908152f35b839161035b610363926103556103e1976103196002548461066e565b634e487b7160e01b815260118852602490fd5b5050346100e757816003193601126100e7576020905160018152f35b8383346100e75760803660031901126100e7576024359060643590610463610717565b6001546104718187356106b1565b9384600355670de0b6b3a7640000908181029181830414901517156104f9577f6960ab234c7ef4b0c9197100f5393cfcde7c453ac910a27bd2000aa1dd4c068d9492826104dc6104cf8a946104c98960809a9861066e565b906106b1565b91826002556044356106b1565b80935583600555815194855260208501528301526060820152a180f35b634e487b7160e01b865260118752602486fd5b909291503461066a578360031936011261066a578360065460019581871c878316978815610660575b6020938483108a1461064d57848798999a84895291826000146106315750506001146105dd575b5050601f801995869203011683019583871067ffffffffffffffff8811176105ca575085929391838652818452845191828186015281955b8387106105b25750508394508582601f949501015201168101030190f35b86810182015189880189015295810195889550610594565b634e487b7160e01b835260419052602482fd5b600685528492507ff652222313e28459528d920b65115c16c04f3efc82aaedc97be59f3f377c0d3f5b82841061061b5750505083018101388061055c565b8054888501860152879650928401928101610606565b925093505060ff191682860152151560051b840101388061055c565b634e487b7160e01b865260228952602486fd5b90607f1690610535565b8380fd5b8181029291811591840414171561068157565b634e487b7160e01b600052601160045260246000fd5b9190820180921161068157565b9190820391821161068157565b81156106bb570490565b634e487b7160e01b600052601260045260246000fd5b9190801561070f57670de0b6b3a7640000810291670de0b6b3a763ffff1982840401610681576107076104c99261070c95610697565b6106a4565b90565b505050600090565b6000546001600160a01b0316330361072b57565b60405163118cdaa760e01b8152336004820152602490fdfea2646970667358221220e8b17d41fd9569b17bff781bb488b30ed42cb7efe508687645c797cdf01296d764736f6c63430008140033","linkReferences":{}},"methodIdentifiers":{"baseRatePerBlock()":"f14039de","blocksPerYear()":"a385fb96","getBorrowRate(uint256,uint256,uint256,uint256,uint256)":"423989e4","getSupplyRate(uint256,uint256,uint256,uint256,uint256,uint256)":"33d7bb65","isInterestRateModel()":"2191f92a","jumpMultiplierPerBlock()":"b9f9850a","kink()":"fd2da339","multiplierPerBlock()":"8726bb89","name()":"06fdde03","owner()":"8da5cb5b","renounceOwnership()":"715018a6","transferOwnership(address)":"f2fde38b","updateBlocksPerYear(uint256)":"a3193e2e","updateJumpRateModel(uint256,uint256,uint256,uint256)":"2037f3e7","utilizationRate(uint256,uint256,uint256)":"6e71e2d8"},"id":75}