{"abi":[{"type":"constructor","inputs":[],"stateMutability":"nonpayable"},{"type":"fallback","stateMutability":"payable"},{"type":"function","name":"_acceptAdmin","inputs":[],"outputs":[{"name":"","type":"uint256","internalType":"uint256"}],"stateMutability":"nonpayable"},{"type":"function","name":"_acceptImplementation","inputs":[],"outputs":[{"name":"","type":"uint256","internalType":"uint256"}],"stateMutability":"nonpayable"},{"type":"function","name":"_setPendingAdmin","inputs":[{"name":"newPendingAdmin","type":"address","internalType":"address"}],"outputs":[{"name":"","type":"uint256","internalType":"uint256"}],"stateMutability":"nonpayable"},{"type":"function","name":"_setPendingImplementation","inputs":[{"name":"newPendingImplementation","type":"address","internalType":"address"}],"outputs":[{"name":"","type":"uint256","internalType":"uint256"}],"stateMutability":"nonpayable"},{"type":"function","name":"admin","inputs":[],"outputs":[{"name":"","type":"address","internalType":"address"}],"stateMutability":"view"},{"type":"function","name":"comptrollerImplementation","inputs":[],"outputs":[{"name":"","type":"address","internalType":"address"}],"stateMutability":"view"},{"type":"function","name":"pendingAdmin","inputs":[],"outputs":[{"name":"","type":"address","internalType":"address"}],"stateMutability":"view"},{"type":"function","name":"pendingComptrollerImplementation","inputs":[],"outputs":[{"name":"","type":"address","internalType":"address"}],"stateMutability":"view"},{"type":"event","name":"Failure","inputs":[{"name":"error","type":"uint256","indexed":false,"internalType":"uint256"},{"name":"info","type":"uint256","indexed":false,"internalType":"uint256"},{"name":"detail","type":"uint256","indexed":false,"internalType":"uint256"}],"anonymous":false},{"type":"event","name":"NewAdmin","inputs":[{"name":"oldAdmin","type":"address","indexed":false,"internalType":"address"},{"name":"newAdmin","type":"address","indexed":false,"internalType":"address"}],"anonymous":false},{"type":"event","name":"NewImplementation","inputs":[{"name":"oldImplementation","type":"address","indexed":false,"internalType":"address"},{"name":"newImplementation","type":"address","indexed":false,"internalType":"address"}],"anonymous":false},{"type":"event","name":"NewPendingAdmin","inputs":[{"name":"oldPendingAdmin","type":"address","indexed":false,"internalType":"address"},{"name":"newPendingAdmin","type":"address","indexed":false,"internalType":"address"}],"anonymous":false},{"type":"event","name":"NewPendingImplementation","inputs":[{"name":"oldPendingImplementation","type":"address","indexed":false,"internalType":"address"},{"name":"newPendingImplementation","type":"address","indexed":false,"internalType":"address"}],"anonymous":false}],"bytecode":{"object":"0x6080806040523461002857600080546001600160a01b031916331790556105fd908161002e8239f35b600080fdfe60806040526004361061051f576000803560e01c908163267822471461008f57508063b71d1a0c1461008a578063bb82aa5e14610085578063c1e8033414610080578063dcfbc0c71461007b578063e992a04114610076578063e9c714f2146100715763f851a4400361051f5761019f565b610184565b61016c565b610143565b610128565b6100ff565b6100df565b346100b557806003193601126100b5576001546001600160a01b03166080908152602090f35b80fd5b60209060031901126100da576004356001600160a01b03811681036100da5790565b600080fd5b346100da5760206100f76100f2366100b8565b61036c565b604051908152f35b346100da5760003660031901126100da576002546040516001600160a01b039091168152602090f35b346100da5760003660031901126100da5760206100f761026b565b346100da5760003660031901126100da576003546040516001600160a01b039091168152602090f35b346100da5760206100f761017f366100b8565b6101c8565b346100da5760003660031901126100da5760206100f761040c565b346100da5760003660031901126100da576000546040516001600160a01b039091168152602090f35b6000546001600160a01b03908116330361023d57600380549282166001600160a01b03198416811790915560408051929093166001600160a01b0390811683521660208201527fe945ccee5d701fc83f9b8aa8ca94ea4219ec1fcbd4f4cab4f0ea57c5c3e1d81591819081015b0390a1600090565b50506000805160206105a8833981519152606060405160018152600f602082015260006040820152a1600190565b6003546001600160a01b0316338114801590610364575b61033757600280546001600160a01b03198082166001600160a01b03858116918217909455600380549092169091556040805193909216835260208301527fe945ccee5d701fc83f9b8aa8ca94ea4219ec1fcbd4f4cab4f0ea57c5c3e1d81592917fd604de94d45953f9138079ec1b82d533cb2160c906d1076d1f7ed54befbca97a9190a16003546001600160a01b03165b604080516001600160a01b03938416815292909116602083015281908101610235565b506000805160206105a88339815191526060604051600181526001602082015260006040820152a1600190565b508015610282565b6000546001600160a01b0390811633036103de57600180548383166001600160a01b031982161790915560408051929091166001600160a01b03908116835290921660208201527fca4f2f25d0898edd99413412fb94012f9e54ec8142f9b093e7720646a95b16a99181908101610235565b50506000805160206105a8833981519152606060405160018152600e602082015260006040820152a1600190565b6001546001600160a01b03908116338114801590610501575b6104d3577ff9ffabca9c8276e99321725bcb43fb076a6c66a54b7f21c4e8146d8519b417dc7fca4f2f25d0898edd99413412fb94012f9e54ec8142f9b093e7720646a95b16a992600054836bffffffffffffffffffffffff60a01b8216176000556104a26bffffffffffffffffffffffff60a01b60015416600155565b600054604080516001600160a01b0393909416831684529116602083015290a16001546001600160a01b0316610314565b50506000805160206105a88339815191526060604051600181526000602082015260006040820152a1600190565b503315610425565b634e487b7160e01b600052604160045260246000fd5b600254604051600091829182916001600160a01b031690368382378036810184815203915af43d156105a25767ffffffffffffffff3d81811161059d5760405191601f8201601f19908116603f011683019081118382101761059d5760405281528260203d92013e5b604051913d90833e15610599573d90f35b3d90fd5b610509565b61058856fe45b96fe442630264581b197e84bbada861235052c5a1aadfff9ea4e40a969aa0a26469706673582212202745c601af8bde334d5133850955d22919372749b0ef22ba09316459088c7e2964736f6c63430008140033","linkReferences":{}},"methodIdentifiers":{"_acceptAdmin()":"e9c714f2","_acceptImplementation()":"c1e80334","_setPendingAdmin(address)":"b71d1a0c","_setPendingImplementation(address)":"e992a041","admin()":"f851a440","comptrollerImplementation()":"bb82aa5e","pendingAdmin()":"26782247","pendingComptrollerImplementation()":"dcfbc0c7"},"id":82}