{"abi":[{"type":"constructor","inputs":[],"stateMutability":"nonpayable"},{"type":"function","name":"acceptOwnership","inputs":[],"outputs":[],"stateMutability":"nonpayable"},{"type":"function","name":"addToMinters","inputs":[{"name":"_address","type":"address","internalType":"address"}],"outputs":[],"stateMutability":"nonpayable"},{"type":"function","name":"isMinter","inputs":[{"name":"_address","type":"address","internalType":"address"}],"outputs":[{"name":"","type":"bool","internalType":"bool"}],"stateMutability":"view"},{"type":"function","name":"mint","inputs":[{"name":"to","type":"address","internalType":"address"},{"name":"amount","type":"uint256","internalType":"uint256"}],"outputs":[],"stateMutability":"nonpayable"},{"type":"function","name":"numa","inputs":[],"outputs":[{"name":"","type":"address","internalType":"contract INuma"}],"stateMutability":"view"},{"type":"function","name":"owner","inputs":[],"outputs":[{"name":"","type":"address","internalType":"address"}],"stateMutability":"view"},{"type":"function","name":"pendingOwner","inputs":[],"outputs":[{"name":"","type":"address","internalType":"address"}],"stateMutability":"view"},{"type":"function","name":"removeFromMinters","inputs":[{"name":"_address","type":"address","internalType":"address"}],"outputs":[],"stateMutability":"nonpayable"},{"type":"function","name":"renounceOwnership","inputs":[],"outputs":[],"stateMutability":"nonpayable"},{"type":"function","name":"setTokenAddress","inputs":[{"name":"_token","type":"address","internalType":"address"}],"outputs":[],"stateMutability":"nonpayable"},{"type":"function","name":"transferOwnership","inputs":[{"name":"newOwner","type":"address","internalType":"address"}],"outputs":[],"stateMutability":"nonpayable"},{"type":"event","name":"AddedToMinters","inputs":[{"name":"a","type":"address","indexed":true,"internalType":"address"}],"anonymous":false},{"type":"event","name":"OwnershipTransferStarted","inputs":[{"name":"previousOwner","type":"address","indexed":true,"internalType":"address"},{"name":"newOwner","type":"address","indexed":true,"internalType":"address"}],"anonymous":false},{"type":"event","name":"OwnershipTransferred","inputs":[{"name":"previousOwner","type":"address","indexed":true,"internalType":"address"},{"name":"newOwner","type":"address","indexed":true,"internalType":"address"}],"anonymous":false},{"type":"event","name":"RemovedFromMinters","inputs":[{"name":"a","type":"address","indexed":true,"internalType":"address"}],"anonymous":false},{"type":"event","name":"SetToken","inputs":[{"name":"token","type":"address","indexed":false,"internalType":"address"}],"anonymous":false},{"type":"error","name":"OwnableInvalidOwner","inputs":[{"name":"owner","type":"address","internalType":"address"}]},{"type":"error","name":"OwnableUnauthorizedAccount","inputs":[{"name":"account","type":"address","internalType":"address"}]}],"bytecode":{"object":"0x6080806040523461008157331561006b5760018060a01b0319806001541660015560005490339082161760005560405190339060018060a01b03167f8be0079c531659141344cd1fd0a4f28419497f9722a3daafe3b4186f6b6457e0600080a361059a90816100878239f35b631e4fbdf760e01b815260006004820152602490fd5b600080fdfe60406080815260048036101561001457600080fd5b600091823560e01c91826326a4e8d2146104ae57826340c10f191461038e5782635992c23e146103655782636e722920146102ff578263715018a61461029957826379ba509714610207575081638da5cb5b146101df578163a15c15af14610176578163aa271e1a14610138578163e30c39781461010b575063f2fde38b1461009c57600080fd5b34610108576020366003190112610108576100b561051d565b6100bd610538565b600180546001600160a01b0319166001600160a01b0392831690811790915582549091167f38d16b8cac22d99fc7c124b9cd0de2d3fa1faef420bfe791d8c362d765e227008380a380f35b80fd5b90503461013457816003193601126101345760015490516001600160a01b039091168152602090f35b5080fd5b9050346101345760203660031901126101345760209160ff9082906001600160a01b0361016361051d565b1681526003855220541690519015158152f35b9050346101345760203660031901126101345761019161051d565b610199610538565b6001600160a01b03168083526003602052908220805460ff191660011790557f045663e08f2161cf53b062a78ce1e4cb28df97149df9e570a0cae215431d31d28280a280f35b905034610134578160031936011261013457905490516001600160a01b039091168152602090f35b915034610295578260031936011261029557600154916001600160a01b0391338385160361027e5750506bffffffffffffffffffffffff60a01b8092166001556000549133908316176000553391167f8be0079c531659141344cd1fd0a4f28419497f9722a3daafe3b4186f6b6457e0600080a380f35b60249250519063118cdaa760e01b82523390820152fd5b8280fd5b83346101085780600319360112610108576102b2610538565b600180546001600160a01b0319908116909155600080549182168155906001600160a01b03167f8be0079c531659141344cd1fd0a4f28419497f9722a3daafe3b4186f6b6457e08280a380f35b8382346101345760203660031901126101345761031a61051d565b610322610538565b6001600160a01b03168083526003602052908220805460ff191690557f471327f0fc97a4d222fd118880772058e627834a090635e2a18237f636e62d0b8280a280f35b83823461013457816003193601126101345760025490516001600160a01b039091168152602090f35b9150346102955780600319360112610295576103a861051d565b91338452600360205260ff82852054161561047e576002546001600160a01b0390811693841561044357908591853b156102955760449083865197889485936340c10f1960e01b8552168784015260243560248401525af180156104395761040e578380f35b67ffffffffffffffff83116104265750523880808380f35b634e487b7160e01b845260419052602483fd5b82513d86823e3d90fd5b835162461bcd60e51b815260208185015260156024820152741d1bdad95b881859191c995cdcc81a5b9d985b1a59605a1b6044820152606490fd5b6020606492519162461bcd60e51b8352820152600b60248201526a1b9bdd08185b1b1bddd95960aa1b6044820152fd5b8382346101345760203660031901126101345760207fefc1fd16ea80a922086ee4e995739d59b025c1bcea6d1f67855747480c83214b916104ed61051d565b6104f5610538565b600280546001600160a01b0319166001600160a01b039290921691821790559051908152a180f35b600435906001600160a01b038216820361053357565b600080fd5b6000546001600160a01b0316330361054c57565b60405163118cdaa760e01b8152336004820152602490fdfea2646970667358221220fa3122388c824a4f78474a5074408d41a9f96148146e62cb4616c9eec30cae7164736f6c63430008140033","linkReferences":{}},"methodIdentifiers":{"acceptOwnership()":"79ba5097","addToMinters(address)":"a15c15af","isMinter(address)":"aa271e1a","mint(address,uint256)":"40c10f19","numa()":"5992c23e","owner()":"8da5cb5b","pendingOwner()":"e30c3978","removeFromMinters(address)":"6e722920","renounceOwnership()":"715018a6","setTokenAddress(address)":"26a4e8d2","transferOwnership(address)":"f2fde38b"},"id":1}