{"abi":[{"type":"constructor","inputs":[{"name":"_numaAddress","type":"address","internalType":"address"},{"name":"_nuAssetManagerAddress","type":"address","internalType":"address"}],"stateMutability":"nonpayable"},{"type":"function","name":"acceptOwnership","inputs":[],"outputs":[],"stateMutability":"nonpayable"},{"type":"function","name":"accrueInterests","inputs":[],"outputs":[],"stateMutability":"nonpayable"},{"type":"function","name":"addVault","inputs":[{"name":"_vault","type":"address","internalType":"address"}],"outputs":[],"stateMutability":"nonpayable"},{"type":"function","name":"buy_fee","inputs":[],"outputs":[{"name":"","type":"uint16","internalType":"uint16"}],"stateMutability":"view"},{"type":"function","name":"cf_critical","inputs":[],"outputs":[{"name":"","type":"uint256","internalType":"uint256"}],"stateMutability":"view"},{"type":"function","name":"cf_liquid_severe","inputs":[],"outputs":[{"name":"","type":"uint256","internalType":"uint256"}],"stateMutability":"view"},{"type":"function","name":"cf_severe","inputs":[],"outputs":[{"name":"","type":"uint256","internalType":"uint256"}],"stateMutability":"view"},{"type":"function","name":"cf_warning","inputs":[],"outputs":[{"name":"","type":"uint256","internalType":"uint256"}],"stateMutability":"view"},{"type":"function","name":"constantRemovedSupply","inputs":[],"outputs":[{"name":"","type":"uint256","internalType":"uint256"}],"stateMutability":"view"},{"type":"function","name":"debaseValue","inputs":[],"outputs":[{"name":"","type":"uint256","internalType":"uint256"}],"stateMutability":"view"},{"type":"function","name":"decayPeriod","inputs":[],"outputs":[{"name":"","type":"uint256","internalType":"uint256"}],"stateMutability":"view"},{"type":"function","name":"decayPeriodLP","inputs":[],"outputs":[{"name":"","type":"uint256","internalType":"uint256"}],"stateMutability":"view"},{"type":"function","name":"deltaDebase","inputs":[],"outputs":[{"name":"","type":"uint256","internalType":"uint256"}],"stateMutability":"view"},{"type":"function","name":"deltaRebase","inputs":[],"outputs":[{"name":"","type":"uint256","internalType":"uint256"}],"stateMutability":"view"},{"type":"function","name":"ethToNuma","inputs":[{"name":"_inputAmount","type":"uint256","internalType":"uint256"},{"name":"_t","type":"uint8","internalType":"enum IVaultManager.PriceType"}],"outputs":[{"name":"","type":"uint256","internalType":"uint256"}],"stateMutability":"view"},{"type":"function","name":"getBuyFee","inputs":[],"outputs":[{"name":"","type":"uint16","internalType":"uint16"}],"stateMutability":"view"},{"type":"function","name":"getGlobalCF","inputs":[],"outputs":[{"name":"","type":"uint256","internalType":"uint256"}],"stateMutability":"view"},{"type":"function","name":"getGlobalLiquidCF","inputs":[],"outputs":[{"name":"","type":"uint256","internalType":"uint256"}],"stateMutability":"view"},{"type":"function","name":"getNuAssetManager","inputs":[],"outputs":[{"name":"","type":"address","internalType":"contract INuAssetManager"}],"stateMutability":"view"},{"type":"function","name":"getNumaSupply","inputs":[],"outputs":[{"name":"","type":"uint256","internalType":"uint256"}],"stateMutability":"view"},{"type":"function","name":"getSellFeeOriginal","inputs":[],"outputs":[{"name":"","type":"uint16","internalType":"uint16"}],"stateMutability":"view"},{"type":"function","name":"getSellFeeScaling","inputs":[],"outputs":[{"name":"","type":"uint16","internalType":"uint16"},{"name":"","type":"uint256","internalType":"uint256"}],"stateMutability":"view"},{"type":"function","name":"getSellFeeScalingUpdate","inputs":[],"outputs":[{"name":"sell_fee_memory","type":"uint16","internalType":"uint16"},{"name":"blockTime","type":"uint256","internalType":"uint256"}],"stateMutability":"nonpayable"},{"type":"function","name":"getSynthScaling","inputs":[],"outputs":[{"name":"","type":"uint256","internalType":"uint256"},{"name":"","type":"uint256","internalType":"uint256"},{"name":"","type":"uint256","internalType":"uint256"},{"name":"","type":"uint256","internalType":"uint256"}],"stateMutability":"view"},{"type":"function","name":"getSynthScalingUpdate","inputs":[],"outputs":[{"name":"scaleOverride","type":"uint256","internalType":"uint256"},{"name":"scaleMemory","type":"uint256","internalType":"uint256"},{"name":"scaleForPrice","type":"uint256","internalType":"uint256"},{"name":"blockTime","type":"uint256","internalType":"uint256"}],"stateMutability":"nonpayable"},{"type":"function","name":"getTotalBalanceEth","inputs":[],"outputs":[{"name":"","type":"uint256","internalType":"uint256"}],"stateMutability":"view"},{"type":"function","name":"getTotalBalanceEthNoDebt","inputs":[],"outputs":[{"name":"","type":"uint256","internalType":"uint256"}],"stateMutability":"view"},{"type":"function","name":"getTotalSynthValueEth","inputs":[],"outputs":[{"name":"","type":"uint256","internalType":"uint256"}],"stateMutability":"view"},{"type":"function","name":"getVaults","inputs":[],"outputs":[{"name":"","type":"address[]","internalType":"address[]"}],"stateMutability":"view"},{"type":"function","name":"getWarningCF","inputs":[],"outputs":[{"name":"","type":"uint256","internalType":"uint256"}],"stateMutability":"view"},{"type":"function","name":"initialLPRemovedSupply","inputs":[],"outputs":[{"name":"","type":"uint256","internalType":"uint256"}],"stateMutability":"view"},{"type":"function","name":"initialRemovedSupply","inputs":[],"outputs":[{"name":"","type":"uint256","internalType":"uint256"}],"stateMutability":"view"},{"type":"function","name":"isDecaying","inputs":[],"outputs":[{"name":"","type":"bool","internalType":"bool"}],"stateMutability":"view"},{"type":"function","name":"isVault","inputs":[{"name":"_addy","type":"address","internalType":"address"}],"outputs":[{"name":"","type":"bool","internalType":"bool"}],"stateMutability":"view"},{"type":"function","name":"islockedSupply","inputs":[],"outputs":[{"name":"","type":"bool","internalType":"bool"}],"stateMutability":"view"},{"type":"function","name":"lockSupplyFlashloan","inputs":[{"name":"_lock","type":"bool","internalType":"bool"}],"outputs":[],"stateMutability":"nonpayable"},{"type":"function","name":"lockedSupply","inputs":[],"outputs":[{"name":"","type":"uint256","internalType":"uint256"}],"stateMutability":"view"},{"type":"function","name":"minimumScale","inputs":[],"outputs":[{"name":"","type":"uint256","internalType":"uint256"}],"stateMutability":"view"},{"type":"function","name":"nuAssetManager","inputs":[],"outputs":[{"name":"","type":"address","internalType":"contract INuAssetManager"}],"stateMutability":"view"},{"type":"function","name":"numa","inputs":[],"outputs":[{"name":"","type":"address","internalType":"contract NUMA"}],"stateMutability":"view"},{"type":"function","name":"numaToEth","inputs":[{"name":"_inputAmount","type":"uint256","internalType":"uint256"},{"name":"_t","type":"uint8","internalType":"enum IVaultManager.PriceType"}],"outputs":[{"name":"","type":"uint256","internalType":"uint256"}],"stateMutability":"view"},{"type":"function","name":"numaToToken","inputs":[{"name":"_inputAmount","type":"uint256","internalType":"uint256"},{"name":"_refValueWei","type":"uint256","internalType":"uint256"},{"name":"_decimals","type":"uint256","internalType":"uint256"},{"name":"_synthScaling","type":"uint256","internalType":"uint256"}],"outputs":[{"name":"","type":"uint256","internalType":"uint256"}],"stateMutability":"view"},{"type":"function","name":"owner","inputs":[],"outputs":[{"name":"","type":"address","internalType":"address"}],"stateMutability":"view"},{"type":"function","name":"pendingOwner","inputs":[],"outputs":[{"name":"","type":"address","internalType":"address"}],"stateMutability":"view"},{"type":"function","name":"rebaseValue","inputs":[],"outputs":[{"name":"","type":"uint256","internalType":"uint256"}],"stateMutability":"view"},{"type":"function","name":"removeVault","inputs":[{"name":"_vault","type":"address","internalType":"address"}],"outputs":[],"stateMutability":"nonpayable"},{"type":"function","name":"renounceOwnership","inputs":[],"outputs":[],"stateMutability":"nonpayable"},{"type":"function","name":"sell_fee","inputs":[],"outputs":[{"name":"","type":"uint16","internalType":"uint16"}],"stateMutability":"view"},{"type":"function","name":"sell_fee_debaseValue","inputs":[],"outputs":[{"name":"","type":"uint16","internalType":"uint16"}],"stateMutability":"view"},{"type":"function","name":"sell_fee_deltaDebase","inputs":[],"outputs":[{"name":"","type":"uint256","internalType":"uint256"}],"stateMutability":"view"},{"type":"function","name":"sell_fee_deltaRebase","inputs":[],"outputs":[{"name":"","type":"uint256","internalType":"uint256"}],"stateMutability":"view"},{"type":"function","name":"sell_fee_minimum","inputs":[],"outputs":[{"name":"","type":"uint16","internalType":"uint16"}],"stateMutability":"view"},{"type":"function","name":"sell_fee_rebaseValue","inputs":[],"outputs":[{"name":"","type":"uint16","internalType":"uint16"}],"stateMutability":"view"},{"type":"function","name":"sell_fee_update_blocknumber","inputs":[],"outputs":[{"name":"","type":"uint256","internalType":"uint256"}],"stateMutability":"view"},{"type":"function","name":"setBuyFee","inputs":[{"name":"_fee","type":"uint16","internalType":"uint16"}],"outputs":[],"stateMutability":"nonpayable"},{"type":"function","name":"setConstantRemovedSupply","inputs":[{"name":"_constantRemovedSupply","type":"uint256","internalType":"uint256"}],"outputs":[],"stateMutability":"nonpayable"},{"type":"function","name":"setDecayValues","inputs":[{"name":"_initialRemovedSupply","type":"uint256","internalType":"uint256"},{"name":"_decayPeriod","type":"uint256","internalType":"uint256"},{"name":"_initialRemovedSupplyLP","type":"uint256","internalType":"uint256"},{"name":"_decayPeriodLP","type":"uint256","internalType":"uint256"},{"name":"_constantRemovedSupply","type":"uint256","internalType":"uint256"}],"outputs":[],"stateMutability":"nonpayable"},{"type":"function","name":"setMinimumNumaPriceEth","inputs":[{"name":"_minimumPriceEth","type":"uint256","internalType":"uint256"}],"outputs":[],"stateMutability":"nonpayable"},{"type":"function","name":"setNuAssetManager","inputs":[{"name":"_nuAssetManager","type":"address","internalType":"address"}],"outputs":[],"stateMutability":"nonpayable"},{"type":"function","name":"setScalingParameters","inputs":[{"name":"_cf_critical","type":"uint256","internalType":"uint256"},{"name":"_cf_warning","type":"uint256","internalType":"uint256"},{"name":"_cf_severe","type":"uint256","internalType":"uint256"},{"name":"_debaseValue","type":"uint256","internalType":"uint256"},{"name":"_rebaseValue","type":"uint256","internalType":"uint256"},{"name":"_deltaDebase","type":"uint256","internalType":"uint256"},{"name":"_deltaRebase","type":"uint256","internalType":"uint256"},{"name":"_minimumScale","type":"uint256","internalType":"uint256"}],"outputs":[],"stateMutability":"nonpayable"},{"type":"function","name":"setSellFee","inputs":[{"name":"_fee","type":"uint16","internalType":"uint16"}],"outputs":[],"stateMutability":"nonpayable"},{"type":"function","name":"setSellFeeParameters","inputs":[{"name":"_cf_liquid_severe","type":"uint256","internalType":"uint256"},{"name":"_sell_fee_debaseValue","type":"uint16","internalType":"uint16"},{"name":"_sell_fee_rebaseValue","type":"uint16","internalType":"uint16"},{"name":"_sell_fee_deltaDebase","type":"uint256","internalType":"uint256"},{"name":"_sell_fee_deltaRebase","type":"uint256","internalType":"uint256"},{"name":"_sell_fee_minimum","type":"uint16","internalType":"uint16"}],"outputs":[],"stateMutability":"nonpayable"},{"type":"function","name":"startDecay","inputs":[],"outputs":[],"stateMutability":"nonpayable"},{"type":"function","name":"startTime","inputs":[],"outputs":[{"name":"","type":"uint256","internalType":"uint256"}],"stateMutability":"view"},{"type":"function","name":"synth_scaling_update_blocknumber","inputs":[],"outputs":[{"name":"","type":"uint256","internalType":"uint256"}],"stateMutability":"view"},{"type":"function","name":"tokenToNuma","inputs":[{"name":"_inputAmount","type":"uint256","internalType":"uint256"},{"name":"_refValueWei","type":"uint256","internalType":"uint256"},{"name":"_decimals","type":"uint256","internalType":"uint256"},{"name":"_synthScaling","type":"uint256","internalType":"uint256"}],"outputs":[{"name":"","type":"uint256","internalType":"uint256"}],"stateMutability":"view"},{"type":"function","name":"transferOwnership","inputs":[{"name":"newOwner","type":"address","internalType":"address"}],"outputs":[],"stateMutability":"nonpayable"},{"type":"function","name":"updateAll","inputs":[],"outputs":[{"name":"scale","type":"uint256","internalType":"uint256"},{"name":"scaleForPrice","type":"uint256","internalType":"uint256"},{"name":"sell_fee_result","type":"uint16","internalType":"uint16"}],"stateMutability":"nonpayable"},{"type":"event","name":"AddedVault","inputs":[{"name":"","type":"address","indexed":false,"internalType":"address"}],"anonymous":false},{"type":"event","name":"BuyFeeUpdated","inputs":[{"name":"buyFee","type":"uint16","indexed":false,"internalType":"uint16"}],"anonymous":false},{"type":"event","name":"OwnershipTransferStarted","inputs":[{"name":"previousOwner","type":"address","indexed":true,"internalType":"address"},{"name":"newOwner","type":"address","indexed":true,"internalType":"address"}],"anonymous":false},{"type":"event","name":"OwnershipTransferred","inputs":[{"name":"previousOwner","type":"address","indexed":true,"internalType":"address"},{"name":"newOwner","type":"address","indexed":true,"internalType":"address"}],"anonymous":false},{"type":"event","name":"RemovedVault","inputs":[{"name":"","type":"address","indexed":false,"internalType":"address"}],"anonymous":false},{"type":"event","name":"SellFeeUpdated","inputs":[{"name":"sellFee","type":"uint16","indexed":false,"internalType":"uint16"}],"anonymous":false},{"type":"event","name":"SetMinimumNumaPriceEth","inputs":[{"name":"_minimumPriceEth","type":"uint256","indexed":false,"internalType":"uint256"}],"anonymous":false},{"type":"event","name":"SetNuAssetManager","inputs":[{"name":"nuAssetManager","type":"address","indexed":false,"internalType":"address"}],"anonymous":false},{"type":"event","name":"SetScalingParameters","inputs":[{"name":"cf_critical","type":"uint256","indexed":false,"internalType":"uint256"},{"name":"cf_warning","type":"uint256","indexed":false,"internalType":"uint256"},{"name":"cf_severe","type":"uint256","indexed":false,"internalType":"uint256"},{"name":"debaseValue","type":"uint256","indexed":false,"internalType":"uint256"},{"name":"rebaseValue","type":"uint256","indexed":false,"internalType":"uint256"},{"name":"deltaDebase","type":"uint256","indexed":false,"internalType":"uint256"},{"name":"deltaRebase","type":"uint256","indexed":false,"internalType":"uint256"},{"name":"minimumScale","type":"uint256","indexed":false,"internalType":"uint256"}],"anonymous":false},{"type":"event","name":"SetSellFeeParameters","inputs":[{"name":"_cf_liquid_severe","type":"uint256","indexed":false,"internalType":"uint256"},{"name":"_sell_fee_debaseValue","type":"uint16","indexed":false,"internalType":"uint16"},{"name":"_sell_fee_rebaseValue","type":"uint16","indexed":false,"internalType":"uint16"},{"name":"_sell_fee_deltaDebase","type":"uint256","indexed":false,"internalType":"uint256"},{"name":"_sell_fee_deltaRebase","type":"uint256","indexed":false,"internalType":"uint256"},{"name":"_sell_fee_minimum","type":"uint16","indexed":false,"internalType":"uint16"}],"anonymous":false},{"type":"error","name":"OwnableInvalidOwner","inputs":[{"name":"owner","type":"address","internalType":"address"}]},{"type":"error","name":"OwnableUnauthorizedAccount","inputs":[{"name":"account","type":"address","internalType":"address"}]}],"bytecode":{"object":"0x60a0346200018b57601f6200271038819003918201601f19168301916001600160401b03831184841017620001905780849260409485528339810103126200018b576200005a60206200005283620001a6565b9201620001a6565b903315620001725760018060a01b03199081600154166001556000549233838516176000556040519360018060a01b03928391823391167f8be0079c531659141344cd1fd0a4f28419497f9722a3daafe3b4186f6b6457e0600080a36603b603b603b60066ffffffffffff0019600d541617600d5564e8d4a51000600e556105dc80600f556501f4000a000a65ffffffffffff1960105416176010556201518090816011558160125561044c6015556016556106a46017556014601855601e6019556101f4601a5580601b55601c556103e880601d5580601e55601f551660805216906004541617600455426013554260205543601455436021556125549081620001bc8239608051818181610e4f0152611ccc0152f35b604051631e4fbdf760e01b815260006004820152602490fd5b600080fd5b634e487b7160e01b600052604160045260246000fd5b51906001600160a01b03821682036200018b5756fe6040608081526004908136101561001557600080fd5b600091823560e01c9081629ca3eb146116ff5781630ba31236146116e1578163162b51fc14610ad257816317a5af7a146116c4578163188c3c4e1461169e5781631a6719a5146116815781631b6e557b146116625781631bafd940146115045781631d25645b1461065a57816324070035146114e5578163256b5a0214611405578163289537cd146113e65781632fce6687146113c75781633822f65c146113a35781633c5c2f55146113555781633efede70146113115781634290768a14610a9457816344d00f821461125557816345718e81146110c2578163488f79ee146110a557816348d67e1b146110865781634e00129314610fa65781634ee2b90b14610ebf57816353d7869314610e7e5781635992c23e14610e3a5781635c33bb7c14610e1b578163652b9b4114610dd157816367bdf64014610db4578163682fd92414610d915781636fb99a9314610d6d57816370c4767114610cea578163715018a614610c8557816371f26cce14610c6657816378469b1314610c4757816378e9792514610c2857816379ba509714610ba55781637f81c5e014610b63578163865ecff114610b445781638c3d72c614610b205781638da5cb5b14610af85781638f818b9014610ad257816391c6547814610ab3578163960fd08814610a945781639616c22114610a75578163a49e178314610a56578163a74109ae14610a37578163a87939cf14610984578163abc9276214610967578163abd545bf14610941578163b4c99a6214610924578163ba1aa6dd14610905578163bf5cb4b01461084c578163c12059ff1461080e578163ca5c7b91146107ef578163ceb68c231461073a578163cf85fbe81461071b578163d3fb0ad414610682578163d8003d961461065a578163e064648a146105c1578163e30c397814610598578163e9ae03fc146104ef578163ea0f8c50146104bf578163ea5494b1146104a0578163f2fde38b14610431578163f88b25d914610412578163fc6a6c16146103f057508063fd6bc9ee146103365763fd7d9baf1461030e57600080fd5b3461033257816003193601126103325760209061ffff600d5460081c169051908152f35b5080fd5b50346103325761036f61037d6020936103e861035136611752565b959261035e979297611e78565b9761036a891515611b86565b6124a9565b93610378611bf9565b611831565b04610386611cad565b91508084116103a757505061039f9150600e54906122eb565b905b51908152f35b6103ba826103b583876117f7565b61225f565b93600e548095106000146103db57505050906103d5916122eb565b906103a1565b6103d59450906103ea916117f7565b916124a9565b8390346103325760203660031901126103325761040b61207a565b3560075580f35b5050346103325781600319360112610332576020906012549051908152f35b83903461033257602036600319011261033257356001600160a01b038181169182900361049c5761046061207a565b600180546001600160a01b031916831790558254167f38d16b8cac22d99fc7c124b9cd0de2d3fa1faef420bfe791d8c362d765e227008380a380f35b8280fd5b5050346103325781600319360112610332576020906016549051908152f35b83346104ec57806003193601126104ec576104d861207a565b42600c55600160ff19600d541617600d5580f35b80fd5b9190503461049c57602036600319011261049c5781356001600160a01b03811692908390036105945761052061207a565b82156105635780546001600160a01b03191683179055519081527fd4513cbafbb6291e8ded2d01415d8900b184d555f258b7b730e0b12f0529857b90602090a180f35b6020606492519162461bcd60e51b8352820152600c60248201526b7a65726f206164647265737360a01b6044820152fd5b8380fd5b50503461033257816003193601126103325760015490516001600160a01b039091168152602090f35b5050346103325760203660031901126103325760207f4a16d42a3539680f1e3f013d041bf529ba24e13392fef89aa39cefbc2fe070d991610600611741565b9061060961207a565b61ffff82169161061d6103e8841115611770565b62ffff00600d549160081b1664ffff0000008162ffff001984161760101b169164ffffffff0019161717600d55426013554360145551908152a180f35b90503461049c578260031936011261049c575490516001600160a01b03909116815260209150f35b90503461049c57602036600319011261049c5780359081151592838303610717576106ba336000526003602052604060002054151590565b156106e75750506106d7575b60ff80196008541691161760085580f35b6106df611cad565b6009556106c6565b906020606492519162461bcd60e51b8352820152600a6024820152691bdb9b1e481d985d5b1d60b21b6044820152fd5b8480fd5b5050346103325781600319360112610332576020906021549051908152f35b9190503461049c57602036600319011261049c5781356001600160a01b03811692908390036105945761076b61207a565b610782836000526003602052604060002054151590565b156107bf5750816020916107b67fa40a7d97cd4243d8bcd193dc4d709afc3717750c5996d9e7216d1a5e0288c49494612175565b5051908152a180f35b6020606492519162461bcd60e51b8352820152600b60248201526a1b9bdd081a5b881b1a5cdd60aa1b6044820152fd5b5050346103325781600319360112610332576020906009549051908152f35b5050346103325781600319360112610332576108489061082c6117ad565b915161ffff909116815260208101919091529081906040820190565b0390f35b9190503461049c578260031936011261049c57600254906108706032831115611e1d565b835b82811061087d578480f35b84610887826120a6565b905460039190911b1c6001600160a01b0316803b156103325781908685518094819363de3b2d2760e01b83525af180156108fb576108cf575b506108ca90611e69565b610872565b67ffffffffffffffff81116108e85782526108ca6108c0565b634e487b7160e01b865260418552602486fd5b83513d88823e3d90fd5b5050346103325781600319360112610332576020906011549051908152f35b50503461033257816003193601126103325760209061039f611fea565b50503461033257816003193601126103325760209061ffff600d5460081c169051908152f35b50503461033257816003193601126103325760209061039f611cad565b9190503461049c576101009081600319360112610594577f484d6f8d169bb543b53831c8dcc9e368be111719f4679337db05958b7a5ce1ec923590602435906044356064356084359060a4359260c4359460e435966109e161207a565b6109e96119f2565b50505050886015558060175582601655836018558460195586601b5585601c5587601a55815198895260208901528701526060860152608085015260a084015260c083015260e0820152a180f35b505034610332578160031936011261033257602090601a549051908152f35b505034610332578160031936011261033257602090600f549051908152f35b5050346103325781600319360112610332576020906007549051908152f35b5050346103325781600319360112610332576020906017549051908152f35b505034610332578160031936011261033257602090600b549051908152f35b50503461033257816003193601126103325760209061ffff600d5460281c169051908152f35b505034610332578160031936011261033257905490516001600160a01b039091168152602090f35b50503461033257816003193601126103325760209060ff600d541690519015158152f35b5050346103325781600319360112610332576020906019549051908152f35b50503461033257816003193601126103325761084890610b816119f2565b93519283526020830191909152604082015260608101919091529081906080820190565b9190503461049c578260031936011261049c57600154916001600160a01b03913383851603610c115750506001600160a01b031991821660015582543392811683178455167f8be0079c531659141344cd1fd0a4f28419497f9722a3daafe3b4186f6b6457e08380a380f35b60249250519063118cdaa760e01b82523390820152fd5b505034610332578160031936011261033257602090600c549051908152f35b505034610332578160031936011261033257602090601b549051908152f35b505034610332578160031936011261033257602090601c549051908152f35b83346104ec57806003193601126104ec57610c9e61207a565b600180546001600160a01b03199081169091558154908116825581906001600160a01b03167f8be0079c531659141344cd1fd0a4f28419497f9722a3daafe3b4186f6b6457e08280a380f35b5050346103325760203660031901126103325760207ff13f969a6b7ac7411490f3f326fdfee192132ec9966099e9982f49b6ef03035a91610d29611741565b90610d3261207a565b61ffff821691610d466103e8841115611770565b66ffff0000000000600d549160281b169066ffff0000000000191617600d5551908152a180f35b5050346103325781600319360112610332576010549051602091821c61ffff168152f35b50503461033257816003193601126103325760209061ffff601054169051908152f35b50503461033257816003193601126103325760209061039f611e78565b90503461049c57602036600319011261049c57356001600160a01b03811692908390036104ec5750610e126020926000526003602052604060002054151590565b90519015158152f35b5050346103325781600319360112610332576020906014549051908152f35b505034610332578160031936011261033257517f00000000000000000000000000000000000000000000000000000000000000006001600160a01b03168152602090f35b8284346104ec57806003193601126104ec57606061ffff83610e9e6119f2565b509050610eac9391936117ad565b5090835194855260208501521690820152f35b8284346104ec57610ecf36611752565b936103e8610ef6610ee295939495611e78565b96610eee881515611b86565b610378611bf9565b04610eff611cad565b918215610f6a575060209750808611610f25575050600e5461039f945061036a9161236a565b610f33826103b583896117f7565b95600e54809710600014610f51575050506103d59361036a9161236a565b6103d5965061036a9391610f64916117f7565b906124a9565b875162461bcd60e51b81526020818b01526016602482015275373790373ab6b09034b71031b4b931bab630ba34b7b760511b6044820152606490fd5b90503461049c5760c036600319011261049c5735906024359161ffff92838116809103610717576044359284841680850361108257606435906084359260a4359788169485890361107e577fb52cd07667ba52ebbc8be229d73759ad7029555cedf43f42a1b7903767a5b5299860c09861101e61207a565b6110266117ad565b505088600f5563ffff00008365ffff0000000060105494896012558a60115560201b169365ffffffffffff1916179160101b161717601055815196875260208701528501526060840152608083015260a0820152a180f35b8980fd5b8680fd5b505034610332578160031936011261033257602090600a549051908152f35b50503461033257816003193601126103325760209061039f612072565b90503461049c5791611107926110d73661171d565b906110e0611a2f565b50929150506110ed611e78565b916110f9831515611b86565b6103e8978891610378611bf9565b04611110611cad565b908115611219578084116111d5575050600e5461113692506111319161236a565b612447565b809160038110156111c2576001810361118657505084810294818604149015171561117357505061039f60209261ffff600d5460281c1690611844565b634e487b7160e01b825260119052602490fd5b6002919295945060209693501461119f575b50506103a1565b6111b99192935061ffff6111b1611871565b501690611831565b04903880611198565b634e487b7160e01b855260218452602485fd5b6111e3826103b583876117f7565b93600e5480951060001461120657505050611201916111319161236a565b611136565b61120194506111319391610f64916117f7565b875162461bcd60e51b81526020818801526016602482015275373790373ab6b09034b71031b4b931bab630ba34b7b760511b6044820152606490fd5b8284346104ec57806003193601126104ec579080519182906002549182855260208095018093600284527f405787fa12a823e0f2b7631cc41b3ba8828b3321ca811111fa75cd3aa3bb5ace90845b8181106112fd57505050816112b9910382611bc1565b83519485948186019282875251809352850193925b8281106112dd57505050500390f35b83516001600160a01b0316855286955093810193928101926001016112ce565b8254845292880192600192830192016112a3565b8390346103325760a03660031901126103325761132c61207a565b35600555604435600655608435600755602435600a55606435600b5560ff19600d5416600d5580f35b90503461049c57602036600319011261049c577f903d8785355abe961ce896292e5d35d80eab24d8c56adc7f84ab630bbfbefb7291602091359061139761207a565b81600e5551908152a180f35b50503461033257816003193601126103325760209060ff6008541690519015158152f35b5050346103325781600319360112610332576020906006549051908152f35b5050346103325781600319360112610332576020906005549051908152f35b9190503461049c57602036600319011261049c5781356001600160a01b03811692908390036105945761143661207a565b603260025410156114b15761144a836120f3565b1561147d57507f557ddd0a3222ab95619c812e02380d7432b0801e123d7833cdeec5b15f5c00589160209151908152a180f35b6020606492519162461bcd60e51b8352820152600f60248201526e185b1c9958591e481a5b881b1a5cdd608a1b6044820152fd5b6020606492519162461bcd60e51b8352820152600f60248201526e746f6f206d616e79207661756c747360881b6044820152fd5b5050346103325781600319360112610332576020906018549051908152f35b90503461049c57611551906115183661171d565b9490611522611a2f565b50915050611542611531611e78565b9261153d841515611b86565b6123de565b906103e8958691610378611bf9565b0461155a611cad565b908084116116245750506115729150600e54906122eb565b905b8195600381101561161157600181036115a957505050506115a160209361ffff600d5460281c1690611831565b049051908152f35b92959493926002146115c2575b505050602092506103a1565b90919293506115cf611871565b50918381029381850414901517156115fe5750602093509061ffff6115f5921690611844565b903880806115b6565b634e487b7160e01b815260118552602490fd5b634e487b7160e01b825260218452602482fd5b611632826103b583876117f7565b93600e54809510600014611653575050509061164d916122eb565b90611574565b61164d9450906103ea916117f7565b5050346103325781600319360112610332576020906015549051908152f35b50503461033257816003193601126103325760209061039f611bf9565b50503461033257816003193601126103325760209061ffff60105460101c169051908152f35b50503461033257816003193601126103325760209061039f611f39565b50503461033257816003193601126103325761084890610b81611a2f565b5050346103325781600319360112610332576108489061082c611871565b604090600319011261173c5760043590602435600381101561173c5790565b600080fd5b6004359061ffff8216820361173c57565b608090600319011261173c5760043590602435906044359060643590565b1561177757565b60405162461bcd60e51b815260206004820152600e60248201526d06665652061626f766520313030360941b6044820152606490fd5b60145443036117c75761ffff600d5460181c166013549091565b6117cf611871565b9091818364ffff000000600d549160181b169064ffff000000191617600d5560135543601455565b9190820391821161180457565b634e487b7160e01b600052601160045260246000fd5b906103e89182810292818404149015171561180457565b8181029291811591840414171561180457565b811561184e570490565b634e487b7160e01b600052601260045260246000fd5b9190820180921161180457565b429060145482146119df57600d549161ffff90818460181c1690611893612072565b600f54111561196957601354906118aa82826117f7565b6118c66118bd6010549287841690611831565b60125490611844565b8061192557505050935b6118d8611a2f565b5050506103e890810390811161180457836118f69260081c166117f7565b81811061191d575b508160105460201c16808210611915575b50169190565b90503861190f565b9050386118fe565b9093859297935081811160001461195b5790611940916117f7565b9260201c16808310611953575b506118d0565b91503861194d565b5050909160201c16906118d0565b93828160081c1680831061197d57506118d0565b9094601354916119aa6119a161199385856117f7565b8760105460101c1690611831565b60115490611844565b806119ba57505050935b3861194d565b90936119c892979350611864565b918083116119d7575b506119b4565b9150386119d1565b905061ffff600d5460181c169060135490565b6021544303611a0d57601e54601d54601f5460205490919293565b611a15611a2f565b9091929381838587601e55601d55601f5560205543602155565b426021548114611b7157601d5491611a45611fea565b916016548310600014611b035760205490611a78611a6f611a6684846117f7565b60185490611831565b601c5490611844565b80611ac6575050905b836103e89360155490818110611a9a575b505093929190565b611aae929550611aa99061181a565b611844565b848110611abe575b923880611a92565b925082611ab6565b8581929496935011600014611af857611ade916117f7565b92601a54808510611af0575b50611a81565b935038611aea565b5050601a5492611a81565b6103e8808510611b15575b5090611a81565b60205491611b3b611b32611b2985846117f7565b60195490611831565b601b5490611844565b80611b4c57505050905b9038611b0e565b90939250611b5a9195611864565b93808511611b69575b50611b45565b935038611b63565b50601e54601d54601f54602054929391929091565b15611b8d57565b60405162461bcd60e51b815260206004820152600c60248201526b656d707479207661756c747360a01b6044820152606490fd5b90601f8019910116810190811067ffffffffffffffff821117611be357604052565b634e487b7160e01b600052604160045260246000fd5b6004546001600160a01b03168015611c6f57602060049160405192838092631a6719a560e01b82525afa908115611c6357600091611c35575090565b906020823d8211611c5b575b81611c4e60209383611bc1565b810103126104ec57505190565b3d9150611c41565b6040513d6000823e3d90fd5b60405162461bcd60e51b81526020600482015260166024820152751b9d505cdcd95d13585b9859d95c881b9bdd081cd95d60521b6044820152606490fd5b60ff60085416611e17576040516318160ddd60e01b81526020816004817f00000000000000000000000000000000000000000000000000000000000000006001600160a01b03165afa908115611c6357600091611de4575b50611d34611d3d916005546006549060ff600d541680611dd9575b611d40575b611d2f91926117f7565b6117f7565b600754906117f7565b90565b600a5480611d9f575b50600b5480611d59575b50611d25565b611d2f92600c54611d6a8382611864565b4210611d7e575050506000925b9291611d53565b611d9992611aa983610378611d9394426117f7565b906117f7565b92611d77565b90600c54611dad8382611864565b4210611dbf5750505060005b38611d49565b611dd492611aa983610378611d9394426117f7565b611db9565b50600c544211611d20565b906020823d8211611e0f575b81611dfd60209383611bc1565b810103126104ec575051611d34611d05565b3d9150611df0565b60095490565b15611e2457565b60405162461bcd60e51b815260206004820152601760248201527f746f6f206d616e79207661756c747320696e206c6973740000000000000000006044820152606490fd5b60001981146118045760010190565b6000600254611e8a6032821115611e1d565b81905b808210611e9957505090565b9091611ea4836120a6565b905460408051633876856d60e11b81529092909160209182918491600491839160031b1c6001600160a01b03165afa928315611f2f5750600092611efe575b5050611ef290611ef892611864565b92611e69565b90611e8d565b81819392933d8311611f28575b611f158183611bc1565b810103126104ec57505181611ef2611ee3565b503d611f0b565b513d6000823e3d90fd5b6000600254611f4b6032821115611e1d565b81905b808210611f5a57505090565b9091611f65836120a6565b9054604080516321eb60eb60e01b81529092909160209182918491600491839160031b1c6001600160a01b03165afa928315611f2f5750600092611fb9575b5050611ef290611fb392611864565b90611f4e565b81819392933d8311611fe3575b611fd08183611bc1565b810103126104ec57505181611ef2611fa4565b503d611fc6565b611ff2611e78565b60048054604051631a6719a560e01b81529160209183919082906001600160a01b03165afa908115611c6357600091612041575b50801561203957611aa9611d3d9261181a565b5050614e2090565b906020823d821161206a575b8161205a60209383611bc1565b810103126104ec57505138612026565b3d915061204d565b611ff2611f39565b6000546001600160a01b0316330361208e57565b60405163118cdaa760e01b8152336004820152602490fd5b6002548110156120dd5760026000527f405787fa12a823e0f2b7631cc41b3ba8828b3321ca811111fa75cd3aa3bb5ace0190600090565b634e487b7160e01b600052603260045260246000fd5b600081815260036020526040812054612170576002546801000000000000000081101561215c579082612148612131846001604096016002556120a6565b819391549060031b91821b91600019901b19161790565b905560025492815260036020522055600190565b634e487b7160e01b82526041600452602482fd5b905090565b600081815260036020526040812054909190801561225a57600019908082018181116122465760025490838201918211612232578181036121fe575b50505060025480156121ea578101906121c9826120a6565b909182549160031b1b19169055600255815260036020526040812055600190565b634e487b7160e01b84526031600452602484fd5b61221c61220d612131936120a6565b90549060031b1c9283926120a6565b90558452600360205260408420553880806121b1565b634e487b7160e01b86526011600452602486fd5b634e487b7160e01b85526011600452602485fd5b505090565b670de0b6b3a76400009160001982840992828102928380861095039480860395146122dd578483111561173c5782910981806000031680920460028082600302188083028203028083028203028083028203028083028203028083028203028092029003029360018380600003040190848311900302920304170290565b50508092501561173c570490565b90670de0b6b3a76400009060001982840992828102928380861095039480860395146122dd578483111561173c5782910981806000031680920460028082600302188083028203028083028203028083028203028083028203028083028203028092029003029360018380600003040190848311900302920304170290565b90600019818309818302918280831092039180830392146123cd57670de0b6b3a7640000908282111561173c577faccb18165bd6fe31ae1cf318dc5b51eee0e1ba569b88cd74c1773b91fac10669940990828211900360ee1b910360121c170290565b5050670de0b6b3a764000091500490565b670de0b6b3a764000060001982820982820291828083109203918083039214612440578181111561173c577faccb18165bd6fe31ae1cf318dc5b51eee0e1ba569b88cd74c1773b91fac1066993810990828211900360ee1b910360121c170290565b9250500490565b670de0b6b3a764000060001981830981830291828083109203918083039214612440578181111561173c57807faccb18165bd6fe31ae1cf318dc5b51eee0e1ba569b88cd74c1773b91fac10669940990828211900360ee1b910360121c170290565b9160001982840992828102928380861095039480860395146122dd578483111561173c578291098180600003168092046002808260030218808302820302808302820302808302820302808302820302808302820302809202900302936001838060000304019084831190030292030417029056fea2646970667358221220acf64ac36abcec02f8e2646f412553bd1f81af5c57c9ab1c28da7aa909c03b1a64736f6c63430008140033","linkReferences":{}},"methodIdentifiers":{"acceptOwnership()":"79ba5097","accrueInterests()":"bf5cb4b0","addVault(address)":"256b5a02","buy_fee()":"162b51fc","cf_critical()":"1b6e557b","cf_liquid_severe()":"a49e1783","cf_severe()":"ea5494b1","cf_warning()":"960fd088","constantRemovedSupply()":"9616c221","debaseValue()":"24070035","decayPeriod()":"48d67e1b","decayPeriodLP()":"91c65478","deltaDebase()":"71f26cce","deltaRebase()":"78469b13","ethToNuma(uint256,uint8)":"1bafd940","getBuyFee()":"8f818b90","getGlobalCF()":"b4c99a62","getGlobalLiquidCF()":"488f79ee","getNuAssetManager()":"d8003d96","getNumaSupply()":"abc92762","getSellFeeOriginal()":"fd7d9baf","getSellFeeScaling()":"009ca3eb","getSellFeeScalingUpdate()":"c12059ff","getSynthScaling()":"0ba31236","getSynthScalingUpdate()":"7f81c5e0","getTotalBalanceEth()":"67bdf640","getTotalBalanceEthNoDebt()":"17a5af7a","getTotalSynthValueEth()":"1a6719a5","getVaults()":"44d00f82","getWarningCF()":"4290768a","initialLPRemovedSupply()":"2fce6687","initialRemovedSupply()":"289537cd","isDecaying()":"8c3d72c6","isVault(address)":"652b9b41","islockedSupply()":"3822f65c","lockSupplyFlashloan(bool)":"d3fb0ad4","lockedSupply()":"ca5c7b91","minimumScale()":"a74109ae","nuAssetManager()":"1d25645b","numa()":"5992c23e","numaToEth(uint256,uint8)":"45718e81","numaToToken(uint256,uint256,uint256,uint256)":"4ee2b90b","owner()":"8da5cb5b","pendingOwner()":"e30c3978","rebaseValue()":"865ecff1","removeVault(address)":"ceb68c23","renounceOwnership()":"715018a6","sell_fee()":"abd545bf","sell_fee_debaseValue()":"682fd924","sell_fee_deltaDebase()":"f88b25d9","sell_fee_deltaRebase()":"ba1aa6dd","sell_fee_minimum()":"6fb99a93","sell_fee_rebaseValue()":"188c3c4e","sell_fee_update_blocknumber()":"5c33bb7c","setBuyFee(uint16)":"70c47671","setConstantRemovedSupply(uint256)":"fc6a6c16","setDecayValues(uint256,uint256,uint256,uint256,uint256)":"3efede70","setMinimumNumaPriceEth(uint256)":"3c5c2f55","setNuAssetManager(address)":"e9ae03fc","setScalingParameters(uint256,uint256,uint256,uint256,uint256,uint256,uint256,uint256)":"a87939cf","setSellFee(uint16)":"e064648a","setSellFeeParameters(uint256,uint16,uint16,uint256,uint256,uint16)":"4e001293","startDecay()":"ea0f8c50","startTime()":"78e97925","synth_scaling_update_blocknumber()":"cf85fbe8","tokenToNuma(uint256,uint256,uint256,uint256)":"fd6bc9ee","transferOwnership(address)":"f2fde38b","updateAll()":"53d78693"},"id":6}