{"abi":[{"type":"constructor","inputs":[],"stateMutability":"nonpayable"},{"type":"function","name":"DEFAULT_ADMIN_ROLE","inputs":[],"outputs":[{"name":"","type":"bytes32","internalType":"bytes32"}],"stateMutability":"view"},{"type":"function","name":"MINTER_ROLE","inputs":[],"outputs":[{"name":"","type":"bytes32","internalType":"bytes32"}],"stateMutability":"view"},{"type":"function","name":"PAUSER_ROLE","inputs":[],"outputs":[{"name":"","type":"bytes32","internalType":"bytes32"}],"stateMutability":"view"},{"type":"function","name":"SetFee","inputs":[{"name":"_newFeeBips","type":"uint256","internalType":"uint256"}],"outputs":[],"stateMutability":"nonpayable"},{"type":"function","name":"SetFeeTriggerer","inputs":[{"name":"_dexAddress","type":"address","internalType":"address"},{"name":"_isFee","type":"bool","internalType":"bool"}],"outputs":[],"stateMutability":"nonpayable"},{"type":"function","name":"SetWlSpender","inputs":[{"name":"_address","type":"address","internalType":"address"},{"name":"_isWl","type":"bool","internalType":"bool"}],"outputs":[],"stateMutability":"nonpayable"},{"type":"function","name":"UPGRADER_ROLE","inputs":[],"outputs":[{"name":"","type":"bytes32","internalType":"bytes32"}],"stateMutability":"view"},{"type":"function","name":"allowance","inputs":[{"name":"owner","type":"address","internalType":"address"},{"name":"spender","type":"address","internalType":"address"}],"outputs":[{"name":"","type":"uint256","internalType":"uint256"}],"stateMutability":"view"},{"type":"function","name":"approve","inputs":[{"name":"spender","type":"address","internalType":"address"},{"name":"amount","type":"uint256","internalType":"uint256"}],"outputs":[{"name":"","type":"bool","internalType":"bool"}],"stateMutability":"nonpayable"},{"type":"function","name":"balanceOf","inputs":[{"name":"account","type":"address","internalType":"address"}],"outputs":[{"name":"","type":"uint256","internalType":"uint256"}],"stateMutability":"view"},{"type":"function","name":"burn","inputs":[{"name":"amount","type":"uint256","internalType":"uint256"}],"outputs":[],"stateMutability":"nonpayable"},{"type":"function","name":"burnFrom","inputs":[{"name":"account","type":"address","internalType":"address"},{"name":"amount","type":"uint256","internalType":"uint256"}],"outputs":[],"stateMutability":"nonpayable"},{"type":"function","name":"decimals","inputs":[],"outputs":[{"name":"","type":"uint8","internalType":"uint8"}],"stateMutability":"view"},{"type":"function","name":"decreaseAllowance","inputs":[{"name":"spender","type":"address","internalType":"address"},{"name":"subtractedValue","type":"uint256","internalType":"uint256"}],"outputs":[{"name":"","type":"bool","internalType":"bool"}],"stateMutability":"nonpayable"},{"type":"function","name":"getRoleAdmin","inputs":[{"name":"role","type":"bytes32","internalType":"bytes32"}],"outputs":[{"name":"","type":"bytes32","internalType":"bytes32"}],"stateMutability":"view"},{"type":"function","name":"grantRole","inputs":[{"name":"role","type":"bytes32","internalType":"bytes32"},{"name":"account","type":"address","internalType":"address"}],"outputs":[],"stateMutability":"nonpayable"},{"type":"function","name":"hasRole","inputs":[{"name":"role","type":"bytes32","internalType":"bytes32"},{"name":"account","type":"address","internalType":"address"}],"outputs":[{"name":"","type":"bool","internalType":"bool"}],"stateMutability":"view"},{"type":"function","name":"increaseAllowance","inputs":[{"name":"spender","type":"address","internalType":"address"},{"name":"addedValue","type":"uint256","internalType":"uint256"}],"outputs":[{"name":"","type":"bool","internalType":"bool"}],"stateMutability":"nonpayable"},{"type":"function","name":"initialize","inputs":[],"outputs":[],"stateMutability":"nonpayable"},{"type":"function","name":"mint","inputs":[{"name":"to","type":"address","internalType":"address"},{"name":"amount","type":"uint256","internalType":"uint256"}],"outputs":[],"stateMutability":"nonpayable"},{"type":"function","name":"name","inputs":[],"outputs":[{"name":"","type":"string","internalType":"string"}],"stateMutability":"view"},{"type":"function","name":"pause","inputs":[],"outputs":[],"stateMutability":"nonpayable"},{"type":"function","name":"paused","inputs":[],"outputs":[{"name":"","type":"bool","internalType":"bool"}],"stateMutability":"view"},{"type":"function","name":"proxiableUUID","inputs":[],"outputs":[{"name":"","type":"bytes32","internalType":"bytes32"}],"stateMutability":"view"},{"type":"function","name":"renounceRole","inputs":[{"name":"role","type":"bytes32","internalType":"bytes32"},{"name":"account","type":"address","internalType":"address"}],"outputs":[],"stateMutability":"nonpayable"},{"type":"function","name":"revokeRole","inputs":[{"name":"role","type":"bytes32","internalType":"bytes32"},{"name":"account","type":"address","internalType":"address"}],"outputs":[],"stateMutability":"nonpayable"},{"type":"function","name":"supportsInterface","inputs":[{"name":"interfaceId","type":"bytes4","internalType":"bytes4"}],"outputs":[{"name":"","type":"bool","internalType":"bool"}],"stateMutability":"view"},{"type":"function","name":"symbol","inputs":[],"outputs":[{"name":"","type":"string","internalType":"string"}],"stateMutability":"view"},{"type":"function","name":"totalSupply","inputs":[],"outputs":[{"name":"","type":"uint256","internalType":"uint256"}],"stateMutability":"view"},{"type":"function","name":"transfer","inputs":[{"name":"to","type":"address","internalType":"address"},{"name":"amount","type":"uint256","internalType":"uint256"}],"outputs":[{"name":"","type":"bool","internalType":"bool"}],"stateMutability":"nonpayable"},{"type":"function","name":"transferFrom","inputs":[{"name":"from","type":"address","internalType":"address"},{"name":"to","type":"address","internalType":"address"},{"name":"value","type":"uint256","internalType":"uint256"}],"outputs":[{"name":"","type":"bool","internalType":"bool"}],"stateMutability":"nonpayable"},{"type":"function","name":"unpause","inputs":[],"outputs":[],"stateMutability":"nonpayable"},{"type":"function","name":"upgradeTo","inputs":[{"name":"newImplementation","type":"address","internalType":"address"}],"outputs":[],"stateMutability":"nonpayable"},{"type":"function","name":"upgradeToAndCall","inputs":[{"name":"newImplementation","type":"address","internalType":"address"},{"name":"data","type":"bytes","internalType":"bytes"}],"outputs":[],"stateMutability":"payable"},{"type":"event","name":"AdminChanged","inputs":[{"name":"previousAdmin","type":"address","indexed":false,"internalType":"address"},{"name":"newAdmin","type":"address","indexed":false,"internalType":"address"}],"anonymous":false},{"type":"event","name":"Approval","inputs":[{"name":"owner","type":"address","indexed":true,"internalType":"address"},{"name":"spender","type":"address","indexed":true,"internalType":"address"},{"name":"value","type":"uint256","indexed":false,"internalType":"uint256"}],"anonymous":false},{"type":"event","name":"BeaconUpgraded","inputs":[{"name":"beacon","type":"address","indexed":true,"internalType":"address"}],"anonymous":false},{"type":"event","name":"Initialized","inputs":[{"name":"version","type":"uint8","indexed":false,"internalType":"uint8"}],"anonymous":false},{"type":"event","name":"Paused","inputs":[{"name":"account","type":"address","indexed":false,"internalType":"address"}],"anonymous":false},{"type":"event","name":"RoleAdminChanged","inputs":[{"name":"role","type":"bytes32","indexed":true,"internalType":"bytes32"},{"name":"previousAdminRole","type":"bytes32","indexed":true,"internalType":"bytes32"},{"name":"newAdminRole","type":"bytes32","indexed":true,"internalType":"bytes32"}],"anonymous":false},{"type":"event","name":"RoleGranted","inputs":[{"name":"role","type":"bytes32","indexed":true,"internalType":"bytes32"},{"name":"account","type":"address","indexed":true,"internalType":"address"},{"name":"sender","type":"address","indexed":true,"internalType":"address"}],"anonymous":false},{"type":"event","name":"RoleRevoked","inputs":[{"name":"role","type":"bytes32","indexed":true,"internalType":"bytes32"},{"name":"account","type":"address","indexed":true,"internalType":"address"},{"name":"sender","type":"address","indexed":true,"internalType":"address"}],"anonymous":false},{"type":"event","name":"Transfer","inputs":[{"name":"from","type":"address","indexed":true,"internalType":"address"},{"name":"to","type":"address","indexed":true,"internalType":"address"},{"name":"value","type":"uint256","indexed":false,"internalType":"uint256"}],"anonymous":false},{"type":"event","name":"Unpaused","inputs":[{"name":"account","type":"address","indexed":false,"internalType":"address"}],"anonymous":false},{"type":"event","name":"Upgraded","inputs":[{"name":"implementation","type":"address","indexed":true,"internalType":"address"}],"anonymous":false}],"bytecode":{"object":"0x60a080604052346100dc57306080526000549060ff8260081c1661008a575060ff8082160361004f575b604051612a9b90816100e28239608051818181610cb201528181610dda01526114570152f35b60ff90811916176000557f7f26b83ff96e1f2b6a682f133852f6798a09c465da95921460cefb3847402498602060405160ff8152a138610029565b62461bcd60e51b815260206004820152602760248201527f496e697469616c697a61626c653a20636f6e747261637420697320696e697469604482015266616c697a696e6760c81b6064820152608490fd5b600080fdfe6040608081526004908136101561001557600080fd5b600091823560e01c908162172ddf146119ae57816301ffc9a71461195857816306fdde03146118ae578163095ea7b31461188457816318160ddd1461186557816323b872dd14611799578163248a9ca31461176e5781632f2ff15d146116d3578163313ce567146116b757816336568abe146116255781633659cfe61461142f57816339509351146113df5781633f4ba83a1461134957816340c10f191461107f57816342966c68146110615781634f1ef28614610d5f57816352d1902d14610c9c5781635c975abb14610c7857816370a0823114610c4057816379cc679014610c105781638129fc1c1461062d5781638456cb59146105d257816391d148541461058b57816395d89b41146104aa578163a217fddf1461048f578163a457c2d7146103ea578163a9059cbb14610365578163b1f23c8614610341578163d539139314610306578163d547741f146102c657508063dd62ed3e1461027e578063e63ab1e914610244578063eb299f54146101d55763f72c0d8b1461019857600080fd5b346101d157816003193601126101d157602090517f189ab7a9244df0848122154315af71fe140f3db0fe014031783b0946b8c9d2e38152f35b5080fd5b82346102415761023e61022d6101ea36611b56565b91906101f4611c9a565b6001600160a01b031660009081527f39ab5e0ad7fe40d49d4c6454ffadff2a8495d5fab1dffe90bf4769ee7b8366186020526040902090565b9060ff801983541691151516179055565b80f35b80fd5b50346101d157816003193601126101d157602090517f65d7a28e3265b37a6474929f336521b332c1681b933f6cb9f3376673440d862a8152f35b50346101d157806003193601126101d1578060209261029b611a99565b6102a3611ab4565b6001600160a01b0391821683526034865283832091168252845220549051908152f35b9190503461030257806003193601126103025761023e91356102fd60016102eb611ab4565b9383875260fb602052862001546120ed565b6121f7565b8280fd5b5050346101d157816003193601126101d157602090517f9f2df0fed2c77648de5860a4cc508cd0818c85b8b8a1ab4ceeef8d981c8956a68152f35b83346102415761023e61022d61035636611b56565b9190610360611c9a565b611bb6565b5050346101d157806003193601126101d157602090610382611a99565b7f39ab5e0ad7fe40d49d4c6454ffadff2a8495d5fab1dffe90bf4769ee7b83661654602435811515806103d7575b156103c6576103bf9233611bef565b5160018152f35b90506103d2913361244a565b6103bf565b5060ff6103e384611bb6565b54166103b0565b90508234610241578260031936011261024157610405611a99565b918360243592338152603460205281812060018060a01b038616825260205220549082821061043e576020856103bf85850387336126d5565b608490602086519162461bcd60e51b8352820152602560248201527f45524332303a2064656372656173656420616c6c6f77616e63652062656c6f77604482015264207a65726f60d81b6064820152fd5b5050346101d157816003193601126101d15751908152602090f35b5050346101d157816003193601126101d157805190826037546104cc81612403565b808552916001918083169081156105635750600114610506575b5050506104f882610502940383611b18565b5191829182611a6d565b0390f35b9450603785527f42a7b7dd785cd69714a189dffb3fd7d7174edc9ece837694ce50f7078f7c31ae5b82861061054b575050506104f882602061050295820101946104e6565b8054602087870181019190915290950194810161052e565b6105029750869350602092506104f894915060ff191682840152151560051b820101946104e6565b9050346103025781600319360112610302578160209360ff926105ac611ab4565b9035825260fb86528282206001600160a01b039091168252855220549151911615158152f35b5050346101d157816003193601126101d15760207f62e78cea01bee320cd4e420270b5ea74000d11b0c9f74754ebdbfc544b05a25891610610611fa7565b6106186123bf565b600160ff19609754161760975551338152a180f35b91905034610302578260031936011261030257825460ff808260081c161591828093610c04575b8015610bee575b15610b945760019460ff19918487848316178955610b83575b5061067d611b85565b610685611b85565b61069d858a5460081c1661069881611c3a565b611c3a565b81519267ffffffffffffffff93848111610b7057806106bd603654612403565b94601f95868111610aff575b506020908d878411600114610a805792610a75575b5050600019600383901b1c1916908a1b176036555b8151938411610a62575090829161070b603754612403565b8281116109f2575b506020918311600114610973578992610968575b5050600019600383901b1c191690861b176037555b61077282875460081c1661074f81611c3a565b61075881611c3a565b61076181611c3a565b826097541660975561069881611c3a565b85805260fb8060205284872033885260205282858820541615610933575b7f65d7a28e3265b37a6474929f336521b332c1681b933f6cb9f3376673440d862a80885281602052858820338952602052838689205416156108fc575b507f9f2df0fed2c77648de5860a4cc508cd0818c85b8b8a1ab4ceeef8d981c8956a680885281602052858820338952602052838689205416156108c5575b507f189ab7a9244df0848122154315af71fe140f3db0fe014031783b0946b8c9d2e3928388528160205285882033895260205285882054161561088d575b505050610854578280f35b825461ff0019168355519081527f7f26b83ff96e1f2b6a682f133852f6798a09c465da95921460cefb384740249890602090a138808280f35b828752602052838620338752602052848487209182541617905533903390600080516020612a268339815191528780a4388080610849565b80885281602052858820338952602052858820878482541617905533903390600080516020612a268339815191528a80a43861080b565b80885281602052858820338952602052858820878482541617905533903390600080516020612a268339815191528a80a4386107cd565b868052806020528487203388526020528487208683825416179055333388600080516020612a268339815191528180a4610790565b015190503880610727565b60378a528893507f42a7b7dd785cd69714a189dffb3fd7d7174edc9ece837694ce50f7078f7c31ae9190601f1984168b5b8181106109da575084116109c1575b505050811b0160375561073c565b015160001960f88460031b161c191690553880806109b3565b8284015185558b9690940193602093840193016109a4565b9091925060378a527f42a7b7dd785cd69714a189dffb3fd7d7174edc9ece837694ce50f7078f7c31ae8380860160051c82019260208710610a59575b9186958c929594930160051c01915b828110610a4b575050610713565b8c81558695508b9101610a3d565b92508192610a2e565b634e487b7160e01b8a5260419052602489fd5b0151905038806106de565b91908d9450601f198416603684527f4a11f94e20a93c79f6ec743a1954ec4fc2c08429ae2122118bf234b2185c81b8935b818110610ae757508411610ace575b505050811b016036556106f3565b015160001960f88460031b161c19169055388080610ac0565b8284015185558f969094019360209384019301610ab1565b90915060368d527f4a11f94e20a93c79f6ec743a1954ec4fc2c08429ae2122118bf234b2185c81b88680850160051c82019260208610610b67575b859493910160051c909101908d908f5b838210610b59575050506106c9565b81558594508e91018f610b4a565b92508192610b3a565b634e487b7160e01b8b526041825260248bfd5b61ffff191661010117875538610674565b835162461bcd60e51b8152602081870152602e60248201527f496e697469616c697a61626c653a20636f6e747261637420697320616c72656160448201526d191e481a5b9a5d1a585b1a5e995960921b6064820152608490fd5b50303b15801561065b575060018282161461065b565b50600182821610610654565b5050346101d1573660031901126102415761023e610c2c611a99565b60243590610c3b8233836127d7565b6125c2565b5050346101d15760203660031901126101d15760209181906001600160a01b03610c68611a99565b1681526033845220549051908152f35b5050346101d157816003193601126101d15760209060ff6097541690519015158152f35b90508234610241578060031936011261024157507f00000000000000000000000000000000000000000000000000000000000000006001600160a01b03163003610cf75760208251600080516020612a468339815191528152f35b6020608492519162461bcd60e51b8352820152603860248201527f555550535570677261646561626c653a206d757374206e6f742062652063616c60448201527f6c6564207468726f7567682064656c656761746563616c6c00000000000000006064820152fd5b9180915060031936011261030257610d75611a99565b906024359067ffffffffffffffff821161105d573660238301121561105d5781840135610da181611b3a565b610dad83519182611b18565b81815286602094858301933660248284010111610302578060248893018637830101526001600160a01b037f0000000000000000000000000000000000000000000000000000000000000000811690610e083083141561226d565b610e25600080516020612a468339815191529282845416146122ce565b610e2d611e61565b7f4910fdfa16fed3260ed0e7147f7cc6da11a60208b5b9406d12a635614ffd91435460ff1615610e675750505050505061023e915061232f565b869293949596169085516352d1902d60e01b815287818a81865afa8a918161102a575b50610ee957865162461bcd60e51b8152808a01899052602e60248201527f45524331393637557067726164653a206e657720696d706c656d656e7461746960448201526d6f6e206973206e6f74205555505360901b6064820152608490fd5b979192939695949703610fd55750610f008261232f565b7fbc7cd75a20ee27fd9adebab32041f755214dbc6bffa90cc0225b39da2e5c2d3b8780a285845115801590610fcd575b610f3e575b50505050505080f35b80610fb796845196610f4f88611aca565b602788527f416464726573733a206c6f772d6c6576656c2064656c65676174652063616c6c87890152660819985a5b195960ca1b868901525190845af4913d15610fc3573d610fa9610fa082611b3a565b92519283611b18565b81528681943d92013e61286f565b50388080808085610f35565b506060925061286f565b506001610f30565b835162461bcd60e51b8152908101859052602960248201527f45524331393637557067726164653a20756e737570706f727465642070726f786044820152681a58589b195555525160ba1b6064820152608490fd5b9091508881813d8311611056575b6110428183611b18565b8101031261105257519038610e8a565b8a80fd5b503d611038565b8480fd5b8390346101d15760203660031901126101d15761023e9035336125c2565b905034610302578160031936011261030257611099611a99565b906024928335917f9f2df0fed2c77648de5860a4cc508cd0818c85b8b8a1ab4ceeef8d981c8956a69384875260209460fb8652838820338952865260ff84892054161561118757506001600160a01b0316948515611147575050917fddf252ad1be2c89b69c2b068fc378daa952ba7f163c4a11628f55a4df523b3ef9185936111206123bf565b61112c8260355461243d565b6035558585526033835280852082815401905551908152a380f35b601f9085606494519362461bcd60e51b85528401528201527f45524332303a206d696e7420746f20746865207a65726f2061646472657373006044820152fd5b85915086889161119633612927565b90918651926111a484611afc565b6042845285840194606036873784511561133757603086538451906001918210156113255790607860218701536041915b8183116112bc5750505061127b57506112779386936112639361125460489461122b9a519a8576020b1b1b2b9b9a1b7b73a3937b61d1030b1b1b7bab73a1604d1b8d978801528251928391603789019101611a4a565b8401917001034b99036b4b9b9b4b733903937b6329607d1b603784015251809386840190611a4a565b01036028810187520185611b18565b5162461bcd60e51b81529283928301611a6d565b0390fd5b9250505081606494519362461bcd60e51b85528401528201527f537472696e67733a20686578206c656e67746820696e73756666696369656e746044820152fd5b909192600f81166010811015611313576f181899199a1a9b1b9c1cb0b131b232b360811b901a6112ec8589612900565b53891c928015611301576000190191906111d5565b634e487b7160e01b825260118a528482fd5b634e487b7160e01b835260328b528583fd5b634e487b7160e01b8152603289528390fd5b634e487b7160e01b8152603288529050fd5b905034610302578260031936011261030257611363611fa7565b6097549060ff8216156113a5575060ff1916609755513381527f5db9ee0a495bf2e6ff9c91a7834c1ba4fdd244a5e8aa4e537bd38aeae4b073aa90602090a180f35b606490602084519162461bcd60e51b8352820152601460248201527314185d5cd8589b194e881b9bdd081c185d5cd95960621b6044820152fd5b5050346101d157806003193601126101d1576103bf602092611428611402611a99565b338352603486528483206001600160a01b0382168452865291849020546024359061243d565b90336126d5565b91905034610302576020806003193601126116215761144c611a99565b916001600160a01b037f000000000000000000000000000000000000000000000000000000000000000081166114843082141561226d565b6114a1600080516020612a468339815191529183835416146122ce565b6114a9611e61565b8251908482019282841067ffffffffffffffff85111761160e578385528883527f4910fdfa16fed3260ed0e7147f7cc6da11a60208b5b9406d12a635614ffd91435460ff16156115035750505050505061023e915061232f565b869293949596169085516352d1902d60e01b815287818a81865afa8a91816115df575b5061158557865162461bcd60e51b8152808a01899052602e60248201527f45524331393637557067726164653a206e657720696d706c656d656e7461746960448201526d6f6e206973206e6f74205555505360901b6064820152608490fd5b979192939695949703610fd5575061159c8261232f565b7fbc7cd75a20ee27fd9adebab32041f755214dbc6bffa90cc0225b39da2e5c2d3b8780a2858451158015906115d857610f3e5750505050505080f35b5080610f30565b9091508881813d8311611607575b6115f78183611b18565b8101031261105257519038611526565b503d6115ed565b634e487b7160e01b895260418852602489fd5b8380fd5b839150346101d157826003193601126101d157611640611ab4565b90336001600160a01b0383160361165c579061023e91356121f7565b608490602085519162461bcd60e51b8352820152602f60248201527f416363657373436f6e74726f6c3a2063616e206f6e6c792072656e6f756e636560448201526e103937b632b9903337b91039b2b63360891b6064820152fd5b5050346101d157816003193601126101d1576020905160128152f35b90503461030257816003193601126103025735906116ef611ab4565b9082845260fb602052611707600182862001546120ed565b82845260fb60209081528185206001600160a01b039093168086529290528084205460ff1615611735578380f35b82845260fb6020528084208285526020528320600160ff198254161790553391600080516020612a268339815191528480a43880808380f35b905034610302576020366003190112610302578160209360019235815260fb85522001549051908152f35b5050346101d15760603660031901126101d1576020906117b7611a99565b6117bf611ab4565b6044357f39ab5e0ad7fe40d49d4c6454ffadff2a8495d5fab1dffe90bf4769ee7b83661654916117f08233866127d7565b3360009081527f39ab5e0ad7fe40d49d4c6454ffadff2a8495d5fab1dffe90bf4769ee7b836618602052604090205460ff16158061185c575b80611849575b1561183d576103bf93611bef565b9091506103d29261244a565b5060ff61185582611bb6565b541661182f565b50821515611829565b5050346101d157816003193601126101d1576020906035549051908152f35b5050346101d157806003193601126101d1576020906103bf6118a4611a99565b60243590336126d5565b5050346101d157816003193601126101d157805190826036546118d081612403565b8085529160019180831690811561056357506001146118fb575050506104f882610502940383611b18565b9450603685527f4a11f94e20a93c79f6ec743a1954ec4fc2c08429ae2122118bf234b2185c81b85b828610611940575050506104f882602061050295820101946104e6565b80546020878701810191909152909501948101611923565b90503461030257602036600319011261030257359063ffffffff60e01b82168092036103025760209250637965db0b60e01b821491821561199d575b50519015158152f35b6301ffc9a760e01b14915038611994565b905034610302576020366003190112610302578035916119cc611c9a565b61271083116119fc5750507f39ab5e0ad7fe40d49d4c6454ffadff2a8495d5fab1dffe90bf4769ee7b8366165580f35b906020608492519162461bcd60e51b8352820152602260248201527f4665652070657263656e74616765206d75737420626520313030206f72206c65604482015261737360f01b6064820152fd5b60005b838110611a5d5750506000910152565b8181015183820152602001611a4d565b60409160208252611a8d8151809281602086015260208686019101611a4a565b601f01601f1916010190565b600435906001600160a01b0382168203611aaf57565b600080fd5b602435906001600160a01b0382168203611aaf57565b6060810190811067ffffffffffffffff821117611ae657604052565b634e487b7160e01b600052604160045260246000fd5b6080810190811067ffffffffffffffff821117611ae657604052565b90601f8019910116810190811067ffffffffffffffff821117611ae657604052565b67ffffffffffffffff8111611ae657601f01601f191660200190565b6040906003190112611aaf576004356001600160a01b0381168103611aaf57906024358015158103611aaf5790565b604051906040820182811067ffffffffffffffff821117611ae65760405260048252634e554d4160e01b6020830152565b6001600160a01b031660009081527f39ab5e0ad7fe40d49d4c6454ffadff2a8495d5fab1dffe90bf4769ee7b8366176020526040902090565b92808302908382041483151715611c2457612710900492838303928311611c2457611c1d611c2294826125c2565b61244a565b565b634e487b7160e01b600052601160045260246000fd5b15611c4157565b60405162461bcd60e51b815260206004820152602b60248201527f496e697469616c697a61626c653a20636f6e7472616374206973206e6f74206960448201526a6e697469616c697a696e6760a81b6064820152608490fd5b3360009081527fc88390e7e62175be0932452175b6a7222b6b094ab0ef984a5153c620345d8975602090815260408083205490929060ff1615611cdc57505050565b611ce533612927565b83519082611cf283611afc565b60428352848301936060368637835115611e4d5760308553835190600191821015611e4d5790607860218601536041915b818311611ddf57505050611d9d5761122b938593611d8793611d786048946112779951988576020b1b1b2b9b9a1b7b73a3937b61d1030b1b1b7bab73a1604d1b8b978801528251928391603789019101611a4a565b01036028810185520183611b18565b5162461bcd60e51b815291829160048301611a6d565b60648486519062461bcd60e51b825280600483015260248201527f537472696e67733a20686578206c656e67746820696e73756666696369656e746044820152fd5b909192600f81166010811015611e39576f181899199a1a9b1b9c1cb0b131b232b360811b901a611e0f8588612900565b5360041c928015611e2557600019019190611d23565b634e487b7160e01b82526011600452602482fd5b634e487b7160e01b83526032600452602483fd5b634e487b7160e01b81526032600452602490fd5b3360009081527f775ac87777436f29b0cd5453bf5db4da15d8938d0ef70de831d2edd17651cf6760209081526040808320549092907f189ab7a9244df0848122154315af71fe140f3db0fe014031783b0946b8c9d2e39060ff1615611ec65750505050565b611ecf33612927565b845191611edb83611afc565b60428352848301936060368637835115611e4d5760308553835190600191821015611e4d5790607860218601536041915b818311611f6157505050611d9d5761122b938593611d8793611d786048946112779951988576020b1b1b2b9b9a1b7b73a3937b61d1030b1b1b7bab73a1604d1b8b978801528251928391603789019101611a4a565b909192600f81166010811015611e39576f181899199a1a9b1b9c1cb0b131b232b360811b901a611f918588612900565b5360041c928015611e2557600019019190611f0c565b3360009081527fc81858b0fc5e8d7d2c7a341b4e13a62a27b51e1da1072bf5f7fee8fdef673e9460209081526040808320549092907f65d7a28e3265b37a6474929f336521b332c1681b933f6cb9f3376673440d862a9060ff161561200c5750505050565b61201533612927565b84519161202183611afc565b60428352848301936060368637835115611e4d5760308553835190600191821015611e4d5790607860218601536041915b8183116120a757505050611d9d5761122b938593611d8793611d786048946112779951988576020b1b1b2b9b9a1b7b73a3937b61d1030b1b1b7bab73a1604d1b8b978801528251928391603789019101611a4a565b909192600f81166010811015611e39576f181899199a1a9b1b9c1cb0b131b232b360811b901a6120d78588612900565b5360041c928015611e2557600019019190612052565b600081815260209060fb8252604092838220338352835260ff8483205416156121165750505050565b61211f33612927565b84519161212b83611afc565b60428352848301936060368637835115611e4d5760308553835190600191821015611e4d5790607860218601536041915b8183116121b157505050611d9d5761122b938593611d8793611d786048946112779951988576020b1b1b2b9b9a1b7b73a3937b61d1030b1b1b7bab73a1604d1b8b978801528251928391603789019101611a4a565b909192600f81166010811015611e39576f181899199a1a9b1b9c1cb0b131b232b360811b901a6121e18588612900565b5360041c928015611e255760001901919061215c565b9060009180835260fb602052604083209160018060a01b03169182845260205260ff60408420541661222857505050565b80835260fb602052604083208284526020526040832060ff1981541690557ff6391f5c32d9c69d2a47ea670b442974b53935d1edc7fd64eb21e047a839171b339380a4565b1561227457565b60405162461bcd60e51b815260206004820152602c60248201527f46756e6374696f6e206d7573742062652063616c6c6564207468726f7567682060448201526b19195b1959d85d1958d85b1b60a21b6064820152608490fd5b156122d557565b60405162461bcd60e51b815260206004820152602c60248201527f46756e6374696f6e206d7573742062652063616c6c6564207468726f7567682060448201526b6163746976652070726f787960a01b6064820152608490fd5b803b1561236457600080516020612a4683398151915280546001600160a01b0319166001600160a01b03909216919091179055565b60405162461bcd60e51b815260206004820152602d60248201527f455243313936373a206e657720696d706c656d656e746174696f6e206973206e60448201526c1bdd08184818dbdb9d1c9858dd609a1b6064820152608490fd5b60ff609754166123cb57565b60405162461bcd60e51b815260206004820152601060248201526f14185d5cd8589b194e881c185d5cd95960821b6044820152606490fd5b90600182811c92168015612433575b602083101461241d57565b634e487b7160e01b600052602260045260246000fd5b91607f1691612412565b91908201809211611c2457565b6001600160a01b0390811691821561256f571691821561251e5761246c6123bf565b600082815260336020526040812054918083106124ca57604082827fddf252ad1be2c89b69c2b068fc378daa952ba7f163c4a11628f55a4df523b3ef95876020965260338652038282205586815220818154019055604051908152a3565b60405162461bcd60e51b815260206004820152602660248201527f45524332303a207472616e7366657220616d6f756e7420657863656564732062604482015265616c616e636560d01b6064820152608490fd5b60405162461bcd60e51b815260206004820152602360248201527f45524332303a207472616e7366657220746f20746865207a65726f206164647260448201526265737360e81b6064820152608490fd5b60405162461bcd60e51b815260206004820152602560248201527f45524332303a207472616e736665722066726f6d20746865207a65726f206164604482015264647265737360d81b6064820152608490fd5b6001600160a01b03168015612686576125d96123bf565b80600052603360205260406000205491808310612636576020817fddf252ad1be2c89b69c2b068fc378daa952ba7f163c4a11628f55a4df523b3ef92600095858752603384520360408620558060355403603555604051908152a3565b60405162461bcd60e51b815260206004820152602260248201527f45524332303a206275726e20616d6f756e7420657863656564732062616c616e604482015261636560f01b6064820152608490fd5b60405162461bcd60e51b815260206004820152602160248201527f45524332303a206275726e2066726f6d20746865207a65726f206164647265736044820152607360f81b6064820152608490fd5b6001600160a01b0390811691821561278657169182156127365760207f8c5be1e5ebec7d5bd14f71427d1e84f3dd0314c0f7b2291e5b200ac8c7c3b925918360005260348252604060002085600052825280604060002055604051908152a3565b60405162461bcd60e51b815260206004820152602260248201527f45524332303a20617070726f766520746f20746865207a65726f206164647265604482015261737360f01b6064820152608490fd5b60405162461bcd60e51b8152602060048201526024808201527f45524332303a20617070726f76652066726f6d20746865207a65726f206164646044820152637265737360e01b6064820152608490fd5b9060018060a01b038083166000526034602052604060002090821660005260205260406000205492600019840361280f575b50505050565b80841061282a576128219303916126d5565b38808080612809565b60405162461bcd60e51b815260206004820152601d60248201527f45524332303a20696e73756666696369656e7420616c6c6f77616e63650000006044820152606490fd5b919290156128d15750815115612883575090565b3b1561288c5790565b60405162461bcd60e51b815260206004820152601d60248201527f416464726573733a2063616c6c20746f206e6f6e2d636f6e74726163740000006044820152606490fd5b8251909150156128e45750805190602001fd5b60405162461bcd60e51b81529081906112779060048301611a6d565b908151811015612911570160200190565b634e487b7160e01b600052603260045260246000fd5b6040519061293482611aca565b602a82526020820160403682378251156129115760309053815160019081101561291157607860218401536029905b8082116129b75750506129735790565b606460405162461bcd60e51b815260206004820152602060248201527f537472696e67733a20686578206c656e67746820696e73756666696369656e746044820152fd5b9091600f81166010811015612a10576f181899199a1a9b1b9c1cb0b131b232b360811b901a6129e68486612900565b5360041c9180156129fb576000190190612963565b60246000634e487b7160e01b81526011600452fd5b60246000634e487b7160e01b81526032600452fdfe2f8788117e7eff1d82e926ec794901d17c78024a50270940304540a733656f0d360894a13ba1a3210667c828492db98dca3e2076cc3735a920a3ca505d382bbca264697066735822122039c64057348812ad38b89436ad838cfded5a3f1714fe3cf9f799df600315c17164736f6c63430008140033","linkReferences":{}},"methodIdentifiers":{"DEFAULT_ADMIN_ROLE()":"a217fddf","MINTER_ROLE()":"d5391393","PAUSER_ROLE()":"e63ab1e9","SetFee(uint256)":"00172ddf","SetFeeTriggerer(address,bool)":"b1f23c86","SetWlSpender(address,bool)":"eb299f54","UPGRADER_ROLE()":"f72c0d8b","allowance(address,address)":"dd62ed3e","approve(address,uint256)":"095ea7b3","balanceOf(address)":"70a08231","burn(uint256)":"42966c68","burnFrom(address,uint256)":"79cc6790","decimals()":"313ce567","decreaseAllowance(address,uint256)":"a457c2d7","getRoleAdmin(bytes32)":"248a9ca3","grantRole(bytes32,address)":"2f2ff15d","hasRole(bytes32,address)":"91d14854","increaseAllowance(address,uint256)":"39509351","initialize()":"8129fc1c","mint(address,uint256)":"40c10f19","name()":"06fdde03","pause()":"8456cb59","paused()":"5c975abb","proxiableUUID()":"52d1902d","renounceRole(bytes32,address)":"36568abe","revokeRole(bytes32,address)":"d547741f","supportsInterface(bytes4)":"01ffc9a7","symbol()":"95d89b41","totalSupply()":"18160ddd","transfer(address,uint256)":"a9059cbb","transferFrom(address,address,uint256)":"23b872dd","unpause()":"3f4ba83a","upgradeTo(address)":"3659cfe6","upgradeToAndCall(address,bytes)":"4f1ef286"},"id":0}