{"abi":[{"type":"constructor","inputs":[{"name":"underlying_","type":"address","internalType":"address"},{"name":"comptroller_","type":"address","internalType":"contract ComptrollerInterface"},{"name":"interestRateModel_","type":"address","internalType":"contract InterestRateModel"},{"name":"initialExchangeRateMantissa_","type":"uint256","internalType":"uint256"},{"name":"name_","type":"string","internalType":"string"},{"name":"symbol_","type":"string","internalType":"string"},{"name":"decimals_","type":"uint8","internalType":"uint8"},{"name":"fullUtilizationRate_","type":"uint256","internalType":"uint256"},{"name":"admin_","type":"address","internalType":"address payable"},{"name":"_vault","type":"address","internalType":"address"}],"stateMutability":"nonpayable"},{"type":"function","name":"NO_ERROR","inputs":[],"outputs":[{"name":"","type":"uint256","internalType":"uint256"}],"stateMutability":"view"},{"type":"function","name":"_acceptAdmin","inputs":[],"outputs":[{"name":"","type":"uint256","internalType":"uint256"}],"stateMutability":"nonpayable"},{"type":"function","name":"_addReserves","inputs":[{"name":"addAmount","type":"uint256","internalType":"uint256"}],"outputs":[{"name":"","type":"uint256","internalType":"uint256"}],"stateMutability":"nonpayable"},{"type":"function","name":"_delegateCompLikeTo","inputs":[{"name":"compLikeDelegatee","type":"address","internalType":"address"}],"outputs":[],"stateMutability":"nonpayable"},{"type":"function","name":"_reduceReserves","inputs":[{"name":"reduceAmount","type":"uint256","internalType":"uint256"}],"outputs":[{"name":"","type":"uint256","internalType":"uint256"}],"stateMutability":"nonpayable"},{"type":"function","name":"_setComptroller","inputs":[{"name":"newComptroller","type":"address","internalType":"contract ComptrollerInterface"}],"outputs":[{"name":"","type":"uint256","internalType":"uint256"}],"stateMutability":"nonpayable"},{"type":"function","name":"_setInterestRateModel","inputs":[{"name":"newInterestRateModel","type":"address","internalType":"contract InterestRateModel"}],"outputs":[{"name":"","type":"uint256","internalType":"uint256"}],"stateMutability":"nonpayable"},{"type":"function","name":"_setPendingAdmin","inputs":[{"name":"newPendingAdmin","type":"address","internalType":"address payable"}],"outputs":[{"name":"","type":"uint256","internalType":"uint256"}],"stateMutability":"nonpayable"},{"type":"function","name":"_setReserveFactor","inputs":[{"name":"newReserveFactorMantissa","type":"uint256","internalType":"uint256"}],"outputs":[{"name":"","type":"uint256","internalType":"uint256"}],"stateMutability":"nonpayable"},{"type":"function","name":"accrualBlockNumber","inputs":[],"outputs":[{"name":"","type":"uint256","internalType":"uint256"}],"stateMutability":"view"},{"type":"function","name":"accrualBlockTimestamp","inputs":[],"outputs":[{"name":"","type":"uint256","internalType":"uint256"}],"stateMutability":"view"},{"type":"function","name":"accrueInterest","inputs":[],"outputs":[{"name":"","type":"uint256","internalType":"uint256"}],"stateMutability":"nonpayable"},{"type":"function","name":"admin","inputs":[],"outputs":[{"name":"","type":"address","internalType":"address payable"}],"stateMutability":"view"},{"type":"function","name":"allowance","inputs":[{"name":"owner","type":"address","internalType":"address"},{"name":"spender","type":"address","internalType":"address"}],"outputs":[{"name":"","type":"uint256","internalType":"uint256"}],"stateMutability":"view"},{"type":"function","name":"approve","inputs":[{"name":"spender","type":"address","internalType":"address"},{"name":"amount","type":"uint256","internalType":"uint256"}],"outputs":[{"name":"","type":"bool","internalType":"bool"}],"stateMutability":"nonpayable"},{"type":"function","name":"balanceOf","inputs":[{"name":"owner","type":"address","internalType":"address"}],"outputs":[{"name":"","type":"uint256","internalType":"uint256"}],"stateMutability":"view"},{"type":"function","name":"balanceOfUnderlying","inputs":[{"name":"owner","type":"address","internalType":"address"}],"outputs":[{"name":"","type":"uint256","internalType":"uint256"}],"stateMutability":"nonpayable"},{"type":"function","name":"borrow","inputs":[{"name":"borrowAmount","type":"uint256","internalType":"uint256"}],"outputs":[{"name":"","type":"uint256","internalType":"uint256"}],"stateMutability":"nonpayable"},{"type":"function","name":"borrowBalanceCurrent","inputs":[{"name":"account","type":"address","internalType":"address"}],"outputs":[{"name":"","type":"uint256","internalType":"uint256"}],"stateMutability":"nonpayable"},{"type":"function","name":"borrowBalanceStored","inputs":[{"name":"account","type":"address","internalType":"address"}],"outputs":[{"name":"","type":"uint256","internalType":"uint256"}],"stateMutability":"view"},{"type":"function","name":"borrowIndex","inputs":[],"outputs":[{"name":"","type":"uint256","internalType":"uint256"}],"stateMutability":"view"},{"type":"function","name":"borrowRatePerBlock","inputs":[],"outputs":[{"name":"","type":"uint256","internalType":"uint256"}],"stateMutability":"view"},{"type":"function","name":"closeLeverage","inputs":[{"name":"_collateral","type":"address","internalType":"contract CNumaToken"},{"name":"_borrowtorepay","type":"uint256","internalType":"uint256"}],"outputs":[],"stateMutability":"nonpayable"},{"type":"function","name":"closeLeverageAmount","inputs":[{"name":"_collateral","type":"address","internalType":"contract CNumaToken"},{"name":"_borrowtorepay","type":"uint256","internalType":"uint256"}],"outputs":[{"name":"","type":"uint256","internalType":"uint256"}],"stateMutability":"view"},{"type":"function","name":"comptroller","inputs":[],"outputs":[{"name":"","type":"address","internalType":"contract ComptrollerInterface"}],"stateMutability":"view"},{"type":"function","name":"decimals","inputs":[],"outputs":[{"name":"","type":"uint8","internalType":"uint8"}],"stateMutability":"view"},{"type":"function","name":"exchangeRateCurrent","inputs":[],"outputs":[{"name":"","type":"uint256","internalType":"uint256"}],"stateMutability":"nonpayable"},{"type":"function","name":"exchangeRateStored","inputs":[],"outputs":[{"name":"","type":"uint256","internalType":"uint256"}],"stateMutability":"view"},{"type":"function","name":"fullUtilizationRate","inputs":[],"outputs":[{"name":"","type":"uint256","internalType":"uint256"}],"stateMutability":"view"},{"type":"function","name":"getAccountSnapshot","inputs":[{"name":"account","type":"address","internalType":"address"}],"outputs":[{"name":"","type":"uint256","internalType":"uint256"},{"name":"","type":"uint256","internalType":"uint256"},{"name":"","type":"uint256","internalType":"uint256"},{"name":"","type":"uint256","internalType":"uint256"}],"stateMutability":"view"},{"type":"function","name":"getCash","inputs":[],"outputs":[{"name":"","type":"uint256","internalType":"uint256"}],"stateMutability":"view"},{"type":"function","name":"initialize","inputs":[{"name":"comptroller_","type":"address","internalType":"contract ComptrollerInterface"},{"name":"interestRateModel_","type":"address","internalType":"contract InterestRateModel"},{"name":"initialExchangeRateMantissa_","type":"uint256","internalType":"uint256"},{"name":"name_","type":"string","internalType":"string"},{"name":"symbol_","type":"string","internalType":"string"},{"name":"decimals_","type":"uint8","internalType":"uint8"},{"name":"fullUtilizationRate_","type":"uint256","internalType":"uint256"}],"outputs":[],"stateMutability":"nonpayable"},{"type":"function","name":"initialize","inputs":[{"name":"underlying_","type":"address","internalType":"address"},{"name":"comptroller_","type":"address","internalType":"contract ComptrollerInterface"},{"name":"interestRateModel_","type":"address","internalType":"contract InterestRateModel"},{"name":"initialExchangeRateMantissa_","type":"uint256","internalType":"uint256"},{"name":"name_","type":"string","internalType":"string"},{"name":"symbol_","type":"string","internalType":"string"},{"name":"decimals_","type":"uint8","internalType":"uint8"},{"name":"fullUtilizationRate_","type":"uint256","internalType":"uint256"}],"outputs":[],"stateMutability":"nonpayable"},{"type":"function","name":"interestRateModel","inputs":[],"outputs":[{"name":"","type":"address","internalType":"contract InterestRateModel"}],"stateMutability":"view"},{"type":"function","name":"isCToken","inputs":[],"outputs":[{"name":"","type":"bool","internalType":"bool"}],"stateMutability":"view"},{"type":"function","name":"leverage","inputs":[{"name":"_suppliedAmount","type":"uint256","internalType":"uint256"},{"name":"_borrowAmount","type":"uint256","internalType":"uint256"},{"name":"_collateral","type":"address","internalType":"contract CNumaToken"}],"outputs":[],"stateMutability":"nonpayable"},{"type":"function","name":"liquidateBadDebt","inputs":[{"name":"borrower","type":"address","internalType":"address"},{"name":"repayAmount","type":"uint256","internalType":"uint256"},{"name":"percentageToTake","type":"uint256","internalType":"uint256"},{"name":"cTokenCollateral","type":"address","internalType":"contract CTokenInterface"}],"outputs":[{"name":"","type":"uint256","internalType":"uint256"}],"stateMutability":"nonpayable"},{"type":"function","name":"liquidateBorrow","inputs":[{"name":"borrower","type":"address","internalType":"address"},{"name":"repayAmount","type":"uint256","internalType":"uint256"},{"name":"cTokenCollateral","type":"address","internalType":"contract CTokenInterface"}],"outputs":[{"name":"","type":"uint256","internalType":"uint256"}],"stateMutability":"nonpayable"},{"type":"function","name":"mint","inputs":[{"name":"mintAmount","type":"uint256","internalType":"uint256"}],"outputs":[{"name":"","type":"uint256","internalType":"uint256"}],"stateMutability":"nonpayable"},{"type":"function","name":"name","inputs":[],"outputs":[{"name":"","type":"string","internalType":"string"}],"stateMutability":"view"},{"type":"function","name":"pendingAdmin","inputs":[],"outputs":[{"name":"","type":"address","internalType":"address payable"}],"stateMutability":"view"},{"type":"function","name":"protocolSeizeShareMantissa","inputs":[],"outputs":[{"name":"","type":"uint256","internalType":"uint256"}],"stateMutability":"view"},{"type":"function","name":"redeem","inputs":[{"name":"redeemTokens","type":"uint256","internalType":"uint256"}],"outputs":[{"name":"","type":"uint256","internalType":"uint256"}],"stateMutability":"nonpayable"},{"type":"function","name":"redeemUnderlying","inputs":[{"name":"redeemAmount","type":"uint256","internalType":"uint256"}],"outputs":[{"name":"","type":"uint256","internalType":"uint256"}],"stateMutability":"nonpayable"},{"type":"function","name":"repayBorrow","inputs":[{"name":"repayAmount","type":"uint256","internalType":"uint256"}],"outputs":[{"name":"","type":"uint256","internalType":"uint256"}],"stateMutability":"nonpayable"},{"type":"function","name":"repayBorrowBehalf","inputs":[{"name":"borrower","type":"address","internalType":"address"},{"name":"repayAmount","type":"uint256","internalType":"uint256"}],"outputs":[{"name":"","type":"uint256","internalType":"uint256"}],"stateMutability":"nonpayable"},{"type":"function","name":"reserveFactorMantissa","inputs":[],"outputs":[{"name":"","type":"uint256","internalType":"uint256"}],"stateMutability":"view"},{"type":"function","name":"seize","inputs":[{"name":"liquidator","type":"address","internalType":"address"},{"name":"borrower","type":"address","internalType":"address"},{"name":"seizeTokens","type":"uint256","internalType":"uint256"}],"outputs":[{"name":"","type":"uint256","internalType":"uint256"}],"stateMutability":"nonpayable"},{"type":"function","name":"seizeBadDebt","inputs":[{"name":"liquidator","type":"address","internalType":"address"},{"name":"borrower","type":"address","internalType":"address"},{"name":"seizeTokens","type":"uint256","internalType":"uint256"}],"outputs":[{"name":"","type":"uint256","internalType":"uint256"}],"stateMutability":"nonpayable"},{"type":"function","name":"setLeverageEpsilon","inputs":[{"name":"_margin","type":"uint256","internalType":"uint256"},{"name":"_marginbase","type":"uint256","internalType":"uint256"}],"outputs":[],"stateMutability":"nonpayable"},{"type":"function","name":"setVault","inputs":[{"name":"_vault","type":"address","internalType":"address"}],"outputs":[],"stateMutability":"nonpayable"},{"type":"function","name":"supplyRatePerBlock","inputs":[],"outputs":[{"name":"","type":"uint256","internalType":"uint256"}],"stateMutability":"view"},{"type":"function","name":"sweepToken","inputs":[{"name":"token","type":"address","internalType":"contract EIP20NonStandardInterface"}],"outputs":[],"stateMutability":"nonpayable"},{"type":"function","name":"symbol","inputs":[],"outputs":[{"name":"","type":"string","internalType":"string"}],"stateMutability":"view"},{"type":"function","name":"totalBorrows","inputs":[],"outputs":[{"name":"","type":"uint256","internalType":"uint256"}],"stateMutability":"view"},{"type":"function","name":"totalBorrowsCurrent","inputs":[],"outputs":[{"name":"","type":"uint256","internalType":"uint256"}],"stateMutability":"nonpayable"},{"type":"function","name":"totalReserves","inputs":[],"outputs":[{"name":"","type":"uint256","internalType":"uint256"}],"stateMutability":"view"},{"type":"function","name":"totalSupply","inputs":[],"outputs":[{"name":"","type":"uint256","internalType":"uint256"}],"stateMutability":"view"},{"type":"function","name":"transfer","inputs":[{"name":"dst","type":"address","internalType":"address"},{"name":"amount","type":"uint256","internalType":"uint256"}],"outputs":[{"name":"","type":"bool","internalType":"bool"}],"stateMutability":"nonpayable"},{"type":"function","name":"transferFrom","inputs":[{"name":"src","type":"address","internalType":"address"},{"name":"dst","type":"address","internalType":"address"},{"name":"amount","type":"uint256","internalType":"uint256"}],"outputs":[{"name":"","type":"bool","internalType":"bool"}],"stateMutability":"nonpayable"},{"type":"function","name":"underlying","inputs":[],"outputs":[{"name":"","type":"address","internalType":"address"}],"stateMutability":"view"},{"type":"event","name":"AccrueInterest","inputs":[{"name":"cashPrior","type":"uint256","indexed":false,"internalType":"uint256"},{"name":"interestAccumulated","type":"uint256","indexed":false,"internalType":"uint256"},{"name":"borrowIndex","type":"uint256","indexed":false,"internalType":"uint256"},{"name":"totalBorrows","type":"uint256","indexed":false,"internalType":"uint256"}],"anonymous":false},{"type":"event","name":"Approval","inputs":[{"name":"owner","type":"address","indexed":true,"internalType":"address"},{"name":"spender","type":"address","indexed":true,"internalType":"address"},{"name":"amount","type":"uint256","indexed":false,"internalType":"uint256"}],"anonymous":false},{"type":"event","name":"Borrow","inputs":[{"name":"borrower","type":"address","indexed":false,"internalType":"address"},{"name":"borrowAmount","type":"uint256","indexed":false,"internalType":"uint256"},{"name":"accountBorrows","type":"uint256","indexed":false,"internalType":"uint256"},{"name":"totalBorrows","type":"uint256","indexed":false,"internalType":"uint256"}],"anonymous":false},{"type":"event","name":"LeverageClose","inputs":[{"name":"_collateral","type":"address","indexed":true,"internalType":"contract CNumaToken"},{"name":"_borrowtorepay","type":"uint256","indexed":false,"internalType":"uint256"}],"anonymous":false},{"type":"event","name":"LeverageOpen","inputs":[{"name":"_collateral","type":"address","indexed":true,"internalType":"contract CNumaToken"},{"name":"_suppliedAmount","type":"uint256","indexed":false,"internalType":"uint256"},{"name":"_borrowAmountVault","type":"uint256","indexed":false,"internalType":"uint256"},{"name":"_borrowAmount","type":"uint256","indexed":false,"internalType":"uint256"}],"anonymous":false},{"type":"event","name":"LiquidateBadDebt","inputs":[{"name":"liquidator","type":"address","indexed":false,"internalType":"address"},{"name":"borrower","type":"address","indexed":false,"internalType":"address"},{"name":"repayAmount","type":"uint256","indexed":false,"internalType":"uint256"},{"name":"cTokenCollateral","type":"address","indexed":false,"internalType":"address"},{"name":"seizeTokens","type":"uint256","indexed":false,"internalType":"uint256"}],"anonymous":false},{"type":"event","name":"LiquidateBorrow","inputs":[{"name":"liquidator","type":"address","indexed":false,"internalType":"address"},{"name":"borrower","type":"address","indexed":false,"internalType":"address"},{"name":"repayAmount","type":"uint256","indexed":false,"internalType":"uint256"},{"name":"cTokenCollateral","type":"address","indexed":false,"internalType":"address"},{"name":"seizeTokens","type":"uint256","indexed":false,"internalType":"uint256"}],"anonymous":false},{"type":"event","name":"Mint","inputs":[{"name":"minter","type":"address","indexed":false,"internalType":"address"},{"name":"mintAmount","type":"uint256","indexed":false,"internalType":"uint256"},{"name":"mintTokens","type":"uint256","indexed":false,"internalType":"uint256"}],"anonymous":false},{"type":"event","name":"NewAdmin","inputs":[{"name":"oldAdmin","type":"address","indexed":false,"internalType":"address"},{"name":"newAdmin","type":"address","indexed":false,"internalType":"address"}],"anonymous":false},{"type":"event","name":"NewComptroller","inputs":[{"name":"oldComptroller","type":"address","indexed":false,"internalType":"contract ComptrollerInterface"},{"name":"newComptroller","type":"address","indexed":false,"internalType":"contract ComptrollerInterface"}],"anonymous":false},{"type":"event","name":"NewMarketInterestRateModel","inputs":[{"name":"oldInterestRateModel","type":"address","indexed":false,"internalType":"contract InterestRateModel"},{"name":"newInterestRateModel","type":"address","indexed":false,"internalType":"contract InterestRateModel"}],"anonymous":false},{"type":"event","name":"NewPendingAdmin","inputs":[{"name":"oldPendingAdmin","type":"address","indexed":false,"internalType":"address"},{"name":"newPendingAdmin","type":"address","indexed":false,"internalType":"address"}],"anonymous":false},{"type":"event","name":"NewReserveFactor","inputs":[{"name":"oldReserveFactorMantissa","type":"uint256","indexed":false,"internalType":"uint256"},{"name":"newReserveFactorMantissa","type":"uint256","indexed":false,"internalType":"uint256"}],"anonymous":false},{"type":"event","name":"Redeem","inputs":[{"name":"redeemer","type":"address","indexed":false,"internalType":"address"},{"name":"redeemAmount","type":"uint256","indexed":false,"internalType":"uint256"},{"name":"redeemTokens","type":"uint256","indexed":false,"internalType":"uint256"}],"anonymous":false},{"type":"event","name":"RepayBorrow","inputs":[{"name":"payer","type":"address","indexed":false,"internalType":"address"},{"name":"borrower","type":"address","indexed":false,"internalType":"address"},{"name":"repayAmount","type":"uint256","indexed":false,"internalType":"uint256"},{"name":"accountBorrows","type":"uint256","indexed":false,"internalType":"uint256"},{"name":"totalBorrows","type":"uint256","indexed":false,"internalType":"uint256"}],"anonymous":false},{"type":"event","name":"ReservesAdded","inputs":[{"name":"benefactor","type":"address","indexed":false,"internalType":"address"},{"name":"addAmount","type":"uint256","indexed":false,"internalType":"uint256"},{"name":"newTotalReserves","type":"uint256","indexed":false,"internalType":"uint256"}],"anonymous":false},{"type":"event","name":"ReservesReduced","inputs":[{"name":"admin","type":"address","indexed":false,"internalType":"address"},{"name":"reduceAmount","type":"uint256","indexed":false,"internalType":"uint256"},{"name":"newTotalReserves","type":"uint256","indexed":false,"internalType":"uint256"}],"anonymous":false},{"type":"event","name":"SetVault","inputs":[{"name":"vaultAddress","type":"address","indexed":false,"internalType":"address"}],"anonymous":false},{"type":"event","name":"Transfer","inputs":[{"name":"from","type":"address","indexed":true,"internalType":"address"},{"name":"to","type":"address","indexed":true,"internalType":"address"},{"name":"amount","type":"uint256","indexed":false,"internalType":"uint256"}],"anonymous":false},{"type":"event","name":"UpdateRate","inputs":[{"name":"oldFullUtilizationRate","type":"uint256","indexed":false,"internalType":"uint256"},{"name":"newFullUtilizationRate","type":"uint256","indexed":false,"internalType":"uint256"}],"anonymous":false},{"type":"error","name":"AcceptAdminPendingAdminCheck","inputs":[]},{"type":"error","name":"AddReservesFactorFreshCheck","inputs":[{"name":"actualAddAmount","type":"uint256","internalType":"uint256"}]},{"type":"error","name":"AddressEmptyCode","inputs":[{"name":"target","type":"address","internalType":"address"}]},{"type":"error","name":"AddressInsufficientBalance","inputs":[{"name":"account","type":"address","internalType":"address"}]},{"type":"error","name":"BorrowCashNotAvailable","inputs":[]},{"type":"error","name":"BorrowComptrollerRejection","inputs":[{"name":"errorCode","type":"uint256","internalType":"uint256"}]},{"type":"error","name":"BorrowFreshnessCheck","inputs":[]},{"type":"error","name":"FailedInnerCall","inputs":[]},{"type":"error","name":"LiquidateAccrueBorrowInterestFailed","inputs":[{"name":"errorCode","type":"uint256","internalType":"uint256"}]},{"type":"error","name":"LiquidateAccrueCollateralInterestFailed","inputs":[{"name":"errorCode","type":"uint256","internalType":"uint256"}]},{"type":"error","name":"LiquidateCloseAmountIsUintMax","inputs":[]},{"type":"error","name":"LiquidateCloseAmountIsZero","inputs":[]},{"type":"error","name":"LiquidateCollateralFreshnessCheck","inputs":[]},{"type":"error","name":"LiquidateComptrollerRejection","inputs":[{"name":"errorCode","type":"uint256","internalType":"uint256"}]},{"type":"error","name":"LiquidateFreshnessCheck","inputs":[]},{"type":"error","name":"LiquidateLiquidatorIsBorrower","inputs":[]},{"type":"error","name":"LiquidateRepayBorrowFreshFailed","inputs":[{"name":"errorCode","type":"uint256","internalType":"uint256"}]},{"type":"error","name":"LiquidateSeizeComptrollerRejection","inputs":[{"name":"errorCode","type":"uint256","internalType":"uint256"}]},{"type":"error","name":"LiquidateSeizeLiquidatorIsBorrower","inputs":[]},{"type":"error","name":"MintComptrollerRejection","inputs":[{"name":"errorCode","type":"uint256","internalType":"uint256"}]},{"type":"error","name":"MintFreshnessCheck","inputs":[]},{"type":"error","name":"RedeemComptrollerRejection","inputs":[{"name":"errorCode","type":"uint256","internalType":"uint256"}]},{"type":"error","name":"RedeemFreshnessCheck","inputs":[]},{"type":"error","name":"RedeemTransferOutNotPossible","inputs":[]},{"type":"error","name":"ReduceReservesAdminCheck","inputs":[]},{"type":"error","name":"ReduceReservesCashNotAvailable","inputs":[]},{"type":"error","name":"ReduceReservesCashValidation","inputs":[]},{"type":"error","name":"ReduceReservesFreshCheck","inputs":[]},{"type":"error","name":"RepayBorrowComptrollerRejection","inputs":[{"name":"errorCode","type":"uint256","internalType":"uint256"}]},{"type":"error","name":"RepayBorrowFreshnessCheck","inputs":[]},{"type":"error","name":"SafeERC20FailedOperation","inputs":[{"name":"token","type":"address","internalType":"address"}]},{"type":"error","name":"SetComptrollerOwnerCheck","inputs":[]},{"type":"error","name":"SetInterestRateModelFreshCheck","inputs":[]},{"type":"error","name":"SetInterestRateModelOwnerCheck","inputs":[]},{"type":"error","name":"SetPendingAdminOwnerCheck","inputs":[]},{"type":"error","name":"SetReserveFactorAdminCheck","inputs":[]},{"type":"error","name":"SetReserveFactorBoundsCheck","inputs":[]},{"type":"error","name":"SetReserveFactorFreshCheck","inputs":[]},{"type":"error","name":"TransferComptrollerRejection","inputs":[{"name":"errorCode","type":"uint256","internalType":"uint256"}]},{"type":"error","name":"TransferNotAllowed","inputs":[]},{"type":"error","name":"TransferNotEnough","inputs":[]},{"type":"error","name":"TransferTooMuch","inputs":[]}],"bytecode":{"object":"0x608080604052346200044257620058c08038038091620000208285620007b6565b83398101906101408183031262000442576200003c81620007da565b6020820151916001600160a01b0383168303620004425760408101516001600160a01b03811681036200044257606082015160808301519095906001600160401b03811162000442578162000093918501620007ef565b60a084015190916001600160401b0382116200044257620000b6918501620007ef565b9160c08401519560ff87168703620004425760e0850151610100860151959091906001600160a01b03871687036200044257610120620000f79101620007da565b60038054610100600160a81b03191633600881811b610100600160a81b03169290921792839055929b9291901c6001600160a01b03169003620007655760095415806200075a575b1562000709578060075515620006ab57600554604051623f1ee960e11b815291906020836004816001600160a01b0386165afa9182156200044f57620001b36040937f7ac369dbd14fa5ea3f473ed67cc9d598964a77501540ba6751eb0b3decf5870d9560009162000675575b5062000880565b6001600160a01b031982166001600160a01b0391821690811760055583519290911682526020820152a143600955670de0b6b3a7640000600c5542600a55600b556006546040516310c8fc9560e11b815291906020836004816001600160a01b0386165afa9182156200044f57620002586040937fedffc32e068c7c95dfd4bdfd5c4d939a084d6b11c4199eac8436ed234d72f9269560009162000675575062000880565b6001600160a01b031982166001600160a01b0391821690811760065583519290911682526020820152a18051906001600160401b038211620005665760015490600182811c921680156200066a575b6020831014620005455781601f84931162000606575b50602090601f831160011462000588576000926200057c575b50508160011b916000199060031b1c1916176001555b8051906001600160401b038211620005665760025490600182811c921680156200055b575b6020831014620005455781601f849311620004e1575b50602090601f831160011462000467576000926200045b575b50508160011b916000199060031b1c1916176002555b6004602060035493600160ff1960ff881681881617600355600054161760005560018060a01b03168060018060a01b03196013541617601355604051928380926318160ddd60e01b82525afa80156200044f5762000419575b506001600160a81b031990911660ff929092169190911760089190911b610100600160a81b0316176003556001601555655af3107a4000601655601480546001600160a01b0319166001600160a01b0392909216919091179055604051614fb29081620008ce8239f35b602090813d831162000447575b620004328183620007b6565b81010312620004425738620003af565b600080fd5b503d62000426565b6040513d6000823e3d90fd5b01519050388062000340565b60026000908152600080516020620058808339815191529350601f198516905b818110620004c85750908460019594939210620004ae575b505050811b0160025562000356565b015160001960f88460031b161c191690553880806200049f565b9293602060018192878601518155019501930162000487565b600260005290915060008051602062005880833981519152601f840160051c810191602085106200053a575b90601f859493920160051c01905b8181106200052a575062000327565b600081558493506001016200051b565b90915081906200050d565b634e487b7160e01b600052602260045260246000fd5b91607f169162000311565b634e487b7160e01b600052604160045260246000fd5b015190503880620002d6565b600160009081529350600080516020620058a083398151915291905b601f1984168510620005ea576001945083601f19811610620005d0575b505050811b01600155620002ec565b015160001960f88460031b161c19169055388080620005c1565b81810151835560209485019460019093019290910190620005a4565b6001600052909150600080516020620058a0833981519152601f840160051c810191602085106200065f575b90601f859493920160051c01905b8181106200064f5750620002bd565b6000815584935060010162000640565b909150819062000632565b91607f1691620002a7565b6200069c915060203d602011620006a3575b620006938183620007b6565b81019062000866565b38620001ac565b503d62000687565b60405162461bcd60e51b815260206004820152603060248201527f696e697469616c2065786368616e67652072617465206d75737420626520677260448201526f32b0ba32b9103a3430b7103d32b9379760811b6064820152608490fd5b60405162461bcd60e51b815260206004820152602360248201527f6d61726b6574206d6179206f6e6c7920626520696e697469616c697a6564206f6044820152626e636560e81b6064820152608490fd5b50600c54156200013f565b60405162461bcd60e51b8152602060048201526024808201527f6f6e6c792061646d696e206d617920696e697469616c697a6520746865206d616044820152631c9ad95d60e21b6064820152608490fd5b601f909101601f19168101906001600160401b038211908210176200056657604052565b51906001600160a01b03821682036200044257565b919080601f8401121562000442578251906001600160401b0382116200056657604051916020916200082b601f8301601f1916840185620007b6565b818452828287010111620004425760005b8181106200085257508260009394955001015290565b85810183015184820184015282016200083c565b908160209103126200044257518015158103620004425790565b156200088857565b60405162461bcd60e51b815260206004820152601c60248201527f6d61726b6572206d6574686f642072657475726e65642066616c7365000000006044820152606490fdfe6080604052600436101561001257600080fd5b60003560e01c8062c2aaee146103e157806306fdde03146103dc578063091a57a5146103d7578063095ea7b3146103d25780630e752702146103cd578063173b9904146103c857806317bfdfbc146103c357806318160ddd146103be578063182df0f5146103b95780631be19560146103b457806323b872dd146103af5780632608f818146103aa57806326782247146103a5578063313ce567146103a05780633af9e6691461039b5780633b1d21a2146103965780633d5d1d99146103915780633e9410101461038c5780634576b5db1461038757806347bd3718146103825780635fe3b5671461037d578063601a0bf1146103785780636752e7021461036e5780636817031b1461037357806369ab32501461036e5780636c540baf146103695780636f307dc31461036457806370a082311461035f57806372a4b3ba1461035a57806373acee98146103555780637f1e06be14610350578063852a12e31461034b578063889bcdc6146103465780638f840ddd1461034157806395d89b411461033c57806395dd9193146103375780639af6702e14610332578063a0712d681461032d578063a6afed9514610328578063a9059cbb14610323578063aa5af0fd1461031e578063ae9d70b014610319578063b2a02ff114610314578063b71d1a0c1461030f578063bd6d894d1461030a578063c37f68e214610305578063c5ebeaec14610300578063cfa99201146102fb578063db006a75146102f6578063dd62ed3e146102f1578063e3a71473146102ec578063e9c714f2146102e7578063f2b3abbd146102e2578063f331b0ec146102dd578063f3fdb15a146102d8578063f5e3c462146102d3578063f851a440146102ce578063f8f9da28146102c9578063fca7820b146102c4578063fd056d17146102bf5763fe9c44ae146102ba57600080fd5b612ab7565b612a80565b61299a565b6128c9565b61289c565b6127e0565b6127b7565b612799565b612769565b612641565b612547565b6124e4565b612431565b612413565b6123c8565b612364565b612349565b61229a565b612264565b612197565b612179565b612131565b612116565b611f59565b611ec8565b611ea1565b611dfa565b611ddc565b611cf1565b611a98565b611a17565b6119cf565b611986565b611949565b611920565b611902565b611869565b611885565b611732565b611709565b6116eb565b6116c4565b6115f4565b611572565b6114e5565b61147b565b61145a565b611431565b6113e3565b611399565b611265565b611242565b611224565b6111c8565b6111aa565b611155565b6110c6565b610b66565b610a83565b6103fc565b6001600160a01b038116036103f757565b600080fd5b346103f7576040806003193601126103f7576004803561041b816103e6565b8251636f307dc360e01b81526001600160a01b039182169360243591602090818187818a5afa9081156108265760009161095b575b506104596137b0565b5061046d8461046733613697565b11612e50565b6014805490919061048e906001600160a01b03165b6001600160a01b031690565b95863b156103f75784516309a5abaf60e11b815280890187815260016020820152909760009189919082908490829060400103925af19687156108265761051d97610948575b506104df8633613e44565b8254849087906104f7906001600160a01b0316610482565b87516301c48f3b60e31b8152808c0192835260016020840152998a928391829160400190565b03915afa96871561082657600097610929575b50845163bd6d894d60e01b815284818a8160008e5af180156108265761055f9160009161090c575b5088612d80565b9161056c8330338d614e0a565b85516370a0823160e01b808252308b83019081529390921693928690829081906020010381875afa9283156108265786916000946108e7575b50875163db006a7560e01b8152808c01918252919082908d90829060009082906020015b03925af18015610826576108ca575b508551908152308982019081528590829081906020010381865afa9081156108265789936106208a610619610666968a9683966000916108ad575b50612d15565b1015612e88565b8554610634906001600160a01b0316610482565b6000895180968195829463095ea7b360e01b9a8b8552840160209093929193604081019460018060a01b031681520152565b03925af18015610826576106c39785928892610890575b508454610692906001600160a01b0316610482565b9060008b89519b8c9586948593638f4b962560e01b8552840160409060019294936060820195825260208201520152565b03925af195861561082657600096610859575b506013548593929183916106f490610482906001600160a01b031681565b83548a9060009061070d906001600160a01b0316610482565b89519485526001600160a01b0316918401918252602082019790975291958692839190829060400103925af19182156108265761075c936104829361082b575b5050546001600160a01b031690565b803b156103f7578151630164e84f60e51b8152600195810195865294600091869182908490829060200103925af1928315610826577f5f6909a82162596722a5e14496b5ca56b573b7c08a42b4182bf7622b5a65e318946107d49461080d575b508281116107d9575b50519081529081906020820190565b0390a2005b60135461080791906107ff9085906107f9906001600160a01b0316610482565b92612d15565b903390614dc2565b386107c5565b8061081a610820926109e3565b80610988565b386107bc565b612ae2565b8161084a92903d10610852575b6108428183610a18565b810190612cfd565b50388061074d565b503d610838565b83929196509261087f8694823d8411610889575b6108778183610a18565b810190612ad3565b96919293506106d6565b503d61086d565b6108a690843d8611610852576108428183610a18565b503861067d565b6108c49150883d8a11610889576108778183610a18565b38610613565b6108e090863d8811610889576108778183610a18565b50386105d8565b82919450610904906105c9933d8411610889576108778183610a18565b9390916105a5565b6109239150863d8811610889576108778183610a18565b38610558565b610941919750843d8611610889576108778183610a18565b9538610530565b8061081a610955926109e3565b386104d4565b61097b9150823d8411610981575b6109738183610a18565b810190612cc2565b38610450565b503d610969565b60009103126103f757565b90600182811c921680156109c3575b60208310146109ad57565b634e487b7160e01b600052602260045260246000fd5b91607f16916109a2565b634e487b7160e01b600052604160045260246000fd5b67ffffffffffffffff81116109f757604052565b6109cd565b6020810190811067ffffffffffffffff8211176109f757604052565b90601f8019910116810190811067ffffffffffffffff8211176109f757604052565b6020808252825181830181905290939260005b828110610a6f57505060409293506000838284010152601f8019910116010190565b818101860151848201604001528501610a4d565b346103f757600080600319360112610b635760405190806001805491610aa883610993565b80865292828116908115610b395750600114610adf575b610adb85610acf81870382610a18565b60405191829182610a3a565b0390f35b92508083527fb10e2d527612073b26eecdfd717e6a320cf44b4afac2b0732d9fcbe2b7fa0cf65b828410610b21575050508101602001610acf82610adb610abf565b80546020858701810191909152909301928101610b06565b869550610adb96935060209250610acf94915060ff191682840152151560051b8201019293610abf565b80fd5b346103f75760603660031901126103f75760046044356024358235610b8a836103e6565b60408051636f307dc360e01b81526001600160a01b0394851695602095909290868385818b5afa928315610826576000936110a7575b5060148054909390610bda906001600160a01b0316610482565b803b156103f75783516309a5abaf60e11b81528681018981526000602082018190529192839182908490829060400103925af1801561082657611094575b5016610c2685303384614e0a565b610c308686612cf0565b82516370a0823160e01b808252308783019081529199929183908b90819003602001818e5afa918215610826578b9a600093611075575b50855163095ea7b360e01b8082526001600160a01b03909c16898201908152602081018390529091908590839081906040010381895a90600091f190811561082657610cd7928692611058575b508d8a60008a5180968195829463140e25ad60e31b845283019190602083019252565b03925af180156108265761103b575b5084519081523087820190815283908290819003602001818e5afa91821561082657610d2f92610d1d926000916110245750612d15565b610d28811515612d22565b338b614dc2565b8354610d43906001600160a01b0316610482565b83516301c48f3b60e31b81528681018981526000602082015290959183918791908290819060400103915afa94851561082657610e4a95610da591600091611007575b50610d9f610d9660155483612d6d565b60165490612d80565b90612cf0565b98610df08a610dea610dc93360018060a01b03166000526012602052604060002090565b54610dd43384612e11565b3360009081526012602052604090205b54612d15565b14612da0565b60135483908b90610e0b90610482906001600160a01b031681565b8454610e1f906001600160a01b0316610482565b60008b8a519b8c95869485938a8552840160209093929193604081019460018060a01b031681520152565b03925af1958615610826578a96610fea575b5081548551638f4b962560e01b81528881019b8c5260208c018b9052600060408d01529a84918c918290036060019082906001600160a01b03165a90600091f1998a156108265760009a610fc3575b508154899392918391610ec6906001600160a01b0316610482565b87519182526001600160a01b03168982019081526020810195909552938490819060400103816000885af191821561082657610f13936104829361082b575050546001600160a01b031690565b803b156103f7578251630164e84f60e51b81526000958101868152909591869182908490829060200103925af1908115610826577f242797a9cf3b15d6da47c6fb21848e30c43b12d06aab0880c8c9c8af51e4201c976107d4958893610fb0575b50828111610f9b575b50505051938493846040919493926060820195825260208201520152565b610fa8926107ff91612d15565b843880610f7d565b8061081a610fbd926109e3565b38610f74565b8392919a5092610fe08a94823d8411610889576108778183610a18565b9a91929350610eab565b61100090843d8611610852576108428183610a18565b5038610e5c565b61101e9150843d8611610889576108778183610a18565b38610d86565b6108c49150853d8711610889576108778183610a18565b61105190843d8611610889576108778183610a18565b5038610ce6565b61106e90833d8511610852576108428183610a18565b5038610cb4565b61108d919350843d8611610889576108778183610a18565b9138610c67565b8061081a6110a1926109e3565b38610c18565b6110bf919350873d8911610981576109738183610a18565b9138610bc0565b346103f75760403660031901126103f7576004356110e3816103e6565b60243590336000526011602052816111118260406000209060018060a01b0316600052602052604060002090565b556040519182526001600160a01b03169033907f8c5be1e5ebec7d5bd14f71427d1e84f3dd0314c0f7b2291e5b200ac8c7c3b92590602090a3602060405160018152f35b346103f75760203660031901126103f757600160005461117760ff8216612dd8565b60ff199081166000556111886137b0565b506111966004353333613e7d565b506000541617600055602060405160008152f35b346103f75760003660031901126103f7576020600854604051908152f35b346103f75760203660031901126103f75760206004356111e7816103e6565b6001611213600054926111fc60ff8516612dd8565b60ff1993841660005561120d6137b0565b50613697565b916000541617600055604051908152f35b346103f75760003660031901126103f7576020600f54604051908152f35b346103f75760003660031901126103f757602061125d613710565b604051908152f35b346103f75760203660031901126103f757600435611282816103e6565b60035460081c6001600160a01b0316906001600160a01b03906112a83383851614612b5c565b601354911691906112cd906112c5906001600160a01b0316610482565b831415612bc0565b6040516370a0823160e01b8152306004820152602081602481865afa9081156108265760009161134f575b50823b156103f75760405163a9059cbb60e01b81526001600160a01b0390921660048301526024820152906000908290818381604481015b03925af180156108265761134057005b8061081a61134d926109e3565b005b611367915060203d8111610889576108778183610a18565b386112f8565b60609060031901126103f757600435611385816103e6565b90602435611392816103e6565b9060443590565b346103f75760206113d160016113ae3661136d565b90600094929454946113c260ff8716612dd8565b60ff1995861660005533613438565b15916000541617600055604051908152f35b346103f75760403660031901126103f7576001600435611402816103e6565b6111966000549161141560ff8416612dd8565b60ff199283166000556114266137b0565b506024359033613e7d565b346103f75760003660031901126103f7576004546040516001600160a01b039091168152602090f35b346103f75760003660031901126103f757602060ff60035416604051908152f35b346103f75760203660031901126103f7576020670de0b6b3a76400006114db6004356114a6816103e6565b6114ae6136d9565b90604051916114bc836109fc565b82526001600160a01b0316600090815260108552604090205490614d66565b5104604051908152f35b346103f75760003660031901126103f757602061125d613641565b6040519061150d826109fc565b565b67ffffffffffffffff81116109f757601f01601f191660200190565b81601f820112156103f7578035906115428261150f565b926115506040519485610a18565b828452602083830101116103f757816000926020809301838601378301015290565b346103f75760e03660031901126103f75760043561158f816103e6565b60243561159b816103e6565b67ffffffffffffffff6064358181116103f7576115bc90369060040161152b565b906084359081116103f7576115d590369060040161152b565b60a4359160ff831683036103f75761134d9460c4359460443591613318565b346103f75760203660031901126103f75760005461161460ff8216612dd8565b60ff19166000556116236137b0565b5060095443036116ab5761163960043533613a29565b600e548181018091116116a657600e8190556040805133815260208101939093528201527fa91e67c5ea634cd43a12c5a482724b03de01e85ca68702a53d0c2f45cb7c1dc59080606081015b0390a161169a600160ff196000541617600055565b60405160008152602090f35b612cda565b6040516338acf79960e01b815260006004820152602490fd5b346103f75760203660031901126103f757602061125d6004356116e6816103e6565b614ba0565b346103f75760003660031901126103f7576020600d54604051908152f35b346103f75760003660031901126103f7576005546040516001600160a01b039091168152602090f35b346103f75760203660031901126103f75760043560005461175560ff8216612dd8565b60ff19166000556117646137b0565b5060035461177d9060081c6001600160a01b0316610482565b33036118575760095443036118455780611795613641565b1061183357600e5490818111611821576117d0817f3bad0c59cf2f06e7314077049f48a93578cd16f5ef92329f1dab1420a99c177e93612d15565b6117d981600e55565b6003546117f390839060081c6001600160a01b0316613bd2565b6003546040805160089290921c6001600160a01b031682526020820193909352918201528060608101611685565b6040516378d2980560e11b8152600490fd5b604051633345e99960e01b8152600490fd5b604051630dff50cb60e41b8152600490fd5b604051630f7e5e6d60e41b8152600490fd5b346103f75760003660031901126103f757602060405160008152f35b346103f75760203660031901126103f7577fd459c7242e23d490831b5676a611c4342d899d28f342d89ae80793e56a930f3060206004356118c5816103e6565b60018060a01b03906118df8260035460081c163314612c89565b16806bffffffffffffffffffffffff60a01b6014541617601455604051908152a1005b346103f75760003660031901126103f7576020600954604051908152f35b346103f75760003660031901126103f7576013546040516001600160a01b039091168152602090f35b346103f75760203660031901126103f757600435611966816103e6565b60018060a01b031660005260106020526020604060002054604051908152f35b346103f75760016119bc6119993661136d565b90600093929354936119ad60ff8616612dd8565b60ff1994851660005533614a28565b6000541617600055602060405160008152f35b346103f757600080600319360112610b635780546020916119f260ff8316612dd8565b60ff199182168155611a026137b0565b506001600d5492825416179055604051908152f35b346103f75760203660031901126103f757600435611a34816103e6565b611a4c60018060a01b0360035460081c163314612c27565b601354611a6390610482906001600160a01b031681565b803b156103f7576040516317066a5760e21b81526001600160a01b038316600482015290600090829081838160248101611330565b346103f75760203660031901126103f7576004803590600090815490611ac060ff8316612dd8565b60ff199182168355611ad06137b0565b50611aed611adc613710565b611ae4611500565b90815285614d9d565b600554909190611b05906001600160a01b0316610482565b6040805163eabe7d9160e01b81523084820190815233602082810191909152818401879052929893919291839182908a90829060600103925af1908115610826578691611cd3575b5080611cb757506009544303611ca85780611b66613641565b10611c9957611b7f611b7a84600f54612d15565b600f55565b336000908152601060205260409020611b99908490610de4565b33600090815260106020526040902055611bb38133613bd2565b855183815230903390600080516020614f5d83398151915290602090a3855133815260208101829052604081018490527fe5b754fb1abb7f01b499791d0b820ae3b6af3424ac1c59768edb53f4ec31a92990606090a1600554611c1e906001600160a01b0316610482565b91823b15611c955786516351dff98960e01b8152309181019182523360208301526040820192909252606081019390935292918491849182908490829060800103925af191821561082657600192611c82575b508254161790555160008152602090f35b8061081a611c8f926109e3565b38611c71565b8580fd5b5084516391240a1b60e01b8152fd5b5084516397b5cfcd60e01b8152fd5b865163480f424760e01b81528084019182529081906020010390fd5b611ceb915060203d8111610889576108778183610a18565b38611b4d565b346103f75760803660031901126103f7576000600435611d10816103e6565b60643590611d1d826103e6565b602060018060a01b03611d3581601454163314612ec8565b8454611d4360ff8216612dd8565b60ff19168555611d516137b0565b5060046040518096819363a6afed9560e01b835287165af192831561082657600093611dbc575b5082611da357611d9192506044359060243590336144cb565b61169a600160ff196000541617600055565b604051633eea49b760e11b815260048101849052602490fd5b611dd591935060203d8111610889576108778183610a18565b9138611d78565b346103f75760003660031901126103f7576020600e54604051908152f35b346103f757600080600319360112610b63576040519080600254611e1d81610993565b80855291600191808316908115610b395750600114611e4657610adb85610acf81870382610a18565b9250600283527f405787fa12a823e0f2b7631cc41b3ba8828b3321ca811111fa75cd3aa3bb5ace5b828410611e89575050508101602001610acf82610adb610abf565b80546020858701810191909152909301928101611e6e565b346103f75760203660031901126103f757602061125d600435611ec3816103e6565b613697565b346103f7576101003660031901126103f757600435611ee6816103e6565b602435611ef2816103e6565b60443591611eff836103e6565b67ffffffffffffffff6084358181116103f757611f2090369060040161152b565b9060a4359081116103f757611f3990369060040161152b565b9060c4359260ff841684036103f75761134d9560e4359560643592612aee565b346103f75760203660031901126103f757600435600054611f7c60ff8216612dd8565b60ff1916600055611f8b6137b0565b50600554611fa1906001600160a01b0316610482565b60408051634ef4c3e160e01b815230600482015233602482015260448101849052909291602090829060649082906000905af1908115610826576000916120f8575b50806120df575060095443036120ce577f4c209b5fc8ad50758f13e2e1088ba56a560dff690a1c6fef26394f4c03821c4f61203b612034612022613710565b9361202b611500565b94855233613a29565b9283614d9d565b809261204c611b7a83600f54612cf0565b3360009081526010602052604090206120689083905b54612cf0565b3360009081526010602052604090205584513381526020810191909152604081019190915280606081010390a1815190815233903090600080516020614f5d83398151915290602090a36120c4600160ff196000541617600055565b5160008152602090f35b81516338d8859760e01b8152600490fd5b82516349abd4fd60e01b81526004810191909152602490fd5b612110915060203d8111610889576108778183610a18565b38611fe3565b346103f75760003660031901126103f757602061125d6137b0565b346103f75760403660031901126103f7576020600435612150816103e6565b60016113d16000549261216560ff8516612dd8565b60ff19938416600055602435903380613438565b346103f75760003660031901126103f7576020600c54604051908152f35b346103f75760003660031901126103f757600a5442034281116116a6576006546020906121cc906001600160a01b0316610482565b6121d4613641565b600d54600e54600854600b546040516333d7bb6560e01b81526004810195909552602485019390935260448401919091526064830152608482019490945260a4810193909352829060c49082905afa801561082657610adb91600091612246575b506040519081529081906020820190565b61225e915060203d8111610889576108778183610a18565b38612235565b346103f75760016119bc6122773661136d565b906000939293549361228b60ff8616612dd8565b60ff1994851660005533614822565b346103f75760203660031901126103f7576004356122b7816103e6565b6003546001600160a01b039060081c8116330361233757600480548383166001600160a01b031982161790915560408051929091166001600160a01b03908116835290921660208201527fca4f2f25d0898edd99413412fb94012f9e54ec8142f9b093e7720646a95b16a991819081015b0390a160405160008152602090f35b604051635cb56c2b60e01b8152600490fd5b346103f75760003660031901126103f757602061125d6136d9565b346103f75760203660031901126103f7576080600435612383816103e6565b6001600160a01b038116600090815260106020526040902054906123a690613697565b6123ae613710565b906040519260008452602084015260408301526060820152f35b346103f75760203660031901126103f75760016004356119bc600054916123f160ff8416612dd8565b60ff199283166000556124026137b0565b5061240d8133613ca7565b33613bd2565b346103f75760003660031901126103f7576020600a54604051908152f35b346103f75760203660031901126103f7576004803560009081549061245860ff8316612dd8565b60ff1991821683556124686137b0565b50801590811591826124dc575b61247e90613b69565b612486613710565b9161248f611500565b928352156124cb576124a5816124b49293614d66565b670de0b6b3a764000090510490565b935b600554611b05906001600160a01b0316610482565b506124d590614d92565b82936124b6565b506001612475565b346103f75760403660031901126103f757602061253e600435612506816103e6565b60243590612513826103e6565b60018060a01b03166000526011835260406000209060018060a01b0316600052602052604060002090565b54604051908152f35b346103f75760403660031901126103f757600435612564816103e6565b601454612579906001600160a01b0316610482565b6040516301c48f3b60e31b81526024803560048301526001908201526020918290829060449082905afa908115610826576004938391600093612622575b5060405163182df0f560e01b815294859182906001600160a01b03165afa90811561082657610adb936125f393600093612603575b5050612d80565b6040519081529081906020820190565b61261a929350803d10610889576108778183610a18565b9038806125ec565b61263a919350823d8411610889576108778183610a18565b91386125b7565b346103f75760003660031901126103f7576004546001600160a01b031680338114801590612761575b61274f576003547fca4f2f25d0898edd99413412fb94012f9e54ec8142f9b093e7720646a95b16a9927ff9ffabca9c8276e99321725bcb43fb076a6c66a54b7f21c4e8146d8519b417dc916126f6906126ce9060081c6001600160a01b0316610482565b60038054610100600160a81b03191660089490941b610100600160a81b031693909317909255565b600480546001600160a01b0319169055600354604080516001600160a01b03938416815260089290921c9092166020820152a1600454604080516001600160a01b03938416815292909116602083015281908101612328565b604051631ba24f2960e21b8152600490fd5b50331561266a565b346103f75760203660031901126103f757602061125d60043561278b816103e6565b6127936137b0565b50614c94565b346103f75760003660031901126103f7576020600b54604051908152f35b346103f75760003660031901126103f7576006546040516001600160a01b039091168152602090f35b346103f75760603660031901126103f75760006004356127ff816103e6565b6044359061280c826103e6565b602060018060a01b0361282481601454163314612ec8565b845461283260ff8216612dd8565b60ff191685556128406137b0565b5060046040518096819363a6afed9560e01b835287165af19283156108265760009361287c575b5082611da357611d9192506024359033614154565b61289591935060203d8111610889576108778183610a18565b9138612867565b346103f75760003660031901126103f75760035460405160089190911c6001600160a01b03168152602090f35b346103f75760003660031901126103f757600a5442034281116116a6576006546040906128fe906001600160a01b0316610482565b612906613641565b600d54600e54600b54855163108e627960e21b815260048101949094526024840192909252604483015260648201949094526084810193909352829060a49082905afa801561082657610adb9160009161296b57506040519081529081906020820190565b61298c915060403d8111612993575b6129848183610a18565b81019061362b565b5038612235565b503d61297a565b346103f75760203660031901126103f7576004356000546129bd60ff8216612dd8565b60ff19166000556129cc6137b0565b506003546129e59060081c6001600160a01b0316610482565b3303612a6e576009544303612a5c57670de0b6b3a76400008111612a4a577faaa68312e2ea9d50e16af5068410ab56e1a1fd06037b1a35664812c30f82146090600854612a3182600855565b6040805191825260208201929092529081908101611685565b60405163717220f360e11b8152600490fd5b604051637dfca6b760e11b8152600490fd5b604051631205b57b60e11b8152600490fd5b346103f75760403660031901126103f757612aa960018060a01b0360035460081c163314612c89565b600435601555602435601655005b346103f75760003660031901126103f757602060405160018152f35b908160209103126103f7575190565b6040513d6000823e3d90fd5b9490936004979360209793612b0296613318565b601380546001600160a01b0319166001600160a01b039290921691821790556040516318160ddd60e01b815292839182905afa801561082657612b425750565b612b599060203d8111610889576108778183610a18565b50565b15612b6357565b60405162461bcd60e51b815260206004820152602f60248201527f4345726332303a3a7377656570546f6b656e3a206f6e6c792061646d696e206360448201526e616e20737765657020746f6b656e7360881b6064820152608490fd5b15612bc757565b60405162461bcd60e51b815260206004820152603260248201527f4345726332303a3a7377656570546f6b656e3a2063616e206e6f74207377656560448201527138103ab73232b9363cb4b733903a37b5b2b760711b6064820152608490fd5b15612c2e57565b60405162461bcd60e51b815260206004820152602d60248201527f6f6e6c79207468652061646d696e206d6179207365742074686520636f6d702d60448201526c6c696b652064656c656761746560981b6064820152608490fd5b15612c9057565b60405162461bcd60e51b815260206004820152600a60248201526937b7363c9030b236b4b760b11b6044820152606490fd5b908160209103126103f75751612cd7816103e6565b90565b634e487b7160e01b600052601160045260246000fd5b919082018092116116a657565b908160209103126103f7575180151581036103f75790565b919082039182116116a657565b15612d2957565b60405162461bcd60e51b815260206004820152600d60248201526c1b9bc818dbdb1b185d195c985b609a1b6044820152606490fd5b9060016000921517156116a657565b818102929181159184041417156116a657565b8115612d8a570490565b634e487b7160e01b600052601260045260246000fd5b15612da757565b60405162461bcd60e51b8152602060048201526009602482015268626f72726f77206b6f60b81b6044820152606490fd5b15612ddf57565b60405162461bcd60e51b815260206004820152600a6024820152691c994b595b9d195c995960b21b6044820152606490fd5b90612e4660019260005492612e2860ff8516612dd8565b60ff19938416600055612e396137b0565b50848060a01b0316613ca7565b6000541617600055565b15612e5757565b60405162461bcd60e51b81526020600482015260096024820152686e6f20626f72726f7760b81b6044820152606490fd5b15612e8f57565b60405162461bcd60e51b81526020600482015260116024820152706e6f7420656e6f7567682072656465656d60781b6044820152606490fd5b15612ecf57565b60405162461bcd60e51b815260206004820152600a6024820152697661756c74206f6e6c7960b01b6044820152606490fd5b15612f0857565b60405162461bcd60e51b815260206004820152602360248201527f6d61726b6574206d6179206f6e6c7920626520696e697469616c697a6564206f6044820152626e636560e81b6064820152608490fd5b15612f6057565b60405162461bcd60e51b815260206004820152603060248201527f696e697469616c2065786368616e67652072617465206d75737420626520677260448201526f32b0ba32b9103a3430b7103d32b9379760811b6064820152608490fd5b15612fc557565b60405162461bcd60e51b815260206004820152601a60248201527f73657474696e6720636f6d7074726f6c6c6572206661696c65640000000000006044820152606490fd5b1561301157565b60405162461bcd60e51b815260206004820152602260248201527f73657474696e6720696e7465726573742072617465206d6f64656c206661696c604482015261195960f21b6064820152608490fd5b90601f821161306e575050565b6001916000908382527fb10e2d527612073b26eecdfd717e6a320cf44b4afac2b0732d9fcbe2b7fa0cf6906020601f850160051c830194106130cb575b601f0160051c01915b8281106130c15750505050565b81815583016130b4565b90925082906130ab565b601f81116130e1575050565b600090600282527f405787fa12a823e0f2b7631cc41b3ba8828b3321ca811111fa75cd3aa3bb5ace906020601f850160051c8301941061313c575b601f0160051c01915b82811061313157505050565b818155600101613125565b909250829061311c565b90815167ffffffffffffffff81116109f75760019061316e816131698454610993565b613061565b602080601f83116001146131a957508192939460009261319e575b5050600019600383901b1c191690821b179055565b015190503880613189565b90601f198316956131dc60016000527fb10e2d527612073b26eecdfd717e6a320cf44b4afac2b0732d9fcbe2b7fa0cf690565b926000905b88821061321757505083859697106131fe575b505050811b019055565b015160001960f88460031b161c191690553880806131f4565b8087859682949686015181550195019301906131e1565b90815167ffffffffffffffff81116109f7576132548161324f600254610993565b6130d5565b602080601f83116001146132905750819293600092613285575b50508160011b916000199060031b1c191617600255565b01519050388061326e565b90601f198316946132c360026000527f405787fa12a823e0f2b7631cc41b3ba8828b3321ca811111fa75cd3aa3bb5ace90565b926000905b8782106133005750508360019596106132e7575b505050811b01600255565b015160001960f88460031b161c191690553880806132dc565b806001859682949686015181550195019301906132c8565b6003549096919493919060081c6001600160a01b031633036133e7576133ab6133bb956133a66133b19361337e6133786133cb9c61336b6133b69a60095415806133dd575b61336690612f01565b600755565b6116e66007541515612f59565b15612fbe565b61338743600955565b613398670de0b6b3a7640000600c55565b6133a142600a55565b600b55565b614c94565b1561300a565b613146565b61322e565b60ff1660ff196003541617600355565b61150d600160ff196000541617600055565b50600c541561335d565b60405162461bcd60e51b8152602060048201526024808201527f6f6e6c792061646d696e206d617920696e697469616c697a6520746865206d616044820152631c9ad95d60e21b6064820152608490fd5b90919261344f61048260055460018060a01b031690565b6040516317b9b84b60e31b81523060048201526001600160a01b038581166024830152861660448201526064810183905290602090829060849082906000905af19081156108265760009161360d575b50806135f357506001600160a01b0384811694848216949192918587146135e157600080516020614f5d8339815191529461357194811687036135b8576000195b6134ea8582612d15565b9361355761350e87610de48760018060a01b03166000526010602052604060002090565b9161352f886120628360018060a01b03166000526010602052604060002090565b6001600160a01b03878116600090815260106020526040808220969096559216825292902090565b5519613579575b5050604051918252509081906020820190565b0390a3600090565b6135986135af9260018060a01b03166000526011602052604060002090565b9060018060a01b0316600052602052604060002090565b5538808061355e565b6001600160a01b03821660009081526011602052604090206135db908290613598565b546134e0565b604051638cd22d1960e01b8152600490fd5b60405163089d427760e11b81526004810191909152602490fd5b613625915060203d8111610889576108778183610a18565b3861349f565b91908260409103126103f7576020825192015190565b6013546040516370a0823160e01b815230600482015290602090829060249082906001600160a01b03165afa9081156108265760009161367f575090565b612cd7915060203d8111610889576108778183610a18565b6001600160a01b0316600090815260126020526040902080549081156136d25760016136c9612cd793600c5490612d6d565b91015490612d80565b5050600090565b600054906136e960ff8316612dd8565b60ff199182166000556136fa6137b0565b506001613705613710565b926000541617600055565b600f548061371f575060075490565b613727613641565b90600d5482018092116116a657600e5491828103928184116116a657670de0b6b3a764000080850294850414911417156116a657612cd791612d80565b1561376b57565b60405162461bcd60e51b815260206004820152601c60248201527f626f72726f772072617465206973206162737572646c792068696768000000006044820152606490fd5b6009544381146139d75761383c906137c6613641565b600d54600e54600c546006549294926137e7906001600160a01b0316610482565b6137f3600a5442612d15565b600b546040805163108e627960e21b815260048101899052602481018a9052604481018790526064810193909352608483019190915297909188918391908290819060a4820190565b03915afa9384156108265760009182956139b4575b5082919061386765048c27395000831115613764565b6138719043612d15565b613879611500565b91825261388591614d66565b61388f8782614d66565b51670de0b6b3a76400009004966138a69088612cf0565b93600854886138b3611500565b9182526138bf91614d66565b51670de0b6b3a76400009004906138d591612cf0565b926138df91614d66565b51670de0b6b3a76400009004906138f591612cf0565b436009559042600a5561390782600c55565b61391083600d55565b600e55600b5495838714159661396a947f4dec04e750ca11537cabcd8a9eab06494de08da3735bc8871cd41250e190bc0498613972575b505051948594859094939260609260808301968352602083015260408201520152565b0390a1600090565b8251918252602082018190526139ad917ffe3b4c3f6e2efdc3dd612c3eb2817308b7568ad72d3f9c9200a08a069c27dff890604090a1600b55565b3880613947565b6139cf919550839250883d8a11612993576129848183610a18565b949091613851565b50600090565b156139e457565b60405162461bcd60e51b815260206004820152601860248201527f544f4b454e5f5452414e534645525f494e5f4641494c454400000000000000006044820152606490fd5b6013546040516370a0823160e01b80825230600483015260209491936001600160a01b03909316929091908585602481875afa94851561082657600095613b4a575b50833b156103f7576040516323b872dd60e01b81526001600160a01b03919091166004820152306024820152604481019190915260008160648183875af1801561082657613b37575b503d848115613b295750602014613aca57600080fd5b8390816000803e613adc6000516139dd565b60405190815230600482015291829060249082905afa90811561082657612cd793600092613b0c575b5050612d15565b613b229250803d10610889576108778183610a18565b3880613b05565b919050613adc6000196139dd565b8061081a613b44926109e3565b38613ab4565b613b62919550863d8811610889576108778183610a18565b9338613a6b565b15613b7057565b60405162461bcd60e51b815260206004820152603460248201527f6f6e65206f662072656465656d546f6b656e73496e206f722072656465656d416044820152736d6f756e74496e206d757374206265207a65726f60601b6064820152608490fd5b919060018060a01b036013541690813b156103f75760405163a9059cbb60e01b81526001600160a01b0394909416600485015260248401526000929083908290604490829084905af1801561082657613c98575b503d8015613c8d57602014613c39575080fd5b90602081803e515b15613c4857565b60405162461bcd60e51b815260206004820152601960248201527f544f4b454e5f5452414e534645525f4f55545f4641494c4544000000000000006044820152606490fd5b509050600019613c41565b613ca1906109e3565b38613c26565b600554909190613cbf906001600160a01b0316610482565b60405163368f515360e21b81523060048201526001600160a01b03841660248201526044810183905290602090829060649082906000905af190811561082657600091613e26575b5080613e0c57506009544303613dfa5780613d20613641565b10613de8577f13ed6866d4e1ee6da46f845c46d7e54120883d75c5ea9a2dacc1c4ca8984ab8091613de3613d6583613d606001600160a01b038516613697565b612cf0565b613d7184600d54612cf0565b9080613d8f8560018060a01b03166000526012602052604060002090565b55600c546001600160a01b038516600090815260126020526040902060010155613db882600d55565b6040519485948590949392606092608083019660018060a01b03168352602083015260408201520152565b0390a1565b6040516348c2588160e01b8152600490fd5b604051630e8d8c6160e21b8152600490fd5b60405163918db40f60e01b81526004810191909152602490fd5b613e3e915060203d8111610889576108778183610a18565b38613d07565b613e7260019260005492613e5a60ff8516612dd8565b60ff19938416600055613e6b6137b0565b5033613e7d565b506000541617600055565b600554909190613e95906001600160a01b0316610482565b604051631200453160e11b81523060048201526001600160a01b038481166024830152831660448201526064810185905290602090829060849082906000905af19081156108265760009161400d575b5080613ff357506009544303613fe1577f1a2a22cb034d26d1854bdc6666a5b91fe25efbbb5dcad3b0355478d6f5c362a191613f2082613697565b936000198103613fd25750613fcc613f43613f3c865b84613a29565b8096612d15565b613f4f86600d54612d15565b9080613f6d8660018060a01b03166000526012602052604060002090565b55600c546001600160a01b038616600090815260126020526040902060010155613f9682600d55565b866040519586958691959493909260809360a084019760018060a01b038092168552166020840152604083015260608201520152565b0390a190565b613f43613f3c613fcc92613f36565b60405163c9021e2f60e01b8152600490fd5b604051638c81362d60e01b81526004810191909152602490fd5b614025915060203d8111610889576108778183610a18565b38613ee5565b6001600160a01b0391821681529181166020830152918216604082015291166060820152608081019190915260a00190565b1561406457565b60405162461bcd60e51b815260206004820152603360248201527f4c49515549444154455f434f4d5054524f4c4c45525f43414c43554c4154455f604482015272105353d5539517d4d152569157d19052531151606a1b6064820152608490fd5b156140cc57565b60405162461bcd60e51b815260206004820152601860248201527f4c49515549444154455f5345495a455f544f4f5f4d55434800000000000000006044820152606490fd5b1561411857565b60405162461bcd60e51b81526020600482015260146024820152731d1bdad95b881cd95a5e9d5c994819985a5b195960621b6044820152606490fd5b600554929391929091906001600160a01b03166001600160a01b0316600160a01b6001900380921691604090815196632fe3f38f60e11b88526020916004988381808c868d8d8d30948601946141a99561402b565b03816000809a5af19081156108265786916144ae575b508061449257506009544303614482578351636c540baf60e01b815283818b818a5afa908115610826578691614465575b50430361445557808716908816146144455780156144355760001981146144255761421c908787613e7d565b600554909390614234906001600160a01b0316610482565b835163c488847b60e01b815230818b019081526001600160a01b03881660208201526040810187905290999185918b91908290819060600103915afa988915610826578290839a614403575b5061428b901561405d565b83516370a0823160e01b81526001600160a01b03891682820190815284908290819060200103818a5afa908115610826576142d1918b9185916143e6575b5010156140c5565b30860361434357505050918591613de39361430f7f298637f684da70674f26509b10f07ec2fbc77a335ab1e7d6215a4b2484d8bb5298888830614822565b516001600160a01b0395861681529585166020870152604086015290921660608401526080830191909152819060a0820190565b835163b2a02ff160e01b81526001600160a01b0380891692820192835289166020830152604082018a905298929592949293919086908a908190606001038184885af18015610826577f298637f684da70674f26509b10f07ec2fbc77a335ab1e7d6215a4b2484d8bb5299613de3976143c493926143c9575b505015614111565b61430f565b6143df9250803d10610889576108778183610a18565b38806143bc565b6143fd9150863d8811610889576108778183610a18565b386142c9565b61428b9a5061441f9150853d8711612993576129848183610a18565b99614280565b8251635982c5bb60e11b81528890fd5b825163d29da7ef60e01b81528890fd5b8251631bd1a62160e21b81528890fd5b8351631046f38d60e31b81528990fd5b61447c9150843d8611610889576108778183610a18565b386141f0565b83516380965b1b60e01b81528990fd5b8451630a14d17960e11b8152808b019182529081906020010390fd5b6144c59150843d8611610889576108778183610a18565b386141bf565b6005549294919390926144e6906001600160a01b0316610482565b6040516271dd5d60e41b81526001600160a01b039384169390602081806145148b8b8b8b306004870161402b565b0381600080975af1908115610826578391614803575b50806147e9575060095443036147d757604051636c540baf60e01b8152602081600481885afa9081156108265783916147b8575b5043036147a657808516908616146147945785156147825760406145866145d9978787613e7d565b60055490939061459e906001600160a01b0316610482565b8251638a0c3c8d60e01b81526001600160a01b0380881660048301528916602482015260448101929092529097889190829081906064820190565b03915afa958615610826578190829761475e575b506145f8901561405d565b6040516370a0823160e01b81526001600160a01b0386166004820152602081602481875afa908115610826576146389188918491614745575010156140c5565b3083036146a8575093613de3917f1f9e0565f61f991f4274da0b8ede8574d3d06406907d1ae81c972b5c9adcbf7e9561467383878730614a28565b604080516001600160a01b039687168152968616602088015286015290921660608401526080830191909152819060a0820190565b60405163395259dd60e11b81526001600160a01b03858116600483015286166024820152604481018790529095909290916020846064818a865af1968715610826577f1f9e0565f61f991f4274da0b8ede8574d3d06406907d1ae81c972b5c9adcbf7e97613de3956147219291614726575b5015614111565b614673565b61473f915060203d602011610889576108778183610a18565b3861471a565b6143fd915060203d602011610889576108778183610a18565b6145f8975061477c915060403d604011612993576129848183610a18565b966145ed565b60405163d29da7ef60e01b8152600490fd5b604051631bd1a62160e21b8152600490fd5b604051631046f38d60e31b8152600490fd5b6147d1915060203d602011610889576108778183610a18565b3861455e565b6040516380965b1b60e01b8152600490fd5b604051630a14d17960e11b81526004810191909152602490fd5b61481c915060203d602011610889576108778183610a18565b3861452a565b928060208461483b61048260055460018060a01b031690565b8560006040996148618b519788968795869463d02f735160e01b8652306004870161402b565b03925af190811561082657600091614a0a575b50806149f157506001600160a01b038381169290811691908383146149e05793836149b4613de394614920967fa91e67c5ea634cd43a12c5a482724b03de01e85ca68702a53d0c2f45cb7c1dc599956149279960006148d1611500565b52670de0b6b3a76400006148e483612d5e565b049661496f6149536148f68a86612d15565b946149166124a58c614906613710565b61490e611500565b908152614d66565b9d8e600e54612cf0565b9e8f600e55565b614936611b7a8c600f54612d15565b6001600160a01b0384166000908152601060205260409020610de4565b6001600160a01b03909216600090815260106020526040902090565b55614993614953836120628460018060a01b03166000526010602052604060002090565b55865180600080516020614f5d833981519152958693829190602083019252565b0390a383519283523092602090a351308152602081019290925260408201929092529081906060820190565b8551633a94626760e11b8152600490fd5b84516363e00e3360e11b81526004810191909152602490fd5b614a22915060203d8111610889576108778183610a18565b38614874565b92602083829495846000614a4661048260055460018060a01b031690565b92614a686040519788968795869463d02f735160e01b8652306004870161402b565b03925af190811561082657600091614b36575b5080614b1c57506001600160a01b038181169390811692838514614b0a57600080516020614f5d8339815191529282614ad061495384610de4614b059760018060a01b03166000526010602052604060002090565b55614af4614953836120628460018060a01b03166000526010602052604060002090565b556040519081529081906020820190565b0390a3565b604051633a94626760e11b8152600490fd5b6040516363e00e3360e11b81526004810191909152602490fd5b614b4e915060203d8111610889576108778183610a18565b38614a7b565b15614b5b57565b60405162461bcd60e51b815260206004820152601c60248201527f6d61726b6572206d6574686f642072657475726e65642066616c7365000000006044820152606490fd5b600354614bb89060081c6001600160a01b0316610482565b3303614c82576005546001600160a01b0316604051623f1ee960e11b815291906020836004816001600160a01b0386165afa928315610826577f7ac369dbd14fa5ea3f473ed67cc9d598964a77501540ba6751eb0b3decf5870d93614c2591600091614c64575b50614b54565b600580546001600160a01b0319166001600160a01b0384161790555b604080516001600160a01b0392831681529290911660208301528190810161396a565b614c7c915060203d8111610852576108428183610a18565b38614c1f565b60405163d219dc1f60e01b8152600490fd5b600354614cac9060081c6001600160a01b0316610482565b3303614d54576009544303614d42576006546001600160a01b03166040516310c8fc9560e11b815291906020836004816001600160a01b0386165afa928315610826577fedffc32e068c7c95dfd4bdfd5c4d939a084d6b11c4199eac8436ed234d72f92693614d2291600091614c645750614b54565b600680546001600160a01b0319166001600160a01b038416179055614c41565b604051630be2a5cb60e11b8152600490fd5b60405163407fded560e01b8152600490fd5b90614d80916000604051614d79816109fc565b5251612d6d565b60405190614d8d826109fc565b815290565b5115612d8a57600090565b670de0b6b3a7640000908181029181830414901517156116a657612cd7915190612d80565b60405163a9059cbb60e01b60208201526001600160a01b039092166024830152604482019290925261150d91614e0582606481015b03601f198101845283610a18565b614e4c565b6040516323b872dd60e01b60208201526001600160a01b039283166024820152929091166044830152606482019290925261150d91614e058260848101614df7565b600080614e969260018060a01b03169360208151910182865af13d15614ef1573d90614e778261150f565b91614e856040519384610a18565b82523d6000602084013e5b83614ef9565b8051908115159182614ecf575b5050614eac5750565b604051635274afe760e01b81526001600160a01b03919091166004820152602490fd5b614eea925090602080614ee6938301019101612cfd565b1590565b3880614ea3565b606090614e90565b90614f205750805115614f0e57805190602001fd5b604051630a12f52160e11b8152600490fd5b81511580614f53575b614f31575090565b604051639996b31560e01b81526001600160a01b039091166004820152602490fd5b50803b15614f2956feddf252ad1be2c89b69c2b068fc378daa952ba7f163c4a11628f55a4df523b3efa264697066735822122074d5964f98797fa32e84b92ef6b55d8138a8cf317f441803cf055e19fca66d4964736f6c63430008140033405787fa12a823e0f2b7631cc41b3ba8828b3321ca811111fa75cd3aa3bb5aceb10e2d527612073b26eecdfd717e6a320cf44b4afac2b0732d9fcbe2b7fa0cf6","linkReferences":{}},"methodIdentifiers":{"NO_ERROR()":"69ab3250","_acceptAdmin()":"e9c714f2","_addReserves(uint256)":"3e941010","_delegateCompLikeTo(address)":"7f1e06be","_reduceReserves(uint256)":"601a0bf1","_setComptroller(address)":"4576b5db","_setInterestRateModel(address)":"f2b3abbd","_setPendingAdmin(address)":"b71d1a0c","_setReserveFactor(uint256)":"fca7820b","accrualBlockNumber()":"6c540baf","accrualBlockTimestamp()":"cfa99201","accrueInterest()":"a6afed95","admin()":"f851a440","allowance(address,address)":"dd62ed3e","approve(address,uint256)":"095ea7b3","balanceOf(address)":"70a08231","balanceOfUnderlying(address)":"3af9e669","borrow(uint256)":"c5ebeaec","borrowBalanceCurrent(address)":"17bfdfbc","borrowBalanceStored(address)":"95dd9193","borrowIndex()":"aa5af0fd","borrowRatePerBlock()":"f8f9da28","closeLeverage(address,uint256)":"00c2aaee","closeLeverageAmount(address,uint256)":"e3a71473","comptroller()":"5fe3b567","decimals()":"313ce567","exchangeRateCurrent()":"bd6d894d","exchangeRateStored()":"182df0f5","fullUtilizationRate()":"f331b0ec","getAccountSnapshot(address)":"c37f68e2","getCash()":"3b1d21a2","initialize(address,address,address,uint256,string,string,uint8,uint256)":"9af6702e","initialize(address,address,uint256,string,string,uint8,uint256)":"3d5d1d99","interestRateModel()":"f3fdb15a","isCToken()":"fe9c44ae","leverage(uint256,uint256,address)":"091a57a5","liquidateBadDebt(address,uint256,uint256,address)":"889bcdc6","liquidateBorrow(address,uint256,address)":"f5e3c462","mint(uint256)":"a0712d68","name()":"06fdde03","pendingAdmin()":"26782247","protocolSeizeShareMantissa()":"6752e702","redeem(uint256)":"db006a75","redeemUnderlying(uint256)":"852a12e3","repayBorrow(uint256)":"0e752702","repayBorrowBehalf(address,uint256)":"2608f818","reserveFactorMantissa()":"173b9904","seize(address,address,uint256)":"b2a02ff1","seizeBadDebt(address,address,uint256)":"72a4b3ba","setLeverageEpsilon(uint256,uint256)":"fd056d17","setVault(address)":"6817031b","supplyRatePerBlock()":"ae9d70b0","sweepToken(address)":"1be19560","symbol()":"95d89b41","totalBorrows()":"47bd3718","totalBorrowsCurrent()":"73acee98","totalReserves()":"8f840ddd","totalSupply()":"18160ddd","transfer(address,uint256)":"a9059cbb","transferFrom(address,address,uint256)":"23b872dd","underlying()":"6f307dc3"},"id":63}