{"abi":[{"type":"constructor","inputs":[{"name":"defaultAdmin","type":"address","internalType":"address"},{"name":"pauser","type":"address","internalType":"address"},{"name":"minter","type":"address","internalType":"address"}],"stateMutability":"nonpayable"},{"type":"function","name":"DEFAULT_ADMIN_ROLE","inputs":[],"outputs":[{"name":"","type":"bytes32","internalType":"bytes32"}],"stateMutability":"view"},{"type":"function","name":"MINTER_ROLE","inputs":[],"outputs":[{"name":"","type":"bytes32","internalType":"bytes32"}],"stateMutability":"view"},{"type":"function","name":"PAUSER_ROLE","inputs":[],"outputs":[{"name":"","type":"bytes32","internalType":"bytes32"}],"stateMutability":"view"},{"type":"function","name":"allowance","inputs":[{"name":"owner","type":"address","internalType":"address"},{"name":"spender","type":"address","internalType":"address"}],"outputs":[{"name":"","type":"uint256","internalType":"uint256"}],"stateMutability":"view"},{"type":"function","name":"approve","inputs":[{"name":"spender","type":"address","internalType":"address"},{"name":"value","type":"uint256","internalType":"uint256"}],"outputs":[{"name":"","type":"bool","internalType":"bool"}],"stateMutability":"nonpayable"},{"type":"function","name":"balanceOf","inputs":[{"name":"account","type":"address","internalType":"address"}],"outputs":[{"name":"","type":"uint256","internalType":"uint256"}],"stateMutability":"view"},{"type":"function","name":"burn","inputs":[{"name":"value","type":"uint256","internalType":"uint256"}],"outputs":[],"stateMutability":"nonpayable"},{"type":"function","name":"burnFrom","inputs":[{"name":"account","type":"address","internalType":"address"},{"name":"value","type":"uint256","internalType":"uint256"}],"outputs":[],"stateMutability":"nonpayable"},{"type":"function","name":"decimals","inputs":[],"outputs":[{"name":"","type":"uint8","internalType":"uint8"}],"stateMutability":"view"},{"type":"function","name":"getRoleAdmin","inputs":[{"name":"role","type":"bytes32","internalType":"bytes32"}],"outputs":[{"name":"","type":"bytes32","internalType":"bytes32"}],"stateMutability":"view"},{"type":"function","name":"grantRole","inputs":[{"name":"role","type":"bytes32","internalType":"bytes32"},{"name":"account","type":"address","internalType":"address"}],"outputs":[],"stateMutability":"nonpayable"},{"type":"function","name":"hasRole","inputs":[{"name":"role","type":"bytes32","internalType":"bytes32"},{"name":"account","type":"address","internalType":"address"}],"outputs":[{"name":"","type":"bool","internalType":"bool"}],"stateMutability":"view"},{"type":"function","name":"mint","inputs":[{"name":"to","type":"address","internalType":"address"},{"name":"amount","type":"uint256","internalType":"uint256"}],"outputs":[],"stateMutability":"nonpayable"},{"type":"function","name":"name","inputs":[],"outputs":[{"name":"","type":"string","internalType":"string"}],"stateMutability":"view"},{"type":"function","name":"pause","inputs":[],"outputs":[],"stateMutability":"nonpayable"},{"type":"function","name":"paused","inputs":[],"outputs":[{"name":"","type":"bool","internalType":"bool"}],"stateMutability":"view"},{"type":"function","name":"renounceRole","inputs":[{"name":"role","type":"bytes32","internalType":"bytes32"},{"name":"callerConfirmation","type":"address","internalType":"address"}],"outputs":[],"stateMutability":"nonpayable"},{"type":"function","name":"revokeRole","inputs":[{"name":"role","type":"bytes32","internalType":"bytes32"},{"name":"account","type":"address","internalType":"address"}],"outputs":[],"stateMutability":"nonpayable"},{"type":"function","name":"supportsInterface","inputs":[{"name":"interfaceId","type":"bytes4","internalType":"bytes4"}],"outputs":[{"name":"","type":"bool","internalType":"bool"}],"stateMutability":"view"},{"type":"function","name":"symbol","inputs":[],"outputs":[{"name":"","type":"string","internalType":"string"}],"stateMutability":"view"},{"type":"function","name":"totalSupply","inputs":[],"outputs":[{"name":"","type":"uint256","internalType":"uint256"}],"stateMutability":"view"},{"type":"function","name":"transfer","inputs":[{"name":"to","type":"address","internalType":"address"},{"name":"value","type":"uint256","internalType":"uint256"}],"outputs":[{"name":"","type":"bool","internalType":"bool"}],"stateMutability":"nonpayable"},{"type":"function","name":"transferFrom","inputs":[{"name":"from","type":"address","internalType":"address"},{"name":"to","type":"address","internalType":"address"},{"name":"value","type":"uint256","internalType":"uint256"}],"outputs":[{"name":"","type":"bool","internalType":"bool"}],"stateMutability":"nonpayable"},{"type":"function","name":"unpause","inputs":[],"outputs":[],"stateMutability":"nonpayable"},{"type":"event","name":"Approval","inputs":[{"name":"owner","type":"address","indexed":true,"internalType":"address"},{"name":"spender","type":"address","indexed":true,"internalType":"address"},{"name":"value","type":"uint256","indexed":false,"internalType":"uint256"}],"anonymous":false},{"type":"event","name":"Paused","inputs":[{"name":"account","type":"address","indexed":false,"internalType":"address"}],"anonymous":false},{"type":"event","name":"RoleAdminChanged","inputs":[{"name":"role","type":"bytes32","indexed":true,"internalType":"bytes32"},{"name":"previousAdminRole","type":"bytes32","indexed":true,"internalType":"bytes32"},{"name":"newAdminRole","type":"bytes32","indexed":true,"internalType":"bytes32"}],"anonymous":false},{"type":"event","name":"RoleGranted","inputs":[{"name":"role","type":"bytes32","indexed":true,"internalType":"bytes32"},{"name":"account","type":"address","indexed":true,"internalType":"address"},{"name":"sender","type":"address","indexed":true,"internalType":"address"}],"anonymous":false},{"type":"event","name":"RoleRevoked","inputs":[{"name":"role","type":"bytes32","indexed":true,"internalType":"bytes32"},{"name":"account","type":"address","indexed":true,"internalType":"address"},{"name":"sender","type":"address","indexed":true,"internalType":"address"}],"anonymous":false},{"type":"event","name":"Transfer","inputs":[{"name":"from","type":"address","indexed":true,"internalType":"address"},{"name":"to","type":"address","indexed":true,"internalType":"address"},{"name":"value","type":"uint256","indexed":false,"internalType":"uint256"}],"anonymous":false},{"type":"event","name":"Unpaused","inputs":[{"name":"account","type":"address","indexed":false,"internalType":"address"}],"anonymous":false},{"type":"error","name":"AccessControlBadConfirmation","inputs":[]},{"type":"error","name":"AccessControlUnauthorizedAccount","inputs":[{"name":"account","type":"address","internalType":"address"},{"name":"neededRole","type":"bytes32","internalType":"bytes32"}]},{"type":"error","name":"ERC20InsufficientAllowance","inputs":[{"name":"spender","type":"address","internalType":"address"},{"name":"allowance","type":"uint256","internalType":"uint256"},{"name":"needed","type":"uint256","internalType":"uint256"}]},{"type":"error","name":"ERC20InsufficientBalance","inputs":[{"name":"sender","type":"address","internalType":"address"},{"name":"balance","type":"uint256","internalType":"uint256"},{"name":"needed","type":"uint256","internalType":"uint256"}]},{"type":"error","name":"ERC20InvalidApprover","inputs":[{"name":"approver","type":"address","internalType":"address"}]},{"type":"error","name":"ERC20InvalidReceiver","inputs":[{"name":"receiver","type":"address","internalType":"address"}]},{"type":"error","name":"ERC20InvalidSender","inputs":[{"name":"sender","type":"address","internalType":"address"}]},{"type":"error","name":"ERC20InvalidSpender","inputs":[{"name":"spender","type":"address","internalType":"address"}]},{"type":"error","name":"EnforcedPause","inputs":[]},{"type":"error","name":"ExpectedPause","inputs":[]}],"bytecode":{"object":"0x6080346200039057601f6001600160401b03601f19620013d63881900384810183168601919084831187841017620003955780879260609460405283398101031262000390576200005084620003cb565b916020916200006f604062000067858901620003cb565b9701620003cb565b946200007a620003ab565b90600494858352634e554d4160e01b8184015262000097620003ab565b90868252634e756d6160e01b8183015283519486861162000296576003958654956001968781811c9116801562000385575b8582101462000370579081878493116200031a575b508490878311600114620002b757600092620002ab575b505060001982891b1c191690861b1786555b8251968711620002965787548581811c911680156200028b575b8382101462000276578481116200022b575b5081938711600114620001ac57505093620001889693816200018f9a979481946200018198600095620001a0575b50501b92600019911b1c19161790555b60ff1960055416600555620003e0565b5062000461565b5062000504565b50604051610e139081620005a38239f35b01519350388062000161565b86959392919496168760005284600020946000905b828210620002135750509285926200018f9b989592620001889a9762000181999610620001f8575b50505050811b01905562000171565b01519060f884600019921b161c1916905538808080620001e9565b808986988294978701518155019701940190620001c1565b886000528260002085808a0160051c820192858b106200026c575b0160051c019086905b8281106200025f57505062000133565b600081550186906200024f565b9250819262000246565b602289634e487b7160e01b6000525260246000fd5b90607f169062000121565b604188634e487b7160e01b6000525260246000fd5b015190503880620000f5565b9084899416918a600052866000209260005b88828210620003035750508411620002ea575b505050811b01865562000107565b0151600019838b1b60f8161c19169055388080620002dc565b8385015186558c97909501949384019301620002c9565b90915088600052846000208780850160051c82019287861062000366575b918a91869594930160051c01915b82811062000356575050620000de565b600081558594508a910162000346565b9250819262000338565b60228b634e487b7160e01b6000525260246000fd5b90607f1690620000c9565b600080fd5b634e487b7160e01b600052604160045260246000fd5b60408051919082016001600160401b038111838210176200039557604052565b51906001600160a01b03821682036200039057565b6001600160a01b031660008181527f54cdd369e4e8a8515e52ca72ec816c2101831ad1f18bf44102ed171459c9b4f8602052604081205490919060ff166200045d5781805260066020526040822081835260205260408220600160ff198254161790553391600080516020620013b68339815191528180a4600190565b5090565b6001600160a01b031660008181527fe09f975e15f8f53f24cbbc282b13c40b84df485fcdb8d3997fa103dc5a4ef84160205260408120549091907f65d7a28e3265b37a6474929f336521b332c1681b933f6cb9f3376673440d862a9060ff16620004ff5780835260066020526040832082845260205260408320600160ff19825416179055600080516020620013b6833981519152339380a4600190565b505090565b6001600160a01b031660008181527f3195c024b2ddd6d9b8f6c836aa52f67fe69376c8903d009b80229b3ce4425f5160205260408120549091907f9f2df0fed2c77648de5860a4cc508cd0818c85b8b8a1ab4ceeef8d981c8956a69060ff16620004ff5780835260066020526040832082845260205260408320600160ff19825416179055600080516020620013b6833981519152339380a460019056fe608060408181526004918236101561001657600080fd5b600092833560e01c91826301ffc9a7146108fb5750816306fdde0314610821578163095ea7b31461077757816318160ddd1461075857816323b872dd1461071b578163248a9ca3146106f05781632f2ff15d146106c6578163313ce567146106aa57816336568abe146106645781633f4ba83a146105fa57816340c10f19146104ed57816342966c68146104cf5781635c975abb146104ab57816370a082311461047457816379cc67901461043e5781638456cb59146103e357816391d148541461039c57816395d89b411461027d578163a217fddf14610262578163a9059cbb14610231578163d5391393146101f6578163d547741f146101b257508063dd62ed3e1461016a5763e63ab1e91461012d57600080fd5b34610166578160031936011261016657602090517f65d7a28e3265b37a6474929f336521b332c1681b933f6cb9f3376673440d862a8152f35b5080fd5b503461016657806003193601126101665780602092610187610997565b61018f6109b2565b6001600160a01b0391821683526001865283832091168252845220549051908152f35b919050346101f257806003193601126101f2576101ee91356101e960016101d76109b2565b93838752600660205286200154610a42565b610ae8565b5080f35b8280fd5b505034610166578160031936011261016657602090517f9f2df0fed2c77648de5860a4cc508cd0818c85b8b8a1ab4ceeef8d981c8956a68152f35b50503461016657806003193601126101665760209061025b610251610997565b6024359033610b5f565b5160018152f35b50503461016657816003193601126101665751908152602090f35b838334610166578160031936011261016657805190828454600181811c90808316928315610392575b602093848410811461037f57838852908115610363575060011461030e575b505050829003601f01601f191682019267ffffffffffffffff8411838510176102fb57508291826102f792528261094e565b0390f35b634e487b7160e01b815260418552602490fd5b8787529192508591837f8a35acfbc15ff81a39ae7d344fd709f28e8600b4aa8c65c6b64bfe7fe36bd19b5b83851061034f57505050508301018580806102c5565b805488860183015293019284908201610339565b60ff1916878501525050151560051b84010190508580806102c5565b634e487b7160e01b895260228a52602489fd5b91607f16916102a6565b9050346101f257816003193601126101f2578160209360ff926103bd6109b2565b90358252600686528282206001600160a01b039091168252855220549151911615158152f35b50503461016657816003193601126101665760207f62e78cea01bee320cd4e420270b5ea74000d11b0c9f74754ebdbfc544b05a258916104216109c8565b610429610dbf565b600160ff19600554161760055551338152a180f35b505034610166573660031901126104715761046e61045a610997565b60243590610469823383610c45565b610d18565b80f35b80fd5b5050346101665760203660031901126101665760209181906001600160a01b0361049c610997565b16815280845220549051908152f35b50503461016657816003193601126101665760209060ff6005541690519015158152f35b8390346101665760203660031901126101665761046e903533610d18565b919050346101f257806003193601126101f257610508610997565b90602435917f9f2df0fed2c77648de5860a4cc508cd0818c85b8b8a1ab4ceeef8d981c8956a6808652600660205282862033875260205260ff8387205416156105dc57506001600160a01b03169283156105c757610564610dbf565b600254908382018092116105b4575084927fddf252ad1be2c89b69c2b068fc378daa952ba7f163c4a11628f55a4df523b3ef9260209260025585855284835280852082815401905551908152a380f35b634e487b7160e01b865260119052602485fd5b84602492519163ec442f0560e01b8352820152fd5b825163e2517d3f60e01b815233818701526024810191909152604490fd5b9050346101f257826003193601126101f2576106146109c8565b6005549060ff821615610656575060ff1916600555513381527f5db9ee0a495bf2e6ff9c91a7834c1ba4fdd244a5e8aa4e537bd38aeae4b073aa90602090a180f35b8251638dfc202b60e01b8152fd5b83833461016657806003193601126101665761067e6109b2565b90336001600160a01b0383160361069b57506101ee919235610ae8565b5163334bd91960e11b81528390fd5b5050346101665781600319360112610166576020905160128152f35b919050346101f257806003193601126101f2576101ee91356106eb60016101d76109b2565b610a68565b9050346101f25760203660031901126101f25781602093600192358152600685522001549051908152f35b5050346101665760603660031901126101665760209061025b61073c610997565b6107446109b2565b60443591610753833383610c45565b610b5f565b5050346101665781600319360112610166576020906002549051908152f35b9050346101f257816003193601126101f257610791610997565b60243590331561080a576001600160a01b03169182156107f357508083602095338152600187528181208582528752205582519081527f8c5be1e5ebec7d5bd14f71427d1e84f3dd0314c0f7b2291e5b200ac8c7c3b925843392a35160018152f35b8351634a1406b160e11b8152908101859052602490fd5b835163e602df0560e01b8152808401869052602490fd5b83833461016657816003193601126101665780519082600354600181811c908083169283156108f1575b602093848410811461037f57838852908115610363575060011461089b57505050829003601f01601f191682019267ffffffffffffffff8411838510176102fb57508291826102f792528261094e565b600387529192508591837fc2575a0e9e593c00f959f8c92f12db2869c3395a3b0502d05e2516446f71f85b5b8385106108dd57505050508301018580806102c5565b8054888601830152930192849082016108c7565b91607f169161084b565b8491346101f25760203660031901126101f2573563ffffffff60e01b81168091036101f25760209250637965db0b60e01b811490811561093d575b5015158152f35b6301ffc9a760e01b14905083610936565b6020808252825181830181905290939260005b82811061098357505060409293506000838284010152601f8019910116010190565b818101860151848201604001528501610961565b600435906001600160a01b03821682036109ad57565b600080fd5b602435906001600160a01b03821682036109ad57565b3360009081527fe09f975e15f8f53f24cbbc282b13c40b84df485fcdb8d3997fa103dc5a4ef84160205260409020547f65d7a28e3265b37a6474929f336521b332c1681b933f6cb9f3376673440d862a9060ff1615610a245750565b6044906040519063e2517d3f60e01b82523360048301526024820152fd5b80600052600660205260406000203360005260205260ff6040600020541615610a245750565b906000918083526006602052604083209160018060a01b03169182845260205260ff60408420541615600014610ae35780835260066020526040832082845260205260408320600160ff198254161790557f2f8788117e7eff1d82e926ec794901d17c78024a50270940304540a733656f0d339380a4600190565b505090565b906000918083526006602052604083209160018060a01b03169182845260205260ff604084205416600014610ae3578083526006602052604083208284526020526040832060ff1981541690557ff6391f5c32d9c69d2a47ea670b442974b53935d1edc7fd64eb21e047a839171b339380a4600190565b916001600160a01b03808416928315610c2c5716928315610c1357610b82610dbf565b60009083825281602052604082205490838210610be1575091604082827fddf252ad1be2c89b69c2b068fc378daa952ba7f163c4a11628f55a4df523b3ef958760209652828652038282205586815220818154019055604051908152a3565b60405163391434e360e21b81526001600160a01b03919091166004820152602481019190915260448101839052606490fd5b60405163ec442f0560e01b815260006004820152602490fd5b604051634b637e8f60e11b815260006004820152602490fd5b9160018060a01b038093169160009383855260016020526040938486209183169182875260205284862054926000198403610c84575b50505050505050565b848410610ce857508015610cd0578115610cb857855260016020528385209085526020520391205538808080808080610c7b565b8451634a1406b160e11b815260048101879052602490fd5b845163e602df0560e01b815260048101879052602490fd5b8551637dc7a0d960e11b81526001600160a01b039190911660048201526024810184905260448101859052606490fd5b906001600160a01b038216908115610c2c57610d32610dbf565b60009282845283602052604084205490828210610d8d5750817fddf252ad1be2c89b69c2b068fc378daa952ba7f163c4a11628f55a4df523b3ef926020928587528684520360408620558060025403600255604051908152a3565b60405163391434e360e21b81526001600160a01b03919091166004820152602481019190915260448101829052606490fd5b60ff60055416610dcb57565b60405163d93c066560e01b8152600490fdfea264697066735822122088527ea36a6ff8ffb6dea59de369064e1a2dc0dd430e329694f4f8e192fcdf1e64736f6c634300081400332f8788117e7eff1d82e926ec794901d17c78024a50270940304540a733656f0d","linkReferences":{}},"methodIdentifiers":{"DEFAULT_ADMIN_ROLE()":"a217fddf","MINTER_ROLE()":"d5391393","PAUSER_ROLE()":"e63ab1e9","allowance(address,address)":"dd62ed3e","approve(address,uint256)":"095ea7b3","balanceOf(address)":"70a08231","burn(uint256)":"42966c68","burnFrom(address,uint256)":"79cc6790","decimals()":"313ce567","getRoleAdmin(bytes32)":"248a9ca3","grantRole(bytes32,address)":"2f2ff15d","hasRole(bytes32,address)":"91d14854","mint(address,uint256)":"40c10f19","name()":"06fdde03","pause()":"8456cb59","paused()":"5c975abb","renounceRole(bytes32,address)":"36568abe","revokeRole(bytes32,address)":"d547741f","supportsInterface(bytes4)":"01ffc9a7","symbol()":"95d89b41","totalSupply()":"18160ddd","transfer(address,uint256)":"a9059cbb","transferFrom(address,address,uint256)":"23b872dd","unpause()":"3f4ba83a"},"id":13}