{"abi":[{"type":"function","name":"implementation","inputs":[],"outputs":[{"name":"","type":"address","internalType":"address"}],"stateMutability":"view"}],"bytecode":{"object":"0x608080604052346014576082908161001a8239f35b600080fdfe6080806040526004361015601257600080fd5b600090813560e01c635c60da1b14602857600080fd5b346048578160031936011260485790546001600160a01b03168152602090f35b5080fdfea2646970667358221220971b64dec0679acd364e0efd53a13b452b2a5c0eb5aad9b898be37583ccaa3d264736f6c63430008140033","linkReferences":{}},"methodIdentifiers":{"implementation()":"5c60da1b"},"id":65}