{"abi":[{"type":"function","name":"accrualBlockNumber","inputs":[],"outputs":[{"name":"","type":"uint256","internalType":"uint256"}],"stateMutability":"view"},{"type":"function","name":"accrualBlockTimestamp","inputs":[],"outputs":[{"name":"","type":"uint256","internalType":"uint256"}],"stateMutability":"view"},{"type":"function","name":"admin","inputs":[],"outputs":[{"name":"","type":"address","internalType":"address payable"}],"stateMutability":"view"},{"type":"function","name":"borrowIndex","inputs":[],"outputs":[{"name":"","type":"uint256","internalType":"uint256"}],"stateMutability":"view"},{"type":"function","name":"comptroller","inputs":[],"outputs":[{"name":"","type":"address","internalType":"contract ComptrollerInterface"}],"stateMutability":"view"},{"type":"function","name":"decimals","inputs":[],"outputs":[{"name":"","type":"uint8","internalType":"uint8"}],"stateMutability":"view"},{"type":"function","name":"fullUtilizationRate","inputs":[],"outputs":[{"name":"","type":"uint256","internalType":"uint256"}],"stateMutability":"view"},{"type":"function","name":"interestRateModel","inputs":[],"outputs":[{"name":"","type":"address","internalType":"contract InterestRateModel"}],"stateMutability":"view"},{"type":"function","name":"name","inputs":[],"outputs":[{"name":"","type":"string","internalType":"string"}],"stateMutability":"view"},{"type":"function","name":"pendingAdmin","inputs":[],"outputs":[{"name":"","type":"address","internalType":"address payable"}],"stateMutability":"view"},{"type":"function","name":"protocolSeizeShareMantissa","inputs":[],"outputs":[{"name":"","type":"uint256","internalType":"uint256"}],"stateMutability":"view"},{"type":"function","name":"reserveFactorMantissa","inputs":[],"outputs":[{"name":"","type":"uint256","internalType":"uint256"}],"stateMutability":"view"},{"type":"function","name":"symbol","inputs":[],"outputs":[{"name":"","type":"string","internalType":"string"}],"stateMutability":"view"},{"type":"function","name":"totalBorrows","inputs":[],"outputs":[{"name":"","type":"uint256","internalType":"uint256"}],"stateMutability":"view"},{"type":"function","name":"totalReserves","inputs":[],"outputs":[{"name":"","type":"uint256","internalType":"uint256"}],"stateMutability":"view"},{"type":"function","name":"totalSupply","inputs":[],"outputs":[{"name":"","type":"uint256","internalType":"uint256"}],"stateMutability":"view"}],"bytecode":{"object":"0x608080604052346100165761052a908161001c8239f35b600080fdfe608060408181526004918236101561001657600080fd5b600092833560e01c91826306fdde03146103d457508163173b9904146103b557816318160ddd14610396578163267822471461036a578163313ce5671461034857816347bd3718146103295781635fe3b567146103005781636752e702146102e55781636c540baf146102c65781638f840ddd146102a757816395d89b411461018657508063aa5af0fd14610168578063cfa992011461014a578063f331b0ec1461012c578063f3fdb15a146101045763f851a440146100d557600080fd5b34610100578160031936011261010057600354905160089190911c6001600160a01b03168152602090f35b5080fd5b503461010057816003193601126101005760065490516001600160a01b039091168152602090f35b5034610100578160031936011261010057602090600b549051908152f35b5034610100578160031936011261010057602090600a549051908152f35b5034610100578160031936011261010057602090600c549051908152f35b83833461010057816003193601126101005780519082600254600181811c9080831692831561029d575b602093848410811461028a5783885290811561026e5750600114610218575b505050829003601f01601f191682019267ffffffffffffffff84118385101761020557508291826102019252826104ab565b0390f35b634e487b7160e01b815260418552602490fd5b600287529192508591837f405787fa12a823e0f2b7631cc41b3ba8828b3321ca811111fa75cd3aa3bb5ace5b83851061025a57505050508301018580806101cf565b805488860183015293019284908201610244565b60ff1916878501525050151560051b84010190508580806101cf565b634e487b7160e01b895260228a52602489fd5b91607f16916101b0565b505034610100578160031936011261010057602090600e549051908152f35b5050346101005781600319360112610100576020906009549051908152f35b50503461010057816003193601126101005751908152602090f35b50503461010057816003193601126101005760055490516001600160a01b039091168152602090f35b505034610100578160031936011261010057602090600d549051908152f35b50503461010057816003193601126101005760209060ff600354169051908152f35b9050346103925782600319360112610392575490516001600160a01b03909116815260209150f35b8280fd5b505034610100578160031936011261010057602090600f549051908152f35b5050346101005781600319360112610100576020906008549051908152f35b8490843461039257826003193601126103925782600180549081811c908083169283156104a1575b602093848410811461028a5783885290811561026e575060011461044c57505050829003601f01601f191682019267ffffffffffffffff84118385101761020557508291826102019252826104ab565b8087529192508591837fb10e2d527612073b26eecdfd717e6a320cf44b4afac2b0732d9fcbe2b7fa0cf65b83851061048d57505050508301018580806101cf565b805488860183015293019284908201610477565b91607f16916103fc565b6020808252825181830181905290939260005b8281106104e057505060409293506000838284010152601f8019910116010190565b8181018601518482016040015285016104be56fea26469706673582212203cbbff68bbcc6c401f38db745e8d4c7193943a132ed4b0ac6e0ad3da2147d50264736f6c63430008140033","linkReferences":{}},"methodIdentifiers":{"accrualBlockNumber()":"6c540baf","accrualBlockTimestamp()":"cfa99201","admin()":"f851a440","borrowIndex()":"aa5af0fd","comptroller()":"5fe3b567","decimals()":"313ce567","fullUtilizationRate()":"f331b0ec","interestRateModel()":"f3fdb15a","name()":"06fdde03","pendingAdmin()":"26782247","protocolSeizeShareMantissa()":"6752e702","reserveFactorMantissa()":"173b9904","symbol()":"95d89b41","totalBorrows()":"47bd3718","totalReserves()":"8f840ddd","totalSupply()":"18160ddd"},"id":65}