{"abi":[{"type":"constructor","inputs":[{"name":"_uptimeFeedAddress","type":"address","internalType":"address"}],"stateMutability":"nonpayable"},{"type":"function","name":"acceptOwnership","inputs":[],"outputs":[],"stateMutability":"nonpayable"},{"type":"function","name":"addNuAsset","inputs":[{"name":"_assetAddress","type":"address","internalType":"address"},{"name":"_pricefeed","type":"address","internalType":"address"},{"name":"_heartbeat","type":"uint128","internalType":"uint128"}],"outputs":[],"stateMutability":"nonpayable"},{"type":"function","name":"changeSequencerUptimeFeedAddress","inputs":[{"name":"_newaddress","type":"address","internalType":"address"}],"outputs":[],"stateMutability":"nonpayable"},{"type":"function","name":"contains","inputs":[{"name":"_assetAddress","type":"address","internalType":"address"}],"outputs":[{"name":"","type":"bool","internalType":"bool"}],"stateMutability":"view"},{"type":"function","name":"getNuAssetInfo","inputs":[{"name":"_nuAsset","type":"address","internalType":"address"}],"outputs":[{"name":"","type":"tuple","internalType":"struct nuAssetInfo","components":[{"name":"feed","type":"address","internalType":"address"},{"name":"heartbeat","type":"uint128","internalType":"uint128"},{"name":"index","type":"uint256","internalType":"uint256"}]}],"stateMutability":"view"},{"type":"function","name":"getNuAssetList","inputs":[],"outputs":[{"name":"","type":"address[]","internalType":"address[]"}],"stateMutability":"view"},{"type":"function","name":"getPriceInEth","inputs":[{"name":"_nuAsset","type":"address","internalType":"address"},{"name":"_amount","type":"uint256","internalType":"uint256"}],"outputs":[{"name":"EthValue","type":"uint256","internalType":"uint256"}],"stateMutability":"view"},{"type":"function","name":"getPriceInEth","inputs":[{"name":"_amount","type":"uint256","internalType":"uint256"},{"name":"_pricefeed","type":"address","internalType":"address"},{"name":"_chainlink_heartbeat","type":"uint128","internalType":"uint128"},{"name":"_decimals","type":"uint256","internalType":"uint256"}],"outputs":[{"name":"EthValue","type":"uint256","internalType":"uint256"}],"stateMutability":"view"},{"type":"function","name":"getPriceInEthRoundUp","inputs":[{"name":"_amount","type":"uint256","internalType":"uint256"},{"name":"_pricefeed","type":"address","internalType":"address"},{"name":"_chainlink_heartbeat","type":"uint128","internalType":"uint128"},{"name":"_decimals","type":"uint256","internalType":"uint256"}],"outputs":[{"name":"EthValue","type":"uint256","internalType":"uint256"}],"stateMutability":"view"},{"type":"function","name":"getPriceInEthRoundUp","inputs":[{"name":"_nuAsset","type":"address","internalType":"address"},{"name":"_amount","type":"uint256","internalType":"uint256"}],"outputs":[{"name":"EthValue","type":"uint256","internalType":"uint256"}],"stateMutability":"view"},{"type":"function","name":"getTokenPerEth","inputs":[{"name":"_nuAsset","type":"address","internalType":"address"},{"name":"_amount","type":"uint256","internalType":"uint256"}],"outputs":[{"name":"EthValue","type":"uint256","internalType":"uint256"}],"stateMutability":"view"},{"type":"function","name":"getTokenPerEth","inputs":[{"name":"_ethAmount","type":"uint256","internalType":"uint256"},{"name":"_pricefeed","type":"address","internalType":"address"},{"name":"_chainlink_heartbeat","type":"uint128","internalType":"uint128"},{"name":"_decimals","type":"uint256","internalType":"uint256"}],"outputs":[{"name":"tokenAmount","type":"uint256","internalType":"uint256"}],"stateMutability":"view"},{"type":"function","name":"getTokenPerEthRoundUp","inputs":[{"name":"_nuAsset","type":"address","internalType":"address"},{"name":"_amount","type":"uint256","internalType":"uint256"}],"outputs":[{"name":"EthValue","type":"uint256","internalType":"uint256"}],"stateMutability":"view"},{"type":"function","name":"getTokenPerEthRoundUp","inputs":[{"name":"_ethAmount","type":"uint256","internalType":"uint256"},{"name":"_pricefeed","type":"address","internalType":"address"},{"name":"_chainlink_heartbeat","type":"uint128","internalType":"uint128"},{"name":"_decimals","type":"uint256","internalType":"uint256"}],"outputs":[{"name":"tokenAmount","type":"uint256","internalType":"uint256"}],"stateMutability":"view"},{"type":"function","name":"getTotalSynthValueEth","inputs":[],"outputs":[{"name":"","type":"uint256","internalType":"uint256"}],"stateMutability":"view"},{"type":"function","name":"nuAssetInfos","inputs":[{"name":"","type":"address","internalType":"address"}],"outputs":[{"name":"feed","type":"address","internalType":"address"},{"name":"heartbeat","type":"uint128","internalType":"uint128"},{"name":"index","type":"uint256","internalType":"uint256"}],"stateMutability":"view"},{"type":"function","name":"nuAssetList","inputs":[{"name":"","type":"uint256","internalType":"uint256"}],"outputs":[{"name":"","type":"address","internalType":"address"}],"stateMutability":"view"},{"type":"function","name":"owner","inputs":[],"outputs":[{"name":"","type":"address","internalType":"address"}],"stateMutability":"view"},{"type":"function","name":"pendingOwner","inputs":[],"outputs":[{"name":"","type":"address","internalType":"address"}],"stateMutability":"view"},{"type":"function","name":"removeNuAsset","inputs":[{"name":"_assetAddress","type":"address","internalType":"address"}],"outputs":[],"stateMutability":"nonpayable"},{"type":"function","name":"renounceAddingRemoving","inputs":[],"outputs":[],"stateMutability":"nonpayable"},{"type":"function","name":"renounceAddingRemovingAssets","inputs":[],"outputs":[{"name":"","type":"bool","internalType":"bool"}],"stateMutability":"view"},{"type":"function","name":"renounceOwnership","inputs":[],"outputs":[],"stateMutability":"nonpayable"},{"type":"function","name":"transferOwnership","inputs":[{"name":"newOwner","type":"address","internalType":"address"}],"outputs":[],"stateMutability":"nonpayable"},{"type":"function","name":"updateNuAsset","inputs":[{"name":"_assetAddress","type":"address","internalType":"address"},{"name":"_pricefeed","type":"address","internalType":"address"},{"name":"_heartbeat","type":"uint128","internalType":"uint128"}],"outputs":[],"stateMutability":"nonpayable"},{"type":"event","name":"AddedAsset","inputs":[{"name":"_assetAddress","type":"address","indexed":false,"internalType":"address"},{"name":"_pricefeed","type":"address","indexed":false,"internalType":"address"}],"anonymous":false},{"type":"event","name":"OwnershipTransferStarted","inputs":[{"name":"previousOwner","type":"address","indexed":true,"internalType":"address"},{"name":"newOwner","type":"address","indexed":true,"internalType":"address"}],"anonymous":false},{"type":"event","name":"OwnershipTransferred","inputs":[{"name":"previousOwner","type":"address","indexed":true,"internalType":"address"},{"name":"newOwner","type":"address","indexed":true,"internalType":"address"}],"anonymous":false},{"type":"event","name":"RemovedAsset","inputs":[{"name":"_assetAddress","type":"address","indexed":false,"internalType":"address"}],"anonymous":false},{"type":"event","name":"UpdatedAsset","inputs":[{"name":"_assetAddress","type":"address","indexed":false,"internalType":"address"},{"name":"_pricefeed","type":"address","indexed":false,"internalType":"address"}],"anonymous":false},{"type":"error","name":"GracePeriodNotOver","inputs":[]},{"type":"error","name":"OwnableInvalidOwner","inputs":[{"name":"owner","type":"address","internalType":"address"}]},{"type":"error","name":"OwnableUnauthorizedAccount","inputs":[{"name":"account","type":"address","internalType":"address"}]},{"type":"error","name":"SequencerDown","inputs":[]}],"bytecode":{"object":"0x6080346100df57601f6200296338819003918201601f19168301916001600160401b038311848410176100e4578084926020946040528339810103126100df57516001600160a01b0390818116908190036100df57600080546001600160a01b0319908116909217905533156100c6578060025416600255600154903390821617600155604051913391167f8be0079c531659141344cd1fd0a4f28419497f9722a3daafe3b4186f6b6457e0600080a360ff19600554166005556128689081620000fb8239f35b604051631e4fbdf760e01b815260006004820152602490fd5b600080fd5b634e487b7160e01b600052604160045260246000fdfe6080604052600436101561001257600080fd5b60003560e01c80630f49b03714611a4257806317b79e8e1461198257806318853ee31461195a5780631a6719a5146114e85780631ae669781461121b5780631ead363c14610f495780632623b25c14610eec578063280a74f614610cd457806339da2ce714610c0c5780635dbe47e814610bc4578063707a15b914610ba8578063715018a614610b4157806374599fef1461089f578063786d04c11461085c57806379ba5097146107d35780637c1bf86e14610717578063816df30e146106f45780638da5cb5b146106cb578063955f2af11461060f578063c4677076146105f3578063cbb1e057146105a2578063dde645ae1461020c578063e30c3978146101e3578063f2fde38b146101765763fdf515b51461012f57600080fd5b346101715760203660031901126101715760043560045481101561017157610158602091611c04565b905460405160039290921b1c6001600160a01b03168152f35b600080fd5b346101715760203660031901126101715761018f611b84565b610197612758565b600280546001600160a01b0319166001600160a01b039283169081179091556001549091167f38d16b8cac22d99fc7c124b9cd0de2d3fa1faef420bfe791d8c362d765e22700600080a3005b34610171576000366003190112610171576002546040516001600160a01b039091168152602090f35b346101715761021a36611bc6565b6000546001600160a01b039491939290851680610513575b50604051633fabe5a360e21b815283861660a082600481845afa9485156103b9576000926000946000916000986104c5575b509061027c6001600160801b03610283931642611cdb565b1115611ce8565b6040516309169eff60e21b8152602098908981600481875afa9081156103b957600091610498575b50604051630455b78f60e31b81529491168985600481845afa80156103b9578a9560009161047b575b5060170b86139081610404575b5060049761031293926102f661030d93611d5e565b69ffffffffffffffffffff80911691161015611d9c565b61240f565b156103c55760405163313ce56760e01b815294859182905afa9283156103b95761034e936103489160009161038c575b50611e01565b9161276c565b905b60120390601282116103765761036861036e92611e12565b90611e31565b604051908152f35b634e487b7160e01b600052601160045260246000fd5b6103ac9150873d89116103b2575b6103a48183611c6d565b810190611de8565b87610342565b503d61039a565b6040513d6000823e3d90fd5b60405163313ce56760e01b815294929392859182905afa9283156103b9576103fe936103f89160009161038c5750611e01565b9061276c565b90610350565b60049392959150604051938480926370da2f6760e01b82525afa80156103b9576004978a956102f661030d936103129660009161044e575b5060170b8912935050929350976102e1565b61046e9150893d8b11610474575b6104668183611c6d565b810190611d45565b8e61043c565b503d61045c565b6104929150863d8811610474576104668183611c6d565b8b6102d4565b6104b891508a3d8c116104be575b6104b08183611c6d565b810190611d26565b8a6102ab565b503d6104a6565b6104fb91985061027c96506001600160801b039550610283925060a03d811161050c575b6104f38183611c6d565b810190611ca6565b9a9298939750935090919050610264565b503d6104e9565b60a060049160405192838092633fabe5a360e21b82525afa9081156103b95760009060009261057e575b5061056d5761054f610e109142611cdb565b111561055b5785610232565b60405163d15f73b560e01b8152600490fd5b60405162032b3d60e81b8152600490fd5b9050610598915060a03d811161050c576104f38183611c6d565b505091508761053d565b346101715760203660031901126101715760606105c56105c0611b84565b61259e565b6040805182516001600160a01b031681526020808401516001600160801b0316908201529181015190820152f35b3461017157602061036e61060636611bc6565b92919091611e44565b3461017157604036600319011261017157610628611b84565b6001600160a01b03811660009081526003602052604090206002015461064f90151561271e565b6106588161259e565b9060018060a01b039160206001600160801b038185845116930151169260046040518096819363313ce56760e01b8352165afa9182156103b95760ff61036e936020956000916106ae575b501691602435611e44565b6106c59150863d81116103b2576103a48183611c6d565b866106a3565b34610171576000366003190112610171576001546040516001600160a01b039091168152602090f35b3461017157600036600319011261017157602060ff600554166040519015158152f35b3461017157604036600319011261017157610730611b84565b6001600160a01b03811660009081526003602052604090206002015461075790151561271e565b6107608161259e565b9060018060a01b039160206001600160801b038185845116930151169260046040518096819363313ce56760e01b8352165afa9182156103b95760ff61036e936020956000916107b6575b50169160243561215d565b6107cd9150863d81116103b2576103a48183611c6d565b866107ab565b34610171576000366003190112610171576002546001600160a01b033381831603610844576bffffffffffffffffffffffff60a01b8092166002556001549133908316176001553391167f8be0079c531659141344cd1fd0a4f28419497f9722a3daafe3b4186f6b6457e0600080a3005b60405163118cdaa760e01b8152336004820152602490fd5b3461017157602036600319011261017157610875611b84565b61087d612758565b600080546001600160a01b0319166001600160a01b0392909216919091179055005b34610171576108ad36611bc6565b6000546001600160a01b039491939290851680610ad5575b50604051633fabe5a360e21b815283861660a082600481845afa9485156103b957600092600094600091600098610a97575b509061027c6001600160801b0361090f931642611cdb565b6040516309169eff60e21b8152602098908981600481875afa9081156103b957600091610a7a575b50604051630455b78f60e31b81529491168985600481845afa80156103b9578a95600091610a5d575b5060170b861390816109f6575b5060049761098293926102f661030d93611d5e565b156109bd5760405163313ce56760e01b815294859182905afa9283156103b95761034e936109b79160009161038c5750611e01565b916127ef565b60405163313ce56760e01b815294929392859182905afa9283156103b9576103fe936109f09160009161038c5750611e01565b906127ef565b60049392959150604051938480926370da2f6760e01b82525afa80156103b9576004978a956102f661030d9361098296600091610a40575b5060170b89129350509293509761096d565b610a579150893d8b11610474576104668183611c6d565b8e610a2e565b610a749150863d8811610474576104668183611c6d565b8b610960565b610a9191508a3d8c116104be576104b08183611c6d565b8a610937565b610ac491985061027c96506001600160801b03955061090f925060a03d811161050c576104f38183611c6d565b9a92989397509350909190506108f7565b60a060049160405192838092633fabe5a360e21b82525afa9081156103b957600090600092610b1d575b5061056d57610b11610e109142611cdb565b111561055b57856108c5565b9050610b37915060a03d811161050c576104f38183611c6d565b5050915087610aff565b3461017157600036600319011261017157610b5a612758565b600280546001600160a01b03199081169091556001805491821690556000906001600160a01b03167f8be0079c531659141344cd1fd0a4f28419497f9722a3daafe3b4186f6b6457e08280a3005b3461017157602061036e610bbb36611bc6565b9291909161215d565b34610171576020366003190112610171576020610c02610be2611b84565b6001600160a01b0316600090815260036020526040902060020154151590565b6040519015158152f35b3461017157600036600319011261017157604051806004548083526020809301809160046000527f8a35acfbc15ff81a39ae7d344fd709f28e8600b4aa8c65c6b64bfe7fe36bd19b9060005b86828210610cb7578686610c6e82880383611c6d565b604051928392818401908285525180915260408401929160005b828110610c9757505050500390f35b83516001600160a01b031685528695509381019392810192600101610c88565b83546001600160a01b031685529093019260019283019201610c58565b3461017157606036600319011261017157610ced611b84565b610cf5611b9a565b610cfd611bb0565b91610d06612758565b610d1560ff6005541615612600565b6001600160a01b03818116610d2b81151561264c565b81841691610d3a831515612698565b6001600160a01b038416600090815260036020526040902060020154610eb7576004549160c8831015610e7e5768010000000000000000831015610e68577f75b132a593c4978c1b3e56e8ac484985fc3c6fc7164ac4540feb030ac59a5bbb96610dcf86610db086600160029801600455611c04565b90919082549060031b9160018060a01b03809116831b921b1916179055565b6004549260405195610de087611c51565b865260208601926001600160801b03809316845260408701948552600052600360205260406000209551166bffffffffffffffffffffffff60a01b865416178555600185019151166001600160801b031982541617905551910155610e636040519283928390602090939293604083019460018060a01b03809216845216910152565b0390a1005b634e487b7160e01b600052604160045260246000fd5b60405162461bcd60e51b8152602060048201526011602482015270746f6f206d616e79206e7541737365747360781b6044820152606490fd5b60405162461bcd60e51b815260206004820152600d60248201526c185b1c9958591e481859191959609a1b6044820152606490fd5b346101715760203660031901126101715760606001600160a01b0380610f10611b84565b1660005260036020526040600020908154169060026001600160801b036001830154169101549060405192835260208301526040820152f35b3461017157604036600319011261017157610f62611b84565b6001600160a01b03811660009081526003602052604090206002015460243591610f91916105c090151561271e565b9060018060a01b0380835116916001600160801b0360208095015116918060005416806111af575b50604051633fabe5a360e21b81529360a085600481845afa9182156103b95760009560009560009160009561117a575b509061027c610ff89242611cdb565b6040516309169eff60e21b81528781600481865afa9081156103b95760009161115d575b50604051630455b78f60e31b81529391168784600481845afa80156103b9578894600091611140575b5060170b861390816110df575b50906004966102f661106393611d5e565b61106c8161240f565b156110a95760405163313ce56760e01b815294859182905afa9182156103b9576103486110a49361036e9560009161038c5750611e01565b611e20565b60405163313ce56760e01b815294929392859182905afa9182156103b9576103f86110a49361036e9560009161038c5750611e01565b6040516370da2f6760e01b8152949150849060049082905afa9081156103b9576004966102f6611063938a96600091611123575b5060170b88129293505096611052565b61113a9150873d8911610474576104668183611c6d565b8b611113565b6111579150853d8711610474576104668183611c6d565b89611045565b6111749150883d8a116104be576104b08183611c6d565b8861101c565b909450610ff8975061027c965061119f915060a03d811161050c576104f38183611c6d565b9399509197929591929050610fe9565b60a060049160405192838092633fabe5a360e21b82525afa9081156103b9576000906000926111f7575b5061056d576111eb610e109142611cdb565b111561055b5785610fb9565b9050611211915060a03d811161050c576104f38183611c6d565b50509150876111d9565b3461017157604036600319011261017157611234611b84565b6001600160a01b03811660009081526003602052604090206002015460243591611263916105c090151561271e565b9060018060a01b0380835116916001600160801b03602080950151169180600054168061147c575b50604051633fabe5a360e21b81529360a085600481845afa9182156103b957600095600095600091600095611447575b509061027c6112ca9242611cdb565b6040516309169eff60e21b81528781600481865afa9081156103b95760009161142a575b50604051630455b78f60e31b81529391168784600481845afa80156103b957889460009161140d575b5060170b861390816113ac575b50906004966102f661133593611d5e565b61133e8161240f565b156113765760405163313ce56760e01b815294859182905afa9182156103b9576109b76110a49361036e9560009161038c5750611e01565b60405163313ce56760e01b815294929392859182905afa9182156103b9576109f06110a49361036e9560009161038c5750611e01565b6040516370da2f6760e01b8152949150849060049082905afa9081156103b9576004966102f6611335938a966000916113f0575b5060170b88129293505096611324565b6114079150873d8911610474576104668183611c6d565b8b6113e0565b6114249150853d8711610474576104668183611c6d565b89611317565b6114419150883d8a116104be576104b08183611c6d565b886112ee565b9094506112ca975061027c965061146c915060a03d811161050c576104f38183611c6d565b93995091979295919290506112bb565b60a060049160405192838092633fabe5a360e21b82525afa9081156103b9576000906000926114c4575b5061056d576114b8610e109142611cdb565b111561055b578561128b565b90506114de915060a03d811161050c576104f38183611c6d565b50509150876114a6565b3461017157600036600319011261017157600060045460c881116119155760008054909291906001600160a01b03165b81841061152a57602083604051908152f35b909161153584611c04565b90546040516318160ddd60e01b81529160039190821b1c6001600160a01b0316602083600481845afa9182156103b9576000926118e0575b600493508160005260205260406000209160206040519261158d84611c51565b84546001600160a01b031680855260018601546001600160801b0316838601819052600290960154604095860152935163313ce56760e01b815295869182905afa9384156103b9576000946118bf575b5085611847575b604051633fabe5a360e21b81529160a08084600481855afa9081156103b957600095600095600092600094611810575b50509061027c6116249242611cdb565b6040516309169eff60e21b815290602082600481865afa9182156103b9576000926117ef575b50604051630455b78f60e31b8152956020876004816001600160a01b0387165afa80156103b9576004976000916117d0575b50601790810b87139384611768575b50506102f661169993611d5e565b6116a28161240f565b1561172e576020906040519485809263313ce56760e01b82525afa9283156103b9576116d9936103f89160009161170f5750611e01565b60ff601292168203918211610376576103686116f492611e12565b81018091116103765761170790936123ef565b929190611518565b611728915060203d6020116103b2576103a48183611c6d565b8a610342565b6020906040939293519485809263313ce56760e01b82525afa9283156103b957611763936103489160009161170f5750611e01565b6116d9565b6040516370da2f6760e01b815298919450602091899182906001600160a01b03165afa9687156103b957600497611699946102f6926000926117af575b500b87129361168b565b6117c991925060203d602011610474576104668183611c6d565b908f6117a5565b6117e9915060203d602011610474576104668183611c6d565b8d61167c565b61180991925060203d6020116104be576104b08183611c6d565b908b61164a565b611624985061027c975080919294506118359350903d1061050c576104f38183611c6d565b92989390979150979691939192611614565b604051633fabe5a360e21b815260a080826004818b5afa9182156103b95760009160009361189a575b505061056d57611883610e109142611cdb565b116115e45760405163d15f73b560e01b8152600490fd5b6118b4935080919250903d1061050c576104f38183611c6d565b505091508a80611870565b6118d991945060203d6020116103b2576103a48183611c6d565b92886115dd565b91506020833d60201161190d575b816118fb60209383611c6d565b8101031261017157600492519161156d565b3d91506118ee565b60405162461bcd60e51b815260206004820152601960248201527f746f6f206d616e79206e7541737365747320696e206c697374000000000000006044820152606490fd5b3461017157600036600319011261017157611973612758565b6005805460ff19166001179055005b34610171576060366003190112610171577f3963db782571a26464a2ec3f080b6c057d3fda4f2563149fc0c897258836236e6119bc611b84565b6119c4611b9a565b906119cd611bb0565b6119d5612758565b60026001600160a01b038381166119ed81151561264c565b818616936119fc851515612698565b6001600160a01b038616600090815260036020526040902060020154611a239015156126e4565b81600052600360205283604060002001549260405195610de087611c51565b3461017157602036600319011261017157611a5b611b84565b611a63612758565b611a7260ff6005541615612600565b6001600160a01b038116600090815260036020526040902060020154611a999015156126e4565b6001600160a01b039081166000818152600360205260409020600201546004546000199392919084810190811161037657611ad48491611c04565b90549060031b1c168482018281116103765781610db0611af392611c04565b60005260036020526002604060002001558060005260006002604082208281558260018201550155600454918215611b6e577fb5c3bd787b070cfb84ba6afb620405d01603f2dff7019495776c0fa8be3c9095936020930190611b5582611c04565b909182549160031b1b19169055600455604051908152a1005b634e487b7160e01b600052603160045260246000fd5b600435906001600160a01b038216820361017157565b602435906001600160a01b038216820361017157565b604435906001600160801b038216820361017157565b608090600319011261017157600435906024356001600160a01b038116810361017157906044356001600160801b0381168103610171579060643590565b600454811015611c3b5760046000527f8a35acfbc15ff81a39ae7d344fd709f28e8600b4aa8c65c6b64bfe7fe36bd19b0190600090565b634e487b7160e01b600052603260045260246000fd5b6060810190811067ffffffffffffffff821117610e6857604052565b90601f8019910116810190811067ffffffffffffffff821117610e6857604052565b519069ffffffffffffffffffff8216820361017157565b908160a091031261017157611cba81611c8f565b91602082015191604081015191611cd8608060608401519301611c8f565b90565b9190820391821161037657565b15611cef57565b60405162461bcd60e51b815260206004820152600f60248201526e14dd185b19481c1c9a58d959995959608a1b6044820152606490fd5b9081602091031261017157516001600160a01b03811681036101715790565b9081602091031261017157518060170b81036101715790565b15611d6557565b60405162461bcd60e51b815260206004820152600f60248201526e1b5a5b8bdb585e081c995858da1959608a1b6044820152606490fd5b15611da357565b60405162461bcd60e51b815260206004820152601960248201527f416e7377657220676976656e206265666f726520726f756e64000000000000006044820152606490fd5b90816020910312610171575160ff811681036101715790565b60ff16604d811161037657600a0a90565b604d811161037657600a0a90565b908115600183800414171561037657565b8181029291811591840414171561037657565b9093929160018060a01b039160009280845416806120e8575b5060408051633fabe5a360e21b81526004989192918083169160a0818c81865afa9081156120de57889089988a918b946120a1575b509061027c6001600160801b03611eaa931642611cdb565b85516309169eff60e21b81526020959086818f81895afa90811561207a578b91612084575b508751630455b78f60e31b815291169086818f81855afa90811561207a57908e979695949392918c9161205d575b5060170b8a139081611feb575b509161030d916102f6611f1d9594611d5e565b15611fae57819084519384809263313ce56760e01b82525afa928315611fa55750916103f891611f579594938792611f88575b5050611e01565b915b6012039060128211611f755750611cd892935061036890611e12565b634e487b7160e01b815260118552602490fd5b611f9e9250803d106103b2576103a48183611c6d565b3880611f50565b513d87823e3d90fd5b819084969596519384809263313ce56760e01b82525afa928315611fa557509161034891611fe59594938792611f88575050611e01565b91611f59565b8697929394959691508851928380926370da2f6760e01b82525afa90811561205357928d969594926102f661030d93611f1d968e91612036575b5060170b8c12929495505091611f0a565b61204d9150893d8b11610474576104668183611c6d565b38612025565b87513d8c823e3d90fd5b6120749150873d8911610474576104668183611c6d565b38611efd565b88513d8d823e3d90fd5b61209b9150873d89116104be576104b08183611c6d565b38611ecf565b61027c9a506120ce9194506001600160801b039350611eaa925060a03d811161050c576104f38183611c6d565b929c92969395509350611e929050565b85513d8a823e3d90fd5b60a060049160405192838092633fabe5a360e21b82525afa908115612152578590869261212e575b5061056d57612122610e109142611cdb565b111561055b5738611e5d565b9050612148915060a03d811161050c576104f38183611c6d565b5050915038612110565b6040513d87823e3d90fd5b9093929160018060a01b03916000928084541680612385575b5060408051633fabe5a360e21b81526004989192918083169160a0818c81865afa9081156120de57889089988a918b94612348575b509061027c6001600160801b036121c3931642611cdb565b85516309169eff60e21b81526020959086818f81895afa90811561207a578b9161232b575b508751630455b78f60e31b815291169086818f81855afa90811561207a57908e979695949392918c9161230e575b5060170b8a1390816122a6575b509161030d916102f66122369594611d5e565b1561226f57819084519384809263313ce56760e01b82525afa928315611fa55750916109f091611f579594938792611f88575050611e01565b819084969596519384809263313ce56760e01b82525afa928315611fa55750916109b791611fe59594938792611f88575050611e01565b8697929394959691508851928380926370da2f6760e01b82525afa90811561205357928d969594926102f661030d93612236968e916122f1575b5060170b8c12929495505091612223565b6123089150893d8b11610474576104668183611c6d565b386122e0565b6123259150873d8911610474576104668183611c6d565b38612216565b6123429150873d89116104be576104b08183611c6d565b386121e8565b61027c9a506123759194506001600160801b0393506121c3925060a03d811161050c576104f38183611c6d565b929c929693955093506121ab9050565b60a060049160405192838092633fabe5a360e21b82525afa90811561215257859086926123cb575b5061056d576123bf610e109142611cdb565b111561055b5738612176565b90506123e5915060a03d811161050c576104f38183611c6d565b50509150386123ad565b60001981146103765760010190565b908151811015611c3b570160200190565b60408051633942720b60e11b815291600091908290849060049082906001600160a01b03165afa9283156125935782936124d7575b508051908082019082821067ffffffffffffffff8311176124c357526003928382526208aa8960eb1b6020830152825b848110612485575050505050600190565b6001600160f81b03198061249983856123fe565b5116906124a683866123fe565b5116036124bb576124b6906123ef565b612474565b505050905090565b634e487b7160e01b84526041600452602484fd5b9092503d8083833e6124e98183611c6d565b810190602090818184031261258f57805167ffffffffffffffff9182821161258b570183601f8201121561257357805191821161257757855193612536601f8401601f1916850186611c6d565b8285528383830101116125735790849291835b82811061255d575050830101529138612444565b8181018401518682018501528694508301612549565b8480fd5b634e487b7160e01b85526041600452602485fd5b8580fd5b8380fd5b5051903d90823e3d90fd5b6000604080516125ad81611c51565b828152826020820152015260018060a01b03809116600052600360205260026040600020604051926125de84611c51565b81541683526001600160801b0360018201541660208401520154604082015290565b1561260757565b60405162461bcd60e51b815260206004820152601860248201527f616464696e67206e7541737365742072656e6f756e63656400000000000000006044820152606490fd5b1561265357565b60405162461bcd60e51b815260206004820152601760248201527f696e76616c6964206e75617373657420616464726573730000000000000000006044820152606490fd5b1561269f57565b60405162461bcd60e51b815260206004820152601a60248201527f696e76616c6964207072696365206665656420616464726573730000000000006044820152606490fd5b156126eb57565b60405162461bcd60e51b815260206004820152600b60248201526a1b9bdd081a5b881b1a5cdd60aa1b6044820152606490fd5b1561272557565b60405162461bcd60e51b815260206004820152600b60248201526a189859081b9d505cdcd95d60aa1b6044820152606490fd5b6001546001600160a01b0316330361084457565b9160001982840992828102928380861095039480860395146127e157848311156101715782910981806000031680920460028082600302188083028203028083028203028083028203028083028203028083028203028092029003029360018380600003040190848311900302920304170290565b505080925015610171570490565b9291906127fd82828661276c565b93821561281c570961280b57565b906000198110156101715760010190565b634e487b7160e01b600052601260045260246000fdfea2646970667358221220dda4535655859cdad4c9cf34676c40ee8d4e220e9f2310e672b5f51e047b707864736f6c63430008140033","linkReferences":{}},"methodIdentifiers":{"acceptOwnership()":"79ba5097","addNuAsset(address,address,uint128)":"280a74f6","changeSequencerUptimeFeedAddress(address)":"786d04c1","contains(address)":"5dbe47e8","getNuAssetInfo(address)":"cbb1e057","getNuAssetList()":"39da2ce7","getPriceInEth(address,uint256)":"955f2af1","getPriceInEth(uint256,address,uint128,uint256)":"c4677076","getPriceInEthRoundUp(address,uint256)":"7c1bf86e","getPriceInEthRoundUp(uint256,address,uint128,uint256)":"707a15b9","getTokenPerEth(address,uint256)":"1ead363c","getTokenPerEth(uint256,address,uint128,uint256)":"dde645ae","getTokenPerEthRoundUp(address,uint256)":"1ae66978","getTokenPerEthRoundUp(uint256,address,uint128,uint256)":"74599fef","getTotalSynthValueEth()":"1a6719a5","nuAssetInfos(address)":"2623b25c","nuAssetList(uint256)":"fdf515b5","owner()":"8da5cb5b","pendingOwner()":"e30c3978","removeNuAsset(address)":"0f49b037","renounceAddingRemoving()":"18853ee3","renounceAddingRemovingAssets()":"816df30e","renounceOwnership()":"715018a6","transferOwnership(address)":"f2fde38b","updateNuAsset(address,address,uint128)":"17b79e8e"},"id":86}