{"abi":[{"type":"constructor","inputs":[{"name":"_token","type":"address","internalType":"address"},{"name":"_feed","type":"address","internalType":"address"},{"name":"_chainlink_heartbeat","type":"uint128","internalType":"uint128"},{"name":"_uptimeFeedAddress","type":"address","internalType":"address"}],"stateMutability":"nonpayable"},{"type":"function","name":"feed","inputs":[],"outputs":[{"name":"","type":"address","internalType":"address"}],"stateMutability":"view"},{"type":"function","name":"getPriceInEth","inputs":[{"name":"_amount","type":"uint256","internalType":"uint256"},{"name":"_pricefeed","type":"address","internalType":"address"},{"name":"_chainlink_heartbeat","type":"uint128","internalType":"uint128"},{"name":"_decimals","type":"uint256","internalType":"uint256"}],"outputs":[{"name":"EthValue","type":"uint256","internalType":"uint256"}],"stateMutability":"view"},{"type":"function","name":"getPriceInEthRoundUp","inputs":[{"name":"_amount","type":"uint256","internalType":"uint256"},{"name":"_pricefeed","type":"address","internalType":"address"},{"name":"_chainlink_heartbeat","type":"uint128","internalType":"uint128"},{"name":"_decimals","type":"uint256","internalType":"uint256"}],"outputs":[{"name":"EthValue","type":"uint256","internalType":"uint256"}],"stateMutability":"view"},{"type":"function","name":"getTokenPerEth","inputs":[{"name":"_ethAmount","type":"uint256","internalType":"uint256"},{"name":"_pricefeed","type":"address","internalType":"address"},{"name":"_chainlink_heartbeat","type":"uint128","internalType":"uint128"},{"name":"_decimals","type":"uint256","internalType":"uint256"}],"outputs":[{"name":"tokenAmount","type":"uint256","internalType":"uint256"}],"stateMutability":"view"},{"type":"function","name":"getTokenPerEthRoundUp","inputs":[{"name":"_ethAmount","type":"uint256","internalType":"uint256"},{"name":"_pricefeed","type":"address","internalType":"address"},{"name":"_chainlink_heartbeat","type":"uint128","internalType":"uint128"},{"name":"_decimals","type":"uint256","internalType":"uint256"}],"outputs":[{"name":"tokenAmount","type":"uint256","internalType":"uint256"}],"stateMutability":"view"},{"type":"function","name":"getTokenPrice","inputs":[{"name":"_amount","type":"uint256","internalType":"uint256"}],"outputs":[{"name":"","type":"uint256","internalType":"uint256"}],"stateMutability":"view"},{"type":"error","name":"GracePeriodNotOver","inputs":[]},{"type":"error","name":"SequencerDown","inputs":[]}],"bytecode":{"object":"0x6080346100ce57601f61135438819003918201601f19168301916001600160401b038311848410176100d3578084926080946040528339810103126100ce57610047816100e9565b90610054602082016100e9565b60408201519092906001600160801b038116908190036100ce576001600160a01b039283908190610087906060016100e9565b169460018060a01b0319958660005416176000551684600154161760015560018060801b031960025416176002551690600354161760035560405161125690816100fe8239f35b600080fd5b634e487b7160e01b600052604160045260246000fd5b51906001600160a01b03821682036100ce5756fe6080604081815260048036101561001557600080fd5b600092833560e01c90816337a7b7d8146109f857508063707a15b91461076657806374599fef146104ca578063c457fb371461043c578063c4677076146104195763dde645ae1461006557600080fd5b346104155761007336610a1d565b93929060018060a09894981b0396848885541680610384575b50508651633fabe5a360e21b8152818916919060a0818881865afa90811561037a57869087958891899461032d575b50906100d36001600160801b036100da931642610afd565b1115610b20565b89516309169eff60e21b815260209b908c818b81895afa9081156102f6578991610300575b50168a51630455b78f60e31b81528c818b81855afa9081156102f657918d9593918b9795938b916102d9575b5060170b88139081610256575b50916101629161014b6101679594610b96565b69ffffffffffffffffffff80911691161015610bd4565b610fb5565b1561021757885163313ce56760e01b815292839182905afa90811561020d576101a393929161019d9186916101e0575b50610c20565b9161115a565b925b60120391601283116101cd575050906101c06101c692610c31565b90610c3f565b9051908152f35b634e487b7160e01b825260119052602490fd5b61020091508a3d8c11610206575b6101f88183610a60565b810190610a98565b38610197565b503d6101ee565b87513d86823e3d90fd5b885163313ce56760e01b815293949392839182905afa90811561020d5761025093929161024a9186916101e05750610c20565b9061115a565b926101a5565b90508c969294969591939551928380926370da2f6760e01b82525afa9081156102cf578995936101679361014b8f9794610162948d916102a2575b5060170b8a12929495505091610138565b6102c29150893d8b116102c8575b6102ba8183610a60565b810190610b7d565b38610291565b503d6102b0565b8b513d8a823e3d90fd5b6102f09150873d89116102c8576102ba8183610a60565b3861012b565b8c513d8b823e3d90fd5b61032091508d803d10610326575b6103188183610a60565b810190610b5e565b386100ff565b503d61030e565b6100d397506103639194506001600160801b0393506100da925060a03d8111610373575b61035b8183610a60565b810190610ac8565b9299929693955093506100bb9050565b503d610351565b89513d88823e3d90fd5b60a090895192838092633fabe5a360e21b82525afa90811561040b57859086926103e7575b506103d8576103bb610e109142610afd565b11156103c857843861008c565b865163d15f73b560e01b81528590fd5b875162032b3d60e81b81528690fd5b9050610401915060a03d81116103735761035b8183610a60565b50509150386103a9565b88513d87823e3d90fd5b8280fd5b505034610438576020906101c661042f36610a1d565b92919091610c52565b5080fd5b50346104155760203660031901126104155760018060a01b0380600154168260206001600160801b0360025416936003541686519283809263313ce56760e01b82525afa9081156104c0576101c69493929160ff91602098916104a3575b50169235610c52565b6104ba9150883d8111610206576101f88183610a60565b3861049a565b85513d88823e3d90fd5b5034610415576104d936610a1d565b93929060018060a09894981b03968488855416806106fe575b50508651633fabe5a360e21b8152818916919060a0818881865afa90811561037a5786908795889189946106c1575b50906100d36001600160801b03610539931642610afd565b89516309169eff60e21b815260209b908c818b81895afa9081156102f65789916106a4575b50168a51630455b78f60e31b81528c818b81855afa9081156102f657918d9593918b9795938b91610687575b5060170b8813908161061e575b50916101629161014b6105aa9594610b96565b156105e557885163313ce56760e01b815292839182905afa90811561020d576101a39392916105df9186916101e05750610c20565b916111dd565b885163313ce56760e01b815293949392839182905afa90811561020d576102509392916106189186916101e05750610c20565b906111dd565b90508c969294969591939551928380926370da2f6760e01b82525afa9081156102cf578995936105aa9361014b8f9794610162948d9161066a575b5060170b8a12929495505091610597565b6106819150893d8b116102c8576102ba8183610a60565b38610659565b61069e9150873d89116102c8576102ba8183610a60565b3861058a565b6106bb91508d803d10610326576103188183610a60565b3861055e565b6100d397506106ee9194506001600160801b039350610539925060a03d81116103735761035b8183610a60565b9299929693955093506105219050565b60a090895192838092633fabe5a360e21b82525afa90811561040b5785908692610742575b506103d857610735610e109142610afd565b11156103c85784386104f2565b905061075c915060a03d81116103735761035b8183610a60565b5050915038610723565b50346104155761077536610a1d565b86546001600160a01b03979195949193908590891680610990575b50508651633fabe5a360e21b8152818916919060a0818881865afa90811561037a578690879688918994610953575b50906100d36001600160801b036107d7931642610afd565b89516309169eff60e21b815260209b908c818b81895afa9081156102f6578991610936575b50168a51630455b78f60e31b81528c818b81855afa9081156102f657918d9593918b9795938b91610919575b5060170b891390816108b0575b50916101629161014b6108489594610b96565b1561087d57885163313ce56760e01b815292839182905afa90811561020d576101a39392916106189186916101e05750610c20565b885163313ce56760e01b815293949392839182905afa90811561020d576102509392916105df9186916101e05750610c20565b90508c969294969591939551928380926370da2f6760e01b82525afa9081156102cf578995936108489361014b8f9794610162948d916108fc575b5060170b8b12929495505091610835565b6109139150893d8b116102c8576102ba8183610a60565b386108eb565b6109309150873d89116102c8576102ba8183610a60565b38610828565b61094d91508d803d10610326576103188183610a60565b386107fc565b6100d398506109809194506001600160801b0393506107d7925060a03d81116103735761035b8183610a60565b929a929693955093506107bf9050565b60a090895192838092633fabe5a360e21b82525afa90811561040b57859086926109d4575b506103d8576109c7610e109142610afd565b11156103c8578438610790565b90506109ee915060a03d81116103735761035b8183610a60565b50509150386109b5565b8490346104385781600319360112610438576001546001600160a01b03168152602090f35b6080906003190112610a5b57600435906024356001600160a01b0381168103610a5b57906044356001600160801b0381168103610a5b579060643590565b600080fd5b90601f8019910116810190811067ffffffffffffffff821117610a8257604052565b634e487b7160e01b600052604160045260246000fd5b90816020910312610a5b575160ff81168103610a5b5790565b519069ffffffffffffffffffff82168203610a5b57565b908160a0910312610a5b57610adc81610ab1565b91602082015191604081015191610afa608060608401519301610ab1565b90565b91908203918211610b0a57565b634e487b7160e01b600052601160045260246000fd5b15610b2757565b60405162461bcd60e51b815260206004820152600f60248201526e14dd185b19481c1c9a58d959995959608a1b6044820152606490fd5b90816020910312610a5b57516001600160a01b0381168103610a5b5790565b90816020910312610a5b57518060170b8103610a5b5790565b15610b9d57565b60405162461bcd60e51b815260206004820152600f60248201526e1b5a5b8bdb585e081c995858da1959608a1b6044820152606490fd5b15610bdb57565b60405162461bcd60e51b815260206004820152601960248201527f416e7377657220676976656e206265666f726520726f756e64000000000000006044820152606490fd5b60ff16604d8111610b0a57600a0a90565b604d8111610b0a57600a0a90565b81810292918115918404141715610b0a57565b9093929160018060a01b03916000928084541680610ef6575b5060408051633fabe5a360e21b81526004989192918083169160a0818c81865afa908115610eec57889089988a918b94610eaf575b50906100d36001600160801b03610cb8931642610afd565b85516309169eff60e21b81526020959086818f81895afa908115610e88578b91610e92575b508751630455b78f60e31b815291169086818f81855afa908115610e8857908e979695949392918c91610e6b575b5060170b8a139081610df9575b50916101629161014b610d2b9594610b96565b15610dbc57819084519384809263313ce56760e01b82525afa928315610db357509161024a91610d659594938792610d96575b5050610c20565b915b6012039060128211610d835750610afa9293506101c090610c31565b634e487b7160e01b815260118552602490fd5b610dac9250803d10610206576101f88183610a60565b3880610d5e565b513d87823e3d90fd5b819084969596519384809263313ce56760e01b82525afa928315610db357509161019d91610df39594938792610d96575050610c20565b91610d67565b8697929394959691508851928380926370da2f6760e01b82525afa908115610e6157928d9695949261014b61016293610d2b968e91610e44575b5060170b8c12929495505091610d18565b610e5b9150893d8b116102c8576102ba8183610a60565b38610e33565b87513d8c823e3d90fd5b610e829150873d89116102c8576102ba8183610a60565b38610d0b565b88513d8d823e3d90fd5b610ea99150873d8911610326576103188183610a60565b38610cdd565b6100d39a50610edc9194506001600160801b039350610cb8925060a03d81116103735761035b8183610a60565b929c92969395509350610ca09050565b85513d8a823e3d90fd5b60a060049160405192838092633fabe5a360e21b82525afa908115610f835785908692610f5f575b50610f4e57610f30610e109142610afd565b1115610f3c5738610c6b565b60405163d15f73b560e01b8152600490fd5b60405162032b3d60e81b8152600490fd5b9050610f79915060a03d81116103735761035b8183610a60565b5050915038610f1e565b6040513d87823e3d90fd5b908151811015610f9f570160200190565b634e487b7160e01b600052603260045260246000fd5b60408051633942720b60e11b81529160009160049183908590849082906001600160a01b03165afa938415611150578394611095575b508051908082019082821067ffffffffffffffff83111761108257526003938482526208aa8960eb1b6020830152835b85811061102d57505050505050600190565b6001600160f81b0319806110418385610f8e565b51169061104e8386610f8e565b5116036110795760001981146110665760010161101b565b634e487b7160e01b855260118452602485fd5b50505050905090565b634e487b7160e01b855260418452602485fd5b9093503d8084833e6110a78183610a60565b810190602090818184031261114c57805167ffffffffffffffff91828211611148570183601f82011215611131578051918211611135578651936110f4601f8401601f1916850186610a60565b8285528383830101116111315790859291835b82811061111b575050830101529238610feb565b8181018401518682018501528794508301611107565b8580fd5b634e487b7160e01b865260418552602486fd5b8680fd5b8480fd5b81513d85823e3d90fd5b9160001982840992828102928380861095039480860395146111cf5784831115610a5b5782910981806000031680920460028082600302188083028203028083028203028083028203028083028203028083028203028092029003029360018380600003040190848311900302920304170290565b505080925015610a5b570490565b9291906111eb82828661115a565b93821561120a57096111f957565b90600019811015610a5b5760010190565b634e487b7160e01b600052601260045260246000fdfea2646970667358221220ade8962fbcced39c6b58e4d1e528a6c984443bd5aff3bebffcee2d476415b99164736f6c63430008140033","linkReferences":{}},"methodIdentifiers":{"feed()":"37a7b7d8","getPriceInEth(uint256,address,uint128,uint256)":"c4677076","getPriceInEthRoundUp(uint256,address,uint128,uint256)":"707a15b9","getTokenPerEth(uint256,address,uint128,uint256)":"dde645ae","getTokenPerEthRoundUp(uint256,address,uint128,uint256)":"74599fef","getTokenPrice(uint256)":"c457fb37"},"id":7}