{"abi":[{"type":"constructor","inputs":[{"name":"_pricefeedUSDC_USD","type":"address","internalType":"address"},{"name":"_chainlink_heartbeatUSDC_USD","type":"uint128","internalType":"uint128"},{"name":"_pricefeedETH_USD","type":"address","internalType":"address"},{"name":"_chainlink_heartbeatETH_USD","type":"uint128","internalType":"uint128"},{"name":"_uptimeFeedAddress","type":"address","internalType":"address"}],"stateMutability":"nonpayable"},{"type":"function","name":"convertNumaPerTokenToNumaPerEth","inputs":[{"name":"_numaPerTokenmulAmount","type":"uint256","internalType":"uint256"}],"outputs":[{"name":"ethValue","type":"uint256","internalType":"uint256"}],"stateMutability":"view"},{"type":"function","name":"convertTokenPerNumaToEthPerNuma","inputs":[{"name":"_tokenPerNumamulAmount","type":"uint256","internalType":"uint256"}],"outputs":[{"name":"ethValue","type":"uint256","internalType":"uint256"}],"stateMutability":"view"},{"type":"function","name":"getPriceInEth","inputs":[{"name":"_amount","type":"uint256","internalType":"uint256"},{"name":"_pricefeed","type":"address","internalType":"address"},{"name":"_chainlink_heartbeat","type":"uint128","internalType":"uint128"},{"name":"_decimals","type":"uint256","internalType":"uint256"}],"outputs":[{"name":"EthValue","type":"uint256","internalType":"uint256"}],"stateMutability":"view"},{"type":"function","name":"getPriceInEthRoundUp","inputs":[{"name":"_amount","type":"uint256","internalType":"uint256"},{"name":"_pricefeed","type":"address","internalType":"address"},{"name":"_chainlink_heartbeat","type":"uint128","internalType":"uint128"},{"name":"_decimals","type":"uint256","internalType":"uint256"}],"outputs":[{"name":"EthValue","type":"uint256","internalType":"uint256"}],"stateMutability":"view"},{"type":"function","name":"getTokenPerEth","inputs":[{"name":"_ethAmount","type":"uint256","internalType":"uint256"},{"name":"_pricefeed","type":"address","internalType":"address"},{"name":"_chainlink_heartbeat","type":"uint128","internalType":"uint128"},{"name":"_decimals","type":"uint256","internalType":"uint256"}],"outputs":[{"name":"tokenAmount","type":"uint256","internalType":"uint256"}],"stateMutability":"view"},{"type":"function","name":"getTokenPerEthRoundUp","inputs":[{"name":"_ethAmount","type":"uint256","internalType":"uint256"},{"name":"_pricefeed","type":"address","internalType":"address"},{"name":"_chainlink_heartbeat","type":"uint128","internalType":"uint128"},{"name":"_decimals","type":"uint256","internalType":"uint256"}],"outputs":[{"name":"tokenAmount","type":"uint256","internalType":"uint256"}],"stateMutability":"view"},{"type":"function","name":"pricefeedETH_USD","inputs":[],"outputs":[{"name":"","type":"address","internalType":"address"}],"stateMutability":"view"},{"type":"function","name":"pricefeedUSDC_USD","inputs":[],"outputs":[{"name":"","type":"address","internalType":"address"}],"stateMutability":"view"},{"type":"error","name":"GracePeriodNotOver","inputs":[]},{"type":"error","name":"SequencerDown","inputs":[]}],"bytecode":{"object":"0x608034620000f257601f6200204d38819003918201601f19168301916001600160401b03831184841017620000f75780849260a094604052833981010312620000f2576200004d816200010d565b6200005b6020830162000122565b916200006a604082016200010d565b916200009460806200007f6060850162000122565b936001600160a01b039283928392016200010d565b169260018060a01b0319938460005416176000551682600154161760015560018060801b03938460018060801b031996168660025416176002551690600354161760035516906004541617600455604051611f159081620001388239f35b600080fd5b634e487b7160e01b600052604160045260246000fd5b51906001600160a01b0382168203620000f257565b51906001600160801b0382168203620000f25756fe608080604052600436101561001357600080fd5b60003560e01c908163707a15b9146116605750806374599fef146113be5780639b0a897614611395578063aa5ca7a814610d3c578063c467707614610aa5578063cea13b0b14610a7c578063dde645ae1461076e5763fc04751d1461007757600080fd5b34610769576020366003190112610769576000546001600160a01b0316806106da575b50600154604051633fabe5a360e21b8152906001600160a01b031660a082600481845afa8015610311576000906000936000906000926106af575b506100f6906100ef6001600160801b0360025416426119ce565b11156119db565b6040516309169eff60e21b8152602081600481875afa90811561031157600091610690575b50604051630455b78f60e31b81526001600160a01b0390911690602081600481855afa90811561031157600091610671575b5060170b85139081610606575b506001600160501b0361017b936101718293611a51565b1691161015611a8f565b600354604051633fabe5a360e21b8152926001600160a01b039091169060a084600481855afa8015610311576000906000956000906000926105cb575b506101d2906100ef6001600160801b0360045416426119ce565b6040516309169eff60e21b8152602081600481885afa9081156103115760009161059c575b50604051630455b78f60e31b81526001600160a01b039190911690602081600481855afa9081156103115760009161057d575b5060170b87139081610502575b506001600160501b0361024e936101718293611a51565b61025783611c7a565b806104f3575b15610334576040519060208260048163313ce56760e01b968782525afa9081156103115761029961029f9260209460009161031d575b50611af4565b90611b05565b9160046040518095819382525afa8015610311576020936102ce6102d3926102dc956000916102e45750611af4565b611b05565b90600435611e19565b604051908152f35b6103049150873d891161030a575b6102fc8183611963565b810190611adb565b38610293565b503d6102f2565b6040513d6000823e3d90fd5b6103049150853d871161030a576102fc8183611963565b61034083949293611c7a565b806104e3575b156103d2579061035591611b18565b60405160208160048163313ce56760e01b978882525afa90811561031157602091610387916000916103bb5750611af4565b9360046040518095819382525afa8015610311576020936102996102d3926103b6956000916102e45750611af4565b6102dc565b6103049150833d851161030a576102fc8183611963565b9092916103de83611c7a565b15806104d4575b1561046c5760405160208160048163313ce56760e01b978882525afa9081156103115760209161041c916000916103bb5750611af4565b9360046040518094819382525afa9384156103115761044f6103b6946102996020976102d3956000916104555750611af4565b92611b05565b6103049150893d8b1161030a576102fc8183611963565b9190926040519060208260048163313ce56760e01b968782525afa908115610311576102ce6104a59260209460009161031d5750611af4565b9160046040518095819382525afa8015610311576020936102996102d3926103b6956000916102e45750611af4565b506104de81611d5a565b6103e5565b506104ed83611d5a565b15610346565b506104fd82611d5a565b61025d565b6040516370da2f6760e01b81529150602090829060049082905afa80156103115761024e936101716001600160501b039392849360009161054e575b5060170b8a129350509350610237565b610570915060203d602011610576575b6105688183611963565b810190611a38565b3861053e565b503d61055e565b610596915060203d602011610576576105688183611963565b3861022a565b6105be915060203d6020116105c4575b6105b68183611963565b810190611a19565b386101f7565b503d6105ac565b9150506101d295506105f5915060a03d60a0116105ff575b6105ed8183611963565b810190611999565b92979091506101b8565b503d6105e3565b6040516370da2f6760e01b81529150602090829060049082905afa80156103115761017b936101716001600160501b0393928493600091610652575b5060170b8812935050935061015a565b61066b915060203d602011610576576105688183611963565b38610642565b61068a915060203d602011610576576105688183611963565b3861014d565b6106a9915060203d6020116105c4576105b68183611963565b3861011b565b9150506100f693506106d0915060a03d60a0116105ff576105ed8183611963565b92959091506100d5565b60a060049160405192838092633fabe5a360e21b82525afa90811561031157600090600092610745575b5061073457610716610e1091426119ce565b1115610722573861009a565b60405163d15f73b560e01b8152600490fd5b60405162032b3d60e81b8152600490fd5b905061075f915060a03d81116105ff576105ed8183611963565b5050915038610704565b600080fd5b346107695761077c366118f3565b6000546001600160a01b039491939290851680610a10575b50604051633fabe5a360e21b815283861660a082600481845afa948515610311576000926000946000916000986109d2575b50906100ef6001600160801b036107de9316426119ce565b6040516309169eff60e21b8152602098908981600481875afa908115610311576000916109b5575b50604051630455b78f60e31b81529491168985600481845afa8015610311578a95600091610998575b5060170b86139081610931575b5060049761086a939261085161086593611a51565b6001600160501b0380911691161015611a8f565b611d5a565b156108f25760405163313ce56760e01b815294859182905afa928315610311576108a59361089f916000916108d55750611af4565b91611e19565b905b60120390601282116108bf576102996102dc92611d4c565b634e487b7160e01b600052601160045260246000fd5b6108ec9150873d891161030a576102fc8183611963565b87610293565b60405163313ce56760e01b815294929392859182905afa9283156103115761092b93610925916000916108d55750611af4565b90611e19565b906108a7565b60049392959150604051938480926370da2f6760e01b82525afa8015610311576004978a956108516108659361086a9660009161097b575b5060170b89129350509293509761083c565b6109929150893d8b11610576576105688183611963565b8e610969565b6109af9150863d8811610576576105688183611963565b8b61082f565b6109cc91508a3d8c116105c4576105b68183611963565b8a610806565b6109ff9198506100ef96506001600160801b0395506107de925060a03d81116105ff576105ed8183611963565b9a92989397509350909190506107c6565b60a060049160405192838092633fabe5a360e21b82525afa90811561031157600090600092610a58575b5061073457610a4c610e1091426119ce565b11156107225785610794565b9050610a72915060a03d81116105ff576105ed8183611963565b5050915087610a3a565b34610769576000366003190112610769576001546040516001600160a01b039091168152602090f35b3461076957610ab3366118f3565b6000546001600160a01b03949193929190851680610cd0575b50604051633fabe5a360e21b815283861660a082600481845afa94851561031157600092600095600091600098610c92575b50906100ef6001600160801b03610b169316426119ce565b6040516309169eff60e21b8152602098908981600481875afa90811561031157600091610c75575b50604051630455b78f60e31b81529491168985600481845afa8015610311578a95600091610c58575b5060170b87139081610bf1575b50600497610b89939261085161086593611a51565b15610bbe5760405163313ce56760e01b815294859182905afa928315610311576108a593610925916000916108d55750611af4565b60405163313ce56760e01b815294929392859182905afa9283156103115761092b9361089f916000916108d55750611af4565b60049392959150604051938480926370da2f6760e01b82525afa8015610311576004978a9561085161086593610b8996600091610c3b575b5060170b8a1293505092935097610b74565b610c529150893d8b11610576576105688183611963565b8e610c29565b610c6f9150863d8811610576576105688183611963565b8b610b67565b610c8c91508a3d8c116105c4576105b68183611963565b8a610b3e565b610cbf9198506100ef97506001600160801b039550610b16925060a03d81116105ff576105ed8183611963565b9a9299939750935090919050610afe565b60a060049160405192838092633fabe5a360e21b82525afa90811561031157600090600092610d18575b5061073457610d0c610e1091426119ce565b11156107225785610acc565b9050610d32915060a03d81116105ff576105ed8183611963565b5050915087610cfa565b34610769576020366003190112610769576000546001600160a01b031680611329575b50600154604051633fabe5a360e21b8152906001600160a01b031660a082600481845afa908115610311576000916000936000906000926112fa575b50610db5906100ef6001600160801b0360025416426119ce565b6040516309169eff60e21b815290602082600481865afa918215610311576000926112d9575b50604051630455b78f60e31b81526020816004816001600160a01b0387165afa908115610311576000916112ba575b5060170b85139182611253575b50610e24610e3992611a51565b6001600160501b038080951691161015611a8f565b600354604051633fabe5a360e21b81526001600160a01b039091169260a082600481875afa801561031157600091600093600090600093611222575b50610e8f906100ef6001600160801b0360045416426119ce565b6040516309169eff60e21b81526020816004818a5afa90811561031157600091611203575b50604051630455b78f60e31b81526001600160a01b03919091169390602081600481885afa908115610311576000916111e4575b5060170b85139384611183575b508190610171610f0495611a51565b610f0d82611c7a565b80611174575b15610f9a576040519060208260048163313ce56760e01b968782525afa908115610311576102ce610f4e92602094600091610f7d5750611af4565b9160046040518095819382525afa8015610311576020936102996102d3926102dc956000916108d55750611af4565b610f949150853d871161030a576102fc8183611963565b88610293565b929091610fa683611c7a565b80611164575b156110505760405160208160048163313ce56760e01b978882525afa90811561031157602091610fe3916000916110395750611af4565b9360046040518094819382525afa938415610311576110166103b6946102996020976102d39560009161101c5750611af4565b92611b18565b6110339150893d8b1161030a576102fc8183611963565b89610293565b6108ec9150833d851161030a576102fc8183611963565b9061105a83611c7a565b1580611155575b156110f05792611072919293611b05565b60405160208160048163313ce56760e01b978882525afa908115610311576020916110a4916000916110d35750611af4565b9360046040518095819382525afa8015610311576020936102996102d3926103b6956000916108d55750611af4565b6110ea9150833d851161030a576102fc8183611963565b86610293565b6040519060208260048163313ce56760e01b968782525afa9081156103115761029961112692602094600091610f7d5750611af4565b9160046040518095819382525afa8015610311576020936102ce6102d3926103b6956000916108d55750611af4565b5061115f82611d5a565b611061565b5061116e81611d5a565b15610fac565b5061117e83611d5a565b610f13565b6040516370da2f6760e01b81529450602090859060049082905afa908115610311576101718392610f04966000916111c5575b5060170b871295505090610ef5565b6111de915060203d602011610576576105688183611963565b8b6111b6565b6111fd915060203d602011610576576105688183611963565b89610ee8565b61121c915060203d6020116105c4576105b68183611963565b88610eb4565b91945050610e8f9250611244915060a03d60a0116105ff576105ed8183611963565b93909592949150939490610e75565b6040516370da2f6760e01b81529250602090839060049082906001600160a01b03165afa91821561031157610e3992610e249160009161129b575b5060170b86129250610e17565b6112b4915060203d602011610576576105688183611963565b8761128e565b6112d3915060203d602011610576576105688183611963565b86610e0a565b6112f391925060203d6020116105c4576105b68183611963565b9085610ddb565b915050610db5935061131c91925060a03d60a0116105ff576105ed8183611963565b9295939493909150610d9b565b60a060049160405192838092633fabe5a360e21b82525afa90811561031157600090600092611371575b5061073457611365610e1091426119ce565b11156107225780610d5f565b905061138b915060a03d81116105ff576105ed8183611963565b5050915082611353565b34610769576000366003190112610769576003546040516001600160a01b039091168152602090f35b34610769576113cc366118f3565b6000546001600160a01b0394919392908516806115f4575b50604051633fabe5a360e21b815283861660a082600481845afa948515610311576000926000946000916000986115b6575b50906100ef6001600160801b0361142e9316426119ce565b6040516309169eff60e21b8152602098908981600481875afa90811561031157600091611599575b50604051630455b78f60e31b81529491168985600481845afa8015610311578a9560009161157c575b5060170b86139081611515575b506004976114a1939261085161086593611a51565b156114dc5760405163313ce56760e01b815294859182905afa928315610311576108a5936114d6916000916108d55750611af4565b91611e9c565b60405163313ce56760e01b815294929392859182905afa9283156103115761092b9361150f916000916108d55750611af4565b90611e9c565b60049392959150604051938480926370da2f6760e01b82525afa8015610311576004978a95610851610865936114a19660009161155f575b5060170b89129350509293509761148c565b6115769150893d8b11610576576105688183611963565b8e61154d565b6115939150863d8811610576576105688183611963565b8b61147f565b6115b091508a3d8c116105c4576105b68183611963565b8a611456565b6115e39198506100ef96506001600160801b03955061142e925060a03d81116105ff576105ed8183611963565b9a9298939750935090919050611416565b60a060049160405192838092633fabe5a360e21b82525afa9081156103115760009060009261163c575b5061073457611630610e1091426119ce565b111561072257856113e4565b9050611656915060a03d81116105ff576105ed8183611963565b505091508761161e565b346107695761166e366118f3565b6000546001600160a01b03959194919086168061188b575b5050604051633fabe5a360e21b815283861660a082600481845afa9485156103115760009260009560009160009861184d575b50906100ef6001600160801b036116d19316426119ce565b6040516309169eff60e21b8152602098908981600481875afa90811561031157600091611830575b50604051630455b78f60e31b81529491168985600481845afa8015610311578a95600091611813575b5060170b871390816117ac575b50600497611744939261085161086593611a51565b156117795760405163313ce56760e01b815294859182905afa928315610311576108a59361150f916000916108d55750611af4565b60405163313ce56760e01b815294929392859182905afa9283156103115761092b936114d6916000916108d55750611af4565b60049392959150604051938480926370da2f6760e01b82525afa8015610311576004978a9561085161086593611744966000916117f6575b5060170b8a129350509293509761172f565b61180d9150893d8b11610576576105688183611963565b8e6117e4565b61182a9150863d8811610576576105688183611963565b8b611722565b61184791508a3d8c116105c4576105b68183611963565b8a6116f9565b61187a9198506100ef97506001600160801b0395506116d1925060a03d81116105ff576105ed8183611963565b9a92999397509350909190506116b9565b8160048160a093633fabe5a360e21b82525afa908115610311576000906000926118cf575b50610734576118c2610e1091426119ce565b1115610722578580611686565b90506118e9915060a03d81116105ff576105ed8183611963565b50509150876118b0565b608090600319011261076957600435906024356001600160a01b038116810361076957906044356001600160801b0381168103610769579060643590565b6040810190811067ffffffffffffffff82111761194d57604052565b634e487b7160e01b600052604160045260246000fd5b90601f8019910116810190811067ffffffffffffffff82111761194d57604052565b51906001600160501b038216820361076957565b908160a0910312610769576119ad81611985565b916020820151916040810151916119cb608060608401519301611985565b90565b919082039182116108bf57565b156119e257565b60405162461bcd60e51b815260206004820152600f60248201526e14dd185b19481c1c9a58d959995959608a1b6044820152606490fd5b9081602091031261076957516001600160a01b03811681036107695790565b9081602091031261076957518060170b81036107695790565b15611a5857565b60405162461bcd60e51b815260206004820152600f60248201526e1b5a5b8bdb585e081c995858da1959608a1b6044820152606490fd5b15611a9657565b60405162461bcd60e51b815260206004820152601960248201527f416e7377657220676976656e206265666f726520726f756e64000000000000006044820152606490fd5b90816020910312610769575160ff811681036107695790565b60ff16604d81116108bf57600a0a90565b818102929181159184041417156108bf57565b908015611bb8578115611bb1578180600114611ba957600214611b985760208110610133831016604e8210600b84101617611b9357600190815b808211611b6a575050816000190481116108bf570290565b9092806000190481116108bf57818416611b8a575b800292811c90611b52565b80920291611b7f565b900a90565b905060ff81116108bf576001901b90565b505050600190565b5050600090565b5050600190565b91906020808483031261076957835167ffffffffffffffff9485821161076957019382601f8601121561076957845190811161194d5760405192611c0c601f8301601f1916840185611963565b8184528282870101116107695760005b818110611c3157508260009394955001015290565b8581018301518482018401528201611c1c565b60001981146108bf5760010190565b908151811015611c64570160200190565b634e487b7160e01b600052603260045260246000fd5b604051633942720b60e11b8152906000908190839060049082906001600160a01b03165afa918215611d3f578192611d1b575b50604051611cba81611931565b60048152635553444360e01b6020820152815b60038110611cde5750505050600190565b6001600160f81b031980611cf28387611c53565b511690611cff8385611c53565b511603611d1457611d0f90611c44565b611ccd565b5050905090565b611d389192503d8084833e611d308183611963565b810190611bbf565b9038611cad565b50604051903d90823e3d90fd5b604d81116108bf57600a0a90565b604051633942720b60e11b8152906000908190839060049082906001600160a01b03165afa918215611d3f578192611dfd575b50604051611d9a81611931565b6003928382526208aa8960eb1b6020830152825b848110611dbf575050505050600190565b6001600160f81b031980611dd38385611c53565b511690611de08386611c53565b511603611df557611df090611c44565b611dae565b505050905090565b611e129192503d8084833e611d308183611963565b9038611d8d565b916000198284099282810292838086109503948086039514611e8e57848311156107695782910981806000031680920460028082600302188083028203028083028203028083028203028083028203028083028203028092029003029360018380600003040190848311900302920304170290565b505080925015610769570490565b929190611eaa828286611e19565b938215611ec95709611eb857565b906000198110156107695760010190565b634e487b7160e01b600052601260045260246000fdfea26469706673582212201d522370d6741b0e453fa8ec8b6ba346026724aebff1da9b815420faaff1463e64736f6c63430008140033","linkReferences":{}},"methodIdentifiers":{"convertNumaPerTokenToNumaPerEth(uint256)":"aa5ca7a8","convertTokenPerNumaToEthPerNuma(uint256)":"fc04751d","getPriceInEth(uint256,address,uint128,uint256)":"c4677076","getPriceInEthRoundUp(uint256,address,uint128,uint256)":"707a15b9","getTokenPerEth(uint256,address,uint128,uint256)":"dde645ae","getTokenPerEthRoundUp(uint256,address,uint128,uint256)":"74599fef","pricefeedETH_USD()":"9b0a8976","pricefeedUSDC_USD()":"cea13b0b"},"id":5}