{"abi":[{"type":"constructor","inputs":[],"stateMutability":"nonpayable"},{"type":"function","name":"getUnderlyingPriceAsBorrowed","inputs":[{"name":"cToken","type":"address","internalType":"contract CToken"}],"outputs":[{"name":"","type":"uint256","internalType":"uint256"}],"stateMutability":"view"},{"type":"function","name":"getUnderlyingPriceAsCollateral","inputs":[{"name":"cToken","type":"address","internalType":"contract CToken"}],"outputs":[{"name":"","type":"uint256","internalType":"uint256"}],"stateMutability":"view"},{"type":"function","name":"isPriceOracle","inputs":[],"outputs":[{"name":"","type":"bool","internalType":"bool"}],"stateMutability":"view"},{"type":"function","name":"owner","inputs":[],"outputs":[{"name":"","type":"address","internalType":"address"}],"stateMutability":"view"},{"type":"function","name":"renounceOwnership","inputs":[],"outputs":[],"stateMutability":"nonpayable"},{"type":"function","name":"setVault","inputs":[{"name":"_vault","type":"address","internalType":"address"}],"outputs":[],"stateMutability":"nonpayable"},{"type":"function","name":"transferOwnership","inputs":[{"name":"newOwner","type":"address","internalType":"address"}],"outputs":[],"stateMutability":"nonpayable"},{"type":"event","name":"OwnershipTransferred","inputs":[{"name":"previousOwner","type":"address","indexed":true,"internalType":"address"},{"name":"newOwner","type":"address","indexed":true,"internalType":"address"}],"anonymous":false},{"type":"event","name":"SetVault","inputs":[{"name":"vaultAddress","type":"address","indexed":false,"internalType":"address"}],"anonymous":false},{"type":"error","name":"OwnableInvalidOwner","inputs":[{"name":"owner","type":"address","internalType":"address"}]},{"type":"error","name":"OwnableUnauthorizedAccount","inputs":[{"name":"account","type":"address","internalType":"address"}]}],"bytecode":{"object":"0x6080806040523461007a5733156100645760008054336001600160a01b03198216811783556040519290916001600160a01b0316907f8be0079c531659141344cd1fd0a4f28419497f9722a3daafe3b4186f6b6457e09080a361075e90816100808239f35b631e4fbdf760e01b815260006004820152602490fd5b600080fdfe608060408181526004908136101561001657600080fd5b600092833560e01c90816366331bba14610261575080636817031b146101f3578063715018a6146101995780638da5cb5b1461016d57806391efd43c1461013c578063973a819a146101015763f2fde38b1461007157600080fd5b346100fd5760203660031901126100fd576001600160a01b038235818116939192908490036100f9576100a26106fc565b83156100e357505082546001600160a01b0319811683178455167f8be0079c531659141344cd1fd0a4f28419497f9722a3daafe3b4186f6b6457e08380a380f35b51631e4fbdf760e01b8152908101849052602490fd5b8480fd5b8280fd5b5090346100fd5760203660031901126100fd5735916001600160a01b03831683036101395750610132602092610577565b9051908152f35b80fd5b5090346100fd5760203660031901126100fd5735916001600160a01b038316830361013957506101326020926103dd565b838234610195578160031936011261019557905490516001600160a01b039091168152602090f35b5080fd5b83346101395780600319360112610139576101b26106fc565b80546001600160a01b03198116825581906001600160a01b03167f8be0079c531659141344cd1fd0a4f28419497f9722a3daafe3b4186f6b6457e08280a380f35b5090346100fd5760203660031901126100fd57356001600160a01b03811691908290036100fd577fd459c7242e23d490831b5676a611c4342d899d28f342d89ae80793e56a930f30916020916102476106fc565b600180546001600160a01b0319168317905551908152a180f35b84903461019557816003193601126101955780600160209252f35b1561028357565b60405162461bcd60e51b81526020600482015260086024820152671b9bc81d985d5b1d60c21b6044820152606490fd5b6040810190811067ffffffffffffffff8211176102cf57604052565b634e487b7160e01b600052604160045260246000fd5b90601f8019910116810190811067ffffffffffffffff8211176102cf57604052565b60005b83811061031a5750506000910152565b818101518382015260200161030a565b60208183031261039657805167ffffffffffffffff9182821161039657019082601f830112156103965781519081116102cf5760405192610375601f8301601f1916602001856102e5565b81845260208284010111610396576103939160208085019101610307565b90565b600080fd5b604051906103a8826102b3565b6005825264634e756d6160d81b6020830152565b604051906103c9826102b3565b60058252640c6e48ae8d60db1b6020830152565b6001546001600160a01b03908116916103f783151561027c565b166040918251916395d89b4160e01b8084526000938481600481865afa90811561056d5790610436918691610553575b5061043061039b565b906106a7565b156104b057505090602060249284519384809263ea417ac560e01b8252670de0b6b3a764000060048301525afa9283156104a65750809261047657505090565b9091506020823d821161049e575b81610491602093836102e5565b8101031261013957505190565b3d9150610484565b51903d90823e3d90fd5b83919250600485518094819382525afa9182156105485790816104dc93610525575b50506104306103bc565b156104ee5750670de0b6b3a764000090565b5162461bcd60e51b81526020600482015260116024820152703ab739bab83837b93a32b2103a37b5b2b760791b6044820152606490fd5b61054192503d8091833e61053981836102e5565b81019061032a565b38806104d2565b8351903d90823e3d90fd5b61056791503d8088833e61053981836102e5565b38610427565b86513d87823e3d90fd5b6001546001600160a01b039081169161059183151561027c565b1660408051916395d89b4160e01b8084526000938481600481865afa90811561069d57906105c8918691610553575061043061039b565b15610671575050805163396184d560e21b8152602081602481670de0b6b3a7640000978860048301525afa91821561066857508291610637575b50801561019557806ec097ce7bc90715b34b9f100000000004928009610626575090565b600019821015610139575060010190565b90506020813d8211610660575b81610651602093836102e5565b81010312610195575138610602565b3d9150610644565b513d84823e3d90fd5b8294506004849293518094819382525afa9182156105485790816104dc936105255750506104306103bc565b84513d87823e3d90fd5b90604051916020926106d58482816106c88183019687815193849201610307565b81010380845201826102e5565b519020916106f56040519182816106c88183019687815193849201610307565b5190201490565b6000546001600160a01b0316330361071057565b60405163118cdaa760e01b8152336004820152602490fdfea26469706673582212202ebbdb4cb89218c7647241be50ec85fcc41a13a21e5bbaf11c22556f48f640bb64736f6c63430008140033","linkReferences":{}},"methodIdentifiers":{"getUnderlyingPriceAsBorrowed(address)":"973a819a","getUnderlyingPriceAsCollateral(address)":"91efd43c","isPriceOracle()":"66331bba","owner()":"8da5cb5b","renounceOwnership()":"715018a6","setVault(address)":"6817031b","transferOwnership(address)":"f2fde38b"},"id":79}