{"abi":[{"type":"function","name":"MINTER_ROLE","inputs":[],"outputs":[{"name":"","type":"bytes32","internalType":"bytes32"}],"stateMutability":"view"}],"bytecode":{"object":"0x608080604052346100d3576a084595161401484a00000060005560026001556a01518000000708000000b460018060c01b031960025416176002556305265c0060018060801b031960035416176003556101f460045561032060055561012c60065562201480600755670de0b6b3a764000080600855670b1a2bc2ec5000006009556000600a5567058d15e176280000600b55670853a0d2313c0000600c556000600d55600e55674563918244f40000600f5561a8c0601055670d2f13f7789f000080601155601255609890816100d98239f35b600080fdfe6080806040526004361015601257600080fd5b600090813560e01c63d539139314602857600080fd5b34605e5781600319360112605e57807f9f2df0fed2c77648de5860a4cc508cd0818c85b8b8a1ab4ceeef8d981c8956a660209252f35b5080fdfea2646970667358221220eed2ec29792d258ebc0d800e2017e6d81b7c2776a5d67d76509b383e1c4a973264736f6c63430008140033","linkReferences":{}},"methodIdentifiers":{"MINTER_ROLE()":"d5391393"},"id":42}