{"abi":[{"type":"constructor","inputs":[{"name":"_numaAddress","type":"address","internalType":"address"},{"name":"_numaMinterAddress","type":"address","internalType":"address"},{"name":"_numaPool","type":"address","internalType":"address"},{"name":"_tokenToEthConverter","type":"address","internalType":"address"},{"name":"_oracle","type":"address","internalType":"contract INumaOracle"},{"name":"_vaultManagerAddress","type":"address","internalType":"address"}],"stateMutability":"nonpayable"},{"type":"function","name":"acceptOwnership","inputs":[],"outputs":[],"stateMutability":"nonpayable"},{"type":"function","name":"burnAssetFeeBps","inputs":[],"outputs":[{"name":"","type":"uint256","internalType":"uint256"}],"stateMutability":"view"},{"type":"function","name":"burnAssetInputToNuma","inputs":[{"name":"_nuAsset","type":"address","internalType":"address"},{"name":"_nuAssetAmount","type":"uint256","internalType":"uint256"},{"name":"_minimumReceivedAmount","type":"uint256","internalType":"uint256"},{"name":"_recipient","type":"address","internalType":"address"}],"outputs":[{"name":"","type":"uint256","internalType":"uint256"}],"stateMutability":"nonpayable"},{"type":"function","name":"burnAssetToNumaOutput","inputs":[{"name":"_nuAsset","type":"address","internalType":"address"},{"name":"_numaAmount","type":"uint256","internalType":"uint256"},{"name":"_maximumAmountIn","type":"uint256","internalType":"uint256"},{"name":"_recipient","type":"address","internalType":"address"}],"outputs":[{"name":"","type":"uint256","internalType":"uint256"}],"stateMutability":"nonpayable"},{"type":"function","name":"computeFeeAmountIn","inputs":[{"name":"_amountIn","type":"uint256","internalType":"uint256"},{"name":"_fee","type":"uint256","internalType":"uint256"}],"outputs":[{"name":"","type":"uint256","internalType":"uint256"}],"stateMutability":"pure"},{"type":"function","name":"computeFeeAmountOut","inputs":[{"name":"_amountIn","type":"uint256","internalType":"uint256"},{"name":"_fee","type":"uint256","internalType":"uint256"}],"outputs":[{"name":"","type":"uint256","internalType":"uint256"}],"stateMutability":"pure"},{"type":"function","name":"getNbOfNuAssetFromNuAsset","inputs":[{"name":"_nuAssetIn","type":"address","internalType":"address"},{"name":"_nuAssetOut","type":"address","internalType":"address"},{"name":"_amountIn","type":"uint256","internalType":"uint256"}],"outputs":[{"name":"","type":"uint256","internalType":"uint256"},{"name":"","type":"uint256","internalType":"uint256"}],"stateMutability":"view"},{"type":"function","name":"getNbOfNuAssetFromNuma","inputs":[{"name":"_nuAsset","type":"address","internalType":"address"},{"name":"_numaAmount","type":"uint256","internalType":"uint256"}],"outputs":[{"name":"","type":"uint256","internalType":"uint256"},{"name":"","type":"uint256","internalType":"uint256"}],"stateMutability":"view"},{"type":"function","name":"getNbOfNuAssetNeededForNuAsset","inputs":[{"name":"_nuAssetIn","type":"address","internalType":"address"},{"name":"_nuAssetOut","type":"address","internalType":"address"},{"name":"_amountOut","type":"uint256","internalType":"uint256"}],"outputs":[{"name":"","type":"uint256","internalType":"uint256"},{"name":"","type":"uint256","internalType":"uint256"}],"stateMutability":"view"},{"type":"function","name":"getNbOfNumaFromAssetWithFee","inputs":[{"name":"_nuAsset","type":"address","internalType":"address"},{"name":"_nuAssetAmount","type":"uint256","internalType":"uint256"}],"outputs":[{"name":"","type":"uint256","internalType":"uint256"},{"name":"","type":"uint256","internalType":"uint256"}],"stateMutability":"view"},{"type":"function","name":"getNbOfNumaNeededAndFee","inputs":[{"name":"_nuAsset","type":"address","internalType":"address"},{"name":"_nuAssetAmount","type":"uint256","internalType":"uint256"}],"outputs":[{"name":"","type":"uint256","internalType":"uint256"},{"name":"","type":"uint256","internalType":"uint256"}],"stateMutability":"view"},{"type":"function","name":"getNbOfnuAssetNeededForNuma","inputs":[{"name":"_nuAsset","type":"address","internalType":"address"},{"name":"_numaAmount","type":"uint256","internalType":"uint256"}],"outputs":[{"name":"","type":"uint256","internalType":"uint256"},{"name":"","type":"uint256","internalType":"uint256"}],"stateMutability":"view"},{"type":"function","name":"mintAssetFromNumaInput","inputs":[{"name":"_nuAsset","type":"address","internalType":"address"},{"name":"_numaAmount","type":"uint256","internalType":"uint256"},{"name":"_minNuAssetAmount","type":"uint256","internalType":"uint256"},{"name":"_recipient","type":"address","internalType":"address"}],"outputs":[{"name":"","type":"uint256","internalType":"uint256"}],"stateMutability":"nonpayable"},{"type":"function","name":"mintAssetOutputFromNuma","inputs":[{"name":"_nuAsset","type":"address","internalType":"address"},{"name":"_nuAssetamount","type":"uint256","internalType":"uint256"},{"name":"_maxNumaAmount","type":"uint256","internalType":"uint256"},{"name":"_recipient","type":"address","internalType":"address"}],"outputs":[],"stateMutability":"nonpayable"},{"type":"function","name":"minterContract","inputs":[],"outputs":[{"name":"","type":"address","internalType":"contract NumaMinter"}],"stateMutability":"view"},{"type":"function","name":"numa","inputs":[],"outputs":[{"name":"","type":"address","internalType":"contract NUMA"}],"stateMutability":"view"},{"type":"function","name":"numaPool","inputs":[],"outputs":[{"name":"","type":"address","internalType":"address"}],"stateMutability":"view"},{"type":"function","name":"oracle","inputs":[],"outputs":[{"name":"","type":"address","internalType":"contract INumaOracle"}],"stateMutability":"view"},{"type":"function","name":"owner","inputs":[],"outputs":[{"name":"","type":"address","internalType":"address"}],"stateMutability":"view"},{"type":"function","name":"pause","inputs":[],"outputs":[],"stateMutability":"nonpayable"},{"type":"function","name":"paused","inputs":[],"outputs":[{"name":"","type":"bool","internalType":"bool"}],"stateMutability":"view"},{"type":"function","name":"pendingOwner","inputs":[],"outputs":[{"name":"","type":"address","internalType":"address"}],"stateMutability":"view"},{"type":"function","name":"printAssetFeeBps","inputs":[],"outputs":[{"name":"","type":"uint256","internalType":"uint256"}],"stateMutability":"view"},{"type":"function","name":"renounceOwnership","inputs":[],"outputs":[],"stateMutability":"nonpayable"},{"type":"function","name":"setBurnAssetFeeBps","inputs":[{"name":"_burnAssetFeeBps","type":"uint256","internalType":"uint256"}],"outputs":[],"stateMutability":"nonpayable"},{"type":"function","name":"setNumaPoolAndConverter","inputs":[{"name":"_numaPool","type":"address","internalType":"address"},{"name":"_converterAddress","type":"address","internalType":"address"}],"outputs":[],"stateMutability":"nonpayable"},{"type":"function","name":"setOracle","inputs":[{"name":"_oracle","type":"address","internalType":"contract INumaOracle"}],"outputs":[],"stateMutability":"nonpayable"},{"type":"function","name":"setPrintAssetFeeBps","inputs":[{"name":"_printAssetFeeBps","type":"uint256","internalType":"uint256"}],"outputs":[],"stateMutability":"nonpayable"},{"type":"function","name":"setSwapAssetFeeBps","inputs":[{"name":"_swapAssetFeeBps","type":"uint256","internalType":"uint256"}],"outputs":[],"stateMutability":"nonpayable"},{"type":"function","name":"setVaultManager","inputs":[{"name":"_vaultManager","type":"address","internalType":"address"}],"outputs":[],"stateMutability":"nonpayable"},{"type":"function","name":"swapAssetFeeBps","inputs":[],"outputs":[{"name":"","type":"uint256","internalType":"uint256"}],"stateMutability":"view"},{"type":"function","name":"swapExactInput","inputs":[{"name":"_nuAssetFrom","type":"address","internalType":"address"},{"name":"_nuAssetTo","type":"address","internalType":"address"},{"name":"_receiver","type":"address","internalType":"address"},{"name":"_amountToSwap","type":"uint256","internalType":"uint256"},{"name":"_amountOutMinimum","type":"uint256","internalType":"uint256"}],"outputs":[{"name":"amountOut","type":"uint256","internalType":"uint256"}],"stateMutability":"nonpayable"},{"type":"function","name":"swapExactOutput","inputs":[{"name":"_nuAssetFrom","type":"address","internalType":"address"},{"name":"_nuAssetTo","type":"address","internalType":"address"},{"name":"_receiver","type":"address","internalType":"address"},{"name":"_amountToReceive","type":"uint256","internalType":"uint256"},{"name":"_amountInMaximum","type":"uint256","internalType":"uint256"}],"outputs":[{"name":"amountOut","type":"uint256","internalType":"uint256"}],"stateMutability":"nonpayable"},{"type":"function","name":"tokenToEthConverter","inputs":[],"outputs":[{"name":"","type":"address","internalType":"address"}],"stateMutability":"view"},{"type":"function","name":"transferOwnership","inputs":[{"name":"newOwner","type":"address","internalType":"address"}],"outputs":[],"stateMutability":"nonpayable"},{"type":"function","name":"unpause","inputs":[],"outputs":[],"stateMutability":"nonpayable"},{"type":"function","name":"updateVaultAndInterest","inputs":[],"outputs":[{"name":"scale","type":"uint256","internalType":"uint256"},{"name":"scaleForPrice","type":"uint256","internalType":"uint256"},{"name":"sell_fee_res","type":"uint16","internalType":"uint16"}],"stateMutability":"nonpayable"},{"type":"function","name":"vaultManager","inputs":[],"outputs":[{"name":"","type":"address","internalType":"contract IVaultManager"}],"stateMutability":"view"},{"type":"event","name":"AssetBurn","inputs":[{"name":"_asset","type":"address","indexed":false,"internalType":"address"},{"name":"_amount","type":"uint256","indexed":false,"internalType":"uint256"}],"anonymous":false},{"type":"event","name":"AssetMint","inputs":[{"name":"_asset","type":"address","indexed":false,"internalType":"address"},{"name":"_amount","type":"uint256","indexed":false,"internalType":"uint256"}],"anonymous":false},{"type":"event","name":"BurnAssetFeeBps","inputs":[{"name":"_newfee","type":"uint256","indexed":false,"internalType":"uint256"}],"anonymous":false},{"type":"event","name":"BurntFee","inputs":[{"name":"_fee","type":"uint256","indexed":false,"internalType":"uint256"}],"anonymous":false},{"type":"event","name":"OwnershipTransferStarted","inputs":[{"name":"previousOwner","type":"address","indexed":true,"internalType":"address"},{"name":"newOwner","type":"address","indexed":true,"internalType":"address"}],"anonymous":false},{"type":"event","name":"OwnershipTransferred","inputs":[{"name":"previousOwner","type":"address","indexed":true,"internalType":"address"},{"name":"newOwner","type":"address","indexed":true,"internalType":"address"}],"anonymous":false},{"type":"event","name":"Paused","inputs":[{"name":"account","type":"address","indexed":false,"internalType":"address"}],"anonymous":false},{"type":"event","name":"PrintAssetFeeBps","inputs":[{"name":"_newfee","type":"uint256","indexed":false,"internalType":"uint256"}],"anonymous":false},{"type":"event","name":"PrintFee","inputs":[{"name":"_fee","type":"uint256","indexed":false,"internalType":"uint256"}],"anonymous":false},{"type":"event","name":"SetChainlinkFeed","inputs":[{"name":"_chainlink","type":"address","indexed":false,"internalType":"address"}],"anonymous":false},{"type":"event","name":"SetNumaPool","inputs":[{"name":"_pool","type":"address","indexed":false,"internalType":"address"},{"name":"_convertAddress","type":"address","indexed":false,"internalType":"address"}],"anonymous":false},{"type":"event","name":"SetOracle","inputs":[{"name":"oracle","type":"address","indexed":false,"internalType":"address"}],"anonymous":false},{"type":"event","name":"SetVaultManager","inputs":[{"name":"_vaultManager","type":"address","indexed":false,"internalType":"address"}],"anonymous":false},{"type":"event","name":"SwapAssetFeeBps","inputs":[{"name":"_newfee","type":"uint256","indexed":false,"internalType":"uint256"}],"anonymous":false},{"type":"event","name":"SwapExactInput","inputs":[{"name":"_nuAssetFrom","type":"address","indexed":false,"internalType":"address"},{"name":"_nuAssetTo","type":"address","indexed":false,"internalType":"address"},{"name":"_from","type":"address","indexed":false,"internalType":"address"},{"name":"_to","type":"address","indexed":false,"internalType":"address"},{"name":"_amountToSwap","type":"uint256","indexed":false,"internalType":"uint256"},{"name":"_amountReceived","type":"uint256","indexed":false,"internalType":"uint256"}],"anonymous":false},{"type":"event","name":"SwapExactOutput","inputs":[{"name":"_nuAssetFrom","type":"address","indexed":false,"internalType":"address"},{"name":"_nuAssetTo","type":"address","indexed":false,"internalType":"address"},{"name":"_from","type":"address","indexed":false,"internalType":"address"},{"name":"_to","type":"address","indexed":false,"internalType":"address"},{"name":"_amountToSwap","type":"uint256","indexed":false,"internalType":"uint256"},{"name":"_amountReceived","type":"uint256","indexed":false,"internalType":"uint256"}],"anonymous":false},{"type":"event","name":"SwapFee","inputs":[{"name":"_fee","type":"uint256","indexed":false,"internalType":"uint256"}],"anonymous":false},{"type":"event","name":"Unpaused","inputs":[{"name":"account","type":"address","indexed":false,"internalType":"address"}],"anonymous":false},{"type":"error","name":"EnforcedPause","inputs":[]},{"type":"error","name":"ExpectedPause","inputs":[]},{"type":"error","name":"OwnableInvalidOwner","inputs":[{"name":"owner","type":"address","internalType":"address"}]},{"type":"error","name":"OwnableUnauthorizedAccount","inputs":[{"name":"account","type":"address","internalType":"address"}]}],"bytecode":{"object":"0x60c0346200019e57601f620021da38819003918201601f19168301916001600160401b03831184841017620001a35780849260c0946040528339810103126200019e576200004d81620001b9565b6200005b60208301620001b9565b916200006a60408201620001b9565b6200007860608301620001b9565b60808301516001600160a01b039391928482169290918390036200019e5760a0620000a49101620001b9565b92600054963315620001855785928380928160018060a01b03199a8b60015416600155610100600160a81b033360081b168d60018060a81b031916176000556040519c82339160081c167f8be0079c531659141344cd1fd0a4f28419497f9722a3daafe3b4186f6b6457e0600080a3166080521660a05216866002541617600255168062000175575b508360045416176004551690600554161760055561200b9081620001cf823960805181818161036a0152818161058d0152610d64015260a0518181816109cf015261100c0152f35b846003541617600355386200012d565b604051631e4fbdf760e01b815260006004820152602490fd5b600080fd5b634e487b7160e01b600052604160045260246000fd5b51906001600160a01b03821682036200019e5756fe60406080815260048036101561001457600080fd5b600090813560e01c90816302c6933f1461117f5781630deda348146111235781631b02676b146110fc57816324ef524814610fb75781633ad3d72b14610f9d5781633f4ba83a14610f345781634947054114610db65781635752944614610d935781635992c23e14610d4f5781635bfc842414610d305781635c975abb14610d0e578163636802e814610cef57816369330d7014610cc85781636b24c19e14610c9f578163715018a614610c315781637918d70414610c0a57816379ba509714610b695781637adbf97314610afc5781637dc0d1d014610ad35781638456cb5914610a7a578163867b470a14610a535781638a4adf2414610a2a5781638da5cb5b146109fe57816392f00233146109ba578163975d8d4e146109a0578163a194dec6146107a7578163a3e2d9941461074b578163b17a91af146106ef578163b543503e14610680578163c4fbba1d14610528578163d8d686d7146104f5578163e0abdfea146104d6578163e0d47007146104ad578163e30c397814610484578163ee2e4b031461030357508063f2fde38b14610290578063f8df43e1146101fa5763fd522fe5146101c457600080fd5b346101f757806003193601126101f757606061ffff836101e2611389565b90839492945194855260208501521690820152f35b80fd5b50903461028c578060031936011261028c57610214611201565b906024356001600160a01b0381811691829003610288577f4490b620e963d2353f9d2799cf512292f0f203fba45eb632d8db139e89d85ca193610255611f88565b1690806bffffffffffffffffffffffff60a01b83816002541617600255600354161760035582519182526020820152a180f35b8480fd5b5080fd5b50346101f75760203660031901126101f7576102aa611201565b6102b2611f88565b60018060a01b0380911690816bffffffffffffffffffffffff60a01b6001541617600155825460081c167f38d16b8cac22d99fc7c124b9cd0de2d3fa1faef420bfe791d8c362d765e227008380a380f35b90508234610452576103143661121c565b9192610321959195611fb7565b81546001600160a01b03929061033a9084161515611bf4565b61034983600254161515611c31565b610351611389565b50505061035e8583611797565b978111610456578890847f000000000000000000000000000000000000000000000000000000000000000016803b1561045257885163079cc67960e41b8152339481019485526020850192909252909283919082908490829060400103925af1801561044857610404575b5092602094926103fc927f5b57d5cae3efd973bc16c843458469af8cfaa107f5948de01826725c2c45b334979516611c74565b51908152a180f35b926103fc927f5b57d5cae3efd973bc16c843458469af8cfaa107f5948de01826725c2c45b3349795929861043a6020989661133d565b9892959750925092946103c9565b86513d8a823e3d90fd5b8280fd5b865162461bcd60e51b815260208184015260086024820152676d6178206e756d6160c01b6044820152606490fd5b82843461028c578160031936011261028c5760015490516001600160a01b039091168152602090f35b82843461028c578160031936011261028c5760025490516001600160a01b039091168152602090f35b82843461028c578160031936011261028c576020906006549051908152f35b5050346101f757816003193601126101f7575061051c610513611201565b60243590611683565b82519182526020820152f35b82843461028c576105383661121c565b95929094610544611fb7565b83546001600160a01b03939061055d9085161515611bf4565b61056c84600254161515611c31565b610574611389565b5050506105818184611683565b959097881061065057847f00000000000000000000000000000000000000000000000000000000000000001690813b1561064c57875163079cc67960e41b81523391810191825260208201939093529192918291849182908490829060400103925af1908115610641575060209788947f5b57d5cae3efd973bc16c843458469af8cfaa107f5948de01826725c2c45b3349694610626948a94610632575b5016611c74565b8351908152a151908152f35b61063b9061133d565b8b61061f565b8651903d90823e3d90fd5b8380fd5b606490602088519162461bcd60e51b8352820152600a6024820152691b5a5b88185b5bdd5b9d60b21b6044820152fd5b82843461028c57602036600319011261028c5760207ff936751e3ffe55eec34636f5166fff2a5714505f4a3aa0862829ddb1eb75f101916106bf611201565b6106c7611f88565b600580546001600160a01b0319166001600160a01b039290921691821790559051908152a180f35b83915034610452576020366003190112610452577f158d5166c3f6523856c09d70bbe84c4f9cdff4f1e91322b6836649c18dc19c38916020913590610732611f88565b61073f61271083106112e5565b8160075551908152a180f35b83915034610452576020366003190112610452577fba3f68ba977166558743c36e47c36a0731b93adae43e8748ffb452a17c97faa191602091359061078e611f88565b61079b61271083106112e5565b8160065551908152a180f35b82843461028c576107b73661128a565b92939690956107c4611fb7565b6001600160a01b03888116926107db841515611ec4565b6107f6828816926107ed841515611f06565b86161515611f49565b6107fe611389565b50505061080c89888c6115b6565b94909687116109655786610821913390611e21565b813b156104525787516340c10f1960e01b81526001600160a01b038616918101918252602082018a90529291829184919082908490829060400103925af190811561095a5750937fe73b40c105081d40e1f1f6b3ae2c2e416fdca47abfde8347a57b24221345271795937f829472a12eb635e89660a3fd5efc2b638147cce371274f7185a2cc915bd0dafc6020610942958b95829d9961094b575b508a516001600160a01b0389168152602081018790527fc2c6ba092cd3c8478bb023973d5bb1d671189e19416b304abe3baeeb3f228c9e9080604081015b0390a18a51908152a187516001600160a01b03968716815294861660208601523360408601529094166060840152608083019390935260a082019290925290819060c0820190565b0390a151908152f35b6109549061133d565b8d6108bc565b8751903d90823e3d90fd5b885162461bcd60e51b815260208184015260156024820152741b585e1a5b5d5b481a5b9c1d5d081c995858da1959605a1b6044820152606490fd5b5050346101f7575061051c6109b436611255565b916115b6565b82843461028c578160031936011261028c57517f00000000000000000000000000000000000000000000000000000000000000006001600160a01b03168152602090f35b82843461028c578160031936011261028c579054905160089190911c6001600160a01b03168152602090f35b82843461028c578160031936011261028c5760055490516001600160a01b039091168152602090f35b5050346101f757816003193601126101f7575061051c610a71611201565b60243590611a78565b82843461028c578160031936011261028c5760207f62e78cea01bee320cd4e420270b5ea74000d11b0c9f74754ebdbfc544b05a25891610ab8611f88565b610ac0611fb7565b835460ff1916600117845551338152a180f35b839150346104525782600319360112610452575490516001600160a01b03909116815260209150f35b839150346104525760203660031901126104525780356001600160a01b0381169081900361064c577fd3b5d1e0ffaeff528910f3663f0adace7694ab8241d58e17a91351ced2e0803192602092610b51611f88565b80546001600160a01b0319168317905551908152a180f35b839150346104525782600319360112610452576001546001600160a01b03929091903384841603610bf35750506001600160a01b0319166001558154610100600160a81b0319811633600881811b610100600160a81b03169290921785559291901c167f8be0079c531659141344cd1fd0a4f28419497f9722a3daafe3b4186f6b6457e08380a380f35b60249250519063118cdaa760e01b82523390820152fd5b82843461028c57602090612710610c29610c23366112cf565b90611472565b049051908152f35b82346101f757806003193601126101f757610c4a611f88565b600180546001600160a01b03191690558054610100600160a81b031981168255819060081c6001600160a01b03167f8be0079c531659141344cd1fd0a4f28419497f9722a3daafe3b4186f6b6457e08280a380f35b82843461028c578160031936011261028c5760035490516001600160a01b039091168152602090f35b5050346101f757816003193601126101f7575061051c610ce6611201565b602435906118c1565b82843461028c578160031936011261028c576020906008549051908152f35b82843461028c578160031936011261028c5760ff602092541690519015158152f35b82843461028c578160031936011261028c576020906007549051908152f35b82843461028c578160031936011261028c57517f00000000000000000000000000000000000000000000000000000000000000006001600160a01b03168152602090f35b82843461028c57602090610daf610da9366112cf565b906114c8565b9051908152f35b9050823461045257610dc73661128a565b9590929396610dd4611fb7565b6001600160a01b0388811692610deb841515611ec4565b610dfd828816926107ed841515611f06565b610e05611389565b505050610e1386888c6114ec565b9490998a10610f045786610e28913390611e21565b813b156104525787516340c10f1960e01b81526001600160a01b038616918101918252602082018a90529291829184919082908490829060400103925af190811561095a5750937f364eb9f1c8a9fb24c0dacfb98da6e29fac5232bf164bf397bb2d0efb53b5ef3c95937f829472a12eb635e89660a3fd5efc2b638147cce371274f7185a2cc915bd0dafc6020610942958b95829d9961094b57508a516001600160a01b0389168152602081018790527fc2c6ba092cd3c8478bb023973d5bb1d671189e19416b304abe3baeeb3f228c9e9080604081016108fa565b885162461bcd60e51b8152602081840152600a6024820152691b5a5b881bdd5d1c1d5d60b21b6044820152606490fd5b83915034610452578260031936011261045257610f4f611f88565b82549060ff821615610f8f575060ff19168255513381527f5db9ee0a495bf2e6ff9c91a7834c1ba4fdd244a5e8aa4e537bd38aeae4b073aa90602090a180f35b8251638dfc202b60e01b8152fd5b5050346101f7575061051c610fb136611255565b916114ec565b82843461028c57610fc73661121c565b909492610fd5969296611fb7565b610fdd611389565b505050610fea8782611a78565b97909687106110c8576001600160a01b039161100a919033908416611e21565b7f00000000000000000000000000000000000000000000000000000000000000001691823b1561064c5784516340c10f1960e01b81526001600160a01b0390921690820190815260208101869052909291829184919082908490829060400103925af19081156110bd57506020947f067a286cea2bdfd6a5c05d6a9a95f598b86d94946e728b2a355d6bf5f23f5a589286926110ae575b508351908152a151908152f35b6110b79061133d565b866110a1565b8351903d90823e3d90fd5b855162461bcd60e51b8152602081860152600e60248201526d1b5a5b9a5b5d5b48185b5bdd5b9d60921b6044820152606490fd5b5050346101f757816003193601126101f7575061051c61111a611201565b60243590611797565b83915034610452576020366003190112610452577f1b817778d1fef6b200f8b355504fcc40133e1f6fdde7671fdde60f566b6012f4916020913590611166611f88565b61117361271083106112e5565b8160085551908152a180f35b90508234610452576111903661121c565b90959261119e959295611fb7565b6111a6611389565b5050506111b386826118c1565b9781116111d1576001600160a01b039161100a919033908416611e21565b855162461bcd60e51b8152602081860152600a6024820152691b585e08185b5bdd5b9d60b21b6044820152606490fd5b600435906001600160a01b038216820361121757565b600080fd5b6080906003190112611217576001600160a01b039060043582811681036112175791602435916044359160643590811681036112175790565b6060906003190112611217576001600160a01b0390600435828116810361121757916024359081168103611217579060443590565b60a0906003190112611217576001600160a01b036004358181168103611217579160243582811681036112175791604435908116810361121757906064359060843590565b6040906003190112611217576004359060243590565b156112ec57565b60405162461bcd60e51b8152602060048201526024808201527f4665652070657263656e74616765206d757374206265206c657373207468616e6044820152630203130360e41b6064820152608490fd5b67ffffffffffffffff811161135157604052565b634e487b7160e01b600052604160045260246000fd5b90601f8019910116810190811067ffffffffffffffff82111761135157604052565b6005546000906001600160a01b03908116803b1561045257828091600460405180948193630bf5cb4b60e41b83525af1801561146757611455575b5060608291600554166004604051809581936353d7869360e01b83525af180156114485781928280926113f9575b5050909192565b92509250506060823d8211611440575b8161141660609383611367565b810103126101f7578151604060208401519301519161ffff831683036101f75750919038806113f2565b3d9150611409565b50604051903d90823e3d90fd5b9161146160609361133d565b916113c4565b6040513d85823e3d90fd5b8181029291811591840414171561148557565b634e487b7160e01b600052601160045260246000fd5b81156114a5570490565b634e487b7160e01b600052601260045260246000fd5b9190820391821161148557565b816114d291611472565b90612710908103908111611485576114e99161149b565b90565b92916115579160209161271061150460085483611472565b049561151b8760018060a01b0360045416936114bb565b60405163da0351cf60e01b815260048101919091526001600160a01b039182166024820152921660448301529092839190829081906064820190565b03915afa90811561159d5760009161156e57509190565b906020823d8211611595575b8161158760209383611367565b810103126101f75750519190565b3d915061157a565b6040513d6000823e3d90fd5b9190820180921161148557565b6004805460405163da0351cf60e01b8152918201949094526001600160a01b0392831660248201529082166044820152929160209184916064918391165afa91821561159d5760009261161f575b5061161b611614600854846114c8565b80936115a9565b9190565b90916020823d821161164a575b8161163960209383611367565b810103126101f75750519038611604565b3d915061162c565b9081526001600160a01b03918216602082015291811660408301529091166060820152608081019190915260a00190565b919061271061169460065483611472565b049260018060a01b038060055416926116ad86826114bb565b926040519485946345718e8160e01b865260048601526001602486015284604460209687935afa94851561159d57600095611768575b509082916116f788869560045416936114bb565b611722846002541694600354169760405198899687958695635234f66560e11b875260048701611652565b03915afa90811561159d5760009161173c575b5090509190565b82813d8311611761575b6117508183611367565b810103126101f75750518038611735565b503d611746565b90948482813d8311611790575b61177f8183611367565b810103126101f757505193836116e3565b503d611775565b600554604051626ebf6560e61b815260048101849052600160248201526020949390916001600160a01b03919086908490604490829086165afa93841561159d578693600095611869575b50826004541691611814846002541694600354169660405197889687958695630159b1b960e71b875260048701611652565b03915afa92831561159d57600093611838575b505061161b611614600654846114c8565b8181949293943d8311611862575b6118508183611367565b810103126101f7575051903880611827565b503d611846565b91929382819692963d8311611898575b6118838183611367565b810103126101f75750908592915193386117e2565b503d611879565b9190826080910312611217578151916020810151916060604083015192015190565b9190916118d96118d3600754856114c8565b846115a9565b600554604080516345718e8160e01b815260048101849052600260248201529295909390926020926001600160a01b03908116928483604481875afa928315611a6d5790859291600094611a39575b508160045416908a61195a84600254169460035416968b5197889687958695630ef1a3c960e01b875260048701611652565b03915afa928315611a2e576000936119fb575b505060806004918551928380926305d1891b60e11b82525afa9384156119f157506000936119be575b506103e890818102918183041490151715611485576114e9926119b89161149b565b936114bb565b6119e091935060803d81116119ea575b6119d88183611367565b81019061189f565b5050509138611996565b503d6119ce565b513d6000823e3d90fd5b8181949293943d8311611a27575b611a138183611367565b810103126101f7575051906080600461196d565b503d611a09565b85513d6000823e3d90fd5b919282819592953d8311611a66575b611a528183611367565b810103126101f75750908491519238611928565b503d611a48565b87513d6000823e3d90fd5b60055460408051626ebf6560e61b8152600481018590526002602482015290936020936001600160a01b039384169391908584604481885afa938415611a6d579086939291600095611bbe575b50826004541691611af684600254169460035416968a519788968795869563076133a960e11b875260048701611652565b03915afa928315611bb357600093611b80575b505060806004918451928380926305d1891b60e11b82525afa9283156119f1575091611b41916103e893600092611b5d575b50611472565b049061161b612710611b5560075485611472565b0480936114bb565b611b7691925060803d81116119ea576119d88183611367565b5050509038611b3b565b8181949293943d8311611bac575b611b988183611367565b810103126101f75750519060806004611b09565b503d611b8e565b84513d6000823e3d90fd5b91929382819692963d8311611bed575b611bd88183611367565b810103126101f7575090859291519338611ac5565b503d611bce565b15611bfb57565b60405162461bcd60e51b815260206004820152600e60248201526d1bdc9858db19481b9bdd081cd95d60921b6044820152606490fd5b15611c3857565b60405162461bcd60e51b81526020600482015260146024820152731d5b9a5cddd85c081c1bdbdb081b9bdd081cd95d60621b6044820152606490fd5b60055460408051635a64cd3160e11b815290959493926001600160a01b039290916020918416908281600481855afa908115611de7578390600092611df2575b5089516321483b4560e11b815292839060049082905afa918215611de757600092611db8575b501115611d8157501690813b156112175784516340c10f1960e01b81526001600160a01b039190911660048201526024810183905260008160448183865af18015611a2e5794611d6d917fc2c6ba092cd3c8478bb023973d5bb1d671189e19416b304abe3baeeb3f228c9e9596611d72575b50516001600160a01b03909216825260208201929092529081906040820190565b0390a1565b611d7b9061133d565b38611d4c565b60649087519062461bcd60e51b82526004820152601160248201527036b4b73a34b733903337b93134b23232b760791b6044820152fd5b90918382813d8311611de0575b611dcf8183611367565b810103126101f75750519038611cda565b503d611dc5565b89513d6000823e3d90fd5b919082813d8311611e1a575b611e088183611367565b810103126101f7575051826004611cb4565b503d611dfe565b9091906001600160a01b0316803b156112175760405163079cc67960e41b81526001600160a01b039390931660048401526024830182905260008360448183855af192831561159d577ffa86a894b993fbd320a21ea3c87bdd2f2a2efe715582e87d2bf939ee2aa1567f93611eb5575b50604080516001600160a01b03909216825260208201929092529081908101611d6d565b611ebe9061133d565b38611e91565b15611ecb57565b60405162461bcd60e51b81526020600482015260136024820152721a5b9c1d5d08185cdcd95d081b9bdd081cd95d606a1b6044820152606490fd5b15611f0d57565b60405162461bcd60e51b81526020600482015260146024820152731bdd5d1c1d5d08185cdcd95d081b9bdd081cd95d60621b6044820152606490fd5b15611f5057565b60405162461bcd60e51b815260206004820152601060248201526f1c9958d95a5d995c881b9bdd081cd95d60821b6044820152606490fd5b60005460081c6001600160a01b03163303611f9f57565b60405163118cdaa760e01b8152336004820152602490fd5b60ff60005416611fc357565b60405163d93c066560e01b8152600490fdfea2646970667358221220712050284f461ca4d698e421df2ce439c480b03870ff6c7ac9e1a8d68fc4cb9664736f6c63430008140033","linkReferences":{}},"methodIdentifiers":{"acceptOwnership()":"79ba5097","burnAssetFeeBps()":"5bfc8424","burnAssetInputToNuma(address,uint256,uint256,address)":"24ef5248","burnAssetToNumaOutput(address,uint256,uint256,address)":"02c6933f","computeFeeAmountIn(uint256,uint256)":"7918d704","computeFeeAmountOut(uint256,uint256)":"57529446","getNbOfNuAssetFromNuAsset(address,address,uint256)":"3ad3d72b","getNbOfNuAssetFromNuma(address,uint256)":"d8d686d7","getNbOfNuAssetNeededForNuAsset(address,address,uint256)":"975d8d4e","getNbOfNumaFromAssetWithFee(address,uint256)":"867b470a","getNbOfNumaNeededAndFee(address,uint256)":"1b02676b","getNbOfnuAssetNeededForNuma(address,uint256)":"69330d70","mintAssetFromNumaInput(address,uint256,uint256,address)":"c4fbba1d","mintAssetOutputFromNuma(address,uint256,uint256,address)":"ee2e4b03","minterContract()":"92f00233","numa()":"5992c23e","numaPool()":"e0d47007","oracle()":"7dc0d1d0","owner()":"8da5cb5b","pause()":"8456cb59","paused()":"5c975abb","pendingOwner()":"e30c3978","printAssetFeeBps()":"e0abdfea","renounceOwnership()":"715018a6","setBurnAssetFeeBps(uint256)":"b17a91af","setNumaPoolAndConverter(address,address)":"f8df43e1","setOracle(address)":"7adbf973","setPrintAssetFeeBps(uint256)":"a3e2d994","setSwapAssetFeeBps(uint256)":"0deda348","setVaultManager(address)":"b543503e","swapAssetFeeBps()":"636802e8","swapExactInput(address,address,address,uint256,uint256)":"49470541","swapExactOutput(address,address,address,uint256,uint256)":"a194dec6","tokenToEthConverter()":"6b24c19e","transferOwnership(address)":"f2fde38b","unpause()":"3f4ba83a","updateVaultAndInterest()":"fd522fe5","vaultManager()":"8a4adf24"},"id":17}