{"abi":[{"type":"constructor","inputs":[],"stateMutability":"nonpayable"},{"type":"function","name":"getTokenPrice","inputs":[{"name":"_amount","type":"uint256","internalType":"uint256"}],"outputs":[{"name":"","type":"uint256","internalType":"uint256"}],"stateMutability":"view"},{"type":"function","name":"setPrice","inputs":[{"name":"_price","type":"uint256","internalType":"uint256"}],"outputs":[],"stateMutability":"nonpayable"}],"bytecode":{"object":"0x6080806040523461002257670de0b6b3a764000060005561011e90816100288239f35b600080fdfe6080806040526004361015601257600080fd5b600090813560e01c806391b7f5ed1460565763c457fb3714603257600080fd5b346052576020366003190112605257604e602092546004356071565b8152f35b5080fd5b8234606e576020366003190112606e57600435815580f35b80fd5b906000198183098183029182808310920391808303921460d757670de0b6b3a7640000908282111560d2577faccb18165bd6fe31ae1cf318dc5b51eee0e1ba569b88cd74c1773b91fac10669940990828211900360ee1b910360121c170290565b600080fd5b5050670de0b6b3a76400009150049056fea26469706673582212203f06642a3404c634261519f4b32d2fa6fc476c08d302dadde9c58a9417be06c764736f6c63430008140033","linkReferences":{}},"methodIdentifiers":{"getTokenPrice(uint256)":"c457fb37","setPrice(uint256)":"91b7f5ed"},"id":22}