{"abi":[{"type":"function","name":"DEFAULT_ADMIN_ROLE","inputs":[],"outputs":[{"name":"","type":"bytes32","internalType":"bytes32"}],"stateMutability":"view"},{"type":"function","name":"MINTER_ROLE","inputs":[],"outputs":[{"name":"","type":"bytes32","internalType":"bytes32"}],"stateMutability":"view"},{"type":"function","name":"UPGRADER_ROLE","inputs":[],"outputs":[{"name":"","type":"bytes32","internalType":"bytes32"}],"stateMutability":"view"},{"type":"function","name":"allowance","inputs":[{"name":"owner","type":"address","internalType":"address"},{"name":"spender","type":"address","internalType":"address"}],"outputs":[{"name":"","type":"uint256","internalType":"uint256"}],"stateMutability":"view"},{"type":"function","name":"approve","inputs":[{"name":"spender","type":"address","internalType":"address"},{"name":"amount","type":"uint256","internalType":"uint256"}],"outputs":[{"name":"","type":"bool","internalType":"bool"}],"stateMutability":"nonpayable"},{"type":"function","name":"balanceOf","inputs":[{"name":"account","type":"address","internalType":"address"}],"outputs":[{"name":"","type":"uint256","internalType":"uint256"}],"stateMutability":"view"},{"type":"function","name":"burn","inputs":[{"name":"amount","type":"uint256","internalType":"uint256"}],"outputs":[],"stateMutability":"nonpayable"},{"type":"function","name":"burnFrom","inputs":[{"name":"account","type":"address","internalType":"address"},{"name":"amount","type":"uint256","internalType":"uint256"}],"outputs":[],"stateMutability":"nonpayable"},{"type":"function","name":"decimals","inputs":[],"outputs":[{"name":"","type":"uint8","internalType":"uint8"}],"stateMutability":"view"},{"type":"function","name":"decreaseAllowance","inputs":[{"name":"spender","type":"address","internalType":"address"},{"name":"subtractedValue","type":"uint256","internalType":"uint256"}],"outputs":[{"name":"","type":"bool","internalType":"bool"}],"stateMutability":"nonpayable"},{"type":"function","name":"getRoleAdmin","inputs":[{"name":"role","type":"bytes32","internalType":"bytes32"}],"outputs":[{"name":"","type":"bytes32","internalType":"bytes32"}],"stateMutability":"view"},{"type":"function","name":"grantRole","inputs":[{"name":"role","type":"bytes32","internalType":"bytes32"},{"name":"account","type":"address","internalType":"address"}],"outputs":[],"stateMutability":"nonpayable"},{"type":"function","name":"hasRole","inputs":[{"name":"role","type":"bytes32","internalType":"bytes32"},{"name":"account","type":"address","internalType":"address"}],"outputs":[{"name":"","type":"bool","internalType":"bool"}],"stateMutability":"view"},{"type":"function","name":"increaseAllowance","inputs":[{"name":"spender","type":"address","internalType":"address"},{"name":"addedValue","type":"uint256","internalType":"uint256"}],"outputs":[{"name":"","type":"bool","internalType":"bool"}],"stateMutability":"nonpayable"},{"type":"function","name":"initialize","inputs":[{"name":"_name","type":"string","internalType":"string"},{"name":"_symbol","type":"string","internalType":"string"},{"name":"_defaultAdmin","type":"address","internalType":"address"},{"name":"_minter","type":"address","internalType":"address"},{"name":"_upgrader","type":"address","internalType":"address"}],"outputs":[],"stateMutability":"nonpayable"},{"type":"function","name":"mint","inputs":[{"name":"to","type":"address","internalType":"address"},{"name":"amount","type":"uint256","internalType":"uint256"}],"outputs":[],"stateMutability":"nonpayable"},{"type":"function","name":"name","inputs":[],"outputs":[{"name":"","type":"string","internalType":"string"}],"stateMutability":"view"},{"type":"function","name":"proxiableUUID","inputs":[],"outputs":[{"name":"","type":"bytes32","internalType":"bytes32"}],"stateMutability":"view"},{"type":"function","name":"renounceRole","inputs":[{"name":"role","type":"bytes32","internalType":"bytes32"},{"name":"account","type":"address","internalType":"address"}],"outputs":[],"stateMutability":"nonpayable"},{"type":"function","name":"revokeRole","inputs":[{"name":"role","type":"bytes32","internalType":"bytes32"},{"name":"account","type":"address","internalType":"address"}],"outputs":[],"stateMutability":"nonpayable"},{"type":"function","name":"supportsInterface","inputs":[{"name":"interfaceId","type":"bytes4","internalType":"bytes4"}],"outputs":[{"name":"","type":"bool","internalType":"bool"}],"stateMutability":"view"},{"type":"function","name":"symbol","inputs":[],"outputs":[{"name":"","type":"string","internalType":"string"}],"stateMutability":"view"},{"type":"function","name":"totalSupply","inputs":[],"outputs":[{"name":"","type":"uint256","internalType":"uint256"}],"stateMutability":"view"},{"type":"function","name":"transfer","inputs":[{"name":"to","type":"address","internalType":"address"},{"name":"amount","type":"uint256","internalType":"uint256"}],"outputs":[{"name":"","type":"bool","internalType":"bool"}],"stateMutability":"nonpayable"},{"type":"function","name":"transferFrom","inputs":[{"name":"from","type":"address","internalType":"address"},{"name":"to","type":"address","internalType":"address"},{"name":"amount","type":"uint256","internalType":"uint256"}],"outputs":[{"name":"","type":"bool","internalType":"bool"}],"stateMutability":"nonpayable"},{"type":"function","name":"upgradeTo","inputs":[{"name":"newImplementation","type":"address","internalType":"address"}],"outputs":[],"stateMutability":"nonpayable"},{"type":"function","name":"upgradeToAndCall","inputs":[{"name":"newImplementation","type":"address","internalType":"address"},{"name":"data","type":"bytes","internalType":"bytes"}],"outputs":[],"stateMutability":"payable"},{"type":"event","name":"AdminChanged","inputs":[{"name":"previousAdmin","type":"address","indexed":false,"internalType":"address"},{"name":"newAdmin","type":"address","indexed":false,"internalType":"address"}],"anonymous":false},{"type":"event","name":"Approval","inputs":[{"name":"owner","type":"address","indexed":true,"internalType":"address"},{"name":"spender","type":"address","indexed":true,"internalType":"address"},{"name":"value","type":"uint256","indexed":false,"internalType":"uint256"}],"anonymous":false},{"type":"event","name":"BeaconUpgraded","inputs":[{"name":"beacon","type":"address","indexed":true,"internalType":"address"}],"anonymous":false},{"type":"event","name":"Initialized","inputs":[{"name":"version","type":"uint8","indexed":false,"internalType":"uint8"}],"anonymous":false},{"type":"event","name":"RoleAdminChanged","inputs":[{"name":"role","type":"bytes32","indexed":true,"internalType":"bytes32"},{"name":"previousAdminRole","type":"bytes32","indexed":true,"internalType":"bytes32"},{"name":"newAdminRole","type":"bytes32","indexed":true,"internalType":"bytes32"}],"anonymous":false},{"type":"event","name":"RoleGranted","inputs":[{"name":"role","type":"bytes32","indexed":true,"internalType":"bytes32"},{"name":"account","type":"address","indexed":true,"internalType":"address"},{"name":"sender","type":"address","indexed":true,"internalType":"address"}],"anonymous":false},{"type":"event","name":"RoleRevoked","inputs":[{"name":"role","type":"bytes32","indexed":true,"internalType":"bytes32"},{"name":"account","type":"address","indexed":true,"internalType":"address"},{"name":"sender","type":"address","indexed":true,"internalType":"address"}],"anonymous":false},{"type":"event","name":"Transfer","inputs":[{"name":"from","type":"address","indexed":true,"internalType":"address"},{"name":"to","type":"address","indexed":true,"internalType":"address"},{"name":"value","type":"uint256","indexed":false,"internalType":"uint256"}],"anonymous":false},{"type":"event","name":"Upgraded","inputs":[{"name":"implementation","type":"address","indexed":true,"internalType":"address"}],"anonymous":false}],"bytecode":{"object":"0x60a080604052346100dc57306080526000549060ff8260081c1661008a575060ff8082160361004f575b60405161245990816100e28239608051818181610b0201528181610c0201526111ed0152f35b60ff90811916176000557f7f26b83ff96e1f2b6a682f133852f6798a09c465da95921460cefb3847402498602060405160ff8152a138610029565b62461bcd60e51b815260206004820152602760248201527f496e697469616c697a61626c653a20636f6e747261637420697320696e697469604482015266616c697a696e6760c81b6064820152608490fd5b600080fdfe608080604052600436101561001357600080fd5b60003560e01c90816301ffc9a7146116e75750806306fdde0314611653578063095ea7b31461162d57806318160ddd1461160f57806323b872dd146115d7578063248a9ca3146115a85780632f2ff15d14611507578063313ce567146114eb57806336568abe146114595780633659cfe6146111c8578063395093511461117757806340c10f1914610e8f57806342966c6814610e725780634f1ef28614610bb357806352d1902d14610aef57806370a0823114610ab557806379cc679014610a8557806391d1485414610a3857806395d89b411461095a578063a217fddf1461093e578063a457c2d714610897578063a9059cbb14610866578063d53913931461082b578063d547741f146107ea578063db0ed6a0146101d9578063dd62ed3e146101885763f72c0d8b1461014857600080fd5b346101835760003660031901126101835760206040517f189ab7a9244df0848122154315af71fe140f3db0fe014031783b0946b8c9d2e38152f35b600080fd5b34610183576040366003190112610183576101a1611789565b6101a961179f565b9060018060a01b038091166000526034602052604060002091166000526020526020604060002054604051908152f35b346101835760a03660031901126101835760043567ffffffffffffffff81116101835761020a903690600401611862565b60243567ffffffffffffffff81116101835761022a903690600401611862565b6044356001600160a01b03808216820361018357606435818116810361018357608435938285168503610183576000549560ff8760081c1615968780986107dd575b80156107c6575b1561076a5760ff19811660011760005587610758575b506102a460ff60005460081c1661029f81611880565b611880565b80519067ffffffffffffffff821161064b5781906102c3603654611d9b565b601f81116106e4575b50602090601f831160011461066c57600092610661575b50508160011b916000199060031b1c1916176036555b80519067ffffffffffffffff821161064b578190610318603754611d9b565b601f81116105db575b50602090601f83116001146105555760009261054a575b50508160011b916000199060031b1c1916176037555b61036c60ff60005460081c1661036381611880565b61029f81611880565b81831660009081527f81fe90a866a48a634a12852c1be675b683a22307409932a7443b8029347be756602052604090205460c9939060ff1615610506575b507f9f2df0fed2c77648de5860a4cc508cd0818c85b8b8a1ab4ceeef8d981c8956a68060005283602052604060002083831660005260205260ff60406000205416156104c1575b50507f189ab7a9244df0848122154315af71fe140f3db0fe014031783b0946b8c9d2e3918260005280602052604060002082851660005260205260ff604060002054161561047c575b5050505061044457005b61ff0019600054166000557f7f26b83ff96e1f2b6a682f133852f6798a09c465da95921460cefb3847402498602060405160018152a1005b8260005260205260406000208184166000526020526040600020600160ff19825416179055339216906000805160206123c4833981519152600080a48180808061043a565b806000528360205260406000208383166000526020526040600020600160ff1982541617905582339216906000805160206123c4833981519152600080a484806103f1565b600080528360205260406000208382166000526020526040600020600160ff198254161790558233911660006000805160206123c48339815191528180a4856103aa565b015190508780610338565b603760009081527f42a7b7dd785cd69714a189dffb3fd7d7174edc9ece837694ce50f7078f7c31ae9350601f198516905b8181106105c357509084600195949392106105aa575b505050811b0160375561034e565b015160001960f88460031b161c1916905587808061059c565b92936020600181928786015181550195019301610586565b90915060376000527f42a7b7dd785cd69714a189dffb3fd7d7174edc9ece837694ce50f7078f7c31ae601f840160051c81019160208510610641575b90601f859493920160051c01905b8181106106325750610321565b60008155849350600101610625565b9091508190610617565b634e487b7160e01b600052604160045260246000fd5b0151905088806102e3565b925060366000526000805160206123e4833981519152906000935b601f19841685106106c9576001945083601f198116106106b0575b505050811b016036556102f9565b015160001960f88460031b161c191690558880806106a2565b81810151835560209485019460019093019290910190610687565b9091506036600052601f830160051c6000805160206123e48339815191520160208410610743575b908392915b601f820160051c6000805160206123e483398151915201811061073457506102cc565b60008155849350600101610711565b506000805160206123e483398151915261070c565b61ffff19166101011760005587610289565b60405162461bcd60e51b815260206004820152602e60248201527f496e697469616c697a61626c653a20636f6e747261637420697320616c72656160448201526d191e481a5b9a5d1a585b1a5e995960921b6064820152608490fd5b50303b1580156102735750600160ff821614610273565b50600160ff82161061026c565b346101835760403660031901126101835761082960043561080961179f565b908060005260c9602052610824600160406000200154611ac9565b611bd3565b005b346101835760003660031901126101835760206040517f9f2df0fed2c77648de5860a4cc508cd0818c85b8b8a1ab4ceeef8d981c8956a68152f35b346101835760403660031901126101835761088c610882611789565b6024359033611df8565b602060405160018152f35b34610183576040366003190112610183576108b0611789565b60243590336000526034602052604060002060018060a01b038216600052602052604060002054918083106108eb5761088c92039033611f68565b60405162461bcd60e51b815260206004820152602560248201527f45524332303a2064656372656173656420616c6c6f77616e63652062656c6f77604482015264207a65726f60d81b6064820152608490fd5b3461018357600036600319011261018357602060405160008152f35b3461018357600036600319011261018357604051600060375461097c81611d9b565b80845290600190818116908115610a1157506001146109b6575b6109b2846109a6818603826117ed565b6040519182918261175d565b0390f35b6037600090815292507f42a7b7dd785cd69714a189dffb3fd7d7174edc9ece837694ce50f7078f7c31ae5b8284106109f95750505081016020016109a682610996565b805460208587018101919091529093019281016109e1565b60ff191660208087019190915292151560051b850190920192506109a69150839050610996565b3461018357604036600319011261018357610a5161179f565b60043560005260c960205260406000209060018060a01b0316600052602052602060ff604060002054166040519015158152f35b3461018357604036600319011261018357610829610aa1611789565b60243590610ab082338361206a565b612102565b34610183576020366003190112610183576001600160a01b03610ad6611789565b1660005260336020526020604060002054604051908152f35b34610183576000366003190112610183577f00000000000000000000000000000000000000000000000000000000000000006001600160a01b03163003610b485760206040516000805160206124048339815191528152f35b60405162461bcd60e51b815260206004820152603860248201527f555550535570677261646561626c653a206d757374206e6f742062652063616c60448201527f6c6564207468726f7567682064656c656761746563616c6c00000000000000006064820152608490fd5b604036600319011261018357610bc7611789565b60243567ffffffffffffffff8111610183573660238201121561018357610bf890369060248160040135910161182b565b6001600160a01b037f000000000000000000000000000000000000000000000000000000000000000081169190610c3130841415611c49565b610c4e600080516020612404833981519152938285541614611caa565b610c566118e0565b7f4910fdfa16fed3260ed0e7147f7cc6da11a60208b5b9406d12a635614ffd91435460ff1615610c8c5750505061082990611d0b565b8316604051926352d1902d60e01b84526020938481600481865afa60009181610e43575b50610d115760405162461bcd60e51b815260048101869052602e60248201527f45524331393637557067726164653a206e657720696d706c656d656e7461746960448201526d6f6e206973206e6f74205555505360901b6064820152608490fd5b93929303610dec57610d2284611d0b565b7fbc7cd75a20ee27fd9adebab32041f755214dbc6bffa90cc0225b39da2e5c2d3b600080a2815115801590610de4575b610d5857005b6108299260008060405194610d6c866117b5565b602786527f416464726573733a206c6f772d6c6576656c2064656c65676174652063616c6c85870152660819985a5b195960ca1b60408701528481519101845af4903d15610ddb573d610dbe8161180f565b90610dcc60405192836117ed565b8152600081943d92013e61220d565b6060925061220d565b506001610d52565b60405162461bcd60e51b815260048101839052602960248201527f45524331393637557067726164653a20756e737570706f727465642070726f786044820152681a58589b195555525160ba1b6064820152608490fd5b9091508581813d8311610e6b575b610e5b81836117ed565b8101031261018357519087610cb0565b503d610e51565b346101835760203660031901126101835761082960043533612102565b3461018357604036600319011261018357610ea8611789565b3360009081527f51111423f5e835a1e334a686a7d9f998a65310f720d529827b76c12f396de48260209081526040909120546024928335917f9f2df0fed2c77648de5860a4cc508cd0818c85b8b8a1ab4ceeef8d981c8956a69060ff1615610fad57506001600160a01b0316928315610f6a575060009181610f4d7fddf252ad1be2c89b69c2b068fc378daa952ba7f163c4a11628f55a4df523b3ef93603554611dd5565b6035558484526033825260408420818154019055604051908152a3005b82601f6064926040519262461bcd60e51b845260048401528201527f45524332303a206d696e7420746f20746865207a65726f2061646472657373006044820152fd5b839085610fb9336122c5565b60405191610fc6836117d1565b604283528483019360603686378351156111625760308553835160019081101561114d57607860218601536041905b8082116110df57505061109d57611099611049611081604888888861107289604051978576020b1b1b2b9b9a1b7b73a3937b61d1030b1b1b7bab73a1604d1b8a97880152825192839160378901910161173a565b8401917001034b99036b4b9b9b4b733903937b6329607d1b60378401525180938684019061173a565b010360288101845201826117ed565b60405162461bcd60e51b81529182916004830161175d565b0390fd5b606490856040519162461bcd60e51b83528160048401528201527f537472696e67733a20686578206c656e67746820696e73756666696369656e746044820152fd5b9091600f81166010811015611138576f181899199a1a9b1b9c1cb0b131b232b360811b901a61110e848861229e565b5360041c918015611123576000190190610ff5565b83634e487b7160e01b60005260116004526000fd5b84634e487b7160e01b60005260326004526000fd5b82634e487b7160e01b60005260326004526000fd5b50634e487b7160e01b60009081526032600452fd5b346101835760403660031901126101835761088c611193611789565b336000526034602052604060002060018060a01b0382166000526020526111c1602435604060002054611dd5565b9033611f68565b3461018357602080600319360112610183576111e2611789565b6001600160a01b03917f0000000000000000000000000000000000000000000000000000000000000000831661121a30821415611c49565b611237600080516020612404833981519152918583541614611caa565b61123f6118e0565b604051908282019482861067ffffffffffffffff87111761064b57856040526000835260ff7f4910fdfa16fed3260ed0e7147f7cc6da11a60208b5b9406d12a635614ffd9143541660001461129c57505050506108299150611d0b565b8492939416906040516352d1902d60e01b81528581600481865afa6000918161142a575b506113215760405162461bcd60e51b815260048101879052602e60248201527f45524331393637557067726164653a206e657720696d706c656d656e7461746960448201526d6f6e206973206e6f74205555505360901b6064820152608490fd5b949394036113d35761133282611d0b565b7fbc7cd75a20ee27fd9adebab32041f755214dbc6bffa90cc0225b39da2e5c2d3b600080a28251158015906113cb575b61136857005b600080610829956040519561137c876117b5565b602787527f416464726573733a206c6f772d6c6576656c2064656c65676174652063616c6c86880152660819985a5b195960ca1b60408801525190845af4903d15610ddb573d610dbe8161180f565b506000611362565b60405162461bcd60e51b815260048101849052602960248201527f45524331393637557067726164653a20756e737570706f727465642070726f786044820152681a58589b195555525160ba1b6064820152608490fd5b9091508681813d8311611452575b61144281836117ed565b81010312610183575190886112c0565b503d611438565b346101835760403660031901126101835761147261179f565b336001600160a01b0382160361148e5761082990600435611bd3565b60405162461bcd60e51b815260206004820152602f60248201527f416363657373436f6e74726f6c3a2063616e206f6e6c792072656e6f756e636560448201526e103937b632b9903337b91039b2b63360891b6064820152608490fd5b3461018357600036600319011261018357602060405160128152f35b346101835760403660031901126101835760043561152361179f565b8160005260c960205261153d600160406000200154611ac9565b8160005260c960205260406000209060018060a01b0316908160005260205260ff604060002054161561156c57005b8160005260c96020526040600020816000526020526040600020600160ff1982541617905533916000805160206123c4833981519152600080a4005b346101835760203660031901126101835760043560005260c96020526020600160406000200154604051908152f35b346101835760603660031901126101835761088c6115f3611789565b6115fb61179f565b6044359161160a83338361206a565b611df8565b34610183576000366003190112610183576020603554604051908152f35b346101835760403660031901126101835761088c611649611789565b6024359033611f68565b3461018357600036600319011261018357604051600060365461167581611d9b565b80845290600190818116908115610a11575060011461169e576109b2846109a6818603826117ed565b6036600090815292506000805160206123e48339815191525b8284106116cf5750505081016020016109a682610996565b805460208587018101919091529093019281016116b7565b34610183576020366003190112610183576004359063ffffffff60e01b821680920361018357602091637965db0b60e01b8114908115611729575b5015158152f35b6301ffc9a760e01b14905083611722565b60005b83811061174d5750506000910152565b818101518382015260200161173d565b6040916020825261177d815180928160208601526020868601910161173a565b601f01601f1916010190565b600435906001600160a01b038216820361018357565b602435906001600160a01b038216820361018357565b6060810190811067ffffffffffffffff82111761064b57604052565b6080810190811067ffffffffffffffff82111761064b57604052565b90601f8019910116810190811067ffffffffffffffff82111761064b57604052565b67ffffffffffffffff811161064b57601f01601f191660200190565b9291926118378261180f565b9161184560405193846117ed565b829481845281830111610183578281602093846000960137010152565b9080601f830112156101835781602061187d9335910161182b565b90565b1561188757565b60405162461bcd60e51b815260206004820152602b60248201527f496e697469616c697a61626c653a20636f6e7472616374206973206e6f74206960448201526a6e697469616c697a696e6760a81b6064820152608490fd5b3360009081527f5bd066a11de3c39d5a00651506dcc7d8e5d6a879bde036d3aa74ff1af7e9549560209081526040808320549092907f189ab7a9244df0848122154315af71fe140f3db0fe014031783b0946b8c9d2e39060ff16156119455750505050565b61194e336122c5565b84519161195a836117d1565b60428352848301936060368637835115611ab55760308553835190600191821015611ab55790607860218601536041915b818311611a4757505050611a05576110499385936119ef936119e06048946110999951988576020b1b1b2b9b9a1b7b73a3937b61d1030b1b1b7bab73a1604d1b8b97880152825192839160378901910161173a565b010360288101855201836117ed565b5162461bcd60e51b81529182916004830161175d565b60648486519062461bcd60e51b825280600483015260248201527f537472696e67733a20686578206c656e67746820696e73756666696369656e746044820152fd5b909192600f81166010811015611aa1576f181899199a1a9b1b9c1cb0b131b232b360811b901a611a77858861229e565b5360041c928015611a8d5760001901919061198b565b634e487b7160e01b82526011600452602482fd5b634e487b7160e01b83526032600452602483fd5b634e487b7160e01b81526032600452602490fd5b600081815260209060c98252604092838220338352835260ff848320541615611af25750505050565b611afb336122c5565b845191611b07836117d1565b60428352848301936060368637835115611ab55760308553835190600191821015611ab55790607860218601536041915b818311611b8d57505050611a05576110499385936119ef936119e06048946110999951988576020b1b1b2b9b9a1b7b73a3937b61d1030b1b1b7bab73a1604d1b8b97880152825192839160378901910161173a565b909192600f81166010811015611aa1576f181899199a1a9b1b9c1cb0b131b232b360811b901a611bbd858861229e565b5360041c928015611a8d57600019019190611b38565b9060009180835260c9602052604083209160018060a01b03169182845260205260ff604084205416611c0457505050565b80835260c9602052604083208284526020526040832060ff1981541690557ff6391f5c32d9c69d2a47ea670b442974b53935d1edc7fd64eb21e047a839171b339380a4565b15611c5057565b60405162461bcd60e51b815260206004820152602c60248201527f46756e6374696f6e206d7573742062652063616c6c6564207468726f7567682060448201526b19195b1959d85d1958d85b1b60a21b6064820152608490fd5b15611cb157565b60405162461bcd60e51b815260206004820152602c60248201527f46756e6374696f6e206d7573742062652063616c6c6564207468726f7567682060448201526b6163746976652070726f787960a01b6064820152608490fd5b803b15611d405760008051602061240483398151915280546001600160a01b0319166001600160a01b03909216919091179055565b60405162461bcd60e51b815260206004820152602d60248201527f455243313936373a206e657720696d706c656d656e746174696f6e206973206e60448201526c1bdd08184818dbdb9d1c9858dd609a1b6064820152608490fd5b90600182811c92168015611dcb575b6020831014611db557565b634e487b7160e01b600052602260045260246000fd5b91607f1691611daa565b91908201809211611de257565b634e487b7160e01b600052601160045260246000fd5b6001600160a01b03908116918215611f155716918215611ec45760008281526033602052604081205491808310611e7057604082827fddf252ad1be2c89b69c2b068fc378daa952ba7f163c4a11628f55a4df523b3ef95876020965260338652038282205586815220818154019055604051908152a3565b60405162461bcd60e51b815260206004820152602660248201527f45524332303a207472616e7366657220616d6f756e7420657863656564732062604482015265616c616e636560d01b6064820152608490fd5b60405162461bcd60e51b815260206004820152602360248201527f45524332303a207472616e7366657220746f20746865207a65726f206164647260448201526265737360e81b6064820152608490fd5b60405162461bcd60e51b815260206004820152602560248201527f45524332303a207472616e736665722066726f6d20746865207a65726f206164604482015264647265737360d81b6064820152608490fd5b6001600160a01b039081169182156120195716918215611fc95760207f8c5be1e5ebec7d5bd14f71427d1e84f3dd0314c0f7b2291e5b200ac8c7c3b925918360005260348252604060002085600052825280604060002055604051908152a3565b60405162461bcd60e51b815260206004820152602260248201527f45524332303a20617070726f766520746f20746865207a65726f206164647265604482015261737360f01b6064820152608490fd5b60405162461bcd60e51b8152602060048201526024808201527f45524332303a20617070726f76652066726f6d20746865207a65726f206164646044820152637265737360e01b6064820152608490fd5b9060018060a01b03808316600052603460205260406000209082166000526020526040600020549260001984036120a2575b50505050565b8084106120bd576120b4930391611f68565b3880808061209c565b60405162461bcd60e51b815260206004820152601d60248201527f45524332303a20696e73756666696369656e7420616c6c6f77616e63650000006044820152606490fd5b6001600160a01b031680156121be578060005260336020526040600020549180831061216e576020817fddf252ad1be2c89b69c2b068fc378daa952ba7f163c4a11628f55a4df523b3ef92600095858752603384520360408620558060355403603555604051908152a3565b60405162461bcd60e51b815260206004820152602260248201527f45524332303a206275726e20616d6f756e7420657863656564732062616c616e604482015261636560f01b6064820152608490fd5b60405162461bcd60e51b815260206004820152602160248201527f45524332303a206275726e2066726f6d20746865207a65726f206164647265736044820152607360f81b6064820152608490fd5b9192901561226f5750815115612221575090565b3b1561222a5790565b60405162461bcd60e51b815260206004820152601d60248201527f416464726573733a2063616c6c20746f206e6f6e2d636f6e74726163740000006044820152606490fd5b8251909150156122825750805190602001fd5b60405162461bcd60e51b8152908190611099906004830161175d565b9081518110156122af570160200190565b634e487b7160e01b600052603260045260246000fd5b604051906122d2826117b5565b602a82526020820160403682378251156122af576030905381516001908110156122af57607860218401536029905b8082116123555750506123115790565b606460405162461bcd60e51b815260206004820152602060248201527f537472696e67733a20686578206c656e67746820696e73756666696369656e746044820152fd5b9091600f811660108110156123ae576f181899199a1a9b1b9c1cb0b131b232b360811b901a612384848661229e565b5360041c918015612399576000190190612301565b60246000634e487b7160e01b81526011600452fd5b60246000634e487b7160e01b81526032600452fdfe2f8788117e7eff1d82e926ec794901d17c78024a50270940304540a733656f0d4a11f94e20a93c79f6ec743a1954ec4fc2c08429ae2122118bf234b2185c81b8360894a13ba1a3210667c828492db98dca3e2076cc3735a920a3ca505d382bbca264697066735822122000e4f37a61e6e0ad45badc75261ac70657b385d827ebd5a088054bfcef9a13ba64736f6c63430008140033","linkReferences":{}},"methodIdentifiers":{"DEFAULT_ADMIN_ROLE()":"a217fddf","MINTER_ROLE()":"d5391393","UPGRADER_ROLE()":"f72c0d8b","allowance(address,address)":"dd62ed3e","approve(address,uint256)":"095ea7b3","balanceOf(address)":"70a08231","burn(uint256)":"42966c68","burnFrom(address,uint256)":"79cc6790","decimals()":"313ce567","decreaseAllowance(address,uint256)":"a457c2d7","getRoleAdmin(bytes32)":"248a9ca3","grantRole(bytes32,address)":"2f2ff15d","hasRole(bytes32,address)":"91d14854","increaseAllowance(address,uint256)":"39509351","initialize(string,string,address,address,address)":"db0ed6a0","mint(address,uint256)":"40c10f19","name()":"06fdde03","proxiableUUID()":"52d1902d","renounceRole(bytes32,address)":"36568abe","revokeRole(bytes32,address)":"d547741f","supportsInterface(bytes4)":"01ffc9a7","symbol()":"95d89b41","totalSupply()":"18160ddd","transfer(address,uint256)":"a9059cbb","transferFrom(address,address,uint256)":"23b872dd","upgradeTo(address)":"3659cfe6","upgradeToAndCall(address,bytes)":"4f1ef286"},"id":84}