{"abi":[{"type":"constructor","inputs":[],"stateMutability":"nonpayable"},{"type":"function","name":"DEFAULT_ADMIN_ROLE","inputs":[],"outputs":[{"name":"","type":"bytes32","internalType":"bytes32"}],"stateMutability":"view"},{"type":"function","name":"MINTER_ROLE","inputs":[],"outputs":[{"name":"","type":"bytes32","internalType":"bytes32"}],"stateMutability":"view"},{"type":"function","name":"PAUSER_ROLE","inputs":[],"outputs":[{"name":"","type":"bytes32","internalType":"bytes32"}],"stateMutability":"view"},{"type":"function","name":"UPGRADER_ROLE","inputs":[],"outputs":[{"name":"","type":"bytes32","internalType":"bytes32"}],"stateMutability":"view"},{"type":"function","name":"allowance","inputs":[{"name":"owner","type":"address","internalType":"address"},{"name":"spender","type":"address","internalType":"address"}],"outputs":[{"name":"","type":"uint256","internalType":"uint256"}],"stateMutability":"view"},{"type":"function","name":"approve","inputs":[{"name":"spender","type":"address","internalType":"address"},{"name":"amount","type":"uint256","internalType":"uint256"}],"outputs":[{"name":"","type":"bool","internalType":"bool"}],"stateMutability":"nonpayable"},{"type":"function","name":"balanceOf","inputs":[{"name":"account","type":"address","internalType":"address"}],"outputs":[{"name":"","type":"uint256","internalType":"uint256"}],"stateMutability":"view"},{"type":"function","name":"burn","inputs":[{"name":"amount","type":"uint256","internalType":"uint256"}],"outputs":[],"stateMutability":"nonpayable"},{"type":"function","name":"burnFrom","inputs":[{"name":"account","type":"address","internalType":"address"},{"name":"amount","type":"uint256","internalType":"uint256"}],"outputs":[],"stateMutability":"nonpayable"},{"type":"function","name":"decimals","inputs":[],"outputs":[{"name":"","type":"uint8","internalType":"uint8"}],"stateMutability":"view"},{"type":"function","name":"decreaseAllowance","inputs":[{"name":"spender","type":"address","internalType":"address"},{"name":"subtractedValue","type":"uint256","internalType":"uint256"}],"outputs":[{"name":"","type":"bool","internalType":"bool"}],"stateMutability":"nonpayable"},{"type":"function","name":"getRoleAdmin","inputs":[{"name":"role","type":"bytes32","internalType":"bytes32"}],"outputs":[{"name":"","type":"bytes32","internalType":"bytes32"}],"stateMutability":"view"},{"type":"function","name":"grantRole","inputs":[{"name":"role","type":"bytes32","internalType":"bytes32"},{"name":"account","type":"address","internalType":"address"}],"outputs":[],"stateMutability":"nonpayable"},{"type":"function","name":"hasRole","inputs":[{"name":"role","type":"bytes32","internalType":"bytes32"},{"name":"account","type":"address","internalType":"address"}],"outputs":[{"name":"","type":"bool","internalType":"bool"}],"stateMutability":"view"},{"type":"function","name":"increaseAllowance","inputs":[{"name":"spender","type":"address","internalType":"address"},{"name":"addedValue","type":"uint256","internalType":"uint256"}],"outputs":[{"name":"","type":"bool","internalType":"bool"}],"stateMutability":"nonpayable"},{"type":"function","name":"initialize","inputs":[],"outputs":[],"stateMutability":"nonpayable"},{"type":"function","name":"mint","inputs":[{"name":"to","type":"address","internalType":"address"},{"name":"amount","type":"uint256","internalType":"uint256"}],"outputs":[],"stateMutability":"nonpayable"},{"type":"function","name":"name","inputs":[],"outputs":[{"name":"","type":"string","internalType":"string"}],"stateMutability":"view"},{"type":"function","name":"pause","inputs":[],"outputs":[],"stateMutability":"nonpayable"},{"type":"function","name":"paused","inputs":[],"outputs":[{"name":"","type":"bool","internalType":"bool"}],"stateMutability":"view"},{"type":"function","name":"proxiableUUID","inputs":[],"outputs":[{"name":"","type":"bytes32","internalType":"bytes32"}],"stateMutability":"view"},{"type":"function","name":"renounceRole","inputs":[{"name":"role","type":"bytes32","internalType":"bytes32"},{"name":"account","type":"address","internalType":"address"}],"outputs":[],"stateMutability":"nonpayable"},{"type":"function","name":"revokeRole","inputs":[{"name":"role","type":"bytes32","internalType":"bytes32"},{"name":"account","type":"address","internalType":"address"}],"outputs":[],"stateMutability":"nonpayable"},{"type":"function","name":"supportsInterface","inputs":[{"name":"interfaceId","type":"bytes4","internalType":"bytes4"}],"outputs":[{"name":"","type":"bool","internalType":"bool"}],"stateMutability":"view"},{"type":"function","name":"symbol","inputs":[],"outputs":[{"name":"","type":"string","internalType":"string"}],"stateMutability":"view"},{"type":"function","name":"totalSupply","inputs":[],"outputs":[{"name":"","type":"uint256","internalType":"uint256"}],"stateMutability":"view"},{"type":"function","name":"transfer","inputs":[{"name":"to","type":"address","internalType":"address"},{"name":"amount","type":"uint256","internalType":"uint256"}],"outputs":[{"name":"","type":"bool","internalType":"bool"}],"stateMutability":"nonpayable"},{"type":"function","name":"transferFrom","inputs":[{"name":"from","type":"address","internalType":"address"},{"name":"to","type":"address","internalType":"address"},{"name":"amount","type":"uint256","internalType":"uint256"}],"outputs":[{"name":"","type":"bool","internalType":"bool"}],"stateMutability":"nonpayable"},{"type":"function","name":"unpause","inputs":[],"outputs":[],"stateMutability":"nonpayable"},{"type":"function","name":"upgradeTo","inputs":[{"name":"newImplementation","type":"address","internalType":"address"}],"outputs":[],"stateMutability":"nonpayable"},{"type":"function","name":"upgradeToAndCall","inputs":[{"name":"newImplementation","type":"address","internalType":"address"},{"name":"data","type":"bytes","internalType":"bytes"}],"outputs":[],"stateMutability":"payable"},{"type":"event","name":"AdminChanged","inputs":[{"name":"previousAdmin","type":"address","indexed":false,"internalType":"address"},{"name":"newAdmin","type":"address","indexed":false,"internalType":"address"}],"anonymous":false},{"type":"event","name":"Approval","inputs":[{"name":"owner","type":"address","indexed":true,"internalType":"address"},{"name":"spender","type":"address","indexed":true,"internalType":"address"},{"name":"value","type":"uint256","indexed":false,"internalType":"uint256"}],"anonymous":false},{"type":"event","name":"BeaconUpgraded","inputs":[{"name":"beacon","type":"address","indexed":true,"internalType":"address"}],"anonymous":false},{"type":"event","name":"Initialized","inputs":[{"name":"version","type":"uint8","indexed":false,"internalType":"uint8"}],"anonymous":false},{"type":"event","name":"Paused","inputs":[{"name":"account","type":"address","indexed":false,"internalType":"address"}],"anonymous":false},{"type":"event","name":"RoleAdminChanged","inputs":[{"name":"role","type":"bytes32","indexed":true,"internalType":"bytes32"},{"name":"previousAdminRole","type":"bytes32","indexed":true,"internalType":"bytes32"},{"name":"newAdminRole","type":"bytes32","indexed":true,"internalType":"bytes32"}],"anonymous":false},{"type":"event","name":"RoleGranted","inputs":[{"name":"role","type":"bytes32","indexed":true,"internalType":"bytes32"},{"name":"account","type":"address","indexed":true,"internalType":"address"},{"name":"sender","type":"address","indexed":true,"internalType":"address"}],"anonymous":false},{"type":"event","name":"RoleRevoked","inputs":[{"name":"role","type":"bytes32","indexed":true,"internalType":"bytes32"},{"name":"account","type":"address","indexed":true,"internalType":"address"},{"name":"sender","type":"address","indexed":true,"internalType":"address"}],"anonymous":false},{"type":"event","name":"Transfer","inputs":[{"name":"from","type":"address","indexed":true,"internalType":"address"},{"name":"to","type":"address","indexed":true,"internalType":"address"},{"name":"value","type":"uint256","indexed":false,"internalType":"uint256"}],"anonymous":false},{"type":"event","name":"Unpaused","inputs":[{"name":"account","type":"address","indexed":false,"internalType":"address"}],"anonymous":false},{"type":"event","name":"Upgraded","inputs":[{"name":"implementation","type":"address","indexed":true,"internalType":"address"}],"anonymous":false},{"type":"error","name":"NotUpgradable","inputs":[]}],"bytecode":{"object":"0x60a080604052346100dc57306080526000549060ff8260081c1661008a575060ff8082160361004f575b6040516121bc90816100e28239608051818181610bb301528181610cf4015261116f0152f35b60ff90811916176000557f7f26b83ff96e1f2b6a682f133852f6798a09c465da95921460cefb3847402498602060405160ff8152a138610029565b62461bcd60e51b815260206004820152602760248201527f496e697469616c697a61626c653a20636f6e747261637420697320696e697469604482015266616c697a696e6760c81b6064820152608490fd5b600080fdfe608060408181526004918236101561001657600080fd5b600092833560e01c91826301ffc9a7146114415750816306fdde0314611397578163095ea7b31461136d57816318160ddd1461134e57816323b872dd14611311578163248a9ca3146112e65781632f2ff15d1461124b578163313ce5671461122f57816336568abe1461119d5781633659cfe61461114557816339509351146110f55781633f4ba83a1461105f57816340c10f1914610d9557816342966c6814610d775781634f1ef28614610c7257816352d1902d14610b9d5781635c975abb14610b7957816370a0823114610b4157816379cc679014610b115781638129fc1c1461052e5781638456cb59146104d357816391d148541461048c57816395d89b41146103ab578163a217fddf14610390578163a457c2d7146102e8578163a9059cbb146102b7578163d53913931461027c578163d547741f1461023957508063dd62ed3e146101f1578063e63ab1e9146101b75763f72c0d8b1461017a57600080fd5b346101b357816003193601126101b357602090517f189ab7a9244df0848122154315af71fe140f3db0fe014031783b0946b8c9d2e38152f35b5080fd5b50346101b357816003193601126101b357602090517f65d7a28e3265b37a6474929f336521b332c1681b933f6cb9f3376673440d862a8152f35b50346101b357806003193601126101b3578060209261020e6114e3565b6102166114fe565b6001600160a01b0391821683526034865283832091168252845220549051908152f35b919050346102785780600319360112610278576102759135610270600161025e6114fe565b9383875260fb60205286200154611928565b611a32565b80f35b8280fd5b5050346101b357816003193601126101b357602090517f9f2df0fed2c77648de5860a4cc508cd0818c85b8b8a1ab4ceeef8d981c8956a68152f35b5050346101b357806003193601126101b3576020906102e16102d76114e3565b6024359033611c0b565b5160018152f35b9050823461038d578260031936011261038d576103036114e3565b918360243592338152603460205281812060018060a01b038616825260205220549082821061033c576020856102e18585038733611d83565b608490602086519162461bcd60e51b8352820152602560248201527f45524332303a2064656372656173656420616c6c6f77616e63652062656c6f77604482015264207a65726f60d81b6064820152fd5b80fd5b5050346101b357816003193601126101b35751908152602090f35b5050346101b357816003193601126101b357805190826037546103cd81611bae565b808552916001918083169081156104645750600114610407575b5050506103f982610403940383611546565b51918291826114b7565b0390f35b9450603785527f42a7b7dd785cd69714a189dffb3fd7d7174edc9ece837694ce50f7078f7c31ae5b82861061044c575050506103f982602061040395820101946103e7565b8054602087870181019190915290950194810161042f565b6104039750869350602092506103f994915060ff191682840152151560051b820101946103e7565b9050346102785781600319360112610278578160209360ff926104ad6114fe565b9035825260fb86528282206001600160a01b039091168252855220549151911615158152f35b5050346101b357816003193601126101b35760207f62e78cea01bee320cd4e420270b5ea74000d11b0c9f74754ebdbfc544b05a258916105116117e2565b610519611b6a565b600160ff19609754161760975551338152a180f35b91905034610278578260031936011261027857825460ff808260081c161591828093610b05575b8015610aef575b15610a955760019460ff19918487848316178955610a84575b5061057e611568565b610586611568565b61059e858a5460081c1661059981611599565b611599565b81519267ffffffffffffffff93848111610a7157806105be603654611bae565b94601f95868111610a00575b506020908d8784116001146109815792610976575b5050600019600383901b1c1916908a1b176036555b8151938411610963575090829161060c603754611bae565b8281116108f3575b506020918311600114610874578992610869575b5050600019600383901b1c191690861b176037555b61067382875460081c1661065081611599565b61065981611599565b61066281611599565b826097541660975561059981611599565b85805260fb8060205284872033885260205282858820541615610834575b7f65d7a28e3265b37a6474929f336521b332c1681b933f6cb9f3376673440d862a80885281602052858820338952602052838689205416156107fd575b507f9f2df0fed2c77648de5860a4cc508cd0818c85b8b8a1ab4ceeef8d981c8956a680885281602052858820338952602052838689205416156107c6575b507f189ab7a9244df0848122154315af71fe140f3db0fe014031783b0946b8c9d2e3928388528160205285882033895260205285882054161561078e575b505050610755578280f35b825461ff0019168355519081527f7f26b83ff96e1f2b6a682f133852f6798a09c465da95921460cefb384740249890602090a138808280f35b8287526020528386203387526020528484872091825416179055339033906000805160206121678339815191528780a438808061074a565b808852816020528588203389526020528588208784825416179055339033906000805160206121678339815191528a80a43861070c565b808852816020528588203389526020528588208784825416179055339033906000805160206121678339815191528a80a4386106ce565b8680528060205284872033885260205284872086838254161790553333886000805160206121678339815191528180a4610691565b015190503880610628565b60378a528893507f42a7b7dd785cd69714a189dffb3fd7d7174edc9ece837694ce50f7078f7c31ae9190601f1984168b5b8181106108db575084116108c2575b505050811b0160375561063d565b015160001960f88460031b161c191690553880806108b4565b8284015185558b9690940193602093840193016108a5565b9091925060378a527f42a7b7dd785cd69714a189dffb3fd7d7174edc9ece837694ce50f7078f7c31ae8380860160051c8201926020871061095a575b9186958c929594930160051c01915b82811061094c575050610614565b8c81558695508b910161093e565b9250819261092f565b634e487b7160e01b8a5260419052602489fd5b0151905038806105df565b91908d9450601f198416603684527f4a11f94e20a93c79f6ec743a1954ec4fc2c08429ae2122118bf234b2185c81b8935b8181106109e8575084116109cf575b505050811b016036556105f4565b015160001960f88460031b161c191690553880806109c1565b8284015185558f9690940193602093840193016109b2565b90915060368d527f4a11f94e20a93c79f6ec743a1954ec4fc2c08429ae2122118bf234b2185c81b88680850160051c82019260208610610a68575b859493910160051c909101908d908f5b838210610a5a575050506105ca565b81558594508e91018f610a4b565b92508192610a3b565b634e487b7160e01b8b526041825260248bfd5b61ffff191661010117875538610575565b835162461bcd60e51b8152602081870152602e60248201527f496e697469616c697a61626c653a20636f6e747261637420697320616c72656160448201526d191e481a5b9a5d1a585b1a5e995960921b6064820152608490fd5b50303b15801561055c575060018282161461055c565b50600182821610610555565b5050346101b35736600319011261038d57610275610b2d6114e3565b60243590610b3c823383611e85565b611f1d565b5050346101b35760203660031901126101b35760209181906001600160a01b03610b696114e3565b1681526033845220549051908152f35b5050346101b357816003193601126101b35760209060ff6097541690519015158152f35b9050823461038d578060031936011261038d57507f00000000000000000000000000000000000000000000000000000000000000006001600160a01b03163003610c0a57602082517f360894a13ba1a3210667c828492db98dca3e2076cc3735a920a3ca505d382bbc8152f35b6020608492519162461bcd60e51b8352820152603860248201527f555550535570677261646561626c653a206d757374206e6f742062652063616c60448201527f6c6564207468726f7567682064656c656761746563616c6c00000000000000006064820152fd5b82848160031936011261038d57610c876114e3565b5067ffffffffffffffff60243581811161027857366023820112156102785780850135918211610d6457835190610cc8601f8401601f191660200183611546565b8282523660248483010111610d605790826024602094930184830137010152610d4b6001600160a01b037f0000000000000000000000000000000000000000000000000000000000000000811690610d2230831415611aa8565b7f360894a13ba1a3210667c828492db98dca3e2076cc3735a920a3ca505d382bbc541614611b09565b610d536115f9565b5163372c931960e01b8152fd5b8380fd5b634e487b7160e01b835260418552602483fd5b8390346101b35760203660031901126101b357610275903533611f1d565b905034610278578160031936011261027857610daf6114e3565b906024928335917f9f2df0fed2c77648de5860a4cc508cd0818c85b8b8a1ab4ceeef8d981c8956a69384875260209460fb8652838820338952865260ff848920541615610e9d57506001600160a01b0316948515610e5d575050917fddf252ad1be2c89b69c2b068fc378daa952ba7f163c4a11628f55a4df523b3ef918593610e36611b6a565b610e4282603554611be8565b6035558585526033835280852082815401905551908152a380f35b601f9085606494519362461bcd60e51b85528401528201527f45524332303a206d696e7420746f20746865207a65726f2061646472657373006044820152fd5b859150868891610eac33612057565b9091865192610eba84611514565b6042845285840194606036873784511561104d576030865384519060019182101561103b5790607860218701536041915b818311610fd257505050610f915750610f8d938693610f7993610f6a604894610f419a519a8576020b1b1b2b9b9a1b7b73a3937b61d1030b1b1b7bab73a1604d1b8d978801528251928391603789019101611494565b8401917001034b99036b4b9b9b4b733903937b6329607d1b603784015251809386840190611494565b01036028810187520185611546565b5162461bcd60e51b815292839283016114b7565b0390fd5b9250505081606494519362461bcd60e51b85528401528201527f537472696e67733a20686578206c656e67746820696e73756666696369656e746044820152fd5b909192600f81166010811015611029576f181899199a1a9b1b9c1cb0b131b232b360811b901a6110028589612030565b53891c92801561101757600019019190610eeb565b634e487b7160e01b825260118a528482fd5b634e487b7160e01b835260328b528583fd5b634e487b7160e01b8152603289528390fd5b634e487b7160e01b8152603288529050fd5b9050346102785782600319360112610278576110796117e2565b6097549060ff8216156110bb575060ff1916609755513381527f5db9ee0a495bf2e6ff9c91a7834c1ba4fdd244a5e8aa4e537bd38aeae4b073aa90602090a180f35b606490602084519162461bcd60e51b8352820152601460248201527314185d5cd8589b194e881b9bdd081c185d5cd95960621b6044820152fd5b5050346101b357806003193601126101b3576102e160209261113e6111186114e3565b338352603486528483206001600160a01b03821684528652918490205460243590611be8565b9033611d83565b82843461038d57602036600319011261038d57506111616114e3565b50610d4b6001600160a01b037f0000000000000000000000000000000000000000000000000000000000000000811690610d2230831415611aa8565b839150346101b357826003193601126101b3576111b86114fe565b90336001600160a01b038316036111d457906102759135611a32565b608490602085519162461bcd60e51b8352820152602f60248201527f416363657373436f6e74726f6c3a2063616e206f6e6c792072656e6f756e636560448201526e103937b632b9903337b91039b2b63360891b6064820152fd5b5050346101b357816003193601126101b3576020905160128152f35b90503461027857816003193601126102785735906112676114fe565b9082845260fb60205261127f60018286200154611928565b82845260fb60209081528185206001600160a01b039093168086529290528084205460ff16156112ad578380f35b82845260fb6020528084208285526020528320600160ff1982541617905533916000805160206121678339815191528480a43880808380f35b905034610278576020366003190112610278578160209360019235815260fb85522001549051908152f35b5050346101b35760603660031901126101b3576020906102e16113326114e3565b61133a6114fe565b60443591611349833383611e85565b611c0b565b5050346101b357816003193601126101b3576020906035549051908152f35b5050346101b357806003193601126101b3576020906102e161138d6114e3565b6024359033611d83565b5050346101b357816003193601126101b357805190826036546113b981611bae565b8085529160019180831690811561046457506001146113e4575050506103f982610403940383611546565b9450603685527f4a11f94e20a93c79f6ec743a1954ec4fc2c08429ae2122118bf234b2185c81b85b828610611429575050506103f982602061040395820101946103e7565b8054602087870181019190915290950194810161140c565b849134610278576020366003190112610278573563ffffffff60e01b81168091036102785760209250637965db0b60e01b8114908115611483575b5015158152f35b6301ffc9a760e01b1490508361147c565b60005b8381106114a75750506000910152565b8181015183820152602001611497565b604091602082526114d78151809281602086015260208686019101611494565b601f01601f1916010190565b600435906001600160a01b03821682036114f957565b600080fd5b602435906001600160a01b03821682036114f957565b6080810190811067ffffffffffffffff82111761153057604052565b634e487b7160e01b600052604160045260246000fd5b90601f8019910116810190811067ffffffffffffffff82111761153057604052565b604051906040820182811067ffffffffffffffff8211176115305760405260048252634e554d4160e01b6020830152565b156115a057565b60405162461bcd60e51b815260206004820152602b60248201527f496e697469616c697a61626c653a20636f6e7472616374206973206e6f74206960448201526a6e697469616c697a696e6760a81b6064820152608490fd5b3360009081527f775ac87777436f29b0cd5453bf5db4da15d8938d0ef70de831d2edd17651cf6760209081526040808320549092907f189ab7a9244df0848122154315af71fe140f3db0fe014031783b0946b8c9d2e39060ff161561165e5750505050565b61166733612057565b84519161167383611514565b604283528483019360603686378351156117ce57603085538351906001918210156117ce5790607860218601536041915b8183116117605750505061171e57610f41938593611708936116f9604894610f8d9951988576020b1b1b2b9b9a1b7b73a3937b61d1030b1b1b7bab73a1604d1b8b978801528251928391603789019101611494565b01036028810185520183611546565b5162461bcd60e51b8152918291600483016114b7565b60648486519062461bcd60e51b825280600483015260248201527f537472696e67733a20686578206c656e67746820696e73756666696369656e746044820152fd5b909192600f811660108110156117ba576f181899199a1a9b1b9c1cb0b131b232b360811b901a6117908588612030565b5360041c9280156117a6576000190191906116a4565b634e487b7160e01b82526011600452602482fd5b634e487b7160e01b83526032600452602483fd5b634e487b7160e01b81526032600452602490fd5b3360009081527fc81858b0fc5e8d7d2c7a341b4e13a62a27b51e1da1072bf5f7fee8fdef673e9460209081526040808320549092907f65d7a28e3265b37a6474929f336521b332c1681b933f6cb9f3376673440d862a9060ff16156118475750505050565b61185033612057565b84519161185c83611514565b604283528483019360603686378351156117ce57603085538351906001918210156117ce5790607860218601536041915b8183116118e25750505061171e57610f41938593611708936116f9604894610f8d9951988576020b1b1b2b9b9a1b7b73a3937b61d1030b1b1b7bab73a1604d1b8b978801528251928391603789019101611494565b909192600f811660108110156117ba576f181899199a1a9b1b9c1cb0b131b232b360811b901a6119128588612030565b5360041c9280156117a65760001901919061188d565b600081815260209060fb8252604092838220338352835260ff8483205416156119515750505050565b61195a33612057565b84519161196683611514565b604283528483019360603686378351156117ce57603085538351906001918210156117ce5790607860218601536041915b8183116119ec5750505061171e57610f41938593611708936116f9604894610f8d9951988576020b1b1b2b9b9a1b7b73a3937b61d1030b1b1b7bab73a1604d1b8b978801528251928391603789019101611494565b909192600f811660108110156117ba576f181899199a1a9b1b9c1cb0b131b232b360811b901a611a1c8588612030565b5360041c9280156117a657600019019190611997565b9060009180835260fb602052604083209160018060a01b03169182845260205260ff604084205416611a6357505050565b80835260fb602052604083208284526020526040832060ff1981541690557ff6391f5c32d9c69d2a47ea670b442974b53935d1edc7fd64eb21e047a839171b339380a4565b15611aaf57565b60405162461bcd60e51b815260206004820152602c60248201527f46756e6374696f6e206d7573742062652063616c6c6564207468726f7567682060448201526b19195b1959d85d1958d85b1b60a21b6064820152608490fd5b15611b1057565b60405162461bcd60e51b815260206004820152602c60248201527f46756e6374696f6e206d7573742062652063616c6c6564207468726f7567682060448201526b6163746976652070726f787960a01b6064820152608490fd5b60ff60975416611b7657565b60405162461bcd60e51b815260206004820152601060248201526f14185d5cd8589b194e881c185d5cd95960821b6044820152606490fd5b90600182811c92168015611bde575b6020831014611bc857565b634e487b7160e01b600052602260045260246000fd5b91607f1691611bbd565b91908201809211611bf557565b634e487b7160e01b600052601160045260246000fd5b6001600160a01b03908116918215611d305716918215611cdf57611c2d611b6a565b60008281526033602052604081205491808310611c8b57604082827fddf252ad1be2c89b69c2b068fc378daa952ba7f163c4a11628f55a4df523b3ef95876020965260338652038282205586815220818154019055604051908152a3565b60405162461bcd60e51b815260206004820152602660248201527f45524332303a207472616e7366657220616d6f756e7420657863656564732062604482015265616c616e636560d01b6064820152608490fd5b60405162461bcd60e51b815260206004820152602360248201527f45524332303a207472616e7366657220746f20746865207a65726f206164647260448201526265737360e81b6064820152608490fd5b60405162461bcd60e51b815260206004820152602560248201527f45524332303a207472616e736665722066726f6d20746865207a65726f206164604482015264647265737360d81b6064820152608490fd5b6001600160a01b03908116918215611e345716918215611de45760207f8c5be1e5ebec7d5bd14f71427d1e84f3dd0314c0f7b2291e5b200ac8c7c3b925918360005260348252604060002085600052825280604060002055604051908152a3565b60405162461bcd60e51b815260206004820152602260248201527f45524332303a20617070726f766520746f20746865207a65726f206164647265604482015261737360f01b6064820152608490fd5b60405162461bcd60e51b8152602060048201526024808201527f45524332303a20617070726f76652066726f6d20746865207a65726f206164646044820152637265737360e01b6064820152608490fd5b9060018060a01b0380831660005260346020526040600020908216600052602052604060002054926000198403611ebd575b50505050565b808410611ed857611ecf930391611d83565b38808080611eb7565b60405162461bcd60e51b815260206004820152601d60248201527f45524332303a20696e73756666696369656e7420616c6c6f77616e63650000006044820152606490fd5b6001600160a01b03168015611fe157611f34611b6a565b80600052603360205260406000205491808310611f91576020817fddf252ad1be2c89b69c2b068fc378daa952ba7f163c4a11628f55a4df523b3ef92600095858752603384520360408620558060355403603555604051908152a3565b60405162461bcd60e51b815260206004820152602260248201527f45524332303a206275726e20616d6f756e7420657863656564732062616c616e604482015261636560f01b6064820152608490fd5b60405162461bcd60e51b815260206004820152602160248201527f45524332303a206275726e2066726f6d20746865207a65726f206164647265736044820152607360f81b6064820152608490fd5b908151811015612041570160200190565b634e487b7160e01b600052603260045260246000fd5b604051906060820182811067ffffffffffffffff82111761153057604052602a82526020820160403682378251156120415760309053815160019081101561204157607860218401536029905b8082116120f85750506120b45790565b606460405162461bcd60e51b815260206004820152602060248201527f537472696e67733a20686578206c656e67746820696e73756666696369656e746044820152fd5b9091600f81166010811015612151576f181899199a1a9b1b9c1cb0b131b232b360811b901a6121278486612030565b5360041c91801561213c5760001901906120a4565b60246000634e487b7160e01b81526011600452fd5b60246000634e487b7160e01b81526032600452fdfe2f8788117e7eff1d82e926ec794901d17c78024a50270940304540a733656f0da2646970667358221220974729849a87ba7fa246f7a2a181e017bae35d3efa6f326e850a7e05e6de2ad564736f6c63430008140033","linkReferences":{}},"methodIdentifiers":{"DEFAULT_ADMIN_ROLE()":"a217fddf","MINTER_ROLE()":"d5391393","PAUSER_ROLE()":"e63ab1e9","UPGRADER_ROLE()":"f72c0d8b","allowance(address,address)":"dd62ed3e","approve(address,uint256)":"095ea7b3","balanceOf(address)":"70a08231","burn(uint256)":"42966c68","burnFrom(address,uint256)":"79cc6790","decimals()":"313ce567","decreaseAllowance(address,uint256)":"a457c2d7","getRoleAdmin(bytes32)":"248a9ca3","grantRole(bytes32,address)":"2f2ff15d","hasRole(bytes32,address)":"91d14854","increaseAllowance(address,uint256)":"39509351","initialize()":"8129fc1c","mint(address,uint256)":"40c10f19","name()":"06fdde03","pause()":"8456cb59","paused()":"5c975abb","proxiableUUID()":"52d1902d","renounceRole(bytes32,address)":"36568abe","revokeRole(bytes32,address)":"d547741f","supportsInterface(bytes4)":"01ffc9a7","symbol()":"95d89b41","totalSupply()":"18160ddd","transfer(address,uint256)":"a9059cbb","transferFrom(address,address,uint256)":"23b872dd","unpause()":"3f4ba83a","upgradeTo(address)":"3659cfe6","upgradeToAndCall(address,bytes)":"4f1ef286"},"id":93}