{"abi":[{"type":"constructor","inputs":[{"name":"initialOwner","type":"address","internalType":"address"}],"stateMutability":"nonpayable"},{"type":"function","name":"allowance","inputs":[{"name":"owner","type":"address","internalType":"address"},{"name":"spender","type":"address","internalType":"address"}],"outputs":[{"name":"","type":"uint256","internalType":"uint256"}],"stateMutability":"view"},{"type":"function","name":"approve","inputs":[{"name":"spender","type":"address","internalType":"address"},{"name":"value","type":"uint256","internalType":"uint256"}],"outputs":[{"name":"","type":"bool","internalType":"bool"}],"stateMutability":"nonpayable"},{"type":"function","name":"balanceOf","inputs":[{"name":"account","type":"address","internalType":"address"}],"outputs":[{"name":"","type":"uint256","internalType":"uint256"}],"stateMutability":"view"},{"type":"function","name":"decimals","inputs":[],"outputs":[{"name":"","type":"uint8","internalType":"uint8"}],"stateMutability":"view"},{"type":"function","name":"name","inputs":[],"outputs":[{"name":"","type":"string","internalType":"string"}],"stateMutability":"view"},{"type":"function","name":"owner","inputs":[],"outputs":[{"name":"","type":"address","internalType":"address"}],"stateMutability":"view"},{"type":"function","name":"renounceOwnership","inputs":[],"outputs":[],"stateMutability":"nonpayable"},{"type":"function","name":"symbol","inputs":[],"outputs":[{"name":"","type":"string","internalType":"string"}],"stateMutability":"view"},{"type":"function","name":"totalSupply","inputs":[],"outputs":[{"name":"","type":"uint256","internalType":"uint256"}],"stateMutability":"view"},{"type":"function","name":"transfer","inputs":[{"name":"to","type":"address","internalType":"address"},{"name":"value","type":"uint256","internalType":"uint256"}],"outputs":[{"name":"","type":"bool","internalType":"bool"}],"stateMutability":"nonpayable"},{"type":"function","name":"transferFrom","inputs":[{"name":"from","type":"address","internalType":"address"},{"name":"to","type":"address","internalType":"address"},{"name":"value","type":"uint256","internalType":"uint256"}],"outputs":[{"name":"","type":"bool","internalType":"bool"}],"stateMutability":"nonpayable"},{"type":"function","name":"transferOwnership","inputs":[{"name":"newOwner","type":"address","internalType":"address"}],"outputs":[],"stateMutability":"nonpayable"},{"type":"event","name":"Approval","inputs":[{"name":"owner","type":"address","indexed":true,"internalType":"address"},{"name":"spender","type":"address","indexed":true,"internalType":"address"},{"name":"value","type":"uint256","indexed":false,"internalType":"uint256"}],"anonymous":false},{"type":"event","name":"OwnershipTransferred","inputs":[{"name":"previousOwner","type":"address","indexed":true,"internalType":"address"},{"name":"newOwner","type":"address","indexed":true,"internalType":"address"}],"anonymous":false},{"type":"event","name":"Transfer","inputs":[{"name":"from","type":"address","indexed":true,"internalType":"address"},{"name":"to","type":"address","indexed":true,"internalType":"address"},{"name":"value","type":"uint256","indexed":false,"internalType":"uint256"}],"anonymous":false},{"type":"error","name":"ERC20InsufficientAllowance","inputs":[{"name":"spender","type":"address","internalType":"address"},{"name":"allowance","type":"uint256","internalType":"uint256"},{"name":"needed","type":"uint256","internalType":"uint256"}]},{"type":"error","name":"ERC20InsufficientBalance","inputs":[{"name":"sender","type":"address","internalType":"address"},{"name":"balance","type":"uint256","internalType":"uint256"},{"name":"needed","type":"uint256","internalType":"uint256"}]},{"type":"error","name":"ERC20InvalidApprover","inputs":[{"name":"approver","type":"address","internalType":"address"}]},{"type":"error","name":"ERC20InvalidReceiver","inputs":[{"name":"receiver","type":"address","internalType":"address"}]},{"type":"error","name":"ERC20InvalidSender","inputs":[{"name":"sender","type":"address","internalType":"address"}]},{"type":"error","name":"ERC20InvalidSpender","inputs":[{"name":"spender","type":"address","internalType":"address"}]},{"type":"error","name":"OwnableInvalidOwner","inputs":[{"name":"owner","type":"address","internalType":"address"}]},{"type":"error","name":"OwnableUnauthorizedAccount","inputs":[{"name":"account","type":"address","internalType":"address"}]}],"bytecode":{"object":"0x6080346200043057601f62000c7338819003828101601f19908116850194926001600160401b0392838711858810176200033257808592604098895283396020948591810103126200043057516001600160a01b0392838216929183900362000430576200006c62000435565b95600c87526b4c7374546f6b656e4d6f636b60a01b868801526200008f62000435565b9660068852650d8e6e88aa8960d31b87890152805191838311620003325760039283546001938482811c9216801562000425575b8b8310146200040f578184849311620003b9575b508a90848311600114620003545760009262000348575b505060001982861b1c191690831b1783555b8851938411620003325760049889548381811c9116801562000327575b8a8210146200031257828111620002c7575b50889185116001146200025e578495509084929160009562000252575b50501b92600019911b1c19161784555b80156200023b57600580546001600160a01b031981168317909155855192167f8be0079c531659141344cd1fd0a4f28419497f9722a3daafe3b4186f6b6457e0600080a333156200022657506002546a52b7d2dcc80cd2e4000000928382018092116200021157506000917fddf252ad1be2c89b69c2b068fc378daa952ba7f163c4a11628f55a4df523b3ef9160025533835282815284832084815401905584519384523393a35161081d9081620004568239f35b601190634e487b7160e01b6000525260246000fd5b63ec442f0560e01b8152600083820152602490fd5b8451631e4fbdf760e01b8152600081860152602490fd5b0151935038806200014c565b9291948416928960005284896000209460005b8b89838310620002af575050501062000294575b50505050811b0184556200015c565b01519060f884600019921b161c191690553880808062000285565b86860151895590970196948501948893500162000271565b8a600052896000208380880160051c8201928c891062000308575b0160051c019084905b828110620002fb5750506200012f565b60008155018490620002eb565b92508192620002e2565b60228b634e487b7160e01b6000525260246000fd5b90607f16906200011d565b634e487b7160e01b600052604160045260246000fd5b015190503880620000ee565b908886941691876000528c600020928d6000905b828210620003a1575050841162000388575b505050811b01835562000100565b015160001983881b60f8161c191690553880806200037a565b83850151865589979095019493840193018e62000368565b909150856000528a6000208480850160051c8201928d861062000405575b918791869594930160051c01915b828110620003f5575050620000d7565b60008155859450879101620003e5565b92508192620003d7565b634e487b7160e01b600052602260045260246000fd5b91607f1691620000c3565b600080fd5b60408051919082016001600160401b03811183821017620003325760405256fe6080604081815260048036101561001557600080fd5b600092833560e01c90816306fdde031461056e57508063095ea7b3146104c557806318160ddd146104a657806323b872dd146103b3578063313ce5671461039757806370a0823114610360578063715018a6146103005780638da5cb5b146102d757806395d89b41146101b7578063a9059cbb14610186578063dd62ed3e146101395763f2fde38b146100a757600080fd5b34610135576020366003190112610135576100c06106ac565b906100c96106dd565b6001600160a01b0391821692831561011f575050600554826bffffffffffffffffffffffff60a01b821617600555167f8be0079c531659141344cd1fd0a4f28419497f9722a3daafe3b4186f6b6457e08380a380f35b51631e4fbdf760e01b8152908101849052602490fd5b8280fd5b505034610182578060031936011261018257806020926101576106ac565b61015f6106c7565b6001600160a01b0391821683526001865283832091168252845220549051908152f35b5080fd5b5050346101825780600319360112610182576020906101b06101a66106ac565b6024359033610709565b5160018152f35b50919034610182578160031936011261018257805190828454600181811c908083169283156102cd575b60209384841081146102ba5783885290811561029e5750600114610249575b505050829003601f01601f191682019267ffffffffffffffff8411838510176102365750829182610232925282610663565b0390f35b634e487b7160e01b815260418552602490fd5b8787529192508591837f8a35acfbc15ff81a39ae7d344fd709f28e8600b4aa8c65c6b64bfe7fe36bd19b5b83851061028a5750505050830101388080610200565b805488860183015293019284908201610274565b60ff1916878501525050151560051b8401019050388080610200565b634e487b7160e01b895260228a52602489fd5b91607f16916101e1565b50503461018257816003193601126101825760055490516001600160a01b039091168152602090f35b833461035d578060031936011261035d576103196106dd565b600580546001600160a01b0319811690915581906001600160a01b03167f8be0079c531659141344cd1fd0a4f28419497f9722a3daafe3b4186f6b6457e08280a380f35b80fd5b5050346101825760203660031901126101825760209181906001600160a01b036103886106ac565b16815280845220549051908152f35b5050346101825781600319360112610182576020905160128152f35b50823461035d57606036600319011261035d576103ce6106ac565b6103d66106c7565b916044359360018060a01b038316808352600160205286832033845260205286832054916000198303610412575b6020886101b0898989610709565b86831061047a57811561046357331561044c575082526001602090815286832033845281529186902090859003905582906101b087610404565b8751634a1406b160e11b8152908101849052602490fd5b875163e602df0560e01b8152908101849052602490fd5b8751637dc7a0d960e11b8152339181019182526020820193909352604081018790528291506060010390fd5b5050346101825781600319360112610182576020906002549051908152f35b50346101355781600319360112610135576104de6106ac565b602435903315610557576001600160a01b031691821561054057508083602095338152600187528181208582528752205582519081527f8c5be1e5ebec7d5bd14f71427d1e84f3dd0314c0f7b2291e5b200ac8c7c3b925843392a35160018152f35b8351634a1406b160e11b8152908101859052602490fd5b835163e602df0560e01b8152808401869052602490fd5b849150833461013557826003193601126101355782600354600181811c90808316928315610659575b60209384841081146102ba5783885290811561063d57506001146105e757505050829003601f01601f191682019267ffffffffffffffff8411838510176102365750829182610232925282610663565b600387529192508591837fc2575a0e9e593c00f959f8c92f12db2869c3395a3b0502d05e2516446f71f85b5b8385106106295750505050830101858080610200565b805488860183015293019284908201610613565b60ff1916878501525050151560051b8401019050858080610200565b91607f1691610597565b6020808252825181830181905290939260005b82811061069857505060409293506000838284010152601f8019910116010190565b818101860151848201604001528501610676565b600435906001600160a01b03821682036106c257565b600080fd5b602435906001600160a01b03821682036106c257565b6005546001600160a01b031633036106f157565b60405163118cdaa760e01b8152336004820152602490fd5b916001600160a01b038084169283156107ce57169283156107b55760009083825281602052604082205490838210610783575091604082827fddf252ad1be2c89b69c2b068fc378daa952ba7f163c4a11628f55a4df523b3ef958760209652828652038282205586815220818154019055604051908152a3565b60405163391434e360e21b81526001600160a01b03919091166004820152602481019190915260448101839052606490fd5b60405163ec442f0560e01b815260006004820152602490fd5b604051634b637e8f60e11b815260006004820152602490fdfea264697066735822122027cd566a3f15c1be0943ac6c6e548a1520bc0e13bae2e3dfbc7f96803fb772ea64736f6c63430008140033","linkReferences":{}},"methodIdentifiers":{"allowance(address,address)":"dd62ed3e","approve(address,uint256)":"095ea7b3","balanceOf(address)":"70a08231","decimals()":"313ce567","name()":"06fdde03","owner()":"8da5cb5b","renounceOwnership()":"715018a6","symbol()":"95d89b41","totalSupply()":"18160ddd","transfer(address,uint256)":"a9059cbb","transferFrom(address,address,uint256)":"23b872dd","transferOwnership(address)":"f2fde38b"},"id":14}