{"abi":[{"type":"constructor","inputs":[{"name":"_name","type":"string","internalType":"string"},{"name":"_symbol","type":"string","internalType":"string"},{"name":"_defaultAdmin","type":"address","internalType":"address"},{"name":"_minter","type":"address","internalType":"address"}],"stateMutability":"nonpayable"},{"type":"function","name":"DEFAULT_ADMIN_ROLE","inputs":[],"outputs":[{"name":"","type":"bytes32","internalType":"bytes32"}],"stateMutability":"view"},{"type":"function","name":"MINTER_ROLE","inputs":[],"outputs":[{"name":"","type":"bytes32","internalType":"bytes32"}],"stateMutability":"view"},{"type":"function","name":"allowance","inputs":[{"name":"owner","type":"address","internalType":"address"},{"name":"spender","type":"address","internalType":"address"}],"outputs":[{"name":"","type":"uint256","internalType":"uint256"}],"stateMutability":"view"},{"type":"function","name":"approve","inputs":[{"name":"spender","type":"address","internalType":"address"},{"name":"value","type":"uint256","internalType":"uint256"}],"outputs":[{"name":"","type":"bool","internalType":"bool"}],"stateMutability":"nonpayable"},{"type":"function","name":"balanceOf","inputs":[{"name":"account","type":"address","internalType":"address"}],"outputs":[{"name":"","type":"uint256","internalType":"uint256"}],"stateMutability":"view"},{"type":"function","name":"burn","inputs":[{"name":"value","type":"uint256","internalType":"uint256"}],"outputs":[],"stateMutability":"nonpayable"},{"type":"function","name":"burnFrom","inputs":[{"name":"account","type":"address","internalType":"address"},{"name":"value","type":"uint256","internalType":"uint256"}],"outputs":[],"stateMutability":"nonpayable"},{"type":"function","name":"decimals","inputs":[],"outputs":[{"name":"","type":"uint8","internalType":"uint8"}],"stateMutability":"view"},{"type":"function","name":"getRoleAdmin","inputs":[{"name":"role","type":"bytes32","internalType":"bytes32"}],"outputs":[{"name":"","type":"bytes32","internalType":"bytes32"}],"stateMutability":"view"},{"type":"function","name":"grantRole","inputs":[{"name":"role","type":"bytes32","internalType":"bytes32"},{"name":"account","type":"address","internalType":"address"}],"outputs":[],"stateMutability":"nonpayable"},{"type":"function","name":"hasRole","inputs":[{"name":"role","type":"bytes32","internalType":"bytes32"},{"name":"account","type":"address","internalType":"address"}],"outputs":[{"name":"","type":"bool","internalType":"bool"}],"stateMutability":"view"},{"type":"function","name":"mint","inputs":[{"name":"to","type":"address","internalType":"address"},{"name":"amount","type":"uint256","internalType":"uint256"}],"outputs":[],"stateMutability":"nonpayable"},{"type":"function","name":"name","inputs":[],"outputs":[{"name":"","type":"string","internalType":"string"}],"stateMutability":"view"},{"type":"function","name":"renounceRole","inputs":[{"name":"role","type":"bytes32","internalType":"bytes32"},{"name":"callerConfirmation","type":"address","internalType":"address"}],"outputs":[],"stateMutability":"nonpayable"},{"type":"function","name":"revokeRole","inputs":[{"name":"role","type":"bytes32","internalType":"bytes32"},{"name":"account","type":"address","internalType":"address"}],"outputs":[],"stateMutability":"nonpayable"},{"type":"function","name":"supportsInterface","inputs":[{"name":"interfaceId","type":"bytes4","internalType":"bytes4"}],"outputs":[{"name":"","type":"bool","internalType":"bool"}],"stateMutability":"view"},{"type":"function","name":"symbol","inputs":[],"outputs":[{"name":"","type":"string","internalType":"string"}],"stateMutability":"view"},{"type":"function","name":"totalSupply","inputs":[],"outputs":[{"name":"","type":"uint256","internalType":"uint256"}],"stateMutability":"view"},{"type":"function","name":"transfer","inputs":[{"name":"to","type":"address","internalType":"address"},{"name":"value","type":"uint256","internalType":"uint256"}],"outputs":[{"name":"","type":"bool","internalType":"bool"}],"stateMutability":"nonpayable"},{"type":"function","name":"transferFrom","inputs":[{"name":"from","type":"address","internalType":"address"},{"name":"to","type":"address","internalType":"address"},{"name":"value","type":"uint256","internalType":"uint256"}],"outputs":[{"name":"","type":"bool","internalType":"bool"}],"stateMutability":"nonpayable"},{"type":"event","name":"Approval","inputs":[{"name":"owner","type":"address","indexed":true,"internalType":"address"},{"name":"spender","type":"address","indexed":true,"internalType":"address"},{"name":"value","type":"uint256","indexed":false,"internalType":"uint256"}],"anonymous":false},{"type":"event","name":"RoleAdminChanged","inputs":[{"name":"role","type":"bytes32","indexed":true,"internalType":"bytes32"},{"name":"previousAdminRole","type":"bytes32","indexed":true,"internalType":"bytes32"},{"name":"newAdminRole","type":"bytes32","indexed":true,"internalType":"bytes32"}],"anonymous":false},{"type":"event","name":"RoleGranted","inputs":[{"name":"role","type":"bytes32","indexed":true,"internalType":"bytes32"},{"name":"account","type":"address","indexed":true,"internalType":"address"},{"name":"sender","type":"address","indexed":true,"internalType":"address"}],"anonymous":false},{"type":"event","name":"RoleRevoked","inputs":[{"name":"role","type":"bytes32","indexed":true,"internalType":"bytes32"},{"name":"account","type":"address","indexed":true,"internalType":"address"},{"name":"sender","type":"address","indexed":true,"internalType":"address"}],"anonymous":false},{"type":"event","name":"Transfer","inputs":[{"name":"from","type":"address","indexed":true,"internalType":"address"},{"name":"to","type":"address","indexed":true,"internalType":"address"},{"name":"value","type":"uint256","indexed":false,"internalType":"uint256"}],"anonymous":false},{"type":"error","name":"AccessControlBadConfirmation","inputs":[]},{"type":"error","name":"AccessControlUnauthorizedAccount","inputs":[{"name":"account","type":"address","internalType":"address"},{"name":"neededRole","type":"bytes32","internalType":"bytes32"}]},{"type":"error","name":"ERC20InsufficientAllowance","inputs":[{"name":"spender","type":"address","internalType":"address"},{"name":"allowance","type":"uint256","internalType":"uint256"},{"name":"needed","type":"uint256","internalType":"uint256"}]},{"type":"error","name":"ERC20InsufficientBalance","inputs":[{"name":"sender","type":"address","internalType":"address"},{"name":"balance","type":"uint256","internalType":"uint256"},{"name":"needed","type":"uint256","internalType":"uint256"}]},{"type":"error","name":"ERC20InvalidApprover","inputs":[{"name":"approver","type":"address","internalType":"address"}]},{"type":"error","name":"ERC20InvalidReceiver","inputs":[{"name":"receiver","type":"address","internalType":"address"}]},{"type":"error","name":"ERC20InvalidSender","inputs":[{"name":"sender","type":"address","internalType":"address"}]},{"type":"error","name":"ERC20InvalidSpender","inputs":[{"name":"spender","type":"address","internalType":"address"}]}],"bytecode":{"object":"0x60806040523462000361576200118a803803806200001d8162000366565b9283398101608082820312620003615781516001600160401b0392908381116200036157826200004f9183016200038c565b91602090818301519085821162000361576200006d9184016200038c565b6200008960606200008160408601620003fe565b9401620003fe565b93805186811162000261576003928354916001938484811c9416801562000356575b8785101462000340578190601f94858111620002ea575b508790858311600114620002835760009262000277575b505060001982871b1c191690841b1784555b8051978811620002615760049485548481811c9116801562000256575b828210146200024157838111620001f6575b50809289116001146200017b5750928780936200015e9993620001579897966000956200016f575b50501b92600019911b1c191617905562000413565b5062000494565b50604051610c329081620005388239f35b01519350388062000142565b92939190601f1989168660005284600020946000905b828210620001de575050918993916200015e9a62000157999897969410620001c3575b50505050811b01905562000413565b01519060f884600019921b161c1916905538808080620001b4565b80888698829497870151815501970194019062000191565b866000528160002084808c0160051c820192848d1062000237575b0160051c019085905b8281106200022a5750506200011a565b600081550185906200021a565b9250819262000211565b602287634e487b7160e01b6000525260246000fd5b90607f169062000108565b634e487b7160e01b600052604160045260246000fd5b015190503880620000d9565b90869350601f1983169188600052896000209260005b8b828210620002d35750508411620002ba575b505050811b018455620000eb565b015160001983891b60f8161c19169055388080620002ac565b8385015186558a9790950194938401930162000299565b90915086600052876000208580850160051c8201928a861062000336575b918891869594930160051c01915b82811062000326575050620000c2565b6000815585945088910162000316565b9250819262000308565b634e487b7160e01b600052602260045260246000fd5b93607f1693620000ab565b600080fd5b6040519190601f01601f191682016001600160401b038111838210176200026157604052565b919080601f84011215620003615782516001600160401b0381116200026157602090620003c2601f8201601f1916830162000366565b92818452828287010111620003615760005b818110620003ea57508260009394955001015290565b8581018301518482018401528201620003d4565b51906001600160a01b03821682036200036157565b6001600160a01b031660008181527f05b8ccbb9d4d8fb16ea74ce3c29a41f1b461fbdaff4714a0d9a8eb05499746bc602052604081205490919060ff16620004905781805260056020526040822081835260205260408220600160ff1982541617905533916000805160206200116a8339815191528180a4600190565b5090565b6001600160a01b031660008181527f15a28d26fa1bf736cf7edc9922607171ccb09c3c73b808e7772a3013e068a52260205260408120549091907f9f2df0fed2c77648de5860a4cc508cd0818c85b8b8a1ab4ceeef8d981c8956a69060ff16620005325780835260056020526040832082845260205260408320600160ff198254161790556000805160206200116a833981519152339380a4600190565b50509056fe608060408181526004918236101561001657600080fd5b600092833560e01c91826301ffc9a7146107a45750816306fdde03146106ca578163095ea7b31461062057816318160ddd1461060157816323b872dd146105c4578163248a9ca3146105995781632f2ff15d1461056f578163313ce5671461055357816336568abe1461050d57816340c10f191461040857816342966c68146103ea57816370a08231146103b357816379cc67901461037d57816391d148541461033657816395d89b4114610217578163a217fddf146101fc578163a9059cbb146101cb578163d539139314610190578163d547741f1461014c575063dd62ed3e1461010157600080fd5b346101485780600319360112610148578060209261011d610840565b61012561085b565b6001600160a01b0391821683526001865283832091168252845220549051908152f35b5080fd5b9190503461018c578060031936011261018c576101889135610183600161017161085b565b93838752600560205286200154610871565b610935565b5080f35b8280fd5b505034610148578160031936011261014857602090517f9f2df0fed2c77648de5860a4cc508cd0818c85b8b8a1ab4ceeef8d981c8956a68152f35b5050346101485780600319360112610148576020906101f56101eb610840565b60243590336109ac565b5160018152f35b50503461014857816003193601126101485751908152602090f35b838334610148578160031936011261014857805190828454600181811c9080831692831561032c575b6020938484108114610319578388529081156102fd57506001146102a8575b505050829003601f01601f191682019267ffffffffffffffff84118385101761029557508291826102919252826107f7565b0390f35b634e487b7160e01b815260418552602490fd5b8787529192508591837f8a35acfbc15ff81a39ae7d344fd709f28e8600b4aa8c65c6b64bfe7fe36bd19b5b8385106102e9575050505083010185808061025f565b8054888601830152930192849082016102d3565b60ff1916878501525050151560051b840101905085808061025f565b634e487b7160e01b895260228a52602489fd5b91607f1691610240565b90503461018c578160031936011261018c578160209360ff9261035761085b565b90358252600586528282206001600160a01b039091168252855220549151911615158152f35b505034610148573660031901126103b0576103ad610399610840565b602435906103a8823383610a8a565b610b5d565b80f35b80fd5b5050346101485760203660031901126101485760209181906001600160a01b036103db610840565b16815280845220549051908152f35b839034610148576020366003190112610148576103ad903533610b5d565b9190503461018c578060031936011261018c57610423610840565b90602435917f9f2df0fed2c77648de5860a4cc508cd0818c85b8b8a1ab4ceeef8d981c8956a6808652600560205282862033875260205260ff8387205416156104ef57506001600160a01b03169283156104da57600254908382018092116104c7575084927fddf252ad1be2c89b69c2b068fc378daa952ba7f163c4a11628f55a4df523b3ef9260209260025585855284835280852082815401905551908152a380f35b634e487b7160e01b865260119052602485fd5b84602492519163ec442f0560e01b8352820152fd5b825163e2517d3f60e01b815233818701526024810191909152604490fd5b83833461014857806003193601126101485761052761085b565b90336001600160a01b038316036105445750610188919235610935565b5163334bd91960e11b81528390fd5b5050346101485781600319360112610148576020905160128152f35b9190503461018c578060031936011261018c576101889135610594600161017161085b565b6108b5565b90503461018c57602036600319011261018c5781602093600192358152600585522001549051908152f35b505034610148576060366003190112610148576020906101f56105e5610840565b6105ed61085b565b604435916105fc833383610a8a565b6109ac565b5050346101485781600319360112610148576020906002549051908152f35b90503461018c578160031936011261018c5761063a610840565b6024359033156106b3576001600160a01b031691821561069c57508083602095338152600187528181208582528752205582519081527f8c5be1e5ebec7d5bd14f71427d1e84f3dd0314c0f7b2291e5b200ac8c7c3b925843392a35160018152f35b8351634a1406b160e11b8152908101859052602490fd5b835163e602df0560e01b8152808401869052602490fd5b83833461014857816003193601126101485780519082600354600181811c9080831692831561079a575b6020938484108114610319578388529081156102fd575060011461074457505050829003601f01601f191682019267ffffffffffffffff84118385101761029557508291826102919252826107f7565b600387529192508591837fc2575a0e9e593c00f959f8c92f12db2869c3395a3b0502d05e2516446f71f85b5b838510610786575050505083010185808061025f565b805488860183015293019284908201610770565b91607f16916106f4565b84913461018c57602036600319011261018c573563ffffffff60e01b811680910361018c5760209250637965db0b60e01b81149081156107e6575b5015158152f35b6301ffc9a760e01b149050836107df565b6020808252825181830181905290939260005b82811061082c57505060409293506000838284010152601f8019910116010190565b81810186015184820160400152850161080a565b600435906001600160a01b038216820361085657565b600080fd5b602435906001600160a01b038216820361085657565b80600052600560205260406000203360005260205260ff60406000205416156108975750565b6044906040519063e2517d3f60e01b82523360048301526024820152fd5b906000918083526005602052604083209160018060a01b03169182845260205260ff604084205416156000146109305780835260056020526040832082845260205260408320600160ff198254161790557f2f8788117e7eff1d82e926ec794901d17c78024a50270940304540a733656f0d339380a4600190565b505090565b906000918083526005602052604083209160018060a01b03169182845260205260ff604084205416600014610930578083526005602052604083208284526020526040832060ff1981541690557ff6391f5c32d9c69d2a47ea670b442974b53935d1edc7fd64eb21e047a839171b339380a4600190565b916001600160a01b03808416928315610a715716928315610a585760009083825281602052604082205490838210610a26575091604082827fddf252ad1be2c89b69c2b068fc378daa952ba7f163c4a11628f55a4df523b3ef958760209652828652038282205586815220818154019055604051908152a3565b60405163391434e360e21b81526001600160a01b03919091166004820152602481019190915260448101839052606490fd5b60405163ec442f0560e01b815260006004820152602490fd5b604051634b637e8f60e11b815260006004820152602490fd5b9160018060a01b038093169160009383855260016020526040938486209183169182875260205284862054926000198403610ac9575b50505050505050565b848410610b2d57508015610b15578115610afd57855260016020528385209085526020520391205538808080808080610ac0565b8451634a1406b160e11b815260048101879052602490fd5b845163e602df0560e01b815260048101879052602490fd5b8551637dc7a0d960e11b81526001600160a01b039190911660048201526024810184905260448101859052606490fd5b906001600160a01b038216908115610a715760009282845283602052604084205490828210610bca5750817fddf252ad1be2c89b69c2b068fc378daa952ba7f163c4a11628f55a4df523b3ef926020928587528684520360408620558060025403600255604051908152a3565b60405163391434e360e21b81526001600160a01b03919091166004820152602481019190915260448101829052606490fdfea26469706673582212204cbcb32252904bb1586109e9357af3b9be477d11db8b23f8ec0d6e9e8341d4a264736f6c634300081400332f8788117e7eff1d82e926ec794901d17c78024a50270940304540a733656f0d","linkReferences":{}},"methodIdentifiers":{"DEFAULT_ADMIN_ROLE()":"a217fddf","MINTER_ROLE()":"d5391393","allowance(address,address)":"dd62ed3e","approve(address,uint256)":"095ea7b3","balanceOf(address)":"70a08231","burn(uint256)":"42966c68","burnFrom(address,uint256)":"79cc6790","decimals()":"313ce567","getRoleAdmin(bytes32)":"248a9ca3","grantRole(bytes32,address)":"2f2ff15d","hasRole(bytes32,address)":"91d14854","mint(address,uint256)":"40c10f19","name()":"06fdde03","renounceRole(bytes32,address)":"36568abe","revokeRole(bytes32,address)":"d547741f","supportsInterface(bytes4)":"01ffc9a7","symbol()":"95d89b41","totalSupply()":"18160ddd","transfer(address,uint256)":"a9059cbb","transferFrom(address,address,uint256)":"23b872dd"},"id":85}