{"abi":[{"type":"constructor","inputs":[{"name":"_uptimeFeedAddress","type":"address","internalType":"address"}],"stateMutability":"nonpayable"},{"type":"function","name":"getPriceInEth","inputs":[{"name":"_amount","type":"uint256","internalType":"uint256"},{"name":"_pricefeed","type":"address","internalType":"address"},{"name":"_chainlink_heartbeat","type":"uint128","internalType":"uint128"},{"name":"_decimals","type":"uint256","internalType":"uint256"}],"outputs":[{"name":"EthValue","type":"uint256","internalType":"uint256"}],"stateMutability":"view"},{"type":"function","name":"getPriceInEthRoundUp","inputs":[{"name":"_amount","type":"uint256","internalType":"uint256"},{"name":"_pricefeed","type":"address","internalType":"address"},{"name":"_chainlink_heartbeat","type":"uint128","internalType":"uint128"},{"name":"_decimals","type":"uint256","internalType":"uint256"}],"outputs":[{"name":"EthValue","type":"uint256","internalType":"uint256"}],"stateMutability":"view"},{"type":"function","name":"getTokenPerEth","inputs":[{"name":"_ethAmount","type":"uint256","internalType":"uint256"},{"name":"_pricefeed","type":"address","internalType":"address"},{"name":"_chainlink_heartbeat","type":"uint128","internalType":"uint128"},{"name":"_decimals","type":"uint256","internalType":"uint256"}],"outputs":[{"name":"tokenAmount","type":"uint256","internalType":"uint256"}],"stateMutability":"view"},{"type":"function","name":"getTokenPerEthRoundUp","inputs":[{"name":"_ethAmount","type":"uint256","internalType":"uint256"},{"name":"_pricefeed","type":"address","internalType":"address"},{"name":"_chainlink_heartbeat","type":"uint128","internalType":"uint128"},{"name":"_decimals","type":"uint256","internalType":"uint256"}],"outputs":[{"name":"tokenAmount","type":"uint256","internalType":"uint256"}],"stateMutability":"view"},{"type":"error","name":"GracePeriodNotOver","inputs":[]},{"type":"error","name":"SequencerDown","inputs":[]}],"bytecode":{"object":"0x60803461007457601f61116f38819003918201601f19168301916001600160401b038311848410176100795780849260209460405283398101031261007457516001600160a01b0381169081900361007457600080546001600160a01b0319169190911790556040516110df90816100908239f35b600080fd5b634e487b7160e01b600052604160045260246000fdfe6080604081815260048036101561001557600080fd5b600092833560e01c908163707a15b9146109315750806374599fef14610695578063c4677076146104035763dde645ae1461004f57600080fd5b346103ff5761005d36610be2565b93929060018060a09894981b039684888554168061036e575b50508651633fabe5a360e21b8152818916919060a0818881865afa908115610364578690879588918994610317575b50906100bd6001600160801b036100c4931642610ca9565b1115610ccc565b89516309169eff60e21b815260209b908c818b81895afa9081156102e05789916102ea575b50168a51630455b78f60e31b81528c818b81855afa9081156102e057918d9593918b9795938b916102c3575b5060170b88139081610240575b509161014c916101356101519594610d42565b69ffffffffffffffffffff80911691161015610d80565b610e3e565b1561020157885163313ce56760e01b815292839182905afa9081156101f75761018d9392916101879186916101ca575b50610de5565b91610fe3565b925b60120391601283116101b7575050906101aa6101b092610df6565b90610e04565b9051908152f35b634e487b7160e01b825260119052602490fd5b6101ea91508a3d8c116101f0575b6101e28183610c25565b810190610dcc565b38610181565b503d6101d8565b87513d86823e3d90fd5b885163313ce56760e01b815293949392839182905afa9081156101f75761023a9392916102349186916101ca5750610de5565b90610fe3565b9261018f565b90508c969294969591939551928380926370da2f6760e01b82525afa9081156102b957899593610151936101358f979461014c948d9161028c575b5060170b8a12929495505091610122565b6102ac9150893d8b116102b2575b6102a48183610c25565b810190610d29565b3861027b565b503d61029a565b8b513d8a823e3d90fd5b6102da9150873d89116102b2576102a48183610c25565b38610115565b8c513d8b823e3d90fd5b61030a91508d803d10610310575b6103028183610c25565b810190610d0a565b386100e9565b503d6102f8565b6100bd975061034d9194506001600160801b0393506100c4925060a03d811161035d575b6103458183610c25565b810190610c74565b9299929693955093506100a59050565b503d61033b565b89513d88823e3d90fd5b60a090895192838092633fabe5a360e21b82525afa9081156103f557859086926103d1575b506103c2576103a5610e109142610ca9565b11156103b2578438610076565b865163d15f73b560e01b81528590fd5b875162032b3d60e81b81528690fd5b90506103eb915060a03d811161035d576103458183610c25565b5050915038610393565b88513d87823e3d90fd5b8280fd5b50346103ff5761041236610be2565b86546001600160a01b0397919594919390859089168061062d575b50508651633fabe5a360e21b8152818916919060a0818881865afa9081156103645786908796889189946105f0575b50906100bd6001600160801b03610474931642610ca9565b89516309169eff60e21b815260209b908c818b81895afa9081156102e05789916105d3575b50168a51630455b78f60e31b81528c818b81855afa9081156102e057918d9593918b9795938b916105b6575b5060170b8913908161054d575b509161014c916101356104e59594610d42565b1561051a57885163313ce56760e01b815292839182905afa9081156101f75761018d9392916102349186916101ca5750610de5565b885163313ce56760e01b815293949392839182905afa9081156101f75761023a9392916101879186916101ca5750610de5565b90508c969294969591939551928380926370da2f6760e01b82525afa9081156102b9578995936104e5936101358f979461014c948d91610599575b5060170b8b129294955050916104d2565b6105b09150893d8b116102b2576102a48183610c25565b38610588565b6105cd9150873d89116102b2576102a48183610c25565b386104c5565b6105ea91508d803d10610310576103028183610c25565b38610499565b6100bd985061061d9194506001600160801b039350610474925060a03d811161035d576103458183610c25565b929a9296939550935061045c9050565b60a090895192838092633fabe5a360e21b82525afa9081156103f55785908692610671575b506103c257610664610e109142610ca9565b11156103b257843861042d565b905061068b915060a03d811161035d576103458183610c25565b5050915038610652565b50346103ff576106a436610be2565b93929060018060a09894981b03968488855416806108c9575b50508651633fabe5a360e21b8152818916919060a0818881865afa90811561036457869087958891899461088c575b50906100bd6001600160801b03610704931642610ca9565b89516309169eff60e21b815260209b908c818b81895afa9081156102e057899161086f575b50168a51630455b78f60e31b81528c818b81855afa9081156102e057918d9593918b9795938b91610852575b5060170b881390816107e9575b509161014c916101356107759594610d42565b156107b057885163313ce56760e01b815292839182905afa9081156101f75761018d9392916107aa9186916101ca5750610de5565b91611066565b885163313ce56760e01b815293949392839182905afa9081156101f75761023a9392916107e39186916101ca5750610de5565b90611066565b90508c969294969591939551928380926370da2f6760e01b82525afa9081156102b957899593610775936101358f979461014c948d91610835575b5060170b8a12929495505091610762565b61084c9150893d8b116102b2576102a48183610c25565b38610824565b6108699150873d89116102b2576102a48183610c25565b38610755565b61088691508d803d10610310576103028183610c25565b38610729565b6100bd97506108b99194506001600160801b039350610704925060a03d811161035d576103458183610c25565b9299929693955093506106ec9050565b60a090895192838092633fabe5a360e21b82525afa9081156103f5578590869261090d575b506103c257610900610e109142610ca9565b11156103b25784386106bd565b9050610927915060a03d811161035d576103458183610c25565b50509150386108ee565b83858434610bde5761094236610be2565b9492909160018060a01b0397858986541680610b77575b50508751633fabe5a360e21b8152828a1692915060a0818881865afa908115610364578690879688918994610b3a575b50906100bd6001600160801b036109a1931642610ca9565b89516309169eff60e21b815260209b908c818b81895afa9081156102e0578991610b1d575b50168a51630455b78f60e31b81528c818b81855afa9081156102e057918d9593918b9795938b91610b00575b5060170b89139081610a97575b509161014c91610135610a129594610d42565b15610a6457885163313ce56760e01b815292839182905afa9081156101f75761018d9392916107e3918691610a475750610de5565b610a5e91508a3d8c116101f0576101e28183610c25565b8a610181565b885163313ce56760e01b815293949392839182905afa9081156101f75761023a9392916107aa918691610a475750610de5565b90508c969294969591939551928380926370da2f6760e01b82525afa9081156102b957899593610a12936101358f979461014c948d91610ae3575b5060170b8b129294955050916109ff565b610afa9150893d8b116102b2576102a48183610c25565b38610ad2565b610b179150873d89116102b2576102a48183610c25565b8f6109f2565b610b3491508d803d10610310576103028183610c25565b8d6109c6565b6100bd9850610b679194506001600160801b0393506109a1925060a03d811161035d576103458183610c25565b929a929693955093506109899050565b633fabe5a360e21b835260a091839182905afa9081156103f55785908692610bba575b506103c257610bac610e109142610ca9565b11156103b257888581610959565b9050610bd4915060a03d811161035d576103458183610c25565b505091508a610b9a565b5080fd5b6080906003190112610c2057600435906024356001600160a01b0381168103610c2057906044356001600160801b0381168103610c20579060643590565b600080fd5b90601f8019910116810190811067ffffffffffffffff821117610c4757604052565b634e487b7160e01b600052604160045260246000fd5b519069ffffffffffffffffffff82168203610c2057565b908160a0910312610c2057610c8881610c5d565b91602082015191604081015191610ca6608060608401519301610c5d565b90565b91908203918211610cb657565b634e487b7160e01b600052601160045260246000fd5b15610cd357565b60405162461bcd60e51b815260206004820152600f60248201526e14dd185b19481c1c9a58d959995959608a1b6044820152606490fd5b90816020910312610c2057516001600160a01b0381168103610c205790565b90816020910312610c2057518060170b8103610c205790565b15610d4957565b60405162461bcd60e51b815260206004820152600f60248201526e1b5a5b8bdb585e081c995858da1959608a1b6044820152606490fd5b15610d8757565b60405162461bcd60e51b815260206004820152601960248201527f416e7377657220676976656e206265666f726520726f756e64000000000000006044820152606490fd5b90816020910312610c20575160ff81168103610c205790565b60ff16604d8111610cb657600a0a90565b604d8111610cb657600a0a90565b81810292918115918404141715610cb657565b908151811015610e28570160200190565b634e487b7160e01b600052603260045260246000fd5b60408051633942720b60e11b81529160009160049183908590849082906001600160a01b03165afa938415610fd9578394610f1e575b508051908082019082821067ffffffffffffffff831117610f0b57526003938482526208aa8960eb1b6020830152835b858110610eb657505050505050600190565b6001600160f81b031980610eca8385610e17565b511690610ed78386610e17565b511603610f02576000198114610eef57600101610ea4565b634e487b7160e01b855260118452602485fd5b50505050905090565b634e487b7160e01b855260418452602485fd5b9093503d8084833e610f308183610c25565b8101906020908181840312610fd557805167ffffffffffffffff91828211610fd1570183601f82011215610fba578051918211610fbe57865193610f7d601f8401601f1916850186610c25565b828552838383010111610fba5790859291835b828110610fa4575050830101529238610e74565b8181018401518682018501528794508301610f90565b8580fd5b634e487b7160e01b865260418552602486fd5b8680fd5b8480fd5b81513d85823e3d90fd5b9160001982840992828102928380861095039480860395146110585784831115610c205782910981806000031680920460028082600302188083028203028083028203028083028203028083028203028083028203028092029003029360018380600003040190848311900302920304170290565b505080925015610c20570490565b929190611074828286610fe3565b938215611093570961108257565b90600019811015610c205760010190565b634e487b7160e01b600052601260045260246000fdfea26469706673582212206ba0fcad1191e4c5e2c14c972ed57aaefaa83dfcab289548aad7142215610fea64736f6c63430008140033","linkReferences":{}},"methodIdentifiers":{"getPriceInEth(uint256,address,uint128,uint256)":"c4677076","getPriceInEthRoundUp(uint256,address,uint128,uint256)":"707a15b9","getTokenPerEth(uint256,address,uint128,uint256)":"dde645ae","getTokenPerEthRoundUp(uint256,address,uint128,uint256)":"74599fef"},"id":83}