{"abi":[{"type":"constructor","inputs":[{"name":"_uptimeFeedAddress","type":"address","internalType":"address"}],"stateMutability":"nonpayable"},{"type":"function","name":"acceptOwnership","inputs":[],"outputs":[],"stateMutability":"nonpayable"},{"type":"function","name":"addNuAsset","inputs":[{"name":"_assetAddress","type":"address","internalType":"address"},{"name":"_pricefeed","type":"address","internalType":"address"},{"name":"_heartbeat","type":"uint128","internalType":"uint128"}],"outputs":[],"stateMutability":"nonpayable"},{"type":"function","name":"changeSequencerUptimeFeedAddress","inputs":[{"name":"_newaddress","type":"address","internalType":"address"}],"outputs":[],"stateMutability":"nonpayable"},{"type":"function","name":"contains","inputs":[{"name":"_assetAddress","type":"address","internalType":"address"}],"outputs":[{"name":"","type":"bool","internalType":"bool"}],"stateMutability":"view"},{"type":"function","name":"getNuAssetList","inputs":[],"outputs":[{"name":"","type":"address[]","internalType":"address[]"}],"stateMutability":"view"},{"type":"function","name":"getPriceInEth","inputs":[{"name":"_amount","type":"uint256","internalType":"uint256"},{"name":"_pricefeed","type":"address","internalType":"address"},{"name":"_chainlink_heartbeat","type":"uint128","internalType":"uint128"},{"name":"_decimals","type":"uint256","internalType":"uint256"}],"outputs":[{"name":"EthValue","type":"uint256","internalType":"uint256"}],"stateMutability":"view"},{"type":"function","name":"getPriceInEthRoundUp","inputs":[{"name":"_amount","type":"uint256","internalType":"uint256"},{"name":"_pricefeed","type":"address","internalType":"address"},{"name":"_chainlink_heartbeat","type":"uint128","internalType":"uint128"},{"name":"_decimals","type":"uint256","internalType":"uint256"}],"outputs":[{"name":"EthValue","type":"uint256","internalType":"uint256"}],"stateMutability":"view"},{"type":"function","name":"getTokenPerEth","inputs":[{"name":"_ethAmount","type":"uint256","internalType":"uint256"},{"name":"_pricefeed","type":"address","internalType":"address"},{"name":"_chainlink_heartbeat","type":"uint128","internalType":"uint128"},{"name":"_decimals","type":"uint256","internalType":"uint256"}],"outputs":[{"name":"tokenAmount","type":"uint256","internalType":"uint256"}],"stateMutability":"view"},{"type":"function","name":"getTokenPerEthRoundUp","inputs":[{"name":"_ethAmount","type":"uint256","internalType":"uint256"},{"name":"_pricefeed","type":"address","internalType":"address"},{"name":"_chainlink_heartbeat","type":"uint128","internalType":"uint128"},{"name":"_decimals","type":"uint256","internalType":"uint256"}],"outputs":[{"name":"tokenAmount","type":"uint256","internalType":"uint256"}],"stateMutability":"view"},{"type":"function","name":"getTotalSynthValueEth","inputs":[],"outputs":[{"name":"","type":"uint256","internalType":"uint256"}],"stateMutability":"view"},{"type":"function","name":"nuAssetInfos","inputs":[{"name":"","type":"address","internalType":"address"}],"outputs":[{"name":"feed","type":"address","internalType":"address"},{"name":"heartbeat","type":"uint128","internalType":"uint128"},{"name":"index","type":"uint256","internalType":"uint256"}],"stateMutability":"view"},{"type":"function","name":"nuAssetList","inputs":[{"name":"","type":"uint256","internalType":"uint256"}],"outputs":[{"name":"","type":"address","internalType":"address"}],"stateMutability":"view"},{"type":"function","name":"owner","inputs":[],"outputs":[{"name":"","type":"address","internalType":"address"}],"stateMutability":"view"},{"type":"function","name":"pendingOwner","inputs":[],"outputs":[{"name":"","type":"address","internalType":"address"}],"stateMutability":"view"},{"type":"function","name":"removeNuAsset","inputs":[{"name":"_assetAddress","type":"address","internalType":"address"}],"outputs":[],"stateMutability":"nonpayable"},{"type":"function","name":"renounceOwnership","inputs":[],"outputs":[],"stateMutability":"nonpayable"},{"type":"function","name":"transferOwnership","inputs":[{"name":"newOwner","type":"address","internalType":"address"}],"outputs":[],"stateMutability":"nonpayable"},{"type":"event","name":"AddedAsset","inputs":[{"name":"_assetAddress","type":"address","indexed":false,"internalType":"address"},{"name":"_pricefeed","type":"address","indexed":false,"internalType":"address"}],"anonymous":false},{"type":"event","name":"OwnershipTransferStarted","inputs":[{"name":"previousOwner","type":"address","indexed":true,"internalType":"address"},{"name":"newOwner","type":"address","indexed":true,"internalType":"address"}],"anonymous":false},{"type":"event","name":"OwnershipTransferred","inputs":[{"name":"previousOwner","type":"address","indexed":true,"internalType":"address"},{"name":"newOwner","type":"address","indexed":true,"internalType":"address"}],"anonymous":false},{"type":"event","name":"RemovedAsset","inputs":[{"name":"_assetAddress","type":"address","indexed":false,"internalType":"address"}],"anonymous":false},{"type":"error","name":"GracePeriodNotOver","inputs":[]},{"type":"error","name":"OwnableInvalidOwner","inputs":[{"name":"owner","type":"address","internalType":"address"}]},{"type":"error","name":"OwnableUnauthorizedAccount","inputs":[{"name":"account","type":"address","internalType":"address"}]},{"type":"error","name":"SequencerDown","inputs":[]}],"bytecode":{"object":"0x6080346100d357601f611e7938819003918201601f19168301916001600160401b038311848410176100d8578084926020946040528339810103126100d357516001600160a01b0390818116908190036100d357600080546001600160a01b0319908116909217905533156100ba578060025416600255600154903390821617600155604051913391167f8be0079c531659141344cd1fd0a4f28419497f9722a3daafe3b4186f6b6457e0600080a3611d8a90816100ef8239f35b604051631e4fbdf760e01b815260006004820152602490fd5b600080fd5b634e487b7160e01b600052604160045260246000fdfe6080604052600436101561001257600080fd5b60003560e01c80630f49b037146116d25780631a6719a5146112535780632623b25c146111f6578063280a74f614610f8657806339da2ce714610ebe5780635dbe47e814610e76578063707a15b914610bdf578063715018a614610b7857806374599fef146108d6578063786d04c11461089357806379ba50971461080a5780638da5cb5b146107e1578063c46770761461054a578063dde645ae146101b4578063e30c39781461018b578063f2fde38b1461011e5763fdf515b5146100d757600080fd5b346101195760203660031901126101195760043560045481101561011957610100602091611886565b905460405160039290921b1c6001600160a01b03168152f35b600080fd5b3461011957602036600319011261011957610137611832565b61013f611c7a565b600280546001600160a01b0319166001600160a01b039283169081179091556001549091167f38d16b8cac22d99fc7c124b9cd0de2d3fa1faef420bfe791d8c362d765e22700600080a3005b34610119576000366003190112610119576002546040516001600160a01b039091168152602090f35b34610119576101c236611848565b6000546001600160a01b0394919392908516806104bb575b50604051633fabe5a360e21b815283861660a082600481845afa9485156103615760009260009460009160009861046d575b50906102246001600160801b0361022b931642611973565b1115611980565b6040516309169eff60e21b8152602098908981600481875afa90811561036157600091610440575b50604051630455b78f60e31b81529491168985600481845afa8015610361578a95600091610423575b5060170b861390816103ac575b506004976102ba939261029e6102b5936119f6565b69ffffffffffffffffffff80911691161015611a34565b611aeb565b1561036d5760405163313ce56760e01b815294859182905afa928315610361576102f6936102f091600091610334575b50611a99565b91611c8e565b905b601203906012821161031e5761031061031692611aaa565b90611ab8565b604051908152f35b634e487b7160e01b600052601160045260246000fd5b6103549150873d891161035a575b61034c8183611905565b810190611a80565b876102ea565b503d610342565b6040513d6000823e3d90fd5b60405163313ce56760e01b815294929392859182905afa928315610361576103a6936103a0916000916103345750611a99565b90611c8e565b906102f8565b60049392959150604051938480926370da2f6760e01b82525afa8015610361576004978a9561029e6102b5936102ba966000916103f6575b5060170b891293505092935097610289565b6104169150893d8b1161041c575b61040e8183611905565b8101906119dd565b8e6103e4565b503d610404565b61043a9150863d881161041c5761040e8183611905565b8b61027c565b61046091508a3d8c11610466575b6104588183611905565b8101906119be565b8a610253565b503d61044e565b6104a391985061022496506001600160801b03955061022b925060a03d81116104b4575b61049b8183611905565b81019061193e565b9a929893975093509091905061020c565b503d610491565b60a060049160405192838092633fabe5a360e21b82525afa90811561036157600090600092610526575b50610515576104f7610e109142611973565b111561050357856101da565b60405163d15f73b560e01b8152600490fd5b60405162032b3d60e81b8152600490fd5b9050610540915060a03d81116104b45761049b8183611905565b50509150876104e5565b346101195761055836611848565b6000546001600160a01b03949193929190851680610775575b50604051633fabe5a360e21b815283861660a082600481845afa94851561036157600092600095600091600098610737575b50906102246001600160801b036105bb931642611973565b6040516309169eff60e21b8152602098908981600481875afa9081156103615760009161071a575b50604051630455b78f60e31b81529491168985600481845afa8015610361578a956000916106fd575b5060170b87139081610696575b5060049761062e939261029e6102b5936119f6565b156106635760405163313ce56760e01b815294859182905afa928315610361576102f6936103a0916000916103345750611a99565b60405163313ce56760e01b815294929392859182905afa928315610361576103a6936102f0916000916103345750611a99565b60049392959150604051938480926370da2f6760e01b82525afa8015610361576004978a9561029e6102b59361062e966000916106e0575b5060170b8a1293505092935097610619565b6106f79150893d8b1161041c5761040e8183611905565b8e6106ce565b6107149150863d881161041c5761040e8183611905565b8b61060c565b61073191508a3d8c11610466576104588183611905565b8a6105e3565b61076491985061022497506001600160801b0395506105bb925060a03d81116104b45761049b8183611905565b9a92999397509350909190506105a3565b60a060049160405192838092633fabe5a360e21b82525afa908115610361576000906000926107bd575b50610515576107b1610e109142611973565b11156105035785610571565b90506107d7915060a03d81116104b45761049b8183611905565b505091508761079f565b34610119576000366003190112610119576001546040516001600160a01b039091168152602090f35b34610119576000366003190112610119576002546001600160a01b03338183160361087b576bffffffffffffffffffffffff60a01b8092166002556001549133908316176001553391167f8be0079c531659141344cd1fd0a4f28419497f9722a3daafe3b4186f6b6457e0600080a3005b60405163118cdaa760e01b8152336004820152602490fd5b34610119576020366003190112610119576108ac611832565b6108b4611c7a565b600080546001600160a01b0319166001600160a01b0392909216919091179055005b34610119576108e436611848565b6000546001600160a01b039491939290851680610b0c575b50604051633fabe5a360e21b815283861660a082600481845afa94851561036157600092600094600091600098610ace575b50906102246001600160801b03610946931642611973565b6040516309169eff60e21b8152602098908981600481875afa90811561036157600091610ab1575b50604051630455b78f60e31b81529491168985600481845afa8015610361578a95600091610a94575b5060170b86139081610a2d575b506004976109b9939261029e6102b5936119f6565b156109f45760405163313ce56760e01b815294859182905afa928315610361576102f6936109ee916000916103345750611a99565b91611d11565b60405163313ce56760e01b815294929392859182905afa928315610361576103a693610a27916000916103345750611a99565b90611d11565b60049392959150604051938480926370da2f6760e01b82525afa8015610361576004978a9561029e6102b5936109b996600091610a77575b5060170b8912935050929350976109a4565b610a8e9150893d8b1161041c5761040e8183611905565b8e610a65565b610aab9150863d881161041c5761040e8183611905565b8b610997565b610ac891508a3d8c11610466576104588183611905565b8a61096e565b610afb91985061022496506001600160801b039550610946925060a03d81116104b45761049b8183611905565b9a929893975093509091905061092e565b60a060049160405192838092633fabe5a360e21b82525afa90811561036157600090600092610b54575b5061051557610b48610e109142611973565b111561050357856108fc565b9050610b6e915060a03d81116104b45761049b8183611905565b5050915087610b36565b3461011957600036600319011261011957610b91611c7a565b600280546001600160a01b03199081169091556001805491821690556000906001600160a01b03167f8be0079c531659141344cd1fd0a4f28419497f9722a3daafe3b4186f6b6457e08280a3005b3461011957610bed36611848565b6000546001600160a01b03949193929190851680610e0a575b50604051633fabe5a360e21b815283861660a082600481845afa94851561036157600092600095600091600098610dcc575b50906102246001600160801b03610c50931642611973565b6040516309169eff60e21b8152602098908981600481875afa90811561036157600091610daf575b50604051630455b78f60e31b81529491168985600481845afa8015610361578a95600091610d92575b5060170b87139081610d2b575b50600497610cc3939261029e6102b5936119f6565b15610cf85760405163313ce56760e01b815294859182905afa928315610361576102f693610a27916000916103345750611a99565b60405163313ce56760e01b815294929392859182905afa928315610361576103a6936109ee916000916103345750611a99565b60049392959150604051938480926370da2f6760e01b82525afa8015610361576004978a9561029e6102b593610cc396600091610d75575b5060170b8a1293505092935097610cae565b610d8c9150893d8b1161041c5761040e8183611905565b8e610d63565b610da99150863d881161041c5761040e8183611905565b8b610ca1565b610dc691508a3d8c11610466576104588183611905565b8a610c78565b610df991985061022497506001600160801b039550610c50925060a03d81116104b45761049b8183611905565b9a9299939750935090919050610c38565b60a060049160405192838092633fabe5a360e21b82525afa90811561036157600090600092610e52575b5061051557610e46610e109142611973565b11156105035785610c06565b9050610e6c915060a03d81116104b45761049b8183611905565b5050915087610e34565b34610119576020366003190112610119576020610eb4610e94611832565b6001600160a01b0316600090815260036020526040902060020154151590565b6040519015158152f35b3461011957600036600319011261011957604051806004548083526020809301809160046000527f8a35acfbc15ff81a39ae7d344fd709f28e8600b4aa8c65c6b64bfe7fe36bd19b9060005b86828210610f69578686610f2082880383611905565b604051928392818401908285525180915260408401929160005b828110610f4957505050500390f35b83516001600160a01b031685528695509381019392810192600101610f3a565b83546001600160a01b031685529093019260019283019201610f0a565b3461011957606036600319011261011957610f9f611832565b6024906001600160a01b0382358181169290839003610119576044356001600160801b039182821680920361011957610fd6611c7a565b8381169586156111b257851561116e576001600160a01b03821660009081526003602052604090206002015461113a576004549060c882101561110257680100000000000000008210156110ee577f75b132a593c4978c1b3e56e8ac484985fc3c6fc7164ac4540feb030ac59a5bbb604089898960028a8a6110818b6110628c60018101600455611886565b90919082549060031b9160018060a01b03809116831b921b1916179055565b60045491875194611091866118d3565b86865260208601928352888601938452876000526003602052886000209551166bffffffffffffffffffffffff60a01b865416178555600185019151166001600160801b03198254161790555191015582519182526020820152a1005b634e487b7160e01b60009081526041600452fd5b60649060116040519162461bcd60e51b83526020600484015282015270746f6f206d616e79206e7541737365747360781b6044820152fd5b606490600d6040519162461bcd60e51b8352602060048401528201526c185b1c9958591e481859191959609a1b6044820152fd5b606490601a6040519162461bcd60e51b8352602060048401528201527f696e76616c6964207072696365206665656420616464726573730000000000006044820152fd5b60649060176040519162461bcd60e51b8352602060048401528201527f696e76616c6964206e75617373657420616464726573730000000000000000006044820152fd5b346101195760203660031901126101195760606001600160a01b038061121a611832565b1660005260036020526040600020908154169060026001600160801b036001830154169101549060405192835260208301526040820152f35b3461011957600036600319011261011957600060045460c8811161168d5760008054909291906001600160a01b03165b81841061129557602083604051908152f35b90916112a084611886565b90546040516318160ddd60e01b81529160039190821b1c6001600160a01b0316602083600481845afa90811561036157600091611658575b60049350600052816020526040600020906020604051936112f8856118d3565b60018060a01b0384541694858152604060026001600160801b03600188015416968786850152015491015261132c8a611886565b905460405163313ce56760e01b815297889390928492911b1c6001600160a01b03165afa93841561036157600094611637575b50856115c1575b604051633fabe5a360e21b81529260a084600481845afa9384156103615760009060009460009160009761158d575b50906102246113a49242611973565b6040516309169eff60e21b815294602086600481865afa9586156103615760009661156c575b50604051630455b78f60e31b8152956020876004816001600160a01b0385165afa80156103615760049760009161154d575b5060170b861390816114e6575b509161029e611417936119f6565b61142081611aeb565b156114ac576020906040519485809263313ce56760e01b82525afa92831561036157611457936103a09160009161148d5750611a99565b60ff60129216820391821161031e5761031061147292611aaa565b810180911161031e576114859093611acb565b929190611283565b6114a6915060203d60201161035a5761034c8183611905565b8a6102ea565b6020906040939293519485809263313ce56760e01b82525afa928315610361576114e1936102f09160009161148d5750611a99565b611457565b6040516370da2f6760e01b81529760209250889182906001600160a01b03165afa9182156103615761029e6114179360049860009161152e575b5060170b8712919350611409565b611547915060203d60201161041c5761040e8183611905565b8e611520565b611566915060203d60201161041c5761040e8183611905565b8d6113fc565b61158691965060203d602011610466576104588183611905565b948b6113ca565b90965061022495506113a492506115b3915060a03d60a0116104b45761049b8183611905565b989297939450929050611395565b604051633fabe5a360e21b815260a0816004818a5afa90811561036157600090600092611612575b50610515576115fb610e109142611973565b116113665760405163d15f73b560e01b8152600490fd5b905061162d915060a03d60a0116104b45761049b8183611905565b505091508a6115e9565b61165191945060203d60201161035a5761034c8183611905565b928861135f565b90506020833d602011611685575b8161167360209383611905565b810103126101195760049251906112d8565b3d9150611666565b60405162461bcd60e51b815260206004820152601960248201527f746f6f206d616e79206e7541737365747320696e206c697374000000000000006044820152606490fd5b34610119576020366003190112610119576116eb611832565b6116f3611c7a565b6001600160a01b038116600090815260036020526040902060020154156117ff576001600160a01b039081166000818152600360205260409020600201546004546000199392919084810190811161031e5761174f8491611886565b90549060031b1c1684820182811161031e578161106261176e92611886565b600052600360205260026040600020015580600052600060026040822082815582600182015501556004549182156117e9577fb5c3bd787b070cfb84ba6afb620405d01603f2dff7019495776c0fa8be3c90959360209301906117d082611886565b909182549160031b1b19169055600455604051908152a1005b634e487b7160e01b600052603160045260246000fd5b60405162461bcd60e51b815260206004820152600b60248201526a1b9bdd081a5b881b1a5cdd60aa1b6044820152606490fd5b600435906001600160a01b038216820361011957565b608090600319011261011957600435906024356001600160a01b038116810361011957906044356001600160801b0381168103610119579060643590565b6004548110156118bd5760046000527f8a35acfbc15ff81a39ae7d344fd709f28e8600b4aa8c65c6b64bfe7fe36bd19b0190600090565b634e487b7160e01b600052603260045260246000fd5b6060810190811067ffffffffffffffff8211176118ef57604052565b634e487b7160e01b600052604160045260246000fd5b90601f8019910116810190811067ffffffffffffffff8211176118ef57604052565b519069ffffffffffffffffffff8216820361011957565b908160a09103126101195761195281611927565b91602082015191604081015191611970608060608401519301611927565b90565b9190820391821161031e57565b1561198757565b60405162461bcd60e51b815260206004820152600f60248201526e14dd185b19481c1c9a58d959995959608a1b6044820152606490fd5b9081602091031261011957516001600160a01b03811681036101195790565b9081602091031261011957518060170b81036101195790565b156119fd57565b60405162461bcd60e51b815260206004820152600f60248201526e1b5a5b8bdb585e081c995858da1959608a1b6044820152606490fd5b15611a3b57565b60405162461bcd60e51b815260206004820152601960248201527f416e7377657220676976656e206265666f726520726f756e64000000000000006044820152606490fd5b90816020910312610119575160ff811681036101195790565b60ff16604d811161031e57600a0a90565b604d811161031e57600a0a90565b8181029291811591840414171561031e57565b600019811461031e5760010190565b9081518110156118bd570160200190565b60408051633942720b60e11b815291600091908290849060049082906001600160a01b03165afa928315611c6f578293611bb3575b508051908082019082821067ffffffffffffffff831117611b9f57526003928382526208aa8960eb1b6020830152825b848110611b61575050505050600190565b6001600160f81b031980611b758385611ada565b511690611b828386611ada565b511603611b9757611b9290611acb565b611b50565b505050905090565b634e487b7160e01b84526041600452602484fd5b9092503d8083833e611bc58183611905565b8101906020908181840312611c6b57805167ffffffffffffffff91828211611c67570183601f82011215611c4f578051918211611c5357855193611c12601f8401601f1916850186611905565b828552838383010111611c4f5790849291835b828110611c39575050830101529138611b20565b8181018401518682018501528694508301611c25565b8480fd5b634e487b7160e01b85526041600452602485fd5b8580fd5b8380fd5b5051903d90823e3d90fd5b6001546001600160a01b0316330361087b57565b916000198284099282810292838086109503948086039514611d0357848311156101195782910981806000031680920460028082600302188083028203028083028203028083028203028083028203028083028203028092029003029360018380600003040190848311900302920304170290565b505080925015610119570490565b929190611d1f828286611c8e565b938215611d3e5709611d2d57565b906000198110156101195760010190565b634e487b7160e01b600052601260045260246000fdfea2646970667358221220be795ae28d022686099076dc0b33ded3482f0ae3aa2a5ad71be72fa4bd4a079a64736f6c63430008140033","linkReferences":{}},"methodIdentifiers":{"acceptOwnership()":"79ba5097","addNuAsset(address,address,uint128)":"280a74f6","changeSequencerUptimeFeedAddress(address)":"786d04c1","contains(address)":"5dbe47e8","getNuAssetList()":"39da2ce7","getPriceInEth(uint256,address,uint128,uint256)":"c4677076","getPriceInEthRoundUp(uint256,address,uint128,uint256)":"707a15b9","getTokenPerEth(uint256,address,uint128,uint256)":"dde645ae","getTokenPerEthRoundUp(uint256,address,uint128,uint256)":"74599fef","getTotalSynthValueEth()":"1a6719a5","nuAssetInfos(address)":"2623b25c","nuAssetList(uint256)":"fdf515b5","owner()":"8da5cb5b","pendingOwner()":"e30c3978","removeNuAsset(address)":"0f49b037","renounceOwnership()":"715018a6","transferOwnership(address)":"f2fde38b"},"id":92}