{"abi":[{"type":"constructor","inputs":[{"name":"_numaAddress","type":"address","internalType":"address"},{"name":"_tokenAddress","type":"address","internalType":"address"},{"name":"_decimals","type":"uint256","internalType":"uint256"},{"name":"_oracleAddress","type":"address","internalType":"address"}],"stateMutability":"nonpayable"},{"type":"function","name":"FEE_BASE_1000","inputs":[],"outputs":[{"name":"","type":"uint16","internalType":"uint16"}],"stateMutability":"view"},{"type":"function","name":"MIN","inputs":[],"outputs":[{"name":"","type":"uint256","internalType":"uint256"}],"stateMutability":"view"},{"type":"function","name":"acceptOwnership","inputs":[],"outputs":[],"stateMutability":"nonpayable"},{"type":"function","name":"buy","inputs":[{"name":"_inputAmount","type":"uint256","internalType":"uint256"},{"name":"_minNumaAmount","type":"uint256","internalType":"uint256"},{"name":"_receiver","type":"address","internalType":"address"}],"outputs":[{"name":"_numaOut","type":"uint256","internalType":"uint256"}],"stateMutability":"nonpayable"},{"type":"function","name":"buy_fee","inputs":[],"outputs":[{"name":"","type":"uint16","internalType":"uint16"}],"stateMutability":"view"},{"type":"function","name":"extractRewards","inputs":[],"outputs":[],"stateMutability":"nonpayable"},{"type":"function","name":"fees","inputs":[],"outputs":[{"name":"","type":"uint16","internalType":"uint16"}],"stateMutability":"view"},{"type":"function","name":"getBuyNuma","inputs":[{"name":"_amount","type":"uint256","internalType":"uint256"}],"outputs":[{"name":"","type":"uint256","internalType":"uint256"}],"stateMutability":"view"},{"type":"function","name":"getBuyNumaSimulateExtract","inputs":[{"name":"_amount","type":"uint256","internalType":"uint256"}],"outputs":[{"name":"","type":"uint256","internalType":"uint256"}],"stateMutability":"view"},{"type":"function","name":"getEthBalance","inputs":[],"outputs":[{"name":"","type":"uint256","internalType":"uint256"}],"stateMutability":"view"},{"type":"function","name":"getSellNuma","inputs":[{"name":"_amount","type":"uint256","internalType":"uint256"}],"outputs":[{"name":"","type":"uint256","internalType":"uint256"}],"stateMutability":"view"},{"type":"function","name":"getSellNumaSimulateExtract","inputs":[{"name":"_amount","type":"uint256","internalType":"uint256"}],"outputs":[{"name":"","type":"uint256","internalType":"uint256"}],"stateMutability":"view"},{"type":"function","name":"last_extracttimestamp","inputs":[],"outputs":[{"name":"","type":"uint256","internalType":"uint256"}],"stateMutability":"view"},{"type":"function","name":"last_lsttokenvalueWei","inputs":[],"outputs":[{"name":"","type":"uint256","internalType":"uint256"}],"stateMutability":"view"},{"type":"function","name":"lstToken","inputs":[],"outputs":[{"name":"","type":"address","internalType":"contract IERC20"}],"stateMutability":"view"},{"type":"function","name":"max_percent","inputs":[],"outputs":[{"name":"","type":"uint16","internalType":"uint16"}],"stateMutability":"view"},{"type":"function","name":"numa","inputs":[],"outputs":[{"name":"","type":"address","internalType":"contract NUMA"}],"stateMutability":"view"},{"type":"function","name":"oracle","inputs":[],"outputs":[{"name":"","type":"address","internalType":"contract IVaultOracleSingle"}],"stateMutability":"view"},{"type":"function","name":"owner","inputs":[],"outputs":[{"name":"","type":"address","internalType":"address"}],"stateMutability":"view"},{"type":"function","name":"pause","inputs":[],"outputs":[],"stateMutability":"nonpayable"},{"type":"function","name":"paused","inputs":[],"outputs":[{"name":"","type":"bool","internalType":"bool"}],"stateMutability":"view"},{"type":"function","name":"pendingOwner","inputs":[],"outputs":[{"name":"","type":"address","internalType":"address"}],"stateMutability":"view"},{"type":"function","name":"renounceOwnership","inputs":[],"outputs":[],"stateMutability":"nonpayable"},{"type":"function","name":"revokeWithdraw","inputs":[],"outputs":[],"stateMutability":"nonpayable"},{"type":"function","name":"rewardsValue","inputs":[],"outputs":[{"name":"","type":"uint256","internalType":"uint256"},{"name":"","type":"uint256","internalType":"uint256"}],"stateMutability":"view"},{"type":"function","name":"rwd_threshold","inputs":[],"outputs":[{"name":"","type":"uint256","internalType":"uint256"}],"stateMutability":"view"},{"type":"function","name":"sell","inputs":[{"name":"_numaAmount","type":"uint256","internalType":"uint256"},{"name":"_minTokenAmount","type":"uint256","internalType":"uint256"},{"name":"_receiver","type":"address","internalType":"address"}],"outputs":[{"name":"_tokenOut","type":"uint256","internalType":"uint256"}],"stateMutability":"nonpayable"},{"type":"function","name":"sell_fee","inputs":[],"outputs":[{"name":"","type":"uint16","internalType":"uint16"}],"stateMutability":"view"},{"type":"function","name":"setBuyFee","inputs":[{"name":"_fee","type":"uint16","internalType":"uint16"}],"outputs":[],"stateMutability":"nonpayable"},{"type":"function","name":"setFee","inputs":[{"name":"_fees","type":"uint16","internalType":"uint16"}],"outputs":[],"stateMutability":"nonpayable"},{"type":"function","name":"setFeeAddress","inputs":[{"name":"_address","type":"address","internalType":"address"},{"name":"_isFeeReceiver","type":"bool","internalType":"bool"}],"outputs":[],"stateMutability":"nonpayable"},{"type":"function","name":"setMaxPercent","inputs":[{"name":"_maxPercent","type":"uint16","internalType":"uint16"}],"outputs":[],"stateMutability":"nonpayable"},{"type":"function","name":"setOracle","inputs":[{"name":"_oracle","type":"address","internalType":"address"}],"outputs":[],"stateMutability":"nonpayable"},{"type":"function","name":"setRewardsThreshold","inputs":[{"name":"_threshold","type":"uint256","internalType":"uint256"}],"outputs":[],"stateMutability":"nonpayable"},{"type":"function","name":"setRwdAddress","inputs":[{"name":"_address","type":"address","internalType":"address"},{"name":"_isRwdReceiver","type":"bool","internalType":"bool"}],"outputs":[],"stateMutability":"nonpayable"},{"type":"function","name":"setSellFee","inputs":[{"name":"_fee","type":"uint16","internalType":"uint16"}],"outputs":[],"stateMutability":"nonpayable"},{"type":"function","name":"setVaultManager","inputs":[{"name":"_vaultManager","type":"address","internalType":"address"}],"outputs":[],"stateMutability":"nonpayable"},{"type":"function","name":"transferOwnership","inputs":[{"name":"newOwner","type":"address","internalType":"address"}],"outputs":[],"stateMutability":"nonpayable"},{"type":"function","name":"unpause","inputs":[],"outputs":[],"stateMutability":"nonpayable"},{"type":"function","name":"vaultManager","inputs":[],"outputs":[{"name":"","type":"address","internalType":"contract IVaultManagerOld"}],"stateMutability":"view"},{"type":"function","name":"withdrawToken","inputs":[{"name":"_tokenAddress","type":"address","internalType":"address"},{"name":"_amount","type":"uint256","internalType":"uint256"},{"name":"_receiver","type":"address","internalType":"address"}],"outputs":[],"stateMutability":"nonpayable"},{"type":"event","name":"AddedToRemovedSupply","inputs":[{"name":"_address","type":"address","indexed":false,"internalType":"address"}],"anonymous":false},{"type":"event","name":"Buy","inputs":[{"name":"received","type":"uint256","indexed":false,"internalType":"uint256"},{"name":"sent","type":"uint256","indexed":false,"internalType":"uint256"},{"name":"receiver","type":"address","indexed":false,"internalType":"address"}],"anonymous":false},{"type":"event","name":"BuyFeeUpdated","inputs":[{"name":"buyFee","type":"uint16","indexed":false,"internalType":"uint16"}],"anonymous":false},{"type":"event","name":"Fee","inputs":[{"name":"fee","type":"uint256","indexed":false,"internalType":"uint256"},{"name":"feeReceiver","type":"address","indexed":false,"internalType":"address"}],"anonymous":false},{"type":"event","name":"FeeAddressUpdated","inputs":[{"name":"feeAddress","type":"address","indexed":false,"internalType":"address"}],"anonymous":false},{"type":"event","name":"FeeUpdated","inputs":[{"name":"Fee","type":"uint16","indexed":false,"internalType":"uint16"}],"anonymous":false},{"type":"event","name":"MaxPercentUpdated","inputs":[{"name":"NewValue","type":"uint16","indexed":false,"internalType":"uint16"}],"anonymous":false},{"type":"event","name":"OwnershipTransferStarted","inputs":[{"name":"previousOwner","type":"address","indexed":true,"internalType":"address"},{"name":"newOwner","type":"address","indexed":true,"internalType":"address"}],"anonymous":false},{"type":"event","name":"OwnershipTransferred","inputs":[{"name":"previousOwner","type":"address","indexed":true,"internalType":"address"},{"name":"newOwner","type":"address","indexed":true,"internalType":"address"}],"anonymous":false},{"type":"event","name":"Paused","inputs":[{"name":"account","type":"address","indexed":false,"internalType":"address"}],"anonymous":false},{"type":"event","name":"RemovedFromRemoveSupply","inputs":[{"name":"_address","type":"address","indexed":false,"internalType":"address"}],"anonymous":false},{"type":"event","name":"RewardsExtracted","inputs":[{"name":"_rwd","type":"uint256","indexed":false,"internalType":"uint256"},{"name":"_currentvalueWei","type":"uint256","indexed":false,"internalType":"uint256"}],"anonymous":false},{"type":"event","name":"RwdAddressUpdated","inputs":[{"name":"rwdAddress","type":"address","indexed":false,"internalType":"address"}],"anonymous":false},{"type":"event","name":"Sell","inputs":[{"name":"sent","type":"uint256","indexed":false,"internalType":"uint256"},{"name":"received","type":"uint256","indexed":false,"internalType":"uint256"},{"name":"receiver","type":"address","indexed":false,"internalType":"address"}],"anonymous":false},{"type":"event","name":"SellFeeUpdated","inputs":[{"name":"sellFee","type":"uint16","indexed":false,"internalType":"uint16"}],"anonymous":false},{"type":"event","name":"SetOracle","inputs":[{"name":"oracle","type":"address","indexed":false,"internalType":"address"}],"anonymous":false},{"type":"event","name":"SetVaultManager","inputs":[{"name":"vaultManager","type":"address","indexed":false,"internalType":"address"}],"anonymous":false},{"type":"event","name":"StartDecay","inputs":[],"anonymous":false},{"type":"event","name":"ThresholdUpdated","inputs":[{"name":"newThreshold","type":"uint256","indexed":false,"internalType":"uint256"}],"anonymous":false},{"type":"event","name":"Unpaused","inputs":[{"name":"account","type":"address","indexed":false,"internalType":"address"}],"anonymous":false},{"type":"error","name":"AddressEmptyCode","inputs":[{"name":"target","type":"address","internalType":"address"}]},{"type":"error","name":"AddressInsufficientBalance","inputs":[{"name":"account","type":"address","internalType":"address"}]},{"type":"error","name":"EnforcedPause","inputs":[]},{"type":"error","name":"ExpectedPause","inputs":[]},{"type":"error","name":"FailedInnerCall","inputs":[]},{"type":"error","name":"OwnableInvalidOwner","inputs":[{"name":"owner","type":"address","internalType":"address"}]},{"type":"error","name":"OwnableUnauthorizedAccount","inputs":[{"name":"account","type":"address","internalType":"address"}]},{"type":"error","name":"ReentrancyGuardReentrantCall","inputs":[]},{"type":"error","name":"SafeERC20FailedOperation","inputs":[{"name":"token","type":"address","internalType":"address"}]}],"bytecode":{"object":"0x60e06040908082523462000262576080816200242b803803809162000025828562000267565b83398101031262000262576200003b81620002a1565b6020916200004b838201620002a1565b6200005d6060868401519301620002a1565b33156200024a57600180546001600160a01b03199081169091556000805433818416811783558951929692958995879594936001600160a01b039384929183167f8be0079c531659141344cd1fd0a4f28419497f9722a3daafe3b4186f6b6457e08c80a360016002558160ff199b8c600354169c8d6003556632000501db01db60b11b69ffff000000000000000160b01b6001900360045416176004558c600555600a5416600a551660805216809460065416176006551660a0528060c0524260085563c457fb3760e01b83526004830152815a91602492fa9182156200023f57809262000205575b857f62e78cea01bee320cd4e420270b5ea74000d11b0c9f74754ebdbfc544b05a2588660018787600955176003558251338152a1516121749081620002b78239608051818181610667015281816114d701526117dc015260a05181818161060501528181610d9b01528181611120015281816113b201528181611ccf0152611e23015260c0518181816102c7015281816103cf0152818161059f01528181610f500152818161115c015281816114270152818161191e0152611c5f0152f35b9091508382813d831162000237575b62000220818362000267565b810103126200023457505181600162000146565b80fd5b503d62000214565b8551903d90823e3d90fd5b8551631e4fbdf760e01b815260006004820152602490fd5b600080fd5b601f909101601f19168101906001600160401b038211908210176200028b57604052565b634e487b7160e01b600052604160045260246000fd5b51906001600160a01b0382168203620002625756fe6040608081526004908136101561001557600080fd5b600091823560e01c9081630bcc9298146119d9578163162b51fc146119b45781632ce47bd6146118e557816337a7f2b71461180b5781633ccdbb28146118925781633f4ba83a14611828578163509bb1d71461180b5781635992c23e146117c757816359a87bc1146113505781635c975abb1461132c57816362716c971461124957816370c47671146111c857816370ed0ada146110d9578163715018a614611073578163735f5ae614610fb85781637980544e14610f8f57816379a74ff714610f1757816379ba509714610e885781637adbf97314610e125781637d845be014610df35781637dc0d1d014610dca5781638092071814610d865781638456cb5914610d2b5781638a4adf2414610d025781638da5cb5b14610cda5781638e00555314610be65781639af1d35a14610bc15781639ff9c96f14610b9c578163abd545bf14610b77578163b02b605e14610b29578163b543503e14610a02578163bd1a2bdb1461098c578163c4d5d0dd14610965578163d04c698314610538578163d19a03cd14610519578163e064648a14610494578163e30c39781461046b578163e58613541461037f578163ea417ac51461027757508063f2fde38b146102075763f47bdc4d146101e657600080fd5b346102035781600319360112610203576020906008549051908152f35b5080fd5b823461027457602036600319011261027457610221611a65565b610229611f3f565b600180546001600160a01b0319166001600160a01b0392831690811790915582549091167f38d16b8cac22d99fc7c124b9cd0de2d3fa1faef420bfe791d8c362d765e227008380a380f35b80fd5b90503461037b5760209283600319360112610274576103048460095461029b611c33565b9060055410610373575b50600754865163077da91560e51b8152863587820190815260208101939093527f000000000000000000000000000000000000000000000000000000000000000060408401529384926001600160a01b03909216918391829160600190565b03915afa9182156103685791610334575b5061032c9061ffff6103e8935460b01c1690611ef3565b049051908152f35b90508381813d8311610361575b61034b8183611b55565b8101031261035c57516103e8610315565b600080fd5b503d610341565b8451903d90823e3d90fd5b9050386102a5565b8280fd5b90503461037b57602092836003193601126102745761040c846009546103a3611c33565b9060055410610463575b50600754865163ec71520360e01b8152863587820190815260208101939093527f000000000000000000000000000000000000000000000000000000000000000060408401529384926001600160a01b03909216918391829160600190565b03915afa9182156103685791610434575b5061032c9061ffff6103e8935460c01c1690611ef3565b90508381813d831161045c575b61044b8183611b55565b8101031261035c57516103e861041d565b503d610441565b9050386103ad565b50503461020357816003193601126102035760015490516001600160a01b039091168152602090f35b9190503461037b57602036600319011261037b5781359061ffff821690818303610515577f4a16d42a3539680f1e3f013d041bf529ba24e13392fef89aa39cefbc2fe070d9936020936104e5611f3f565b6104f36103e8851115611b8f565b815461ffff60b01b191660b09190911b61ffff60b01b1617905551908152a180f35b8480fd5b5050346102035781600319360112610203576020906005549051908152f35b838334610203576105d99261054c36611aaa565b9291909461055861209a565b61056061207c565b6103e89261056f848411611eb1565b610577611f06565b60018060a01b03928360075416906009548851809363077da91560e51b8252818060209e8f957f000000000000000000000000000000000000000000000000000000000000000090888b85016040919493926060820195825260208201520152565b03915afa91821561095b57849261092c575b5081156108f05787516370a0823160e01b815230848201527f000000000000000000000000000000000000000000000000000000000000000091908b816024818a87165afa9081156108e65790849187916108b5575b50106108725761ffff978761065c8a875460b01c1686611ef3565b049a8b1061084357867f000000000000000000000000000000000000000000000000000000000000000016803b1561083f578a5163079cc67960e41b815233878201908152602081018590529091889183919082908490829060400103925af18015610835578c92918891610818575b505091610726836106ff847f1cdb5ee3c47e1a706ac452b89698e5e3f2ff4f835ca72dde8936d0f4fcf37d819688611f6b565b8c5192835260208301939093526001600160a01b0390921660408201529081906060820190565b0390a18460035460081c169586610746575b8a8a8a600160025551908152f35b61077a610783937fe03ab3b024368507c6734889408dbb5eb5932148c7963ec2bd8d9e2cac54ae9499865460d01c16611ef3565b04958691611f6b565b8260035460081c1690813b15159081610809575b506107ce575b5050600354845192835260081c166001600160a01b0316602082015280604081010390a18380808080808080610738565b81908651828a820191636adbb12160e11b8352876024820152602481526107f481611b39565b51925af150610801611d89565b50868061079d565b60ff91505460a01c1689610797565b61082491929350611b0f565b610831578a90868e6106cc565b8580fd5b8b513d89823e3d90fd5b8680fd5b895162461bcd60e51b81528086018d9052600960248201526826b4b7102a37b5b2b760b91b6044820152606490fd5b885162461bcd60e51b81528085018c9052601d60248201527f6e6f7420656e6f756768206c697175696469747920696e207661756c740000006044820152606490fd5b8092508d8092503d83116108df575b6108ce8183611b55565b8101031261035c578390518d610641565b503d6108c4565b8a513d88823e3d90fd5b875162461bcd60e51b81528084018b905260166024820152750616d6f756e74206f6620746f6b656e206973203c3d360541b6044820152606490fd5b9091508981813d8311610954575b6109448183611b55565b8101031261035c5751908a6105eb565b503d61093a565b88513d86823e3d90fd5b82843461027457806003193601126102745750610980611c33565b82519182526020820152f35b9190503461037b577f8337d54c1ed19c145a8e7bf0b79dccf5f510140c8ffb1363298311143a3c106c916020916109c236611a7b565b92906109cc611f3f565b8154600161ff0160a01b0319166001600160a01b039190911690811793151560a81b60ff60a81b1693909317905551908152a180f35b83915034610203576020908160031936011261037b57610a20611a65565b610a28611f3f565b6001600160a01b031690610a3d821515611ad4565b8183856024600754846bffffffffffffffffffffffff60a01b8216176007558951948593849263652b9b4160e01b8452308985015216175afa908115610b1f578591610af2575b5015610ab657507ff936751e3ffe55eec34636f5166fff2a5714505f4a3aa0862829ddb1eb75f101929351908152a180f35b845162461bcd60e51b815290810183905260166024820152751b9bdd0818481c9959da5cdd195c9959081d985d5b1d60521b6044820152606490fd5b610b129150843d8611610b18575b610b0a8183611b55565b810190611b77565b86610a84565b503d610b00565b86513d87823e3d90fd5b90503461037b57602036600319011261037b577fadfa8ecb21b6962ebcd0adbd9ab985b7b4c5b5eb3b0dead683171565c7bfe171916020913590610b6b611f3f565b8160055551908152a180f35b8284346102745780600319360112610274575061ffff6020925460b01c169051908152f35b8284346102745780600319360112610274575061ffff6020925460e01c169051908152f35b8284346102745780600319360112610274575061ffff6020925460d01c169051908152f35b9190503461037b57602036600319011261037b5781359161ffff8084169384810361083157610c13611f3f565b82549180610c25818560c01c16611bcc565b168611159081610cc0575b5015610c7d5761ffff60d01b1990911660d09190911b61ffff60d01b16179055519081527fc8fcf8ee1425e7e60b8af83735e1eb516d5b9ef05bfd6eece552ebaeb7c75b4890602090a180f35b835162461bcd60e51b8152602081850152601760248201527f666565732061626f7665206275792f73656c6c206665650000000000000000006044820152606490fd5b9050610cd0818460b01c16611bcc565b1685111538610c30565b505034610203578160031936011261020357905490516001600160a01b039091168152602090f35b50503461020357816003193601126102035760075490516001600160a01b039091168152602090f35b50503461020357816003193601126102035760207f62e78cea01bee320cd4e420270b5ea74000d11b0c9f74754ebdbfc544b05a25891610d69611f3f565b610d7161207c565b600160ff19600354161760035551338152a180f35b505034610203578160031936011261020357517f00000000000000000000000000000000000000000000000000000000000000006001600160a01b03168152602090f35b50503461020357816003193601126102035760065490516001600160a01b039091168152602090f35b5050346102035781600319360112610203576020906009549051908152f35b5050346102035760203660031901126102035760207fd3b5d1e0ffaeff528910f3663f0adace7694ab8241d58e17a91351ced2e0803191610e51611a65565b610e59611f3f565b6001600160a01b031690610e6e821515611ad4565b600680546001600160a01b0319168317905551908152a180f35b9190503461037b578260031936011261037b57600154916001600160a01b03913383851603610f005750506bffffffffffffffffffffffff60a01b8092166001556000549133908316176000553391167f8be0079c531659141344cd1fd0a4f28419497f9722a3daafe3b4186f6b6457e0600080a380f35b60249250519063118cdaa760e01b82523390820152fd5b90503461037b576020928360031936011261027457600754600954845163ec71520360e01b8152843585820190815260208101929092527f0000000000000000000000000000000000000000000000000000000000000000604083015291869183916001600160a01b0316908290819060600161040c565b8334610274578060031936011261027457610fa8611f3f565b600160ff19600a541617600a5580f35b9190503461037b57602036600319011261037b5781359161ffff8084169384810361083157610fe5611f3f565b6103e88354928360e01c161161103c5761ffff60e01b1990911660e09190911b61ffff60e01b16179055519081527f83ee479829ef9b0d866490944117dd221067677157b2c328bafe7a2d6880c64390602090a180f35b835162461bcd60e51b81526020818501526011602482015270050657263656e742061626f76652031303607c1b6044820152606490fd5b833461027457806003193601126102745761108c611f3f565b600180546001600160a01b0319908116909155600080549182168155906001600160a01b03167f8be0079c531659141344cd1fd0a4f28419497f9722a3daafe3b4186f6b6457e08280a380f35b90503461037b578260031936011261037b576006546001600160a01b03916020916111079084161515611bf6565b60248451809481936370a0823160e01b835230908301527f0000000000000000000000000000000000000000000000000000000000000000165afa9283156111bd5792611188575b50611181602092600954907f0000000000000000000000000000000000000000000000000000000000000000916120bb565b9051908152f35b91506020823d82116111b5575b816111a260209383611b55565b8101031261035c5790519061118161114f565b3d9150611195565b8251903d90823e3d90fd5b9190503461037b57602036600319011261037b5781359061ffff821690818303610515577ff13f969a6b7ac7411490f3f326fdfee192132ec9966099e9982f49b6ef03035a93602093611219611f3f565b6112276103e8851115611b8f565b815461ffff60c01b191660c09190911b61ffff60c01b1617905551908152a180f35b839150346102035781600319360112610203576008546201518081018091116113195742106112d65761127a611c33565b9160055482111561129357509061129091611dc9565b80f35b606490602086519162461bcd60e51b8352820152601d60248201527f6e6f7420656e6f756768207265776172647320746f20636f6c6c6563740000006044820152fd5b606490602084519162461bcd60e51b8352820152601860248201527f72657761726420616c72656164792065787472616374656400000000000000006044820152fd5b634e487b7160e01b835260118252602483fd5b50503461020357816003193601126102035760209060ff6003541690519015158152f35b8383346102035761136036611aaa565b61136e95929594919461209a565b61137661207c565b6103e891611385838811611eb1565b61138d611f06565b84516370a0823160e01b8152308582015260209790946001600160a01b0393602492907f0000000000000000000000000000000000000000000000000000000000000000908b8986818a86165afa9889156108e6578699611798575b50876113fe61ffff9a8b875460e01c16611ef3565b04831161175f576007546009548b5163ec71520360e01b815286810186815260208101929092527f00000000000000000000000000000000000000000000000000000000000000006040830152918e9183918b16908290819060600103915afa908115610835578791611732575b5080156116f6578a516323b872dd60e01b8e82015233878201523060448201526064808201869052815260a0810167ffffffffffffffff8111828210176116e457916114bf6114cc928c948f5286611fa7565b8b875460c01c1690611ef3565b049a8b106116b757867f000000000000000000000000000000000000000000000000000000000000000016803b1561083f578a516340c10f1960e01b81526001600160a01b038316868201908152602081018e90529091889183919082908490829060400103925af1801561083557908c929161167c575b508a51918252602082018490526001600160a01b031660408201527ff7735c8cb2a65788ca663fc8415b7c6a66cd6847d58346d8334e8d52a599d3df9080606081015b0390a18560035460081c1696876115a7575b8b8b8b600160025551908152f35b6115db6115e4937fe03ab3b024368507c6734889408dbb5eb5932148c7963ec2bd8d9e2cac54ae949a865460d01c16611ef3565b04968791611f6b565b8360035460081c1690813b1515908161166d575b50611634575b5050600354855193845260081c919091166001600160a01b031660208301525080604081010390a1838080808080808080611599565b82918288518b810192636adbb12160e11b84528881830152815261165781611b39565b51925af150611664611d89565b508680806115fe565b60ff91505460a01c168a6115f8565b916115878592986116ad7ff7735c8cb2a65788ca663fc8415b7c6a66cd6847d58346d8334e8d52a599d3df95611b0f565b9892505091611544565b895162461bcd60e51b81528085018d9052600881870152674d696e204e554d4160c01b6044820152606490fd5b634e487b7160e01b8952604187528789fd5b50895162461bcd60e51b81528085018d9052601681870152750616d6f756e74206f66206e756d61206973203c3d20360541b6044820152606490fd5b90508c81813d8311611758575b6117498183611b55565b8101031261083f57518d61146c565b503d61173f565b895162461bcd60e51b81528085018d9052601481870152730daeae6e840e8e4c2c8ca40eadcc8cae440dac2f60631b6044820152606490fd5b9098508b81813d83116117c0575b6117b08183611b55565b810103126108315751978c6113e9565b503d6117a6565b505034610203578160031936011261020357517f00000000000000000000000000000000000000000000000000000000000000006001600160a01b03168152602090f35b505034610203578160031936011261020357602090516103e88152f35b90503461037b578260031936011261037b57611842611f3f565b6003549060ff821615611884575060ff1916600355513381527f5db9ee0a495bf2e6ff9c91a7834c1ba4fdd244a5e8aa4e537bd38aeae4b073aa90602090a180f35b8251638dfc202b60e01b8152fd5b8334610274576060366003190112610274576118ac611a65565b6001600160a01b039060443582811681036118e1576118c9611f3f565b60ff600a54166118e157611290926024359216611f6b565b8380fd5b90503461037b576020928360031936011261027457600754600954845163077da91560e51b8152843585820190815260208101929092527f0000000000000000000000000000000000000000000000000000000000000000604083015291869183916001600160a01b0316908290819060600103915afa918215610368578092611982575b505061032c9061ffff6103e8935460b01c1690611ef3565b9091508482813d83116119ad575b61199a8183611b55565b810103126102745750518161ffff61196a565b503d611990565b8284346102745780600319360112610274575061ffff6020925460c01c169051908152f35b9190503461037b577f446e39bcf1b47cfadfaa23442cb4b34682cfe6bd9220da084894e3b1f834e4f391602091611a0f36611a7b565b611a1a939193611f3f565b60038054610100600160a81b031916600886901b610100600160a81b0316179055815460ff60a01b191690151560a01b60ff60a01b16179055516001600160a01b039091168152a180f35b600435906001600160a01b038216820361035c57565b604090600319011261035c576004356001600160a01b038116810361035c5790602435801515810361035c5790565b606090600319011261035c5760043590602435906044356001600160a01b038116810361035c5790565b15611adb57565b60405162461bcd60e51b815260206004820152600c60248201526b7a65726f206164647265737360a01b6044820152606490fd5b67ffffffffffffffff8111611b2357604052565b634e487b7160e01b600052604160045260246000fd5b6060810190811067ffffffffffffffff821117611b2357604052565b90601f8019910116810190811067ffffffffffffffff821117611b2357604052565b9081602091031261035c5751801515810361035c5790565b15611b9657565b60405162461bcd60e51b815260206004820152600e60248201526d06665652061626f766520313030360941b6044820152606490fd5b9061ffff8092166103e803918211611be057565b634e487b7160e01b600052601160045260246000fd5b15611bfd57565b60405162461bcd60e51b815260206004820152600e60248201526d1bdc9858db19481b9bdd081cd95d60921b6044820152606490fd5b6006546001600160a01b039081169190611c4e831515611bf6565b604051809363c457fb3760e01b82527f0000000000000000000000000000000000000000000000000000000000000000600483015281602460209384935afa938415611d4557600094611d5a575b5060095480851115611d5157840391848311611be05781602491604051928380926370a0823160e01b82523060048301527f0000000000000000000000000000000000000000000000000000000000000000165afa908115611d45578592600092611d12575b505091611d0e926120bb565b9190565b90809350813d8311611d3e575b611d298183611b55565b810103126102745750518390611d0e38611d02565b503d611d1f565b6040513d6000823e3d90fd5b50505060009190565b90938482813d8311611d82575b611d718183611b55565b810103126102745750519238611c9c565b503d611d67565b3d15611dc4573d9067ffffffffffffffff8211611b235760405191611db8601f8201601f191660200184611b55565b82523d6000602084013e565b606090565b4260085560098290556004547fbf970c7ed9e1c6221e52889a68f5737de60b7af7840158b7c2f29fdfc8c7e55d92604092916001600160a01b039081168381611e1d575b50505082519182526020820152a1565b611e47917f0000000000000000000000000000000000000000000000000000000000000000611f6b565b60045490811690813b15159081611ea3575b50611e66575b8083611e0d565b600080918551826020820191636adbb12160e11b835287602482015260248152611e8f81611b39565b51925af150611e9c611d89565b5038611e5f565b60ff915060a81c1638611e59565b15611eb857565b60405162461bcd60e51b815260206004820152601360248201527236bab9ba103a3930b2329037bb32b91036b4b760691b6044820152606490fd5b81810292918115918404141715611be057565b600854620151808101809111611be057421015611f1f57565b611f27611c33565b6005548211611f34575050565b611f3d91611dc9565b565b6000546001600160a01b03163303611f5357565b60405163118cdaa760e01b8152336004820152602490fd5b60405163a9059cbb60e01b60208201526001600160a01b03929092166024830152604480830193909352918152611f3d91611fa7606483611b55565b600080611fd09260018060a01b03169360208151910182865af1611fc9611d89565b9083612019565b8051908115159182611ffe575b5050611fe65750565b60249060405190635274afe760e01b82526004820152fd5b6120119250602080918301019101611b77565b153880611fdd565b90612040575080511561202e57805190602001fd5b604051630a12f52160e11b8152600490fd5b81511580612073575b612051575090565b604051639996b31560e01b81526001600160a01b039091166004820152602490fd5b50803b15612049565b60ff6003541661208857565b60405163d93c066560e01b8152600490fd5b60028054146120a95760028055565b604051633ee5aeb560e01b8152600490fd5b916000198284099282810292838086109503948086039514612130578483111561035c5782910981806000031680920460028082600302188083028203028083028203028083028203028083028203028083028203028092029003029360018380600003040190848311900302920304170290565b50508092501561035c57049056fea264697066735822122023bfe20e3908052b0e2d6d4212f8b2159f5f74a574e74b878a4aaac4ebb2c27364736f6c63430008140033","linkReferences":{}},"methodIdentifiers":{"FEE_BASE_1000()":"509bb1d7","MIN()":"37a7f2b7","acceptOwnership()":"79ba5097","buy(uint256,uint256,address)":"59a87bc1","buy_fee()":"162b51fc","extractRewards()":"62716c97","fees()":"9af1d35a","getBuyNuma(uint256)":"79a74ff7","getBuyNumaSimulateExtract(uint256)":"e5861354","getEthBalance()":"70ed0ada","getSellNuma(uint256)":"2ce47bd6","getSellNumaSimulateExtract(uint256)":"ea417ac5","last_extracttimestamp()":"f47bdc4d","last_lsttokenvalueWei()":"7d845be0","lstToken()":"80920718","max_percent()":"9ff9c96f","numa()":"5992c23e","oracle()":"7dc0d1d0","owner()":"8da5cb5b","pause()":"8456cb59","paused()":"5c975abb","pendingOwner()":"e30c3978","renounceOwnership()":"715018a6","revokeWithdraw()":"7980544e","rewardsValue()":"c4d5d0dd","rwd_threshold()":"d19a03cd","sell(uint256,uint256,address)":"d04c6983","sell_fee()":"abd545bf","setBuyFee(uint16)":"70c47671","setFee(uint16)":"8e005553","setFeeAddress(address,bool)":"0bcc9298","setMaxPercent(uint16)":"735f5ae6","setOracle(address)":"7adbf973","setRewardsThreshold(uint256)":"b02b605e","setRwdAddress(address,bool)":"bd1a2bdb","setSellFee(uint16)":"e064648a","setVaultManager(address)":"b543503e","transferOwnership(address)":"f2fde38b","unpause()":"3f4ba83a","vaultManager()":"8a4adf24","withdrawToken(address,uint256,address)":"3ccdbb28"},"id":90}