{"abi":[{"type":"constructor","inputs":[{"name":"_stakingToken","type":"address","internalType":"address"},{"name":"_rewardToken","type":"address","internalType":"address"}],"stateMutability":"nonpayable"},{"type":"function","name":"balanceOf","inputs":[{"name":"","type":"address","internalType":"address"}],"outputs":[{"name":"","type":"uint256","internalType":"uint256"}],"stateMutability":"view"},{"type":"function","name":"duration","inputs":[],"outputs":[{"name":"","type":"uint256","internalType":"uint256"}],"stateMutability":"view"},{"type":"function","name":"earned","inputs":[{"name":"_account","type":"address","internalType":"address"}],"outputs":[{"name":"","type":"uint256","internalType":"uint256"}],"stateMutability":"view"},{"type":"function","name":"finishAt","inputs":[],"outputs":[{"name":"","type":"uint256","internalType":"uint256"}],"stateMutability":"view"},{"type":"function","name":"getReward","inputs":[],"outputs":[],"stateMutability":"nonpayable"},{"type":"function","name":"lastTimeRewardApplicable","inputs":[],"outputs":[{"name":"","type":"uint256","internalType":"uint256"}],"stateMutability":"view"},{"type":"function","name":"notifyRewardAmount","inputs":[{"name":"_amount","type":"uint256","internalType":"uint256"}],"outputs":[],"stateMutability":"nonpayable"},{"type":"function","name":"owner","inputs":[],"outputs":[{"name":"","type":"address","internalType":"address"}],"stateMutability":"view"},{"type":"function","name":"rewardPerToken","inputs":[],"outputs":[{"name":"","type":"uint256","internalType":"uint256"}],"stateMutability":"view"},{"type":"function","name":"rewardPerTokenStored","inputs":[],"outputs":[{"name":"","type":"uint256","internalType":"uint256"}],"stateMutability":"view"},{"type":"function","name":"rewardRate","inputs":[],"outputs":[{"name":"","type":"uint256","internalType":"uint256"}],"stateMutability":"view"},{"type":"function","name":"rewards","inputs":[{"name":"","type":"address","internalType":"address"}],"outputs":[{"name":"","type":"uint256","internalType":"uint256"}],"stateMutability":"view"},{"type":"function","name":"rewardsToken","inputs":[],"outputs":[{"name":"","type":"address","internalType":"contract IERC20"}],"stateMutability":"view"},{"type":"function","name":"setRewardsDuration","inputs":[{"name":"_duration","type":"uint256","internalType":"uint256"}],"outputs":[],"stateMutability":"nonpayable"},{"type":"function","name":"stake","inputs":[{"name":"_amount","type":"uint256","internalType":"uint256"}],"outputs":[],"stateMutability":"nonpayable"},{"type":"function","name":"stakingToken","inputs":[],"outputs":[{"name":"","type":"address","internalType":"contract IERC20"}],"stateMutability":"view"},{"type":"function","name":"totalSupply","inputs":[],"outputs":[{"name":"","type":"uint256","internalType":"uint256"}],"stateMutability":"view"},{"type":"function","name":"updatedAt","inputs":[],"outputs":[{"name":"","type":"uint256","internalType":"uint256"}],"stateMutability":"view"},{"type":"function","name":"userRewardPerTokenPaid","inputs":[{"name":"","type":"address","internalType":"address"}],"outputs":[{"name":"","type":"uint256","internalType":"uint256"}],"stateMutability":"view"},{"type":"function","name":"withdraw","inputs":[{"name":"_amount","type":"uint256","internalType":"uint256"}],"outputs":[],"stateMutability":"nonpayable"}],"bytecode":{"object":"0x60c0346100b357601f610c2638819003918201601f19168301916001600160401b038311848410176100b85780849260409485528339810103126100b357610052602061004b836100ce565b92016100ce565b600080546001600160a01b031916331790556001600160a01b039182166080521660a052604051610b4390816100e3823960805181818161026e015281816103ff01526107ea015260a051818181610135015281816104fa015261061f0152f35b600080fd5b634e487b7160e01b600052604160045260246000fd5b51906001600160a01b03821682036100b35756fe6040608081526004908136101561001557600080fd5b600091823560e01c9081628cc262146108e65781630700037d146108ac5781630fb5a6b41461088d57816318160ddd1461086e5781632e1a7d4d146107525781633c6b16ab1461058b578382633d18b912146104865750816367d3b4881461046857816370a082311461042e57816372f702f3146103ea5781637519ab50146103cb5781637b0a47ee146103ac57816380faa57d1461038f5781638b876347146103555781638da5cb5b1461032d578163a694fc3a14610207578163cc1a378f1461018757508063cd3daf9d14610164578063d1af0c7d146101215763df136d651461010057600080fd5b3461011d578160031936011261011d576020906007549051908152f35b5080fd5b503461011d578160031936011261011d57517f00000000000000000000000000000000000000000000000000000000000000006001600160a01b03168152602090f35b503461011d578160031936011261011d5760209061018061098f565b9051908152f35b91905034610203576020366003190112610203576101af60018060a01b038454163314610ad0565b81544211156101c057503560035580f35b906020606492519162461bcd60e51b8352820152601c60248201527f726577617264206475726174696f6e206e6f742066696e6973686564000000006044820152fd5b8280fd5b905034610203576020806003193601126103295781359161022661098f565b60075561023161091a565b60055533610305575b6102458315156109ec565b83516323b872dd60e01b81523391810191909152306024820152604481018390528181606481887f00000000000000000000000000000000000000000000000000000000000000006001600160a01b03165af180156102fb57916002916102c895936102ce575b503386525283206102be828254610982565b9055600154610982565b60015580f35b6102ed90823d84116102f4575b6102e58183610a25565b810190610a5d565b50386102ac565b503d6102db565b84513d87823e3d90fd5b61030e33610a7a565b3386526009835284862055600754600883528486205561023a565b8380fd5b50503461011d578160031936011261011d57905490516001600160a01b039091168152602090f35b90503461020357602036600319011261020357356001600160a01b0381169081900361020357828291602094526008845220549051908152f35b50503461011d578160031936011261011d5760209061018061091a565b50503461011d578160031936011261011d576020906006549051908152f35b50503461011d578160031936011261011d576020906005549051908152f35b50503461011d578160031936011261011d57517f00000000000000000000000000000000000000000000000000000000000000006001600160a01b03168152602090f35b90503461020357602036600319011261020357356001600160a01b0381169081900361020357828291602094526002845220549051908152f35b90503461020357826003193601126102035760209250549051908152f35b929150346105875782600319360112610587576104a161098f565b6007556104ac61091a565b60055533610561575b338352600960205281832090815490816104cd578480f35b93909155815163a9059cbb60e01b81523393810193845260208481019290925292839081906040010381867f00000000000000000000000000000000000000000000000000000000000000006001600160a01b03165af1908115610558575061053a575b80808084938480f35b6105519060203d81116102f4576102e58183610a25565b5038610531565b513d84823e3d90fd5b61056a33610a7a565b3384526009602052828420556007546008602052828420556104b5565b5050fd5b91905034610203576020806003193601126103295783546001600160a01b0392908435906105bc9085163314610ad0565b6105c461098f565b6007556105cf61091a565b600555845442811161071d57506003546105e891610962565b6006555b6006549283156106e85760249083610607600354809761094f565b918451938480926370a0823160e01b8252308b8301527f0000000000000000000000000000000000000000000000000000000000000000165afa9182156106de5787926106ab575b501161066a5750506106619042610982565b90554260055580f35b5162461bcd60e51b81529283015250601760248201527f72657761726420616d6f756e74203e2062616c616e63650000000000000000006044820152606490fd5b9091508381813d83116106d7575b6106c38183610a25565b810103126106d35751903861064f565b8680fd5b503d6106b9565b83513d89823e3d90fd5b815162461bcd60e51b8152808601849052600f60248201526e07265776172642072617465203d203608c1b6044820152606490fd5b61074a9161073b61073261074193429061092c565b6006549061094f565b90610982565b60035490610962565b6006556105ec565b90503461020357602091826003193601126103295782826107e593359061077761098f565b60075561078261091a565b6005553361084a575b6107968215156109ec565b338752600283528387206107ab83825461092c565b90556107b98260015461092c565b600155835163a9059cbb60e01b8152339181019182526020820192909252909384918291604090910190565b0381877f00000000000000000000000000000000000000000000000000000000000000006001600160a01b03165af19081156108415750610824578280f35b8161083a92903d106102f4576102e58183610a25565b5038808280f35b513d85823e3d90fd5b61085333610a7a565b3388526009845284882055600754600884528488205561078b565b50503461011d578160031936011261011d576020906001549051908152f35b50503461011d578160031936011261011d576020906003549051908152f35b90503461020357602036600319011261020357356001600160a01b0381169081900361020357828291602094526009845220549051908152f35b9050346102035760203660031901126102035735916001600160a01b03831683036109175750610180602092610a7a565b80fd5b6004544281116109275790565b504290565b9190820391821161093957565b634e487b7160e01b600052601160045260246000fd5b8181029291811591840414171561093957565b811561096c570490565b634e487b7160e01b600052601260045260246000fd5b9190820180921161093957565b60015480156109e5576007546109bb6006546109b56109ac61091a565b6005549061092c565b9061094f565b670de0b6b3a764000090818102918183041490151715610939576109e29261073b91610962565b90565b5060075490565b156109f357565b60405162461bcd60e51b815260206004820152600a6024820152690616d6f756e74203d20360b41b6044820152606490fd5b90601f8019910116810190811067ffffffffffffffff821117610a4757604052565b634e487b7160e01b600052604160045260246000fd5b90816020910312610a7557518015158103610a755790565b600080fd5b6109e29060018060a01b0316604060008281526002602052670de0b6b3a7640000610abf838320546109b5610aad61098f565b8786526008602052868620549061092c565b049281526009602052205490610982565b15610ad757565b60405162461bcd60e51b815260206004820152600e60248201526d1b9bdd08185d5d1a1bdc9a5e995960921b6044820152606490fdfea264697066735822122069893ccd55894497c91e988576dd5082dd5d7f5e0788882fc632cfca2df954cf64736f6c63430008140033","linkReferences":{}},"methodIdentifiers":{"balanceOf(address)":"70a08231","duration()":"0fb5a6b4","earned(address)":"008cc262","finishAt()":"67d3b488","getReward()":"3d18b912","lastTimeRewardApplicable()":"80faa57d","notifyRewardAmount(uint256)":"3c6b16ab","owner()":"8da5cb5b","rewardPerToken()":"cd3daf9d","rewardPerTokenStored()":"df136d65","rewardRate()":"7b0a47ee","rewards(address)":"0700037d","rewardsToken()":"d1af0c7d","setRewardsDuration(uint256)":"cc1a378f","stake(uint256)":"a694fc3a","stakingToken()":"72f702f3","totalSupply()":"18160ddd","updatedAt()":"7519ab50","userRewardPerTokenPaid(address)":"8b876347","withdraw(uint256)":"2e1a7d4d"},"id":10}